{
	"contracts/Kobis.sol": {
		"Kosbis": {
			"abi": [
				{
					"inputs": [
						{
							"internalType": "uint256",
							"name": "",
							"type": "uint256"
						},
						{
							"internalType": "uint256",
							"name": "",
							"type": "uint256"
						}
					],
					"name": "Comment",
					"outputs": [
						{
							"internalType": "address payable",
							"name": "author",
							"type": "address"
						},
						{
							"internalType": "uint256",
							"name": "comId",
							"type": "uint256"
						},
						{
							"internalType": "uint256",
							"name": "postId",
							"type": "uint256"
						},
						{
							"internalType": "string",
							"name": "post",
							"type": "string"
						},
						{
							"internalType": "uint256",
							"name": "time",
							"type": "uint256"
						},
						{
							"components": [
								{
									"internalType": "string",
									"name": "fileIpfs",
									"type": "string"
								},
								{
									"internalType": "string",
									"name": "fileType",
									"type": "string"
								}
							],
							"internalType": "struct Kosbis.fileContent",
							"name": "file",
							"type": "tuple"
						}
					],
					"stateMutability": "view",
					"type": "function"
				},
				{
					"inputs": [
						{
							"internalType": "uint256",
							"name": "",
							"type": "uint256"
						},
						{
							"internalType": "uint256",
							"name": "",
							"type": "uint256"
						}
					],
					"name": "Post",
					"outputs": [
						{
							"internalType": "string",
							"name": "name",
							"type": "string"
						},
						{
							"internalType": "string",
							"name": "post",
							"type": "string"
						},
						{
							"internalType": "uint256",
							"name": "time",
							"type": "uint256"
						},
						{
							"internalType": "bool",
							"name": "hideIdentity",
							"type": "bool"
						},
						{
							"internalType": "uint256",
							"name": "comNum",
							"type": "uint256"
						},
						{
							"internalType": "address",
							"name": "author",
							"type": "address"
						},
						{
							"internalType": "uint256",
							"name": "community",
							"type": "uint256"
						},
						{
							"components": [
								{
									"internalType": "string",
									"name": "fileIpfs",
									"type": "string"
								},
								{
									"internalType": "string",
									"name": "fileType",
									"type": "string"
								}
							],
							"internalType": "struct Kosbis.fileContent",
							"name": "file",
							"type": "tuple"
						}
					],
					"stateMutability": "view",
					"type": "function"
				},
				{
					"inputs": [
						{
							"internalType": "address",
							"name": "",
							"type": "address"
						}
					],
					"name": "User",
					"outputs": [
						{
							"internalType": "address payable",
							"name": "addr",
							"type": "address"
						},
						{
							"internalType": "string",
							"name": "name",
							"type": "string"
						},
						{
							"internalType": "string",
							"name": "bio",
							"type": "string"
						},
						{
							"internalType": "string",
							"name": "img",
							"type": "string"
						},
						{
							"internalType": "uint256",
							"name": "followersNum",
							"type": "uint256"
						},
						{
							"internalType": "uint256",
							"name": "balance",
							"type": "uint256"
						},
						{
							"internalType": "uint256",
							"name": "postNum",
							"type": "uint256"
						},
						{
							"internalType": "bool",
							"name": "verfied",
							"type": "bool"
						},
						{
							"internalType": "uint256",
							"name": "communityNum",
							"type": "uint256"
						}
					],
					"stateMutability": "view",
					"type": "function"
				},
				{
					"inputs": [
						{
							"internalType": "uint256",
							"name": "",
							"type": "uint256"
						}
					],
					"name": "communityProfile",
					"outputs": [
						{
							"internalType": "string",
							"name": "name",
							"type": "string"
						},
						{
							"internalType": "uint256",
							"name": "uid",
							"type": "uint256"
						},
						{
							"internalType": "address payable",
							"name": "admin",
							"type": "address"
						},
						{
							"internalType": "uint256",
							"name": "membersNum",
							"type": "uint256"
						},
						{
							"internalType": "uint256",
							"name": "adPrice",
							"type": "uint256"
						},
						{
							"internalType": "uint256",
							"name": "postNum",
							"type": "uint256"
						}
					],
					"stateMutability": "view",
					"type": "function"
				},
				{
					"inputs": [
						{
							"internalType": "uint256",
							"name": "comId",
							"type": "uint256"
						},
						{
							"internalType": "uint256",
							"name": "postId",
							"type": "uint256"
						},
						{
							"internalType": "string",
							"name": "text",
							"type": "string"
						},
						{
							"internalType": "string",
							"name": "fileIpfs",
							"type": "string"
						},
						{
							"internalType": "string",
							"name": "fileType",
							"type": "string"
						}
					],
					"name": "createComment",
					"outputs": [],
					"stateMutability": "nonpayable",
					"type": "function"
				},
				{
					"inputs": [
						{
							"internalType": "string",
							"name": "name",
							"type": "string"
						}
					],
					"name": "createCommunity",
					"outputs": [],
					"stateMutability": "nonpayable",
					"type": "function"
				},
				{
					"inputs": [
						{
							"internalType": "string",
							"name": "name",
							"type": "string"
						},
						{
							"internalType": "string",
							"name": "post",
							"type": "string"
						},
						{
							"internalType": "bool",
							"name": "hideIdentity",
							"type": "bool"
						},
						{
							"internalType": "uint256",
							"name": "community",
							"type": "uint256"
						},
						{
							"internalType": "string",
							"name": "fileIpfs",
							"type": "string"
						},
						{
							"internalType": "string",
							"name": "fileType",
							"type": "string"
						}
					],
					"name": "createPost",
					"outputs": [],
					"stateMutability": "nonpayable",
					"type": "function"
				},
				{
					"inputs": [
						{
							"internalType": "string",
							"name": "name",
							"type": "string"
						},
						{
							"internalType": "string",
							"name": "bio",
							"type": "string"
						},
						{
							"internalType": "string",
							"name": "img",
							"type": "string"
						},
						{
							"internalType": "uint256[]",
							"name": "communities",
							"type": "uint256[]"
						}
					],
					"name": "createUser",
					"outputs": [],
					"stateMutability": "nonpayable",
					"type": "function"
				},
				{
					"inputs": [
						{
							"internalType": "uint256",
							"name": "comId",
							"type": "uint256"
						}
					],
					"name": "getComPost",
					"outputs": [
						{
							"components": [
								{
									"internalType": "string",
									"name": "name",
									"type": "string"
								},
								{
									"internalType": "string",
									"name": "post",
									"type": "string"
								},
								{
									"internalType": "uint256",
									"name": "time",
									"type": "uint256"
								},
								{
									"internalType": "bool",
									"name": "hideIdentity",
									"type": "bool"
								},
								{
									"internalType": "uint256",
									"name": "comNum",
									"type": "uint256"
								},
								{
									"internalType": "address",
									"name": "author",
									"type": "address"
								},
								{
									"internalType": "uint256",
									"name": "community",
									"type": "uint256"
								},
								{
									"components": [
										{
											"internalType": "string",
											"name": "fileIpfs",
											"type": "string"
										},
										{
											"internalType": "string",
											"name": "fileType",
											"type": "string"
										}
									],
									"internalType": "struct Kosbis.fileContent",
									"name": "file",
									"type": "tuple"
								},
								{
									"internalType": "uint256[]",
									"name": "comments",
									"type": "uint256[]"
								}
							],
							"internalType": "struct Kosbis.PostContent[]",
							"name": "",
							"type": "tuple[]"
						}
					],
					"stateMutability": "view",
					"type": "function"
				},
				{
					"inputs": [
						{
							"internalType": "uint256",
							"name": "comId",
							"type": "uint256"
						}
					],
					"name": "getPostComment",
					"outputs": [
						{
							"components": [
								{
									"internalType": "address payable",
									"name": "author",
									"type": "address"
								},
								{
									"internalType": "uint256",
									"name": "comId",
									"type": "uint256"
								},
								{
									"internalType": "uint256",
									"name": "postId",
									"type": "uint256"
								},
								{
									"internalType": "string",
									"name": "post",
									"type": "string"
								},
								{
									"internalType": "uint256",
									"name": "time",
									"type": "uint256"
								},
								{
									"components": [
										{
											"internalType": "string",
											"name": "fileIpfs",
											"type": "string"
										},
										{
											"internalType": "string",
											"name": "fileType",
											"type": "string"
										}
									],
									"internalType": "struct Kosbis.fileContent",
									"name": "file",
									"type": "tuple"
								}
							],
							"internalType": "struct Kosbis.CommentContent[]",
							"name": "",
							"type": "tuple[]"
						}
					],
					"stateMutability": "view",
					"type": "function"
				},
				{
					"inputs": [
						{
							"internalType": "address",
							"name": "addr",
							"type": "address"
						}
					],
					"name": "getUserProfile",
					"outputs": [
						{
							"components": [
								{
									"internalType": "address payable",
									"name": "addr",
									"type": "address"
								},
								{
									"internalType": "string",
									"name": "name",
									"type": "string"
								},
								{
									"internalType": "string",
									"name": "bio",
									"type": "string"
								},
								{
									"internalType": "string",
									"name": "img",
									"type": "string"
								},
								{
									"internalType": "address[]",
									"name": "followers",
									"type": "address[]"
								},
								{
									"internalType": "uint256",
									"name": "followersNum",
									"type": "uint256"
								},
								{
									"internalType": "uint256",
									"name": "balance",
									"type": "uint256"
								},
								{
									"internalType": "uint256",
									"name": "postNum",
									"type": "uint256"
								},
								{
									"internalType": "bool",
									"name": "verfied",
									"type": "bool"
								},
								{
									"internalType": "uint256[]",
									"name": "communities",
									"type": "uint256[]"
								},
								{
									"internalType": "uint256",
									"name": "communityNum",
									"type": "uint256"
								}
							],
							"internalType": "struct Kosbis.Profile",
							"name": "",
							"type": "tuple"
						}
					],
					"stateMutability": "view",
					"type": "function"
				},
				{
					"inputs": [
						{
							"internalType": "uint256",
							"name": "comId",
							"type": "uint256"
						}
					],
					"name": "joinCommuinty",
					"outputs": [],
					"stateMutability": "nonpayable",
					"type": "function"
				}
			],
			"devdoc": {
				"kind": "dev",
				"methods": {},
				"title": "Kosbis",
				"version": 1
			},
			"evm": {
				"assembly": "    /* \"contracts/Kobis.sol\":95:5016  contract Kosbis {... */\n  mstore(0x40, 0x80)\n  callvalue\n  dup1\n  iszero\n  tag_1\n  jumpi\n  0x00\n  dup1\n  revert\ntag_1:\n  pop\n  dataSize(sub_0)\n  dup1\n  dataOffset(sub_0)\n  0x00\n  codecopy\n  0x00\n  return\nstop\n\nsub_0: assembly {\n        /* \"contracts/Kobis.sol\":95:5016  contract Kosbis {... */\n      mstore(0x40, 0x80)\n      callvalue\n      dup1\n      iszero\n      tag_1\n      jumpi\n      0x00\n      dup1\n      revert\n    tag_1:\n      pop\n      jumpi(tag_2, lt(calldatasize, 0x04))\n      shr(0xe0, calldataload(0x00))\n      dup1\n      0x88120643\n      gt\n      tag_15\n      jumpi\n      dup1\n      0x88120643\n      eq\n      tag_9\n      jumpi\n      dup1\n      0x987ee156\n      eq\n      tag_10\n      jumpi\n      dup1\n      0xcdc66c5b\n      eq\n      tag_11\n      jumpi\n      dup1\n      0xe6792922\n      eq\n      tag_12\n      jumpi\n      dup1\n      0xf1c5031a\n      eq\n      tag_13\n      jumpi\n      dup1\n      0xf5596078\n      eq\n      tag_14\n      jumpi\n      jump(tag_2)\n    tag_15:\n      dup1\n      0x0814fce7\n      eq\n      tag_3\n      jumpi\n      dup1\n      0x11f0f0da\n      eq\n      tag_4\n      jumpi\n      dup1\n      0x20ce2fc1\n      eq\n      tag_5\n      jumpi\n      dup1\n      0x230eb9c6\n      eq\n      tag_6\n      jumpi\n      dup1\n      0x69d31fc2\n      eq\n      tag_7\n      jumpi\n      dup1\n      0x75d8e58d\n      eq\n      tag_8\n      jumpi\n    tag_2:\n      0x00\n      dup1\n      revert\n        /* \"contracts/Kobis.sol\":4554:4667  function getComPost(uint256 comId) public view returns(PostContent [] memory) {... */\n    tag_3:\n      tag_16\n      0x04\n      dup1\n      calldatasize\n      sub\n      dup2\n      add\n      swap1\n      tag_17\n      swap2\n      swap1\n      tag_18\n      jump\t// in\n    tag_17:\n      tag_19\n      jump\t// in\n    tag_16:\n      mload(0x40)\n      tag_20\n      swap2\n      swap1\n      tag_21\n      jump\t// in\n    tag_20:\n      mload(0x40)\n      dup1\n      swap2\n      sub\n      swap1\n      return\n        /* \"contracts/Kobis.sol\":1685:1731  mapping(uint256 => PostContent []) public Post */\n    tag_4:\n      tag_22\n      0x04\n      dup1\n      calldatasize\n      sub\n      dup2\n      add\n      swap1\n      tag_23\n      swap2\n      swap1\n      tag_24\n      jump\t// in\n    tag_23:\n      tag_25\n      jump\t// in\n    tag_22:\n      mload(0x40)\n      tag_26\n      swap9\n      swap8\n      swap7\n      swap6\n      swap5\n      swap4\n      swap3\n      swap2\n      swap1\n      tag_27\n      jump\t// in\n    tag_26:\n      mload(0x40)\n      dup1\n      swap2\n      sub\n      swap1\n      return\n        /* \"contracts/Kobis.sol\":1574:1634  mapping(uint256 => CommunityContent) public communityProfile */\n    tag_5:\n      tag_28\n      0x04\n      dup1\n      calldatasize\n      sub\n      dup2\n      add\n      swap1\n      tag_29\n      swap2\n      swap1\n      tag_18\n      jump\t// in\n    tag_29:\n      tag_30\n      jump\t// in\n    tag_28:\n      mload(0x40)\n      tag_31\n      swap7\n      swap6\n      swap5\n      swap4\n      swap3\n      swap2\n      swap1\n      tag_32\n      jump\t// in\n    tag_31:\n      mload(0x40)\n      dup1\n      swap2\n      sub\n      swap1\n      return\n        /* \"contracts/Kobis.sol\":1640:1679  mapping(address => Profile) public User */\n    tag_6:\n      tag_33\n      0x04\n      dup1\n      calldatasize\n      sub\n      dup2\n      add\n      swap1\n      tag_34\n      swap2\n      swap1\n      tag_35\n      jump\t// in\n    tag_34:\n      tag_36\n      jump\t// in\n    tag_33:\n      mload(0x40)\n      tag_37\n      swap10\n      swap9\n      swap8\n      swap7\n      swap6\n      swap5\n      swap4\n      swap3\n      swap2\n      swap1\n      tag_38\n      jump\t// in\n    tag_37:\n      mload(0x40)\n      dup1\n      swap2\n      sub\n      swap1\n      return\n        /* \"contracts/Kobis.sol\":4772:4895  function getPostComment(uint256 comId) public view returns(CommentContent [] memory) {... */\n    tag_7:\n      tag_39\n      0x04\n      dup1\n      calldatasize\n      sub\n      dup2\n      add\n      swap1\n      tag_40\n      swap2\n      swap1\n      tag_18\n      jump\t// in\n    tag_40:\n      tag_41\n      jump\t// in\n    tag_39:\n      mload(0x40)\n      tag_42\n      swap2\n      swap1\n      tag_43\n      jump\t// in\n    tag_42:\n      mload(0x40)\n      dup1\n      swap2\n      sub\n      swap1\n      return\n        /* \"contracts/Kobis.sol\":1832:2380  function createUser(... */\n    tag_8:\n      tag_44\n      0x04\n      dup1\n      calldatasize\n      sub\n      dup2\n      add\n      swap1\n      tag_45\n      swap2\n      swap1\n      tag_46\n      jump\t// in\n    tag_45:\n      tag_47\n      jump\t// in\n    tag_44:\n      stop\n        /* \"contracts/Kobis.sol\":2437:2627  function joinCommuinty(uint256 comId) public {... */\n    tag_9:\n      tag_48\n      0x04\n      dup1\n      calldatasize\n      sub\n      dup2\n      add\n      swap1\n      tag_49\n      swap2\n      swap1\n      tag_18\n      jump\t// in\n    tag_49:\n      tag_50\n      jump\t// in\n    tag_48:\n      stop\n        /* \"contracts/Kobis.sol\":4901:5008  function getUserProfile(address addr) public view returns(Profile memory){... */\n    tag_10:\n      tag_51\n      0x04\n      dup1\n      calldatasize\n      sub\n      dup2\n      add\n      swap1\n      tag_52\n      swap2\n      swap1\n      tag_35\n      jump\t// in\n    tag_52:\n      tag_53\n      jump\t// in\n    tag_51:\n      mload(0x40)\n      tag_54\n      swap2\n      swap1\n      tag_55\n      jump\t// in\n    tag_54:\n      mload(0x40)\n      dup1\n      swap2\n      sub\n      swap1\n      return\n        /* \"contracts/Kobis.sol\":1737:1789  mapping(uint256 => CommentContent []) public Comment */\n    tag_11:\n      tag_56\n      0x04\n      dup1\n      calldatasize\n      sub\n      dup2\n      add\n      swap1\n      tag_57\n      swap2\n      swap1\n      tag_24\n      jump\t// in\n    tag_57:\n      tag_58\n      jump\t// in\n    tag_56:\n      mload(0x40)\n      tag_59\n      swap7\n      swap6\n      swap5\n      swap4\n      swap3\n      swap2\n      swap1\n      tag_60\n      jump\t// in\n    tag_59:\n      mload(0x40)\n      dup1\n      swap2\n      sub\n      swap1\n      return\n        /* \"contracts/Kobis.sol\":2673:2978  function createCommunity (... */\n    tag_12:\n      tag_61\n      0x04\n      dup1\n      calldatasize\n      sub\n      dup2\n      add\n      swap1\n      tag_62\n      swap2\n      swap1\n      tag_63\n      jump\t// in\n    tag_62:\n      tag_64\n      jump\t// in\n    tag_61:\n      stop\n        /* \"contracts/Kobis.sol\":3862:4508  function createComment(... */\n    tag_13:\n      tag_65\n      0x04\n      dup1\n      calldatasize\n      sub\n      dup2\n      add\n      swap1\n      tag_66\n      swap2\n      swap1\n      tag_67\n      jump\t// in\n    tag_66:\n      tag_68\n      jump\t// in\n    tag_65:\n      stop\n        /* \"contracts/Kobis.sol\":3027:3776  function createPost(... */\n    tag_14:\n      tag_69\n      0x04\n      dup1\n      calldatasize\n      sub\n      dup2\n      add\n      swap1\n      tag_70\n      swap2\n      swap1\n      tag_71\n      jump\t// in\n    tag_70:\n      tag_72\n      jump\t// in\n    tag_69:\n      stop\n        /* \"contracts/Kobis.sol\":4554:4667  function getComPost(uint256 comId) public view returns(PostContent [] memory) {... */\n    tag_19:\n        /* \"contracts/Kobis.sol\":4609:4630  PostContent [] memory */\n      0x60\n        /* \"contracts/Kobis.sol\":4649:4653  Post */\n      0x03\n        /* \"contracts/Kobis.sol\":4649:4660  Post[comId] */\n      0x00\n        /* \"contracts/Kobis.sol\":4654:4659  comId */\n      dup4\n        /* \"contracts/Kobis.sol\":4649:4660  Post[comId] */\n      dup2\n      mstore\n      0x20\n      add\n      swap1\n      dup2\n      mstore\n      0x20\n      add\n      0x00\n      keccak256\n        /* \"contracts/Kobis.sol\":4642:4660  return Post[comId] */\n      dup1\n      sload\n      dup1\n      0x20\n      mul\n      0x20\n      add\n      mload(0x40)\n      swap1\n      dup2\n      add\n      0x40\n      mstore\n      dup1\n      swap3\n      swap2\n      swap1\n      dup2\n      dup2\n      mstore\n      0x20\n      add\n      0x00\n      swap1\n    tag_74:\n      dup3\n      dup3\n      lt\n      iszero\n      tag_75\n      jumpi\n      dup4\n      dup3\n      swap1\n      0x00\n      mstore\n      keccak256(0x00, 0x20)\n      swap1\n      0x0a\n      mul\n      add\n      mload(0x40)\n      dup1\n      0x0120\n      add\n      0x40\n      mstore\n      swap1\n      dup2\n      0x00\n      dup3\n      add\n      dup1\n      sload\n      tag_77\n      swap1\n      tag_78\n      jump\t// in\n    tag_77:\n      dup1\n      0x1f\n      add\n      0x20\n      dup1\n      swap2\n      div\n      mul\n      0x20\n      add\n      mload(0x40)\n      swap1\n      dup2\n      add\n      0x40\n      mstore\n      dup1\n      swap3\n      swap2\n      swap1\n      dup2\n      dup2\n      mstore\n      0x20\n      add\n      dup3\n      dup1\n      sload\n      tag_79\n      swap1\n      tag_78\n      jump\t// in\n    tag_79:\n      dup1\n      iszero\n      tag_80\n      jumpi\n      dup1\n      0x1f\n      lt\n      tag_81\n      jumpi\n      0x0100\n      dup1\n      dup4\n      sload\n      div\n      mul\n      dup4\n      mstore\n      swap2\n      0x20\n      add\n      swap2\n      jump(tag_80)\n    tag_81:\n      dup3\n      add\n      swap2\n      swap1\n      0x00\n      mstore\n      keccak256(0x00, 0x20)\n      swap1\n    tag_82:\n      dup2\n      sload\n      dup2\n      mstore\n      swap1\n      0x01\n      add\n      swap1\n      0x20\n      add\n      dup1\n      dup4\n      gt\n      tag_82\n      jumpi\n      dup3\n      swap1\n      sub\n      0x1f\n      and\n      dup3\n      add\n      swap2\n    tag_80:\n      pop\n      pop\n      pop\n      pop\n      pop\n      dup2\n      mstore\n      0x20\n      add\n      0x01\n      dup3\n      add\n      dup1\n      sload\n      tag_83\n      swap1\n      tag_78\n      jump\t// in\n    tag_83:\n      dup1\n      0x1f\n      add\n      0x20\n      dup1\n      swap2\n      div\n      mul\n      0x20\n      add\n      mload(0x40)\n      swap1\n      dup2\n      add\n      0x40\n      mstore\n      dup1\n      swap3\n      swap2\n      swap1\n      dup2\n      dup2\n      mstore\n      0x20\n      add\n      dup3\n      dup1\n      sload\n      tag_84\n      swap1\n      tag_78\n      jump\t// in\n    tag_84:\n      dup1\n      iszero\n      tag_85\n      jumpi\n      dup1\n      0x1f\n      lt\n      tag_86\n      jumpi\n      0x0100\n      dup1\n      dup4\n      sload\n      div\n      mul\n      dup4\n      mstore\n      swap2\n      0x20\n      add\n      swap2\n      jump(tag_85)\n    tag_86:\n      dup3\n      add\n      swap2\n      swap1\n      0x00\n      mstore\n      keccak256(0x00, 0x20)\n      swap1\n    tag_87:\n      dup2\n      sload\n      dup2\n      mstore\n      swap1\n      0x01\n      add\n      swap1\n      0x20\n      add\n      dup1\n      dup4\n      gt\n      tag_87\n      jumpi\n      dup3\n      swap1\n      sub\n      0x1f\n      and\n      dup3\n      add\n      swap2\n    tag_85:\n      pop\n      pop\n      pop\n      pop\n      pop\n      dup2\n      mstore\n      0x20\n      add\n      0x02\n      dup3\n      add\n      sload\n      dup2\n      mstore\n      0x20\n      add\n      0x03\n      dup3\n      add\n      0x00\n      swap1\n      sload\n      swap1\n      0x0100\n      exp\n      swap1\n      div\n      0xff\n      and\n      iszero\n      iszero\n      iszero\n      iszero\n      dup2\n      mstore\n      0x20\n      add\n      0x04\n      dup3\n      add\n      sload\n      dup2\n      mstore\n      0x20\n      add\n      0x05\n      dup3\n      add\n      0x00\n      swap1\n      sload\n      swap1\n      0x0100\n      exp\n      swap1\n      div\n      0xffffffffffffffffffffffffffffffffffffffff\n      and\n      0xffffffffffffffffffffffffffffffffffffffff\n      and\n      0xffffffffffffffffffffffffffffffffffffffff\n      and\n      dup2\n      mstore\n      0x20\n      add\n      0x06\n      dup3\n      add\n      sload\n      dup2\n      mstore\n      0x20\n      add\n      0x07\n      dup3\n      add\n      mload(0x40)\n      dup1\n      0x40\n      add\n      0x40\n      mstore\n      swap1\n      dup2\n      0x00\n      dup3\n      add\n      dup1\n      sload\n      tag_88\n      swap1\n      tag_78\n      jump\t// in\n    tag_88:\n      dup1\n      0x1f\n      add\n      0x20\n      dup1\n      swap2\n      div\n      mul\n      0x20\n      add\n      mload(0x40)\n      swap1\n      dup2\n      add\n      0x40\n      mstore\n      dup1\n      swap3\n      swap2\n      swap1\n      dup2\n      dup2\n      mstore\n      0x20\n      add\n      dup3\n      dup1\n      sload\n      tag_89\n      swap1\n      tag_78\n      jump\t// in\n    tag_89:\n      dup1\n      iszero\n      tag_90\n      jumpi\n      dup1\n      0x1f\n      lt\n      tag_91\n      jumpi\n      0x0100\n      dup1\n      dup4\n      sload\n      div\n      mul\n      dup4\n      mstore\n      swap2\n      0x20\n      add\n      swap2\n      jump(tag_90)\n    tag_91:\n      dup3\n      add\n      swap2\n      swap1\n      0x00\n      mstore\n      keccak256(0x00, 0x20)\n      swap1\n    tag_92:\n      dup2\n      sload\n      dup2\n      mstore\n      swap1\n      0x01\n      add\n      swap1\n      0x20\n      add\n      dup1\n      dup4\n      gt\n      tag_92\n      jumpi\n      dup3\n      swap1\n      sub\n      0x1f\n      and\n      dup3\n      add\n      swap2\n    tag_90:\n      pop\n      pop\n      pop\n      pop\n      pop\n      dup2\n      mstore\n      0x20\n      add\n      0x01\n      dup3\n      add\n      dup1\n      sload\n      tag_93\n      swap1\n      tag_78\n      jump\t// in\n    tag_93:\n      dup1\n      0x1f\n      add\n      0x20\n      dup1\n      swap2\n      div\n      mul\n      0x20\n      add\n      mload(0x40)\n      swap1\n      dup2\n      add\n      0x40\n      mstore\n      dup1\n      swap3\n      swap2\n      swap1\n      dup2\n      dup2\n      mstore\n      0x20\n      add\n      dup3\n      dup1\n      sload\n      tag_94\n      swap1\n      tag_78\n      jump\t// in\n    tag_94:\n      dup1\n      iszero\n      tag_95\n      jumpi\n      dup1\n      0x1f\n      lt\n      tag_96\n      jumpi\n      0x0100\n      dup1\n      dup4\n      sload\n      div\n      mul\n      dup4\n      mstore\n      swap2\n      0x20\n      add\n      swap2\n      jump(tag_95)\n    tag_96:\n      dup3\n      add\n      swap2\n      swap1\n      0x00\n      mstore\n      keccak256(0x00, 0x20)\n      swap1\n    tag_97:\n      dup2\n      sload\n      dup2\n      mstore\n      swap1\n      0x01\n      add\n      swap1\n      0x20\n      add\n      dup1\n      dup4\n      gt\n      tag_97\n      jumpi\n      dup3\n      swap1\n      sub\n      0x1f\n      and\n      dup3\n      add\n      swap2\n    tag_95:\n      pop\n      pop\n      pop\n      pop\n      pop\n      dup2\n      mstore\n      pop\n      pop\n      dup2\n      mstore\n      0x20\n      add\n      0x09\n      dup3\n      add\n      dup1\n      sload\n      dup1\n      0x20\n      mul\n      0x20\n      add\n      mload(0x40)\n      swap1\n      dup2\n      add\n      0x40\n      mstore\n      dup1\n      swap3\n      swap2\n      swap1\n      dup2\n      dup2\n      mstore\n      0x20\n      add\n      dup3\n      dup1\n      sload\n      dup1\n      iszero\n      tag_98\n      jumpi\n      0x20\n      mul\n      dup3\n      add\n      swap2\n      swap1\n      0x00\n      mstore\n      keccak256(0x00, 0x20)\n      swap1\n    tag_99:\n      dup2\n      sload\n      dup2\n      mstore\n      0x20\n      add\n      swap1\n      0x01\n      add\n      swap1\n      dup1\n      dup4\n      gt\n      tag_99\n      jumpi\n    tag_98:\n      pop\n      pop\n      pop\n      pop\n      pop\n      dup2\n      mstore\n      pop\n      pop\n      dup2\n      mstore\n      0x20\n      add\n      swap1\n      0x01\n      add\n      swap1\n      jump(tag_74)\n    tag_75:\n      pop\n      pop\n      pop\n      pop\n      swap1\n      pop\n        /* \"contracts/Kobis.sol\":4554:4667  function getComPost(uint256 comId) public view returns(PostContent [] memory) {... */\n      swap2\n      swap1\n      pop\n      jump\t// out\n        /* \"contracts/Kobis.sol\":1685:1731  mapping(uint256 => PostContent []) public Post */\n    tag_25:\n      mstore(0x20, 0x03)\n      dup2\n      0x00\n      mstore\n      keccak256(0x00, 0x40)\n      dup2\n      dup2\n      sload\n      dup2\n      lt\n      tag_100\n      jumpi\n      0x00\n      dup1\n      revert\n    tag_100:\n      swap1\n      0x00\n      mstore\n      keccak256(0x00, 0x20)\n      swap1\n      0x0a\n      mul\n      add\n      0x00\n      swap2\n      pop\n      swap2\n      pop\n      pop\n      dup1\n      0x00\n      add\n      dup1\n      sload\n      tag_102\n      swap1\n      tag_78\n      jump\t// in\n    tag_102:\n      dup1\n      0x1f\n      add\n      0x20\n      dup1\n      swap2\n      div\n      mul\n      0x20\n      add\n      mload(0x40)\n      swap1\n      dup2\n      add\n      0x40\n      mstore\n      dup1\n      swap3\n      swap2\n      swap1\n      dup2\n      dup2\n      mstore\n      0x20\n      add\n      dup3\n      dup1\n      sload\n      tag_103\n      swap1\n      tag_78\n      jump\t// in\n    tag_103:\n      dup1\n      iszero\n      tag_104\n      jumpi\n      dup1\n      0x1f\n      lt\n      tag_105\n      jumpi\n      0x0100\n      dup1\n      dup4\n      sload\n      div\n      mul\n      dup4\n      mstore\n      swap2\n      0x20\n      add\n      swap2\n      jump(tag_104)\n    tag_105:\n      dup3\n      add\n      swap2\n      swap1\n      0x00\n      mstore\n      keccak256(0x00, 0x20)\n      swap1\n    tag_106:\n      dup2\n      sload\n      dup2\n      mstore\n      swap1\n      0x01\n      add\n      swap1\n      0x20\n      add\n      dup1\n      dup4\n      gt\n      tag_106\n      jumpi\n      dup3\n      swap1\n      sub\n      0x1f\n      and\n      dup3\n      add\n      swap2\n    tag_104:\n      pop\n      pop\n      pop\n      pop\n      pop\n      swap1\n      dup1\n      0x01\n      add\n      dup1\n      sload\n      tag_107\n      swap1\n      tag_78\n      jump\t// in\n    tag_107:\n      dup1\n      0x1f\n      add\n      0x20\n      dup1\n      swap2\n      div\n      mul\n      0x20\n      add\n      mload(0x40)\n      swap1\n      dup2\n      add\n      0x40\n      mstore\n      dup1\n      swap3\n      swap2\n      swap1\n      dup2\n      dup2\n      mstore\n      0x20\n      add\n      dup3\n      dup1\n      sload\n      tag_108\n      swap1\n      tag_78\n      jump\t// in\n    tag_108:\n      dup1\n      iszero\n      tag_109\n      jumpi\n      dup1\n      0x1f\n      lt\n      tag_110\n      jumpi\n      0x0100\n      dup1\n      dup4\n      sload\n      div\n      mul\n      dup4\n      mstore\n      swap2\n      0x20\n      add\n      swap2\n      jump(tag_109)\n    tag_110:\n      dup3\n      add\n      swap2\n      swap1\n      0x00\n      mstore\n      keccak256(0x00, 0x20)\n      swap1\n    tag_111:\n      dup2\n      sload\n      dup2\n      mstore\n      swap1\n      0x01\n      add\n      swap1\n      0x20\n      add\n      dup1\n      dup4\n      gt\n      tag_111\n      jumpi\n      dup3\n      swap1\n      sub\n      0x1f\n      and\n      dup3\n      add\n      swap2\n    tag_109:\n      pop\n      pop\n      pop\n      pop\n      pop\n      swap1\n      dup1\n      0x02\n      add\n      sload\n      swap1\n      dup1\n      0x03\n      add\n      0x00\n      swap1\n      sload\n      swap1\n      0x0100\n      exp\n      swap1\n      div\n      0xff\n      and\n      swap1\n      dup1\n      0x04\n      add\n      sload\n      swap1\n      dup1\n      0x05\n      add\n      0x00\n      swap1\n      sload\n      swap1\n      0x0100\n      exp\n      swap1\n      div\n      0xffffffffffffffffffffffffffffffffffffffff\n      and\n      swap1\n      dup1\n      0x06\n      add\n      sload\n      swap1\n      dup1\n      0x07\n      add\n      mload(0x40)\n      dup1\n      0x40\n      add\n      0x40\n      mstore\n      swap1\n      dup2\n      0x00\n      dup3\n      add\n      dup1\n      sload\n      tag_112\n      swap1\n      tag_78\n      jump\t// in\n    tag_112:\n      dup1\n      0x1f\n      add\n      0x20\n      dup1\n      swap2\n      div\n      mul\n      0x20\n      add\n      mload(0x40)\n      swap1\n      dup2\n      add\n      0x40\n      mstore\n      dup1\n      swap3\n      swap2\n      swap1\n      dup2\n      dup2\n      mstore\n      0x20\n      add\n      dup3\n      dup1\n      sload\n      tag_113\n      swap1\n      tag_78\n      jump\t// in\n    tag_113:\n      dup1\n      iszero\n      tag_114\n      jumpi\n      dup1\n      0x1f\n      lt\n      tag_115\n      jumpi\n      0x0100\n      dup1\n      dup4\n      sload\n      div\n      mul\n      dup4\n      mstore\n      swap2\n      0x20\n      add\n      swap2\n      jump(tag_114)\n    tag_115:\n      dup3\n      add\n      swap2\n      swap1\n      0x00\n      mstore\n      keccak256(0x00, 0x20)\n      swap1\n    tag_116:\n      dup2\n      sload\n      dup2\n      mstore\n      swap1\n      0x01\n      add\n      swap1\n      0x20\n      add\n      dup1\n      dup4\n      gt\n      tag_116\n      jumpi\n      dup3\n      swap1\n      sub\n      0x1f\n      and\n      dup3\n      add\n      swap2\n    tag_114:\n      pop\n      pop\n      pop\n      pop\n      pop\n      dup2\n      mstore\n      0x20\n      add\n      0x01\n      dup3\n      add\n      dup1\n      sload\n      tag_117\n      swap1\n      tag_78\n      jump\t// in\n    tag_117:\n      dup1\n      0x1f\n      add\n      0x20\n      dup1\n      swap2\n      div\n      mul\n      0x20\n      add\n      mload(0x40)\n      swap1\n      dup2\n      add\n      0x40\n      mstore\n      dup1\n      swap3\n      swap2\n      swap1\n      dup2\n      dup2\n      mstore\n      0x20\n      add\n      dup3\n      dup1\n      sload\n      tag_118\n      swap1\n      tag_78\n      jump\t// in\n    tag_118:\n      dup1\n      iszero\n      tag_119\n      jumpi\n      dup1\n      0x1f\n      lt\n      tag_120\n      jumpi\n      0x0100\n      dup1\n      dup4\n      sload\n      div\n      mul\n      dup4\n      mstore\n      swap2\n      0x20\n      add\n      swap2\n      jump(tag_119)\n    tag_120:\n      dup3\n      add\n      swap2\n      swap1\n      0x00\n      mstore\n      keccak256(0x00, 0x20)\n      swap1\n    tag_121:\n      dup2\n      sload\n      dup2\n      mstore\n      swap1\n      0x01\n      add\n      swap1\n      0x20\n      add\n      dup1\n      dup4\n      gt\n      tag_121\n      jumpi\n      dup3\n      swap1\n      sub\n      0x1f\n      and\n      dup3\n      add\n      swap2\n    tag_119:\n      pop\n      pop\n      pop\n      pop\n      pop\n      dup2\n      mstore\n      pop\n      pop\n      swap1\n      pop\n      dup9\n      jump\t// out\n        /* \"contracts/Kobis.sol\":1574:1634  mapping(uint256 => CommunityContent) public communityProfile */\n    tag_30:\n      mstore(0x20, 0x01)\n      dup1\n      0x00\n      mstore\n      keccak256(0x00, 0x40)\n      0x00\n      swap2\n      pop\n      swap1\n      pop\n      dup1\n      0x00\n      add\n      dup1\n      sload\n      tag_122\n      swap1\n      tag_78\n      jump\t// in\n    tag_122:\n      dup1\n      0x1f\n      add\n      0x20\n      dup1\n      swap2\n      div\n      mul\n      0x20\n      add\n      mload(0x40)\n      swap1\n      dup2\n      add\n      0x40\n      mstore\n      dup1\n      swap3\n      swap2\n      swap1\n      dup2\n      dup2\n      mstore\n      0x20\n      add\n      dup3\n      dup1\n      sload\n      tag_123\n      swap1\n      tag_78\n      jump\t// in\n    tag_123:\n      dup1\n      iszero\n      tag_124\n      jumpi\n      dup1\n      0x1f\n      lt\n      tag_125\n      jumpi\n      0x0100\n      dup1\n      dup4\n      sload\n      div\n      mul\n      dup4\n      mstore\n      swap2\n      0x20\n      add\n      swap2\n      jump(tag_124)\n    tag_125:\n      dup3\n      add\n      swap2\n      swap1\n      0x00\n      mstore\n      keccak256(0x00, 0x20)\n      swap1\n    tag_126:\n      dup2\n      sload\n      dup2\n      mstore\n      swap1\n      0x01\n      add\n      swap1\n      0x20\n      add\n      dup1\n      dup4\n      gt\n      tag_126\n      jumpi\n      dup3\n      swap1\n      sub\n      0x1f\n      and\n      dup3\n      add\n      swap2\n    tag_124:\n      pop\n      pop\n      pop\n      pop\n      pop\n      swap1\n      dup1\n      0x01\n      add\n      sload\n      swap1\n      dup1\n      0x02\n      add\n      0x00\n      swap1\n      sload\n      swap1\n      0x0100\n      exp\n      swap1\n      div\n      0xffffffffffffffffffffffffffffffffffffffff\n      and\n      swap1\n      dup1\n      0x04\n      add\n      sload\n      swap1\n      dup1\n      0x06\n      add\n      sload\n      swap1\n      dup1\n      0x07\n      add\n      sload\n      swap1\n      pop\n      dup7\n      jump\t// out\n        /* \"contracts/Kobis.sol\":1640:1679  mapping(address => Profile) public User */\n    tag_36:\n      mstore(0x20, 0x02)\n      dup1\n      0x00\n      mstore\n      keccak256(0x00, 0x40)\n      0x00\n      swap2\n      pop\n      swap1\n      pop\n      dup1\n      0x00\n      add\n      0x00\n      swap1\n      sload\n      swap1\n      0x0100\n      exp\n      swap1\n      div\n      0xffffffffffffffffffffffffffffffffffffffff\n      and\n      swap1\n      dup1\n      0x01\n      add\n      dup1\n      sload\n      tag_127\n      swap1\n      tag_78\n      jump\t// in\n    tag_127:\n      dup1\n      0x1f\n      add\n      0x20\n      dup1\n      swap2\n      div\n      mul\n      0x20\n      add\n      mload(0x40)\n      swap1\n      dup2\n      add\n      0x40\n      mstore\n      dup1\n      swap3\n      swap2\n      swap1\n      dup2\n      dup2\n      mstore\n      0x20\n      add\n      dup3\n      dup1\n      sload\n      tag_128\n      swap1\n      tag_78\n      jump\t// in\n    tag_128:\n      dup1\n      iszero\n      tag_129\n      jumpi\n      dup1\n      0x1f\n      lt\n      tag_130\n      jumpi\n      0x0100\n      dup1\n      dup4\n      sload\n      div\n      mul\n      dup4\n      mstore\n      swap2\n      0x20\n      add\n      swap2\n      jump(tag_129)\n    tag_130:\n      dup3\n      add\n      swap2\n      swap1\n      0x00\n      mstore\n      keccak256(0x00, 0x20)\n      swap1\n    tag_131:\n      dup2\n      sload\n      dup2\n      mstore\n      swap1\n      0x01\n      add\n      swap1\n      0x20\n      add\n      dup1\n      dup4\n      gt\n      tag_131\n      jumpi\n      dup3\n      swap1\n      sub\n      0x1f\n      and\n      dup3\n      add\n      swap2\n    tag_129:\n      pop\n      pop\n      pop\n      pop\n      pop\n      swap1\n      dup1\n      0x02\n      add\n      dup1\n      sload\n      tag_132\n      swap1\n      tag_78\n      jump\t// in\n    tag_132:\n      dup1\n      0x1f\n      add\n      0x20\n      dup1\n      swap2\n      div\n      mul\n      0x20\n      add\n      mload(0x40)\n      swap1\n      dup2\n      add\n      0x40\n      mstore\n      dup1\n      swap3\n      swap2\n      swap1\n      dup2\n      dup2\n      mstore\n      0x20\n      add\n      dup3\n      dup1\n      sload\n      tag_133\n      swap1\n      tag_78\n      jump\t// in\n    tag_133:\n      dup1\n      iszero\n      tag_134\n      jumpi\n      dup1\n      0x1f\n      lt\n      tag_135\n      jumpi\n      0x0100\n      dup1\n      dup4\n      sload\n      div\n      mul\n      dup4\n      mstore\n      swap2\n      0x20\n      add\n      swap2\n      jump(tag_134)\n    tag_135:\n      dup3\n      add\n      swap2\n      swap1\n      0x00\n      mstore\n      keccak256(0x00, 0x20)\n      swap1\n    tag_136:\n      dup2\n      sload\n      dup2\n      mstore\n      swap1\n      0x01\n      add\n      swap1\n      0x20\n      add\n      dup1\n      dup4\n      gt\n      tag_136\n      jumpi\n      dup3\n      swap1\n      sub\n      0x1f\n      and\n      dup3\n      add\n      swap2\n    tag_134:\n      pop\n      pop\n      pop\n      pop\n      pop\n      swap1\n      dup1\n      0x03\n      add\n      dup1\n      sload\n      tag_137\n      swap1\n      tag_78\n      jump\t// in\n    tag_137:\n      dup1\n      0x1f\n      add\n      0x20\n      dup1\n      swap2\n      div\n      mul\n      0x20\n      add\n      mload(0x40)\n      swap1\n      dup2\n      add\n      0x40\n      mstore\n      dup1\n      swap3\n      swap2\n      swap1\n      dup2\n      dup2\n      mstore\n      0x20\n      add\n      dup3\n      dup1\n      sload\n      tag_138\n      swap1\n      tag_78\n      jump\t// in\n    tag_138:\n      dup1\n      iszero\n      tag_139\n      jumpi\n      dup1\n      0x1f\n      lt\n      tag_140\n      jumpi\n      0x0100\n      dup1\n      dup4\n      sload\n      div\n      mul\n      dup4\n      mstore\n      swap2\n      0x20\n      add\n      swap2\n      jump(tag_139)\n    tag_140:\n      dup3\n      add\n      swap2\n      swap1\n      0x00\n      mstore\n      keccak256(0x00, 0x20)\n      swap1\n    tag_141:\n      dup2\n      sload\n      dup2\n      mstore\n      swap1\n      0x01\n      add\n      swap1\n      0x20\n      add\n      dup1\n      dup4\n      gt\n      tag_141\n      jumpi\n      dup3\n      swap1\n      sub\n      0x1f\n      and\n      dup3\n      add\n      swap2\n    tag_139:\n      pop\n      pop\n      pop\n      pop\n      pop\n      swap1\n      dup1\n      0x05\n      add\n      sload\n      swap1\n      dup1\n      0x06\n      add\n      sload\n      swap1\n      dup1\n      0x07\n      add\n      sload\n      swap1\n      dup1\n      0x08\n      add\n      0x00\n      swap1\n      sload\n      swap1\n      0x0100\n      exp\n      swap1\n      div\n      0xff\n      and\n      swap1\n      dup1\n      0x0a\n      add\n      sload\n      swap1\n      pop\n      dup10\n      jump\t// out\n        /* \"contracts/Kobis.sol\":4772:4895  function getPostComment(uint256 comId) public view returns(CommentContent [] memory) {... */\n    tag_41:\n        /* \"contracts/Kobis.sol\":4831:4855  CommentContent [] memory */\n      0x60\n        /* \"contracts/Kobis.sol\":4874:4881  Comment */\n      0x04\n        /* \"contracts/Kobis.sol\":4874:4888  Comment[comId] */\n      0x00\n        /* \"contracts/Kobis.sol\":4882:4887  comId */\n      dup4\n        /* \"contracts/Kobis.sol\":4874:4888  Comment[comId] */\n      dup2\n      mstore\n      0x20\n      add\n      swap1\n      dup2\n      mstore\n      0x20\n      add\n      0x00\n      keccak256\n        /* \"contracts/Kobis.sol\":4867:4888  return Comment[comId] */\n      dup1\n      sload\n      dup1\n      0x20\n      mul\n      0x20\n      add\n      mload(0x40)\n      swap1\n      dup2\n      add\n      0x40\n      mstore\n      dup1\n      swap3\n      swap2\n      swap1\n      dup2\n      dup2\n      mstore\n      0x20\n      add\n      0x00\n      swap1\n    tag_143:\n      dup3\n      dup3\n      lt\n      iszero\n      tag_144\n      jumpi\n      dup4\n      dup3\n      swap1\n      0x00\n      mstore\n      keccak256(0x00, 0x20)\n      swap1\n      0x07\n      mul\n      add\n      mload(0x40)\n      dup1\n      0xc0\n      add\n      0x40\n      mstore\n      swap1\n      dup2\n      0x00\n      dup3\n      add\n      0x00\n      swap1\n      sload\n      swap1\n      0x0100\n      exp\n      swap1\n      div\n      0xffffffffffffffffffffffffffffffffffffffff\n      and\n      0xffffffffffffffffffffffffffffffffffffffff\n      and\n      0xffffffffffffffffffffffffffffffffffffffff\n      and\n      dup2\n      mstore\n      0x20\n      add\n      0x01\n      dup3\n      add\n      sload\n      dup2\n      mstore\n      0x20\n      add\n      0x02\n      dup3\n      add\n      sload\n      dup2\n      mstore\n      0x20\n      add\n      0x03\n      dup3\n      add\n      dup1\n      sload\n      tag_146\n      swap1\n      tag_78\n      jump\t// in\n    tag_146:\n      dup1\n      0x1f\n      add\n      0x20\n      dup1\n      swap2\n      div\n      mul\n      0x20\n      add\n      mload(0x40)\n      swap1\n      dup2\n      add\n      0x40\n      mstore\n      dup1\n      swap3\n      swap2\n      swap1\n      dup2\n      dup2\n      mstore\n      0x20\n      add\n      dup3\n      dup1\n      sload\n      tag_147\n      swap1\n      tag_78\n      jump\t// in\n    tag_147:\n      dup1\n      iszero\n      tag_148\n      jumpi\n      dup1\n      0x1f\n      lt\n      tag_149\n      jumpi\n      0x0100\n      dup1\n      dup4\n      sload\n      div\n      mul\n      dup4\n      mstore\n      swap2\n      0x20\n      add\n      swap2\n      jump(tag_148)\n    tag_149:\n      dup3\n      add\n      swap2\n      swap1\n      0x00\n      mstore\n      keccak256(0x00, 0x20)\n      swap1\n    tag_150:\n      dup2\n      sload\n      dup2\n      mstore\n      swap1\n      0x01\n      add\n      swap1\n      0x20\n      add\n      dup1\n      dup4\n      gt\n      tag_150\n      jumpi\n      dup3\n      swap1\n      sub\n      0x1f\n      and\n      dup3\n      add\n      swap2\n    tag_148:\n      pop\n      pop\n      pop\n      pop\n      pop\n      dup2\n      mstore\n      0x20\n      add\n      0x04\n      dup3\n      add\n      sload\n      dup2\n      mstore\n      0x20\n      add\n      0x05\n      dup3\n      add\n      mload(0x40)\n      dup1\n      0x40\n      add\n      0x40\n      mstore\n      swap1\n      dup2\n      0x00\n      dup3\n      add\n      dup1\n      sload\n      tag_151\n      swap1\n      tag_78\n      jump\t// in\n    tag_151:\n      dup1\n      0x1f\n      add\n      0x20\n      dup1\n      swap2\n      div\n      mul\n      0x20\n      add\n      mload(0x40)\n      swap1\n      dup2\n      add\n      0x40\n      mstore\n      dup1\n      swap3\n      swap2\n      swap1\n      dup2\n      dup2\n      mstore\n      0x20\n      add\n      dup3\n      dup1\n      sload\n      tag_152\n      swap1\n      tag_78\n      jump\t// in\n    tag_152:\n      dup1\n      iszero\n      tag_153\n      jumpi\n      dup1\n      0x1f\n      lt\n      tag_154\n      jumpi\n      0x0100\n      dup1\n      dup4\n      sload\n      div\n      mul\n      dup4\n      mstore\n      swap2\n      0x20\n      add\n      swap2\n      jump(tag_153)\n    tag_154:\n      dup3\n      add\n      swap2\n      swap1\n      0x00\n      mstore\n      keccak256(0x00, 0x20)\n      swap1\n    tag_155:\n      dup2\n      sload\n      dup2\n      mstore\n      swap1\n      0x01\n      add\n      swap1\n      0x20\n      add\n      dup1\n      dup4\n      gt\n      tag_155\n      jumpi\n      dup3\n      swap1\n      sub\n      0x1f\n      and\n      dup3\n      add\n      swap2\n    tag_153:\n      pop\n      pop\n      pop\n      pop\n      pop\n      dup2\n      mstore\n      0x20\n      add\n      0x01\n      dup3\n      add\n      dup1\n      sload\n      tag_156\n      swap1\n      tag_78\n      jump\t// in\n    tag_156:\n      dup1\n      0x1f\n      add\n      0x20\n      dup1\n      swap2\n      div\n      mul\n      0x20\n      add\n      mload(0x40)\n      swap1\n      dup2\n      add\n      0x40\n      mstore\n      dup1\n      swap3\n      swap2\n      swap1\n      dup2\n      dup2\n      mstore\n      0x20\n      add\n      dup3\n      dup1\n      sload\n      tag_157\n      swap1\n      tag_78\n      jump\t// in\n    tag_157:\n      dup1\n      iszero\n      tag_158\n      jumpi\n      dup1\n      0x1f\n      lt\n      tag_159\n      jumpi\n      0x0100\n      dup1\n      dup4\n      sload\n      div\n      mul\n      dup4\n      mstore\n      swap2\n      0x20\n      add\n      swap2\n      jump(tag_158)\n    tag_159:\n      dup3\n      add\n      swap2\n      swap1\n      0x00\n      mstore\n      keccak256(0x00, 0x20)\n      swap1\n    tag_160:\n      dup2\n      sload\n      dup2\n      mstore\n      swap1\n      0x01\n      add\n      swap1\n      0x20\n      add\n      dup1\n      dup4\n      gt\n      tag_160\n      jumpi\n      dup3\n      swap1\n      sub\n      0x1f\n      and\n      dup3\n      add\n      swap2\n    tag_158:\n      pop\n      pop\n      pop\n      pop\n      pop\n      dup2\n      mstore\n      pop\n      pop\n      dup2\n      mstore\n      pop\n      pop\n      dup2\n      mstore\n      0x20\n      add\n      swap1\n      0x01\n      add\n      swap1\n      jump(tag_143)\n    tag_144:\n      pop\n      pop\n      pop\n      pop\n      swap1\n      pop\n        /* \"contracts/Kobis.sol\":4772:4895  function getPostComment(uint256 comId) public view returns(CommentContent [] memory) {... */\n      swap2\n      swap1\n      pop\n      jump\t// out\n        /* \"contracts/Kobis.sol\":1832:2380  function createUser(... */\n    tag_47:\n        /* \"contracts/Kobis.sol\":2028:2038  msg.sender */\n      caller\n        /* \"contracts/Kobis.sol\":1996:2000  User */\n      0x02\n        /* \"contracts/Kobis.sol\":1996:2012  User[msg.sender] */\n      0x00\n        /* \"contracts/Kobis.sol\":2001:2011  msg.sender */\n      caller\n        /* \"contracts/Kobis.sol\":1996:2012  User[msg.sender] */\n      0xffffffffffffffffffffffffffffffffffffffff\n      and\n      0xffffffffffffffffffffffffffffffffffffffff\n      and\n      dup2\n      mstore\n      0x20\n      add\n      swap1\n      dup2\n      mstore\n      0x20\n      add\n      0x00\n      keccak256\n        /* \"contracts/Kobis.sol\":1996:2017  User[msg.sender].addr */\n      0x00\n      add\n      0x00\n        /* \"contracts/Kobis.sol\":1996:2039  User[msg.sender].addr = payable(msg.sender) */\n      0x0100\n      exp\n      dup2\n      sload\n      dup2\n      0xffffffffffffffffffffffffffffffffffffffff\n      mul\n      not\n      and\n      swap1\n      dup4\n      0xffffffffffffffffffffffffffffffffffffffff\n      and\n      mul\n      or\n      swap1\n      sstore\n      pop\n        /* \"contracts/Kobis.sol\":2073:2077  name */\n      dup4\n        /* \"contracts/Kobis.sol\":2049:2053  User */\n      0x02\n        /* \"contracts/Kobis.sol\":2049:2065  User[msg.sender] */\n      0x00\n        /* \"contracts/Kobis.sol\":2054:2064  msg.sender */\n      caller\n        /* \"contracts/Kobis.sol\":2049:2065  User[msg.sender] */\n      0xffffffffffffffffffffffffffffffffffffffff\n      and\n      0xffffffffffffffffffffffffffffffffffffffff\n      and\n      dup2\n      mstore\n      0x20\n      add\n      swap1\n      dup2\n      mstore\n      0x20\n      add\n      0x00\n      keccak256\n        /* \"contracts/Kobis.sol\":2049:2070  User[msg.sender].name */\n      0x01\n      add\n        /* \"contracts/Kobis.sol\":2049:2077  User[msg.sender].name = name */\n      swap1\n      dup1\n      mload\n      swap1\n      0x20\n      add\n      swap1\n      tag_162\n      swap3\n      swap2\n      swap1\n      tag_163\n      jump\t// in\n    tag_162:\n      pop\n        /* \"contracts/Kobis.sol\":2110:2113  bio */\n      dup3\n        /* \"contracts/Kobis.sol\":2087:2091  User */\n      0x02\n        /* \"contracts/Kobis.sol\":2087:2103  User[msg.sender] */\n      0x00\n        /* \"contracts/Kobis.sol\":2092:2102  msg.sender */\n      caller\n        /* \"contracts/Kobis.sol\":2087:2103  User[msg.sender] */\n      0xffffffffffffffffffffffffffffffffffffffff\n      and\n      0xffffffffffffffffffffffffffffffffffffffff\n      and\n      dup2\n      mstore\n      0x20\n      add\n      swap1\n      dup2\n      mstore\n      0x20\n      add\n      0x00\n      keccak256\n        /* \"contracts/Kobis.sol\":2087:2107  User[msg.sender].bio */\n      0x02\n      add\n        /* \"contracts/Kobis.sol\":2087:2113  User[msg.sender].bio = bio */\n      swap1\n      dup1\n      mload\n      swap1\n      0x20\n      add\n      swap1\n      tag_164\n      swap3\n      swap2\n      swap1\n      tag_163\n      jump\t// in\n    tag_164:\n      pop\n        /* \"contracts/Kobis.sol\":2146:2149  img */\n      dup2\n        /* \"contracts/Kobis.sol\":2123:2127  User */\n      0x02\n        /* \"contracts/Kobis.sol\":2123:2139  User[msg.sender] */\n      0x00\n        /* \"contracts/Kobis.sol\":2128:2138  msg.sender */\n      caller\n        /* \"contracts/Kobis.sol\":2123:2139  User[msg.sender] */\n      0xffffffffffffffffffffffffffffffffffffffff\n      and\n      0xffffffffffffffffffffffffffffffffffffffff\n      and\n      dup2\n      mstore\n      0x20\n      add\n      swap1\n      dup2\n      mstore\n      0x20\n      add\n      0x00\n      keccak256\n        /* \"contracts/Kobis.sol\":2123:2143  User[msg.sender].img */\n      0x03\n      add\n        /* \"contracts/Kobis.sol\":2123:2149  User[msg.sender].img = img */\n      swap1\n      dup1\n      mload\n      swap1\n      0x20\n      add\n      swap1\n      tag_165\n      swap3\n      swap2\n      swap1\n      tag_163\n      jump\t// in\n    tag_165:\n      pop\n        /* \"contracts/Kobis.sol\":2190:2201  communities */\n      dup1\n        /* \"contracts/Kobis.sol\":2159:2163  User */\n      0x02\n        /* \"contracts/Kobis.sol\":2159:2175  User[msg.sender] */\n      0x00\n        /* \"contracts/Kobis.sol\":2164:2174  msg.sender */\n      caller\n        /* \"contracts/Kobis.sol\":2159:2175  User[msg.sender] */\n      0xffffffffffffffffffffffffffffffffffffffff\n      and\n      0xffffffffffffffffffffffffffffffffffffffff\n      and\n      dup2\n      mstore\n      0x20\n      add\n      swap1\n      dup2\n      mstore\n      0x20\n      add\n      0x00\n      keccak256\n        /* \"contracts/Kobis.sol\":2159:2187  User[msg.sender].communities */\n      0x09\n      add\n        /* \"contracts/Kobis.sol\":2159:2201  User[msg.sender].communities = communities */\n      swap1\n      dup1\n      mload\n      swap1\n      0x20\n      add\n      swap1\n      tag_166\n      swap3\n      swap2\n      swap1\n      tag_167\n      jump\t// in\n    tag_166:\n      pop\n        /* \"contracts/Kobis.sol\":2216:2225  uint256 i */\n      0x00\n        /* \"contracts/Kobis.sol\":2212:2374  for(uint256 i = 0; i < communities.length; i++){... */\n    tag_168:\n        /* \"contracts/Kobis.sol\":2235:2246  communities */\n      dup2\n        /* \"contracts/Kobis.sol\":2235:2253  communities.length */\n      mload\n        /* \"contracts/Kobis.sol\":2231:2232  i */\n      dup2\n        /* \"contracts/Kobis.sol\":2231:2253  i < communities.length */\n      lt\n        /* \"contracts/Kobis.sol\":2212:2374  for(uint256 i = 0; i < communities.length; i++){... */\n      iszero\n      tag_169\n      jumpi\n        /* \"contracts/Kobis.sol\":2273:2289  communityProfile */\n      0x01\n        /* \"contracts/Kobis.sol\":2273:2305  communityProfile[communities[i]] */\n      0x00\n        /* \"contracts/Kobis.sol\":2290:2301  communities */\n      dup4\n        /* \"contracts/Kobis.sol\":2302:2303  i */\n      dup4\n        /* \"contracts/Kobis.sol\":2290:2304  communities[i] */\n      dup2\n      mload\n      dup2\n      lt\n      tag_171\n      jumpi\n      tag_172\n      tag_173\n      jump\t// in\n    tag_172:\n    tag_171:\n      0x20\n      mul\n      0x20\n      add\n      add\n      mload\n        /* \"contracts/Kobis.sol\":2273:2305  communityProfile[communities[i]] */\n      dup2\n      mstore\n      0x20\n      add\n      swap1\n      dup2\n      mstore\n      0x20\n      add\n      0x00\n      keccak256\n        /* \"contracts/Kobis.sol\":2273:2316  communityProfile[communities[i]].membersNum */\n      0x04\n      add\n      0x00\n        /* \"contracts/Kobis.sol\":2273:2318  communityProfile[communities[i]].membersNum++ */\n      dup2\n      sload\n      dup1\n      swap3\n      swap2\n      swap1\n      tag_174\n      swap1\n      tag_175\n      jump\t// in\n    tag_174:\n      swap2\n      swap1\n      pop\n      sstore\n      pop\n        /* \"contracts/Kobis.sol\":2332:2336  User */\n      0x02\n        /* \"contracts/Kobis.sol\":2332:2348  User[msg.sender] */\n      0x00\n        /* \"contracts/Kobis.sol\":2337:2347  msg.sender */\n      caller\n        /* \"contracts/Kobis.sol\":2332:2348  User[msg.sender] */\n      0xffffffffffffffffffffffffffffffffffffffff\n      and\n      0xffffffffffffffffffffffffffffffffffffffff\n      and\n      dup2\n      mstore\n      0x20\n      add\n      swap1\n      dup2\n      mstore\n      0x20\n      add\n      0x00\n      keccak256\n        /* \"contracts/Kobis.sol\":2332:2361  User[msg.sender].communityNum */\n      0x0a\n      add\n      0x00\n        /* \"contracts/Kobis.sol\":2332:2363  User[msg.sender].communityNum++ */\n      dup2\n      sload\n      dup1\n      swap3\n      swap2\n      swap1\n      tag_176\n      swap1\n      tag_175\n      jump\t// in\n    tag_176:\n      swap2\n      swap1\n      pop\n      sstore\n      pop\n        /* \"contracts/Kobis.sol\":2255:2258  i++ */\n      dup1\n      dup1\n      tag_177\n      swap1\n      tag_175\n      jump\t// in\n    tag_177:\n      swap2\n      pop\n      pop\n        /* \"contracts/Kobis.sol\":2212:2374  for(uint256 i = 0; i < communities.length; i++){... */\n      jump(tag_168)\n    tag_169:\n      pop\n        /* \"contracts/Kobis.sol\":1832:2380  function createUser(... */\n      pop\n      pop\n      pop\n      pop\n      jump\t// out\n        /* \"contracts/Kobis.sol\":2437:2627  function joinCommuinty(uint256 comId) public {... */\n    tag_50:\n        /* \"contracts/Kobis.sol\":2492:2496  User */\n      0x02\n        /* \"contracts/Kobis.sol\":2492:2508  User[msg.sender] */\n      0x00\n        /* \"contracts/Kobis.sol\":2497:2507  msg.sender */\n      caller\n        /* \"contracts/Kobis.sol\":2492:2508  User[msg.sender] */\n      0xffffffffffffffffffffffffffffffffffffffff\n      and\n      0xffffffffffffffffffffffffffffffffffffffff\n      and\n      dup2\n      mstore\n      0x20\n      add\n      swap1\n      dup2\n      mstore\n      0x20\n      add\n      0x00\n      keccak256\n        /* \"contracts/Kobis.sol\":2492:2520  User[msg.sender].communities */\n      0x09\n      add\n        /* \"contracts/Kobis.sol\":2526:2531  comId */\n      dup2\n        /* \"contracts/Kobis.sol\":2492:2532  User[msg.sender].communities.push(comId) */\n      swap1\n      dup1\n      0x01\n      dup2\n      sload\n      add\n      dup1\n      dup3\n      sstore\n      dup1\n      swap2\n      pop\n      pop\n      0x01\n      swap1\n      sub\n      swap1\n      0x00\n      mstore\n      keccak256(0x00, 0x20)\n      add\n      0x00\n      swap1\n      swap2\n      swap1\n      swap2\n      swap1\n      swap2\n      pop\n      sstore\n        /* \"contracts/Kobis.sol\":2542:2546  User */\n      0x02\n        /* \"contracts/Kobis.sol\":2542:2558  User[msg.sender] */\n      0x00\n        /* \"contracts/Kobis.sol\":2547:2557  msg.sender */\n      caller\n        /* \"contracts/Kobis.sol\":2542:2558  User[msg.sender] */\n      0xffffffffffffffffffffffffffffffffffffffff\n      and\n      0xffffffffffffffffffffffffffffffffffffffff\n      and\n      dup2\n      mstore\n      0x20\n      add\n      swap1\n      dup2\n      mstore\n      0x20\n      add\n      0x00\n      keccak256\n        /* \"contracts/Kobis.sol\":2542:2571  User[msg.sender].communityNum */\n      0x0a\n      add\n      0x00\n        /* \"contracts/Kobis.sol\":2542:2573  User[msg.sender].communityNum++ */\n      dup2\n      sload\n      dup1\n      swap3\n      swap2\n      swap1\n      tag_180\n      swap1\n      tag_175\n      jump\t// in\n    tag_180:\n      swap2\n      swap1\n      pop\n      sstore\n      pop\n        /* \"contracts/Kobis.sol\":2584:2600  communityProfile */\n      0x01\n        /* \"contracts/Kobis.sol\":2584:2607  communityProfile[comId] */\n      0x00\n        /* \"contracts/Kobis.sol\":2601:2606  comId */\n      dup3\n        /* \"contracts/Kobis.sol\":2584:2607  communityProfile[comId] */\n      dup2\n      mstore\n      0x20\n      add\n      swap1\n      dup2\n      mstore\n      0x20\n      add\n      0x00\n      keccak256\n        /* \"contracts/Kobis.sol\":2584:2618  communityProfile[comId].membersNum */\n      0x04\n      add\n      0x00\n        /* \"contracts/Kobis.sol\":2584:2620  communityProfile[comId].membersNum++ */\n      dup2\n      sload\n      dup1\n      swap3\n      swap2\n      swap1\n      tag_181\n      swap1\n      tag_175\n      jump\t// in\n    tag_181:\n      swap2\n      swap1\n      pop\n      sstore\n      pop\n        /* \"contracts/Kobis.sol\":2437:2627  function joinCommuinty(uint256 comId) public {... */\n      pop\n      jump\t// out\n        /* \"contracts/Kobis.sol\":4901:5008  function getUserProfile(address addr) public view returns(Profile memory){... */\n    tag_53:\n        /* \"contracts/Kobis.sol\":4959:4973  Profile memory */\n      tag_182\n      tag_183\n      jump\t// in\n    tag_182:\n        /* \"contracts/Kobis.sol\":4991:4995  User */\n      0x02\n        /* \"contracts/Kobis.sol\":4991:5001  User[addr] */\n      0x00\n        /* \"contracts/Kobis.sol\":4996:5000  addr */\n      dup4\n        /* \"contracts/Kobis.sol\":4991:5001  User[addr] */\n      0xffffffffffffffffffffffffffffffffffffffff\n      and\n      0xffffffffffffffffffffffffffffffffffffffff\n      and\n      dup2\n      mstore\n      0x20\n      add\n      swap1\n      dup2\n      mstore\n      0x20\n      add\n      0x00\n      keccak256\n        /* \"contracts/Kobis.sol\":4984:5001  return User[addr] */\n      mload(0x40)\n      dup1\n      0x0160\n      add\n      0x40\n      mstore\n      swap1\n      dup2\n      0x00\n      dup3\n      add\n      0x00\n      swap1\n      sload\n      swap1\n      0x0100\n      exp\n      swap1\n      div\n      0xffffffffffffffffffffffffffffffffffffffff\n      and\n      0xffffffffffffffffffffffffffffffffffffffff\n      and\n      0xffffffffffffffffffffffffffffffffffffffff\n      and\n      dup2\n      mstore\n      0x20\n      add\n      0x01\n      dup3\n      add\n      dup1\n      sload\n      tag_185\n      swap1\n      tag_78\n      jump\t// in\n    tag_185:\n      dup1\n      0x1f\n      add\n      0x20\n      dup1\n      swap2\n      div\n      mul\n      0x20\n      add\n      mload(0x40)\n      swap1\n      dup2\n      add\n      0x40\n      mstore\n      dup1\n      swap3\n      swap2\n      swap1\n      dup2\n      dup2\n      mstore\n      0x20\n      add\n      dup3\n      dup1\n      sload\n      tag_186\n      swap1\n      tag_78\n      jump\t// in\n    tag_186:\n      dup1\n      iszero\n      tag_187\n      jumpi\n      dup1\n      0x1f\n      lt\n      tag_188\n      jumpi\n      0x0100\n      dup1\n      dup4\n      sload\n      div\n      mul\n      dup4\n      mstore\n      swap2\n      0x20\n      add\n      swap2\n      jump(tag_187)\n    tag_188:\n      dup3\n      add\n      swap2\n      swap1\n      0x00\n      mstore\n      keccak256(0x00, 0x20)\n      swap1\n    tag_189:\n      dup2\n      sload\n      dup2\n      mstore\n      swap1\n      0x01\n      add\n      swap1\n      0x20\n      add\n      dup1\n      dup4\n      gt\n      tag_189\n      jumpi\n      dup3\n      swap1\n      sub\n      0x1f\n      and\n      dup3\n      add\n      swap2\n    tag_187:\n      pop\n      pop\n      pop\n      pop\n      pop\n      dup2\n      mstore\n      0x20\n      add\n      0x02\n      dup3\n      add\n      dup1\n      sload\n      tag_190\n      swap1\n      tag_78\n      jump\t// in\n    tag_190:\n      dup1\n      0x1f\n      add\n      0x20\n      dup1\n      swap2\n      div\n      mul\n      0x20\n      add\n      mload(0x40)\n      swap1\n      dup2\n      add\n      0x40\n      mstore\n      dup1\n      swap3\n      swap2\n      swap1\n      dup2\n      dup2\n      mstore\n      0x20\n      add\n      dup3\n      dup1\n      sload\n      tag_191\n      swap1\n      tag_78\n      jump\t// in\n    tag_191:\n      dup1\n      iszero\n      tag_192\n      jumpi\n      dup1\n      0x1f\n      lt\n      tag_193\n      jumpi\n      0x0100\n      dup1\n      dup4\n      sload\n      div\n      mul\n      dup4\n      mstore\n      swap2\n      0x20\n      add\n      swap2\n      jump(tag_192)\n    tag_193:\n      dup3\n      add\n      swap2\n      swap1\n      0x00\n      mstore\n      keccak256(0x00, 0x20)\n      swap1\n    tag_194:\n      dup2\n      sload\n      dup2\n      mstore\n      swap1\n      0x01\n      add\n      swap1\n      0x20\n      add\n      dup1\n      dup4\n      gt\n      tag_194\n      jumpi\n      dup3\n      swap1\n      sub\n      0x1f\n      and\n      dup3\n      add\n      swap2\n    tag_192:\n      pop\n      pop\n      pop\n      pop\n      pop\n      dup2\n      mstore\n      0x20\n      add\n      0x03\n      dup3\n      add\n      dup1\n      sload\n      tag_195\n      swap1\n      tag_78\n      jump\t// in\n    tag_195:\n      dup1\n      0x1f\n      add\n      0x20\n      dup1\n      swap2\n      div\n      mul\n      0x20\n      add\n      mload(0x40)\n      swap1\n      dup2\n      add\n      0x40\n      mstore\n      dup1\n      swap3\n      swap2\n      swap1\n      dup2\n      dup2\n      mstore\n      0x20\n      add\n      dup3\n      dup1\n      sload\n      tag_196\n      swap1\n      tag_78\n      jump\t// in\n    tag_196:\n      dup1\n      iszero\n      tag_197\n      jumpi\n      dup1\n      0x1f\n      lt\n      tag_198\n      jumpi\n      0x0100\n      dup1\n      dup4\n      sload\n      div\n      mul\n      dup4\n      mstore\n      swap2\n      0x20\n      add\n      swap2\n      jump(tag_197)\n    tag_198:\n      dup3\n      add\n      swap2\n      swap1\n      0x00\n      mstore\n      keccak256(0x00, 0x20)\n      swap1\n    tag_199:\n      dup2\n      sload\n      dup2\n      mstore\n      swap1\n      0x01\n      add\n      swap1\n      0x20\n      add\n      dup1\n      dup4\n      gt\n      tag_199\n      jumpi\n      dup3\n      swap1\n      sub\n      0x1f\n      and\n      dup3\n      add\n      swap2\n    tag_197:\n      pop\n      pop\n      pop\n      pop\n      pop\n      dup2\n      mstore\n      0x20\n      add\n      0x04\n      dup3\n      add\n      dup1\n      sload\n      dup1\n      0x20\n      mul\n      0x20\n      add\n      mload(0x40)\n      swap1\n      dup2\n      add\n      0x40\n      mstore\n      dup1\n      swap3\n      swap2\n      swap1\n      dup2\n      dup2\n      mstore\n      0x20\n      add\n      dup3\n      dup1\n      sload\n      dup1\n      iszero\n      tag_200\n      jumpi\n      0x20\n      mul\n      dup3\n      add\n      swap2\n      swap1\n      0x00\n      mstore\n      keccak256(0x00, 0x20)\n      swap1\n    tag_201:\n      dup2\n      0x00\n      swap1\n      sload\n      swap1\n      0x0100\n      exp\n      swap1\n      div\n      0xffffffffffffffffffffffffffffffffffffffff\n      and\n      0xffffffffffffffffffffffffffffffffffffffff\n      and\n      dup2\n      mstore\n      0x20\n      add\n      swap1\n      0x01\n      add\n      swap1\n      dup1\n      dup4\n      gt\n      tag_201\n      jumpi\n    tag_200:\n      pop\n      pop\n      pop\n      pop\n      pop\n      dup2\n      mstore\n      0x20\n      add\n      0x05\n      dup3\n      add\n      sload\n      dup2\n      mstore\n      0x20\n      add\n      0x06\n      dup3\n      add\n      sload\n      dup2\n      mstore\n      0x20\n      add\n      0x07\n      dup3\n      add\n      sload\n      dup2\n      mstore\n      0x20\n      add\n      0x08\n      dup3\n      add\n      0x00\n      swap1\n      sload\n      swap1\n      0x0100\n      exp\n      swap1\n      div\n      0xff\n      and\n      iszero\n      iszero\n      iszero\n      iszero\n      dup2\n      mstore\n      0x20\n      add\n      0x09\n      dup3\n      add\n      dup1\n      sload\n      dup1\n      0x20\n      mul\n      0x20\n      add\n      mload(0x40)\n      swap1\n      dup2\n      add\n      0x40\n      mstore\n      dup1\n      swap3\n      swap2\n      swap1\n      dup2\n      dup2\n      mstore\n      0x20\n      add\n      dup3\n      dup1\n      sload\n      dup1\n      iszero\n      tag_202\n      jumpi\n      0x20\n      mul\n      dup3\n      add\n      swap2\n      swap1\n      0x00\n      mstore\n      keccak256(0x00, 0x20)\n      swap1\n    tag_203:\n      dup2\n      sload\n      dup2\n      mstore\n      0x20\n      add\n      swap1\n      0x01\n      add\n      swap1\n      dup1\n      dup4\n      gt\n      tag_203\n      jumpi\n    tag_202:\n      pop\n      pop\n      pop\n      pop\n      pop\n      dup2\n      mstore\n      0x20\n      add\n      0x0a\n      dup3\n      add\n      sload\n      dup2\n      mstore\n      pop\n      pop\n      swap1\n      pop\n        /* \"contracts/Kobis.sol\":4901:5008  function getUserProfile(address addr) public view returns(Profile memory){... */\n      swap2\n      swap1\n      pop\n      jump\t// out\n        /* \"contracts/Kobis.sol\":1737:1789  mapping(uint256 => CommentContent []) public Comment */\n    tag_58:\n      mstore(0x20, 0x04)\n      dup2\n      0x00\n      mstore\n      keccak256(0x00, 0x40)\n      dup2\n      dup2\n      sload\n      dup2\n      lt\n      tag_204\n      jumpi\n      0x00\n      dup1\n      revert\n    tag_204:\n      swap1\n      0x00\n      mstore\n      keccak256(0x00, 0x20)\n      swap1\n      0x07\n      mul\n      add\n      0x00\n      swap2\n      pop\n      swap2\n      pop\n      pop\n      dup1\n      0x00\n      add\n      0x00\n      swap1\n      sload\n      swap1\n      0x0100\n      exp\n      swap1\n      div\n      0xffffffffffffffffffffffffffffffffffffffff\n      and\n      swap1\n      dup1\n      0x01\n      add\n      sload\n      swap1\n      dup1\n      0x02\n      add\n      sload\n      swap1\n      dup1\n      0x03\n      add\n      dup1\n      sload\n      tag_206\n      swap1\n      tag_78\n      jump\t// in\n    tag_206:\n      dup1\n      0x1f\n      add\n      0x20\n      dup1\n      swap2\n      div\n      mul\n      0x20\n      add\n      mload(0x40)\n      swap1\n      dup2\n      add\n      0x40\n      mstore\n      dup1\n      swap3\n      swap2\n      swap1\n      dup2\n      dup2\n      mstore\n      0x20\n      add\n      dup3\n      dup1\n      sload\n      tag_207\n      swap1\n      tag_78\n      jump\t// in\n    tag_207:\n      dup1\n      iszero\n      tag_208\n      jumpi\n      dup1\n      0x1f\n      lt\n      tag_209\n      jumpi\n      0x0100\n      dup1\n      dup4\n      sload\n      div\n      mul\n      dup4\n      mstore\n      swap2\n      0x20\n      add\n      swap2\n      jump(tag_208)\n    tag_209:\n      dup3\n      add\n      swap2\n      swap1\n      0x00\n      mstore\n      keccak256(0x00, 0x20)\n      swap1\n    tag_210:\n      dup2\n      sload\n      dup2\n      mstore\n      swap1\n      0x01\n      add\n      swap1\n      0x20\n      add\n      dup1\n      dup4\n      gt\n      tag_210\n      jumpi\n      dup3\n      swap1\n      sub\n      0x1f\n      and\n      dup3\n      add\n      swap2\n    tag_208:\n      pop\n      pop\n      pop\n      pop\n      pop\n      swap1\n      dup1\n      0x04\n      add\n      sload\n      swap1\n      dup1\n      0x05\n      add\n      mload(0x40)\n      dup1\n      0x40\n      add\n      0x40\n      mstore\n      swap1\n      dup2\n      0x00\n      dup3\n      add\n      dup1\n      sload\n      tag_211\n      swap1\n      tag_78\n      jump\t// in\n    tag_211:\n      dup1\n      0x1f\n      add\n      0x20\n      dup1\n      swap2\n      div\n      mul\n      0x20\n      add\n      mload(0x40)\n      swap1\n      dup2\n      add\n      0x40\n      mstore\n      dup1\n      swap3\n      swap2\n      swap1\n      dup2\n      dup2\n      mstore\n      0x20\n      add\n      dup3\n      dup1\n      sload\n      tag_212\n      swap1\n      tag_78\n      jump\t// in\n    tag_212:\n      dup1\n      iszero\n      tag_213\n      jumpi\n      dup1\n      0x1f\n      lt\n      tag_214\n      jumpi\n      0x0100\n      dup1\n      dup4\n      sload\n      div\n      mul\n      dup4\n      mstore\n      swap2\n      0x20\n      add\n      swap2\n      jump(tag_213)\n    tag_214:\n      dup3\n      add\n      swap2\n      swap1\n      0x00\n      mstore\n      keccak256(0x00, 0x20)\n      swap1\n    tag_215:\n      dup2\n      sload\n      dup2\n      mstore\n      swap1\n      0x01\n      add\n      swap1\n      0x20\n      add\n      dup1\n      dup4\n      gt\n      tag_215\n      jumpi\n      dup3\n      swap1\n      sub\n      0x1f\n      and\n      dup3\n      add\n      swap2\n    tag_213:\n      pop\n      pop\n      pop\n      pop\n      pop\n      dup2\n      mstore\n      0x20\n      add\n      0x01\n      dup3\n      add\n      dup1\n      sload\n      tag_216\n      swap1\n      tag_78\n      jump\t// in\n    tag_216:\n      dup1\n      0x1f\n      add\n      0x20\n      dup1\n      swap2\n      div\n      mul\n      0x20\n      add\n      mload(0x40)\n      swap1\n      dup2\n      add\n      0x40\n      mstore\n      dup1\n      swap3\n      swap2\n      swap1\n      dup2\n      dup2\n      mstore\n      0x20\n      add\n      dup3\n      dup1\n      sload\n      tag_217\n      swap1\n      tag_78\n      jump\t// in\n    tag_217:\n      dup1\n      iszero\n      tag_218\n      jumpi\n      dup1\n      0x1f\n      lt\n      tag_219\n      jumpi\n      0x0100\n      dup1\n      dup4\n      sload\n      div\n      mul\n      dup4\n      mstore\n      swap2\n      0x20\n      add\n      swap2\n      jump(tag_218)\n    tag_219:\n      dup3\n      add\n      swap2\n      swap1\n      0x00\n      mstore\n      keccak256(0x00, 0x20)\n      swap1\n    tag_220:\n      dup2\n      sload\n      dup2\n      mstore\n      swap1\n      0x01\n      add\n      swap1\n      0x20\n      add\n      dup1\n      dup4\n      gt\n      tag_220\n      jumpi\n      dup3\n      swap1\n      sub\n      0x1f\n      and\n      dup3\n      add\n      swap2\n    tag_218:\n      pop\n      pop\n      pop\n      pop\n      pop\n      dup2\n      mstore\n      pop\n      pop\n      swap1\n      pop\n      dup7\n      jump\t// out\n        /* \"contracts/Kobis.sol\":2673:2978  function createCommunity (... */\n    tag_64:\n        /* \"contracts/Kobis.sol\":2799:2803  name */\n      dup1\n        /* \"contracts/Kobis.sol\":2757:2773  communityProfile */\n      0x01\n        /* \"contracts/Kobis.sol\":2757:2791  communityProfile[communityCounter] */\n      0x00\n        /* \"contracts/Kobis.sol\":2774:2790  communityCounter */\n      dup1\n      sload\n        /* \"contracts/Kobis.sol\":2757:2791  communityProfile[communityCounter] */\n      dup2\n      mstore\n      0x20\n      add\n      swap1\n      dup2\n      mstore\n      0x20\n      add\n      0x00\n      keccak256\n        /* \"contracts/Kobis.sol\":2757:2796  communityProfile[communityCounter].name */\n      0x00\n      add\n        /* \"contracts/Kobis.sol\":2757:2803  communityProfile[communityCounter].name = name */\n      swap1\n      dup1\n      mload\n      swap1\n      0x20\n      add\n      swap1\n      tag_222\n      swap3\n      swap2\n      swap1\n      tag_163\n      jump\t// in\n    tag_222:\n      pop\n        /* \"contracts/Kobis.sol\":2854:2870  communityCounter */\n      sload(0x00)\n        /* \"contracts/Kobis.sol\":2813:2829  communityProfile */\n      0x01\n        /* \"contracts/Kobis.sol\":2813:2847  communityProfile[communityCounter] */\n      0x00\n        /* \"contracts/Kobis.sol\":2830:2846  communityCounter */\n      dup1\n      sload\n        /* \"contracts/Kobis.sol\":2813:2847  communityProfile[communityCounter] */\n      dup2\n      mstore\n      0x20\n      add\n      swap1\n      dup2\n      mstore\n      0x20\n      add\n      0x00\n      keccak256\n        /* \"contracts/Kobis.sol\":2813:2851  communityProfile[communityCounter].uid */\n      0x01\n      add\n        /* \"contracts/Kobis.sol\":2813:2870  communityProfile[communityCounter].uid = communityCounter */\n      dup2\n      swap1\n      sstore\n      pop\n        /* \"contracts/Kobis.sol\":2931:2941  msg.sender */\n      caller\n        /* \"contracts/Kobis.sol\":2880:2896  communityProfile */\n      0x01\n        /* \"contracts/Kobis.sol\":2880:2914  communityProfile[communityCounter] */\n      0x00\n        /* \"contracts/Kobis.sol\":2897:2913  communityCounter */\n      dup1\n      sload\n        /* \"contracts/Kobis.sol\":2880:2914  communityProfile[communityCounter] */\n      dup2\n      mstore\n      0x20\n      add\n      swap1\n      dup2\n      mstore\n      0x20\n      add\n      0x00\n      keccak256\n        /* \"contracts/Kobis.sol\":2880:2920  communityProfile[communityCounter].admin */\n      0x02\n      add\n      0x00\n        /* \"contracts/Kobis.sol\":2880:2942  communityProfile[communityCounter].admin = payable(msg.sender) */\n      0x0100\n      exp\n      dup2\n      sload\n      dup2\n      0xffffffffffffffffffffffffffffffffffffffff\n      mul\n      not\n      and\n      swap1\n      dup4\n      0xffffffffffffffffffffffffffffffffffffffff\n      and\n      mul\n      or\n      swap1\n      sstore\n      pop\n        /* \"contracts/Kobis.sol\":2953:2969  communityCounter */\n      0x00\n      dup1\n        /* \"contracts/Kobis.sol\":2953:2971  communityCounter++ */\n      dup2\n      sload\n      dup1\n      swap3\n      swap2\n      swap1\n      tag_223\n      swap1\n      tag_175\n      jump\t// in\n    tag_223:\n      swap2\n      swap1\n      pop\n      sstore\n      pop\n        /* \"contracts/Kobis.sol\":2673:2978  function createCommunity (... */\n      pop\n      jump\t// out\n        /* \"contracts/Kobis.sol\":3862:4508  function createComment(... */\n    tag_68:\n        /* \"contracts/Kobis.sol\":4046:4072  fileContent memory newFile */\n      tag_225\n      tag_226\n      jump\t// in\n    tag_225:\n        /* \"contracts/Kobis.sol\":4101:4109  fileIpfs */\n      dup3\n        /* \"contracts/Kobis.sol\":4082:4089  newFile */\n      dup2\n        /* \"contracts/Kobis.sol\":4082:4098  newFile.fileIpfs */\n      0x00\n      add\n        /* \"contracts/Kobis.sol\":4082:4109  newFile.fileIpfs = fileIpfs */\n      dup2\n      swap1\n      mstore\n      pop\n        /* \"contracts/Kobis.sol\":4138:4146  fileType */\n      dup2\n        /* \"contracts/Kobis.sol\":4119:4126  newFile */\n      dup2\n        /* \"contracts/Kobis.sol\":4119:4135  newFile.fileType */\n      0x20\n      add\n        /* \"contracts/Kobis.sol\":4119:4146  newFile.fileType = fileType */\n      dup2\n      swap1\n      mstore\n      pop\n        /* \"contracts/Kobis.sol\":4157:4189  CommentContent memory newComment */\n      tag_227\n      tag_228\n      jump\t// in\n    tag_227:\n        /* \"contracts/Kobis.sol\":4228:4238  msg.sender */\n      caller\n        /* \"contracts/Kobis.sol\":4200:4210  newComment */\n      dup2\n        /* \"contracts/Kobis.sol\":4200:4217  newComment.author */\n      0x00\n      add\n        /* \"contracts/Kobis.sol\":4200:4239  newComment.author = payable(msg.sender) */\n      swap1\n      0xffffffffffffffffffffffffffffffffffffffff\n      and\n      swap1\n      dup2\n      0xffffffffffffffffffffffffffffffffffffffff\n      and\n      dup2\n      mstore\n      pop\n      pop\n        /* \"contracts/Kobis.sol\":4268:4273  comId */\n      dup7\n        /* \"contracts/Kobis.sol\":4249:4259  newComment */\n      dup2\n        /* \"contracts/Kobis.sol\":4249:4265  newComment.comId */\n      0x20\n      add\n        /* \"contracts/Kobis.sol\":4249:4273  newComment.comId = comId */\n      dup2\n      dup2\n      mstore\n      pop\n      pop\n        /* \"contracts/Kobis.sol\":4303:4309  postId */\n      dup6\n        /* \"contracts/Kobis.sol\":4283:4293  newComment */\n      dup2\n        /* \"contracts/Kobis.sol\":4283:4300  newComment.postId */\n      0x40\n      add\n        /* \"contracts/Kobis.sol\":4283:4309  newComment.postId = postId */\n      dup2\n      dup2\n      mstore\n      pop\n      pop\n        /* \"contracts/Kobis.sol\":4338:4342  text */\n      dup5\n        /* \"contracts/Kobis.sol\":4320:4330  newComment */\n      dup2\n        /* \"contracts/Kobis.sol\":4320:4335  newComment.post */\n      0x60\n      add\n        /* \"contracts/Kobis.sol\":4320:4342  newComment.post = text */\n      dup2\n      swap1\n      mstore\n      pop\n        /* \"contracts/Kobis.sol\":4371:4386  block.timestamp */\n      timestamp\n        /* \"contracts/Kobis.sol\":4353:4363  newComment */\n      dup2\n        /* \"contracts/Kobis.sol\":4353:4368  newComment.time */\n      0x80\n      add\n        /* \"contracts/Kobis.sol\":4353:4386  newComment.time = block.timestamp */\n      dup2\n      dup2\n      mstore\n      pop\n      pop\n        /* \"contracts/Kobis.sol\":4414:4421  newFile */\n      dup2\n        /* \"contracts/Kobis.sol\":4396:4406  newComment */\n      dup2\n        /* \"contracts/Kobis.sol\":4396:4411  newComment.file */\n      0xa0\n      add\n        /* \"contracts/Kobis.sol\":4396:4421  newComment.file = newFile */\n      dup2\n      swap1\n      mstore\n      pop\n        /* \"contracts/Kobis.sol\":4432:4436  Post */\n      0x03\n        /* \"contracts/Kobis.sol\":4432:4443  Post[comId] */\n      0x00\n        /* \"contracts/Kobis.sol\":4437:4442  comId */\n      dup9\n        /* \"contracts/Kobis.sol\":4432:4443  Post[comId] */\n      dup2\n      mstore\n      0x20\n      add\n      swap1\n      dup2\n      mstore\n      0x20\n      add\n      0x00\n      keccak256\n        /* \"contracts/Kobis.sol\":4444:4450  postId */\n      dup7\n        /* \"contracts/Kobis.sol\":4432:4451  Post[comId][postId] */\n      dup2\n      sload\n      dup2\n      lt\n      tag_229\n      jumpi\n      tag_230\n      tag_173\n      jump\t// in\n    tag_230:\n    tag_229:\n      swap1\n      0x00\n      mstore\n      keccak256(0x00, 0x20)\n      swap1\n      0x0a\n      mul\n      add\n        /* \"contracts/Kobis.sol\":4432:4458  Post[comId][postId].comNum */\n      0x04\n      add\n      0x00\n        /* \"contracts/Kobis.sol\":4432:4460  Post[comId][postId].comNum++ */\n      dup2\n      sload\n      dup1\n      swap3\n      swap2\n      swap1\n      tag_232\n      swap1\n      tag_175\n      jump\t// in\n    tag_232:\n      swap2\n      swap1\n      pop\n      sstore\n      pop\n        /* \"contracts/Kobis.sol\":4470:4477  Comment */\n      0x04\n        /* \"contracts/Kobis.sol\":4470:4484  Comment[comId] */\n      0x00\n        /* \"contracts/Kobis.sol\":4478:4483  comId */\n      dup9\n        /* \"contracts/Kobis.sol\":4470:4484  Comment[comId] */\n      dup2\n      mstore\n      0x20\n      add\n      swap1\n      dup2\n      mstore\n      0x20\n      add\n      0x00\n      keccak256\n        /* \"contracts/Kobis.sol\":4490:4500  newComment */\n      dup2\n        /* \"contracts/Kobis.sol\":4470:4501  Comment[comId].push(newComment) */\n      swap1\n      dup1\n      0x01\n      dup2\n      sload\n      add\n      dup1\n      dup3\n      sstore\n      dup1\n      swap2\n      pop\n      pop\n      0x01\n      swap1\n      sub\n      swap1\n      0x00\n      mstore\n      keccak256(0x00, 0x20)\n      swap1\n      0x07\n      mul\n      add\n      0x00\n      swap1\n      swap2\n      swap1\n      swap2\n      swap1\n      swap2\n      pop\n      0x00\n      dup3\n      add\n      mload\n      dup2\n      0x00\n      add\n      exp(0x0100, 0x00)\n      dup2\n      sload\n      dup2\n      0xffffffffffffffffffffffffffffffffffffffff\n      mul\n      not\n      and\n      swap1\n      dup4\n      0xffffffffffffffffffffffffffffffffffffffff\n      and\n      mul\n      or\n      swap1\n      sstore\n      pop\n      0x20\n      dup3\n      add\n      mload\n      dup2\n      0x01\n      add\n      sstore\n      0x40\n      dup3\n      add\n      mload\n      dup2\n      0x02\n      add\n      sstore\n      0x60\n      dup3\n      add\n      mload\n      dup2\n      0x03\n      add\n      swap1\n      dup1\n      mload\n      swap1\n      0x20\n      add\n      swap1\n      tag_234\n      swap3\n      swap2\n      swap1\n      tag_163\n      jump\t// in\n    tag_234:\n      pop\n      0x80\n      dup3\n      add\n      mload\n      dup2\n      0x04\n      add\n      sstore\n      0xa0\n      dup3\n      add\n      mload\n      dup2\n      0x05\n      add\n      0x00\n      dup3\n      add\n      mload\n      dup2\n      0x00\n      add\n      swap1\n      dup1\n      mload\n      swap1\n      0x20\n      add\n      swap1\n      tag_235\n      swap3\n      swap2\n      swap1\n      tag_163\n      jump\t// in\n    tag_235:\n      pop\n      0x20\n      dup3\n      add\n      mload\n      dup2\n      0x01\n      add\n      swap1\n      dup1\n      mload\n      swap1\n      0x20\n      add\n      swap1\n      tag_236\n      swap3\n      swap2\n      swap1\n      tag_163\n      jump\t// in\n    tag_236:\n      pop\n      pop\n      pop\n      pop\n      pop\n        /* \"contracts/Kobis.sol\":4036:4508  {... */\n      pop\n      pop\n        /* \"contracts/Kobis.sol\":3862:4508  function createComment(... */\n      pop\n      pop\n      pop\n      pop\n      pop\n      jump\t// out\n        /* \"contracts/Kobis.sol\":3027:3776  function createPost(... */\n    tag_72:\n        /* \"contracts/Kobis.sol\":3253:3279  fileContent memory newFile */\n      tag_238\n      tag_226\n      jump\t// in\n    tag_238:\n        /* \"contracts/Kobis.sol\":3308:3316  fileIpfs */\n      dup3\n        /* \"contracts/Kobis.sol\":3289:3296  newFile */\n      dup2\n        /* \"contracts/Kobis.sol\":3289:3305  newFile.fileIpfs */\n      0x00\n      add\n        /* \"contracts/Kobis.sol\":3289:3316  newFile.fileIpfs = fileIpfs */\n      dup2\n      swap1\n      mstore\n      pop\n        /* \"contracts/Kobis.sol\":3345:3353  fileType */\n      dup2\n        /* \"contracts/Kobis.sol\":3326:3333  newFile */\n      dup2\n        /* \"contracts/Kobis.sol\":3326:3342  newFile.fileType */\n      0x20\n      add\n        /* \"contracts/Kobis.sol\":3326:3353  newFile.fileType = fileType */\n      dup2\n      swap1\n      mstore\n      pop\n        /* \"contracts/Kobis.sol\":3364:3390  PostContent memory newPost */\n      tag_239\n      tag_240\n      jump\t// in\n    tag_239:\n        /* \"contracts/Kobis.sol\":3418:3428  msg.sender */\n      caller\n        /* \"contracts/Kobis.sol\":3401:3408  newPost */\n      dup2\n        /* \"contracts/Kobis.sol\":3401:3415  newPost.author */\n      0xa0\n      add\n        /* \"contracts/Kobis.sol\":3401:3428  newPost.author = msg.sender */\n      swap1\n      0xffffffffffffffffffffffffffffffffffffffff\n      and\n      swap1\n      dup2\n      0xffffffffffffffffffffffffffffffffffffffff\n      and\n      dup2\n      mstore\n      pop\n      pop\n        /* \"contracts/Kobis.sol\":3453:3457  name */\n      dup8\n        /* \"contracts/Kobis.sol\":3438:3445  newPost */\n      dup2\n        /* \"contracts/Kobis.sol\":3438:3450  newPost.name */\n      0x00\n      add\n        /* \"contracts/Kobis.sol\":3438:3457  newPost.name = name */\n      dup2\n      swap1\n      mstore\n      pop\n        /* \"contracts/Kobis.sol\":3482:3486  post */\n      dup7\n        /* \"contracts/Kobis.sol\":3467:3474  newPost */\n      dup2\n        /* \"contracts/Kobis.sol\":3467:3479  newPost.post */\n      0x20\n      add\n        /* \"contracts/Kobis.sol\":3467:3486  newPost.post = post */\n      dup2\n      swap1\n      mstore\n      pop\n        /* \"contracts/Kobis.sol\":3511:3526  block.timestamp */\n      timestamp\n        /* \"contracts/Kobis.sol\":3496:3503  newPost */\n      dup2\n        /* \"contracts/Kobis.sol\":3496:3508  newPost.time */\n      0x40\n      add\n        /* \"contracts/Kobis.sol\":3496:3526  newPost.time = block.timestamp */\n      dup2\n      dup2\n      mstore\n      pop\n      pop\n        /* \"contracts/Kobis.sol\":3559:3571  hideIdentity */\n      dup6\n        /* \"contracts/Kobis.sol\":3536:3543  newPost */\n      dup2\n        /* \"contracts/Kobis.sol\":3536:3556  newPost.hideIdentity */\n      0x60\n      add\n        /* \"contracts/Kobis.sol\":3536:3571  newPost.hideIdentity = hideIdentity */\n      swap1\n      iszero\n      iszero\n      swap1\n      dup2\n      iszero\n      iszero\n      dup2\n      mstore\n      pop\n      pop\n        /* \"contracts/Kobis.sol\":3601:3610  community */\n      dup5\n        /* \"contracts/Kobis.sol\":3581:3588  newPost */\n      dup2\n        /* \"contracts/Kobis.sol\":3581:3598  newPost.community */\n      0xc0\n      add\n        /* \"contracts/Kobis.sol\":3581:3610  newPost.community = community */\n      dup2\n      dup2\n      mstore\n      pop\n      pop\n        /* \"contracts/Kobis.sol\":3635:3642  newFile */\n      dup2\n        /* \"contracts/Kobis.sol\":3620:3627  newPost */\n      dup2\n        /* \"contracts/Kobis.sol\":3620:3632  newPost.file */\n      0xe0\n      add\n        /* \"contracts/Kobis.sol\":3620:3642  newPost.file = newFile */\n      dup2\n      swap1\n      mstore\n      pop\n        /* \"contracts/Kobis.sol\":3653:3657  Post */\n      0x03\n        /* \"contracts/Kobis.sol\":3653:3668  Post[community] */\n      0x00\n        /* \"contracts/Kobis.sol\":3658:3667  community */\n      dup7\n        /* \"contracts/Kobis.sol\":3653:3668  Post[community] */\n      dup2\n      mstore\n      0x20\n      add\n      swap1\n      dup2\n      mstore\n      0x20\n      add\n      0x00\n      keccak256\n        /* \"contracts/Kobis.sol\":3674:3681  newPost */\n      dup2\n        /* \"contracts/Kobis.sol\":3653:3682  Post[community].push(newPost) */\n      swap1\n      dup1\n      0x01\n      dup2\n      sload\n      add\n      dup1\n      dup3\n      sstore\n      dup1\n      swap2\n      pop\n      pop\n      0x01\n      swap1\n      sub\n      swap1\n      0x00\n      mstore\n      keccak256(0x00, 0x20)\n      swap1\n      0x0a\n      mul\n      add\n      0x00\n      swap1\n      swap2\n      swap1\n      swap2\n      swap1\n      swap2\n      pop\n      0x00\n      dup3\n      add\n      mload\n      dup2\n      0x00\n      add\n      swap1\n      dup1\n      mload\n      swap1\n      0x20\n      add\n      swap1\n      tag_242\n      swap3\n      swap2\n      swap1\n      tag_163\n      jump\t// in\n    tag_242:\n      pop\n      0x20\n      dup3\n      add\n      mload\n      dup2\n      0x01\n      add\n      swap1\n      dup1\n      mload\n      swap1\n      0x20\n      add\n      swap1\n      tag_243\n      swap3\n      swap2\n      swap1\n      tag_163\n      jump\t// in\n    tag_243:\n      pop\n      0x40\n      dup3\n      add\n      mload\n      dup2\n      0x02\n      add\n      sstore\n      0x60\n      dup3\n      add\n      mload\n      dup2\n      0x03\n      add\n      exp(0x0100, 0x00)\n      dup2\n      sload\n      dup2\n      0xff\n      mul\n      not\n      and\n      swap1\n      dup4\n      iszero\n      iszero\n      mul\n      or\n      swap1\n      sstore\n      pop\n      0x80\n      dup3\n      add\n      mload\n      dup2\n      0x04\n      add\n      sstore\n      0xa0\n      dup3\n      add\n      mload\n      dup2\n      0x05\n      add\n      exp(0x0100, 0x00)\n      dup2\n      sload\n      dup2\n      0xffffffffffffffffffffffffffffffffffffffff\n      mul\n      not\n      and\n      swap1\n      dup4\n      0xffffffffffffffffffffffffffffffffffffffff\n      and\n      mul\n      or\n      swap1\n      sstore\n      pop\n      0xc0\n      dup3\n      add\n      mload\n      dup2\n      0x06\n      add\n      sstore\n      0xe0\n      dup3\n      add\n      mload\n      dup2\n      0x07\n      add\n      0x00\n      dup3\n      add\n      mload\n      dup2\n      0x00\n      add\n      swap1\n      dup1\n      mload\n      swap1\n      0x20\n      add\n      swap1\n      tag_244\n      swap3\n      swap2\n      swap1\n      tag_163\n      jump\t// in\n    tag_244:\n      pop\n      0x20\n      dup3\n      add\n      mload\n      dup2\n      0x01\n      add\n      swap1\n      dup1\n      mload\n      swap1\n      0x20\n      add\n      swap1\n      tag_245\n      swap3\n      swap2\n      swap1\n      tag_163\n      jump\t// in\n    tag_245:\n      pop\n      pop\n      pop\n      0x0100\n      dup3\n      add\n      mload\n      dup2\n      0x09\n      add\n      swap1\n      dup1\n      mload\n      swap1\n      0x20\n      add\n      swap1\n      tag_246\n      swap3\n      swap2\n      swap1\n      tag_167\n      jump\t// in\n    tag_246:\n      pop\n      pop\n      pop\n        /* \"contracts/Kobis.sol\":3693:3709  communityProfile */\n      0x01\n        /* \"contracts/Kobis.sol\":3693:3720  communityProfile[community] */\n      0x00\n        /* \"contracts/Kobis.sol\":3710:3719  community */\n      dup7\n        /* \"contracts/Kobis.sol\":3693:3720  communityProfile[community] */\n      dup2\n      mstore\n      0x20\n      add\n      swap1\n      dup2\n      mstore\n      0x20\n      add\n      0x00\n      keccak256\n        /* \"contracts/Kobis.sol\":3693:3728  communityProfile[community].postNum */\n      0x07\n      add\n      0x00\n        /* \"contracts/Kobis.sol\":3693:3730  communityProfile[community].postNum++ */\n      dup2\n      sload\n      dup1\n      swap3\n      swap2\n      swap1\n      tag_247\n      swap1\n      tag_175\n      jump\t// in\n    tag_247:\n      swap2\n      swap1\n      pop\n      sstore\n      pop\n        /* \"contracts/Kobis.sol\":3742:3746  User */\n      0x02\n        /* \"contracts/Kobis.sol\":3742:3758  User[msg.sender] */\n      0x00\n        /* \"contracts/Kobis.sol\":3747:3757  msg.sender */\n      caller\n        /* \"contracts/Kobis.sol\":3742:3758  User[msg.sender] */\n      0xffffffffffffffffffffffffffffffffffffffff\n      and\n      0xffffffffffffffffffffffffffffffffffffffff\n      and\n      dup2\n      mstore\n      0x20\n      add\n      swap1\n      dup2\n      mstore\n      0x20\n      add\n      0x00\n      keccak256\n        /* \"contracts/Kobis.sol\":3742:3766  User[msg.sender].postNum */\n      0x07\n      add\n      0x00\n        /* \"contracts/Kobis.sol\":3742:3768  User[msg.sender].postNum++ */\n      dup2\n      sload\n      dup1\n      swap3\n      swap2\n      swap1\n      tag_248\n      swap1\n      tag_175\n      jump\t// in\n    tag_248:\n      swap2\n      swap1\n      pop\n      sstore\n      pop\n        /* \"contracts/Kobis.sol\":3236:3776  {... */\n      pop\n      pop\n        /* \"contracts/Kobis.sol\":3027:3776  function createPost(... */\n      pop\n      pop\n      pop\n      pop\n      pop\n      pop\n      jump\t// out\n    tag_163:\n      dup3\n      dup1\n      sload\n      tag_249\n      swap1\n      tag_78\n      jump\t// in\n    tag_249:\n      swap1\n      0x00\n      mstore\n      keccak256(0x00, 0x20)\n      swap1\n      0x1f\n      add\n      0x20\n      swap1\n      div\n      dup2\n      add\n      swap3\n      dup3\n      tag_251\n      jumpi\n      0x00\n      dup6\n      sstore\n      jump(tag_250)\n    tag_251:\n      dup3\n      0x1f\n      lt\n      tag_252\n      jumpi\n      dup1\n      mload\n      not(0xff)\n      and\n      dup4\n      dup1\n      add\n      or\n      dup6\n      sstore\n      jump(tag_250)\n    tag_252:\n      dup3\n      dup1\n      add\n      0x01\n      add\n      dup6\n      sstore\n      dup3\n      iszero\n      tag_250\n      jumpi\n      swap2\n      dup3\n      add\n    tag_253:\n      dup3\n      dup2\n      gt\n      iszero\n      tag_254\n      jumpi\n      dup3\n      mload\n      dup3\n      sstore\n      swap2\n      0x20\n      add\n      swap2\n      swap1\n      0x01\n      add\n      swap1\n      jump(tag_253)\n    tag_254:\n    tag_250:\n      pop\n      swap1\n      pop\n      tag_255\n      swap2\n      swap1\n      tag_256\n      jump\t// in\n    tag_255:\n      pop\n      swap1\n      jump\t// out\n    tag_167:\n      dup3\n      dup1\n      sload\n      dup3\n      dup3\n      sstore\n      swap1\n      0x00\n      mstore\n      keccak256(0x00, 0x20)\n      swap1\n      dup2\n      add\n      swap3\n      dup3\n      iszero\n      tag_257\n      jumpi\n      swap2\n      0x20\n      mul\n      dup3\n      add\n    tag_258:\n      dup3\n      dup2\n      gt\n      iszero\n      tag_259\n      jumpi\n      dup3\n      mload\n      dup3\n      sstore\n      swap2\n      0x20\n      add\n      swap2\n      swap1\n      0x01\n      add\n      swap1\n      jump(tag_258)\n    tag_259:\n    tag_257:\n      pop\n      swap1\n      pop\n      tag_260\n      swap2\n      swap1\n      tag_256\n      jump\t// in\n    tag_260:\n      pop\n      swap1\n      jump\t// out\n    tag_183:\n      mload(0x40)\n      dup1\n      0x0160\n      add\n      0x40\n      mstore\n      dup1\n      and(0xffffffffffffffffffffffffffffffffffffffff, 0x00)\n      dup2\n      mstore\n      0x20\n      add\n      0x60\n      dup2\n      mstore\n      0x20\n      add\n      0x60\n      dup2\n      mstore\n      0x20\n      add\n      0x60\n      dup2\n      mstore\n      0x20\n      add\n      0x60\n      dup2\n      mstore\n      0x20\n      add\n      0x00\n      dup2\n      mstore\n      0x20\n      add\n      0x00\n      dup2\n      mstore\n      0x20\n      add\n      0x00\n      dup2\n      mstore\n      0x20\n      add\n      iszero(iszero(0x00))\n      dup2\n      mstore\n      0x20\n      add\n      0x60\n      dup2\n      mstore\n      0x20\n      add\n      0x00\n      dup2\n      mstore\n      pop\n      swap1\n      jump\t// out\n    tag_226:\n      mload(0x40)\n      dup1\n      0x40\n      add\n      0x40\n      mstore\n      dup1\n      0x60\n      dup2\n      mstore\n      0x20\n      add\n      0x60\n      dup2\n      mstore\n      pop\n      swap1\n      jump\t// out\n    tag_228:\n      mload(0x40)\n      dup1\n      0xc0\n      add\n      0x40\n      mstore\n      dup1\n      and(0xffffffffffffffffffffffffffffffffffffffff, 0x00)\n      dup2\n      mstore\n      0x20\n      add\n      0x00\n      dup2\n      mstore\n      0x20\n      add\n      0x00\n      dup2\n      mstore\n      0x20\n      add\n      0x60\n      dup2\n      mstore\n      0x20\n      add\n      0x00\n      dup2\n      mstore\n      0x20\n      add\n      tag_261\n      tag_226\n      jump\t// in\n    tag_261:\n      dup2\n      mstore\n      pop\n      swap1\n      jump\t// out\n    tag_240:\n      mload(0x40)\n      dup1\n      0x0120\n      add\n      0x40\n      mstore\n      dup1\n      0x60\n      dup2\n      mstore\n      0x20\n      add\n      0x60\n      dup2\n      mstore\n      0x20\n      add\n      0x00\n      dup2\n      mstore\n      0x20\n      add\n      iszero(iszero(0x00))\n      dup2\n      mstore\n      0x20\n      add\n      0x00\n      dup2\n      mstore\n      0x20\n      add\n      and(0xffffffffffffffffffffffffffffffffffffffff, 0x00)\n      dup2\n      mstore\n      0x20\n      add\n      0x00\n      dup2\n      mstore\n      0x20\n      add\n      tag_262\n      tag_226\n      jump\t// in\n    tag_262:\n      dup2\n      mstore\n      0x20\n      add\n      0x60\n      dup2\n      mstore\n      pop\n      swap1\n      jump\t// out\n    tag_256:\n    tag_263:\n      dup1\n      dup3\n      gt\n      iszero\n      tag_264\n      jumpi\n      0x00\n      dup2\n      0x00\n      swap1\n      sstore\n      pop\n      0x01\n      add\n      jump(tag_263)\n    tag_264:\n      pop\n      swap1\n      jump\t// out\n        /* \"#utility.yul\":24:746   */\n    tag_266:\n        /* \"#utility.yul\":120:125   */\n      0x00\n        /* \"#utility.yul\":145:226   */\n      tag_268\n        /* \"#utility.yul\":161:225   */\n      tag_269\n        /* \"#utility.yul\":218:224   */\n      dup5\n        /* \"#utility.yul\":161:225   */\n      tag_270\n      jump\t// in\n    tag_269:\n        /* \"#utility.yul\":145:226   */\n      tag_271\n      jump\t// in\n    tag_268:\n        /* \"#utility.yul\":136:226   */\n      swap1\n      pop\n        /* \"#utility.yul\":246:251   */\n      dup1\n        /* \"#utility.yul\":275:281   */\n      dup4\n        /* \"#utility.yul\":268:273   */\n      dup3\n        /* \"#utility.yul\":261:282   */\n      mstore\n        /* \"#utility.yul\":309:313   */\n      0x20\n        /* \"#utility.yul\":302:307   */\n      dup3\n        /* \"#utility.yul\":298:314   */\n      add\n        /* \"#utility.yul\":291:314   */\n      swap1\n      pop\n        /* \"#utility.yul\":335:341   */\n      dup3\n        /* \"#utility.yul\":385:388   */\n      dup6\n        /* \"#utility.yul\":377:381   */\n      0x20\n        /* \"#utility.yul\":369:375   */\n      dup7\n        /* \"#utility.yul\":365:382   */\n      mul\n        /* \"#utility.yul\":360:363   */\n      dup3\n        /* \"#utility.yul\":356:383   */\n      add\n        /* \"#utility.yul\":353:389   */\n      gt\n        /* \"#utility.yul\":350:493   */\n      iszero\n      tag_272\n      jumpi\n        /* \"#utility.yul\":404:483   */\n      tag_273\n      tag_274\n      jump\t// in\n    tag_273:\n        /* \"#utility.yul\":350:493   */\n    tag_272:\n        /* \"#utility.yul\":517:518   */\n      0x00\n        /* \"#utility.yul\":502:740   */\n    tag_275:\n        /* \"#utility.yul\":527:533   */\n      dup6\n        /* \"#utility.yul\":524:525   */\n      dup2\n        /* \"#utility.yul\":521:534   */\n      lt\n        /* \"#utility.yul\":502:740   */\n      iszero\n      tag_277\n      jumpi\n        /* \"#utility.yul\":595:598   */\n      dup2\n        /* \"#utility.yul\":624:661   */\n      tag_278\n        /* \"#utility.yul\":657:660   */\n      dup9\n        /* \"#utility.yul\":645:655   */\n      dup3\n        /* \"#utility.yul\":624:661   */\n      tag_279\n      jump\t// in\n    tag_278:\n        /* \"#utility.yul\":619:622   */\n      dup5\n        /* \"#utility.yul\":612:662   */\n      mstore\n        /* \"#utility.yul\":691:695   */\n      0x20\n        /* \"#utility.yul\":686:689   */\n      dup5\n        /* \"#utility.yul\":682:696   */\n      add\n        /* \"#utility.yul\":675:696   */\n      swap4\n      pop\n        /* \"#utility.yul\":725:729   */\n      0x20\n        /* \"#utility.yul\":720:723   */\n      dup4\n        /* \"#utility.yul\":716:730   */\n      add\n        /* \"#utility.yul\":709:730   */\n      swap3\n      pop\n        /* \"#utility.yul\":562:740   */\n      pop\n        /* \"#utility.yul\":549:550   */\n      0x01\n        /* \"#utility.yul\":546:547   */\n      dup2\n        /* \"#utility.yul\":542:551   */\n      add\n        /* \"#utility.yul\":537:551   */\n      swap1\n      pop\n        /* \"#utility.yul\":502:740   */\n      jump(tag_275)\n    tag_277:\n        /* \"#utility.yul\":506:520   */\n      pop\n        /* \"#utility.yul\":126:746   */\n      pop\n      pop\n        /* \"#utility.yul\":24:746   */\n      swap4\n      swap3\n      pop\n      pop\n      pop\n      jump\t// out\n        /* \"#utility.yul\":752:1164   */\n    tag_280:\n        /* \"#utility.yul\":830:835   */\n      0x00\n        /* \"#utility.yul\":855:921   */\n      tag_282\n        /* \"#utility.yul\":871:920   */\n      tag_283\n        /* \"#utility.yul\":913:919   */\n      dup5\n        /* \"#utility.yul\":871:920   */\n      tag_284\n      jump\t// in\n    tag_283:\n        /* \"#utility.yul\":855:921   */\n      tag_271\n      jump\t// in\n    tag_282:\n        /* \"#utility.yul\":846:921   */\n      swap1\n      pop\n        /* \"#utility.yul\":944:950   */\n      dup3\n        /* \"#utility.yul\":937:942   */\n      dup2\n        /* \"#utility.yul\":930:951   */\n      mstore\n        /* \"#utility.yul\":982:986   */\n      0x20\n        /* \"#utility.yul\":975:980   */\n      dup2\n        /* \"#utility.yul\":971:987   */\n      add\n        /* \"#utility.yul\":1020:1023   */\n      dup5\n        /* \"#utility.yul\":1011:1017   */\n      dup5\n        /* \"#utility.yul\":1006:1009   */\n      dup5\n        /* \"#utility.yul\":1002:1018   */\n      add\n        /* \"#utility.yul\":999:1024   */\n      gt\n        /* \"#utility.yul\":996:1108   */\n      iszero\n      tag_285\n      jumpi\n        /* \"#utility.yul\":1027:1106   */\n      tag_286\n      tag_287\n      jump\t// in\n    tag_286:\n        /* \"#utility.yul\":996:1108   */\n    tag_285:\n        /* \"#utility.yul\":1117:1158   */\n      tag_288\n        /* \"#utility.yul\":1151:1157   */\n      dup5\n        /* \"#utility.yul\":1146:1149   */\n      dup3\n        /* \"#utility.yul\":1141:1144   */\n      dup6\n        /* \"#utility.yul\":1117:1158   */\n      tag_289\n      jump\t// in\n    tag_288:\n        /* \"#utility.yul\":836:1164   */\n      pop\n        /* \"#utility.yul\":752:1164   */\n      swap4\n      swap3\n      pop\n      pop\n      pop\n      jump\t// out\n        /* \"#utility.yul\":1170:1309   */\n    tag_290:\n        /* \"#utility.yul\":1216:1221   */\n      0x00\n        /* \"#utility.yul\":1254:1260   */\n      dup2\n        /* \"#utility.yul\":1241:1261   */\n      calldataload\n        /* \"#utility.yul\":1232:1261   */\n      swap1\n      pop\n        /* \"#utility.yul\":1270:1303   */\n      tag_292\n        /* \"#utility.yul\":1297:1302   */\n      dup2\n        /* \"#utility.yul\":1270:1303   */\n      tag_293\n      jump\t// in\n    tag_292:\n        /* \"#utility.yul\":1170:1309   */\n      swap3\n      swap2\n      pop\n      pop\n      jump\t// out\n        /* \"#utility.yul\":1332:1702   */\n    tag_294:\n        /* \"#utility.yul\":1403:1408   */\n      0x00\n        /* \"#utility.yul\":1452:1455   */\n      dup3\n        /* \"#utility.yul\":1445:1449   */\n      0x1f\n        /* \"#utility.yul\":1437:1443   */\n      dup4\n        /* \"#utility.yul\":1433:1450   */\n      add\n        /* \"#utility.yul\":1429:1456   */\n      slt\n        /* \"#utility.yul\":1419:1541   */\n      tag_296\n      jumpi\n        /* \"#utility.yul\":1460:1539   */\n      tag_297\n      tag_298\n      jump\t// in\n    tag_297:\n        /* \"#utility.yul\":1419:1541   */\n    tag_296:\n        /* \"#utility.yul\":1577:1583   */\n      dup2\n        /* \"#utility.yul\":1564:1584   */\n      calldataload\n        /* \"#utility.yul\":1602:1696   */\n      tag_299\n        /* \"#utility.yul\":1692:1695   */\n      dup5\n        /* \"#utility.yul\":1684:1690   */\n      dup3\n        /* \"#utility.yul\":1677:1681   */\n      0x20\n        /* \"#utility.yul\":1669:1675   */\n      dup7\n        /* \"#utility.yul\":1665:1682   */\n      add\n        /* \"#utility.yul\":1602:1696   */\n      tag_266\n      jump\t// in\n    tag_299:\n        /* \"#utility.yul\":1593:1696   */\n      swap2\n      pop\n        /* \"#utility.yul\":1409:1702   */\n      pop\n        /* \"#utility.yul\":1332:1702   */\n      swap3\n      swap2\n      pop\n      pop\n      jump\t// out\n        /* \"#utility.yul\":1708:1841   */\n    tag_300:\n        /* \"#utility.yul\":1751:1756   */\n      0x00\n        /* \"#utility.yul\":1789:1795   */\n      dup2\n        /* \"#utility.yul\":1776:1796   */\n      calldataload\n        /* \"#utility.yul\":1767:1796   */\n      swap1\n      pop\n        /* \"#utility.yul\":1805:1835   */\n      tag_302\n        /* \"#utility.yul\":1829:1834   */\n      dup2\n        /* \"#utility.yul\":1805:1835   */\n      tag_303\n      jump\t// in\n    tag_302:\n        /* \"#utility.yul\":1708:1841   */\n      swap3\n      swap2\n      pop\n      pop\n      jump\t// out\n        /* \"#utility.yul\":1861:2201   */\n    tag_304:\n        /* \"#utility.yul\":1917:1922   */\n      0x00\n        /* \"#utility.yul\":1966:1969   */\n      dup3\n        /* \"#utility.yul\":1959:1963   */\n      0x1f\n        /* \"#utility.yul\":1951:1957   */\n      dup4\n        /* \"#utility.yul\":1947:1964   */\n      add\n        /* \"#utility.yul\":1943:1970   */\n      slt\n        /* \"#utility.yul\":1933:2055   */\n      tag_306\n      jumpi\n        /* \"#utility.yul\":1974:2053   */\n      tag_307\n      tag_298\n      jump\t// in\n    tag_307:\n        /* \"#utility.yul\":1933:2055   */\n    tag_306:\n        /* \"#utility.yul\":2091:2097   */\n      dup2\n        /* \"#utility.yul\":2078:2098   */\n      calldataload\n        /* \"#utility.yul\":2116:2195   */\n      tag_308\n        /* \"#utility.yul\":2191:2194   */\n      dup5\n        /* \"#utility.yul\":2183:2189   */\n      dup3\n        /* \"#utility.yul\":2176:2180   */\n      0x20\n        /* \"#utility.yul\":2168:2174   */\n      dup7\n        /* \"#utility.yul\":2164:2181   */\n      add\n        /* \"#utility.yul\":2116:2195   */\n      tag_280\n      jump\t// in\n    tag_308:\n        /* \"#utility.yul\":2107:2195   */\n      swap2\n      pop\n        /* \"#utility.yul\":1923:2201   */\n      pop\n        /* \"#utility.yul\":1861:2201   */\n      swap3\n      swap2\n      pop\n      pop\n      jump\t// out\n        /* \"#utility.yul\":2207:2346   */\n    tag_279:\n        /* \"#utility.yul\":2253:2258   */\n      0x00\n        /* \"#utility.yul\":2291:2297   */\n      dup2\n        /* \"#utility.yul\":2278:2298   */\n      calldataload\n        /* \"#utility.yul\":2269:2298   */\n      swap1\n      pop\n        /* \"#utility.yul\":2307:2340   */\n      tag_310\n        /* \"#utility.yul\":2334:2339   */\n      dup2\n        /* \"#utility.yul\":2307:2340   */\n      tag_311\n      jump\t// in\n    tag_310:\n        /* \"#utility.yul\":2207:2346   */\n      swap3\n      swap2\n      pop\n      pop\n      jump\t// out\n        /* \"#utility.yul\":2352:2681   */\n    tag_35:\n        /* \"#utility.yul\":2411:2417   */\n      0x00\n        /* \"#utility.yul\":2460:2462   */\n      0x20\n        /* \"#utility.yul\":2448:2457   */\n      dup3\n        /* \"#utility.yul\":2439:2446   */\n      dup5\n        /* \"#utility.yul\":2435:2458   */\n      sub\n        /* \"#utility.yul\":2431:2463   */\n      slt\n        /* \"#utility.yul\":2428:2547   */\n      iszero\n      tag_313\n      jumpi\n        /* \"#utility.yul\":2466:2545   */\n      tag_314\n      tag_315\n      jump\t// in\n    tag_314:\n        /* \"#utility.yul\":2428:2547   */\n    tag_313:\n        /* \"#utility.yul\":2586:2587   */\n      0x00\n        /* \"#utility.yul\":2611:2664   */\n      tag_316\n        /* \"#utility.yul\":2656:2663   */\n      dup5\n        /* \"#utility.yul\":2647:2653   */\n      dup3\n        /* \"#utility.yul\":2636:2645   */\n      dup6\n        /* \"#utility.yul\":2632:2654   */\n      add\n        /* \"#utility.yul\":2611:2664   */\n      tag_290\n      jump\t// in\n    tag_316:\n        /* \"#utility.yul\":2601:2664   */\n      swap2\n      pop\n        /* \"#utility.yul\":2557:2674   */\n      pop\n        /* \"#utility.yul\":2352:2681   */\n      swap3\n      swap2\n      pop\n      pop\n      jump\t// out\n        /* \"#utility.yul\":2687:3196   */\n    tag_63:\n        /* \"#utility.yul\":2756:2762   */\n      0x00\n        /* \"#utility.yul\":2805:2807   */\n      0x20\n        /* \"#utility.yul\":2793:2802   */\n      dup3\n        /* \"#utility.yul\":2784:2791   */\n      dup5\n        /* \"#utility.yul\":2780:2803   */\n      sub\n        /* \"#utility.yul\":2776:2808   */\n      slt\n        /* \"#utility.yul\":2773:2892   */\n      iszero\n      tag_318\n      jumpi\n        /* \"#utility.yul\":2811:2890   */\n      tag_319\n      tag_315\n      jump\t// in\n    tag_319:\n        /* \"#utility.yul\":2773:2892   */\n    tag_318:\n        /* \"#utility.yul\":2959:2960   */\n      0x00\n        /* \"#utility.yul\":2948:2957   */\n      dup3\n        /* \"#utility.yul\":2944:2961   */\n      add\n        /* \"#utility.yul\":2931:2962   */\n      calldataload\n        /* \"#utility.yul\":2989:3007   */\n      0xffffffffffffffff\n        /* \"#utility.yul\":2981:2987   */\n      dup2\n        /* \"#utility.yul\":2978:3008   */\n      gt\n        /* \"#utility.yul\":2975:3092   */\n      iszero\n      tag_320\n      jumpi\n        /* \"#utility.yul\":3011:3090   */\n      tag_321\n      tag_322\n      jump\t// in\n    tag_321:\n        /* \"#utility.yul\":2975:3092   */\n    tag_320:\n        /* \"#utility.yul\":3116:3179   */\n      tag_323\n        /* \"#utility.yul\":3171:3178   */\n      dup5\n        /* \"#utility.yul\":3162:3168   */\n      dup3\n        /* \"#utility.yul\":3151:3160   */\n      dup6\n        /* \"#utility.yul\":3147:3169   */\n      add\n        /* \"#utility.yul\":3116:3179   */\n      tag_304\n      jump\t// in\n    tag_323:\n        /* \"#utility.yul\":3106:3179   */\n      swap2\n      pop\n        /* \"#utility.yul\":2902:3189   */\n      pop\n        /* \"#utility.yul\":2687:3196   */\n      swap3\n      swap2\n      pop\n      pop\n      jump\t// out\n        /* \"#utility.yul\":3202:4973   */\n    tag_71:\n        /* \"#utility.yul\":3343:3349   */\n      0x00\n        /* \"#utility.yul\":3351:3357   */\n      dup1\n        /* \"#utility.yul\":3359:3365   */\n      0x00\n        /* \"#utility.yul\":3367:3373   */\n      dup1\n        /* \"#utility.yul\":3375:3381   */\n      0x00\n        /* \"#utility.yul\":3383:3389   */\n      dup1\n        /* \"#utility.yul\":3432:3435   */\n      0xc0\n        /* \"#utility.yul\":3420:3429   */\n      dup8\n        /* \"#utility.yul\":3411:3418   */\n      dup10\n        /* \"#utility.yul\":3407:3430   */\n      sub\n        /* \"#utility.yul\":3403:3436   */\n      slt\n        /* \"#utility.yul\":3400:3520   */\n      iszero\n      tag_325\n      jumpi\n        /* \"#utility.yul\":3439:3518   */\n      tag_326\n      tag_315\n      jump\t// in\n    tag_326:\n        /* \"#utility.yul\":3400:3520   */\n    tag_325:\n        /* \"#utility.yul\":3587:3588   */\n      0x00\n        /* \"#utility.yul\":3576:3585   */\n      dup8\n        /* \"#utility.yul\":3572:3589   */\n      add\n        /* \"#utility.yul\":3559:3590   */\n      calldataload\n        /* \"#utility.yul\":3617:3635   */\n      0xffffffffffffffff\n        /* \"#utility.yul\":3609:3615   */\n      dup2\n        /* \"#utility.yul\":3606:3636   */\n      gt\n        /* \"#utility.yul\":3603:3720   */\n      iszero\n      tag_327\n      jumpi\n        /* \"#utility.yul\":3639:3718   */\n      tag_328\n      tag_322\n      jump\t// in\n    tag_328:\n        /* \"#utility.yul\":3603:3720   */\n    tag_327:\n        /* \"#utility.yul\":3744:3807   */\n      tag_329\n        /* \"#utility.yul\":3799:3806   */\n      dup10\n        /* \"#utility.yul\":3790:3796   */\n      dup3\n        /* \"#utility.yul\":3779:3788   */\n      dup11\n        /* \"#utility.yul\":3775:3797   */\n      add\n        /* \"#utility.yul\":3744:3807   */\n      tag_304\n      jump\t// in\n    tag_329:\n        /* \"#utility.yul\":3734:3807   */\n      swap7\n      pop\n        /* \"#utility.yul\":3530:3817   */\n      pop\n        /* \"#utility.yul\":3884:3886   */\n      0x20\n        /* \"#utility.yul\":3873:3882   */\n      dup8\n        /* \"#utility.yul\":3869:3887   */\n      add\n        /* \"#utility.yul\":3856:3888   */\n      calldataload\n        /* \"#utility.yul\":3915:3933   */\n      0xffffffffffffffff\n        /* \"#utility.yul\":3907:3913   */\n      dup2\n        /* \"#utility.yul\":3904:3934   */\n      gt\n        /* \"#utility.yul\":3901:4018   */\n      iszero\n      tag_330\n      jumpi\n        /* \"#utility.yul\":3937:4016   */\n      tag_331\n      tag_322\n      jump\t// in\n    tag_331:\n        /* \"#utility.yul\":3901:4018   */\n    tag_330:\n        /* \"#utility.yul\":4042:4105   */\n      tag_332\n        /* \"#utility.yul\":4097:4104   */\n      dup10\n        /* \"#utility.yul\":4088:4094   */\n      dup3\n        /* \"#utility.yul\":4077:4086   */\n      dup11\n        /* \"#utility.yul\":4073:4095   */\n      add\n        /* \"#utility.yul\":4042:4105   */\n      tag_304\n      jump\t// in\n    tag_332:\n        /* \"#utility.yul\":4032:4105   */\n      swap6\n      pop\n        /* \"#utility.yul\":3827:4115   */\n      pop\n        /* \"#utility.yul\":4154:4156   */\n      0x40\n        /* \"#utility.yul\":4180:4230   */\n      tag_333\n        /* \"#utility.yul\":4222:4229   */\n      dup10\n        /* \"#utility.yul\":4213:4219   */\n      dup3\n        /* \"#utility.yul\":4202:4211   */\n      dup11\n        /* \"#utility.yul\":4198:4220   */\n      add\n        /* \"#utility.yul\":4180:4230   */\n      tag_300\n      jump\t// in\n    tag_333:\n        /* \"#utility.yul\":4170:4230   */\n      swap5\n      pop\n        /* \"#utility.yul\":4125:4240   */\n      pop\n        /* \"#utility.yul\":4279:4281   */\n      0x60\n        /* \"#utility.yul\":4305:4358   */\n      tag_334\n        /* \"#utility.yul\":4350:4357   */\n      dup10\n        /* \"#utility.yul\":4341:4347   */\n      dup3\n        /* \"#utility.yul\":4330:4339   */\n      dup11\n        /* \"#utility.yul\":4326:4348   */\n      add\n        /* \"#utility.yul\":4305:4358   */\n      tag_279\n      jump\t// in\n    tag_334:\n        /* \"#utility.yul\":4295:4358   */\n      swap4\n      pop\n        /* \"#utility.yul\":4250:4368   */\n      pop\n        /* \"#utility.yul\":4435:4438   */\n      0x80\n        /* \"#utility.yul\":4424:4433   */\n      dup8\n        /* \"#utility.yul\":4420:4439   */\n      add\n        /* \"#utility.yul\":4407:4440   */\n      calldataload\n        /* \"#utility.yul\":4467:4485   */\n      0xffffffffffffffff\n        /* \"#utility.yul\":4459:4465   */\n      dup2\n        /* \"#utility.yul\":4456:4486   */\n      gt\n        /* \"#utility.yul\":4453:4570   */\n      iszero\n      tag_335\n      jumpi\n        /* \"#utility.yul\":4489:4568   */\n      tag_336\n      tag_322\n      jump\t// in\n    tag_336:\n        /* \"#utility.yul\":4453:4570   */\n    tag_335:\n        /* \"#utility.yul\":4594:4657   */\n      tag_337\n        /* \"#utility.yul\":4649:4656   */\n      dup10\n        /* \"#utility.yul\":4640:4646   */\n      dup3\n        /* \"#utility.yul\":4629:4638   */\n      dup11\n        /* \"#utility.yul\":4625:4647   */\n      add\n        /* \"#utility.yul\":4594:4657   */\n      tag_304\n      jump\t// in\n    tag_337:\n        /* \"#utility.yul\":4584:4657   */\n      swap3\n      pop\n        /* \"#utility.yul\":4378:4667   */\n      pop\n        /* \"#utility.yul\":4734:4737   */\n      0xa0\n        /* \"#utility.yul\":4723:4732   */\n      dup8\n        /* \"#utility.yul\":4719:4738   */\n      add\n        /* \"#utility.yul\":4706:4739   */\n      calldataload\n        /* \"#utility.yul\":4766:4784   */\n      0xffffffffffffffff\n        /* \"#utility.yul\":4758:4764   */\n      dup2\n        /* \"#utility.yul\":4755:4785   */\n      gt\n        /* \"#utility.yul\":4752:4869   */\n      iszero\n      tag_338\n      jumpi\n        /* \"#utility.yul\":4788:4867   */\n      tag_339\n      tag_322\n      jump\t// in\n    tag_339:\n        /* \"#utility.yul\":4752:4869   */\n    tag_338:\n        /* \"#utility.yul\":4893:4956   */\n      tag_340\n        /* \"#utility.yul\":4948:4955   */\n      dup10\n        /* \"#utility.yul\":4939:4945   */\n      dup3\n        /* \"#utility.yul\":4928:4937   */\n      dup11\n        /* \"#utility.yul\":4924:4946   */\n      add\n        /* \"#utility.yul\":4893:4956   */\n      tag_304\n      jump\t// in\n    tag_340:\n        /* \"#utility.yul\":4883:4956   */\n      swap2\n      pop\n        /* \"#utility.yul\":4677:4966   */\n      pop\n        /* \"#utility.yul\":3202:4973   */\n      swap3\n      swap6\n      pop\n      swap3\n      swap6\n      pop\n      swap3\n      swap6\n      jump\t// out\n        /* \"#utility.yul\":4979:6494   */\n    tag_46:\n        /* \"#utility.yul\":5120:5126   */\n      0x00\n        /* \"#utility.yul\":5128:5134   */\n      dup1\n        /* \"#utility.yul\":5136:5142   */\n      0x00\n        /* \"#utility.yul\":5144:5150   */\n      dup1\n        /* \"#utility.yul\":5193:5196   */\n      0x80\n        /* \"#utility.yul\":5181:5190   */\n      dup6\n        /* \"#utility.yul\":5172:5179   */\n      dup8\n        /* \"#utility.yul\":5168:5191   */\n      sub\n        /* \"#utility.yul\":5164:5197   */\n      slt\n        /* \"#utility.yul\":5161:5281   */\n      iszero\n      tag_342\n      jumpi\n        /* \"#utility.yul\":5200:5279   */\n      tag_343\n      tag_315\n      jump\t// in\n    tag_343:\n        /* \"#utility.yul\":5161:5281   */\n    tag_342:\n        /* \"#utility.yul\":5348:5349   */\n      0x00\n        /* \"#utility.yul\":5337:5346   */\n      dup6\n        /* \"#utility.yul\":5333:5350   */\n      add\n        /* \"#utility.yul\":5320:5351   */\n      calldataload\n        /* \"#utility.yul\":5378:5396   */\n      0xffffffffffffffff\n        /* \"#utility.yul\":5370:5376   */\n      dup2\n        /* \"#utility.yul\":5367:5397   */\n      gt\n        /* \"#utility.yul\":5364:5481   */\n      iszero\n      tag_344\n      jumpi\n        /* \"#utility.yul\":5400:5479   */\n      tag_345\n      tag_322\n      jump\t// in\n    tag_345:\n        /* \"#utility.yul\":5364:5481   */\n    tag_344:\n        /* \"#utility.yul\":5505:5568   */\n      tag_346\n        /* \"#utility.yul\":5560:5567   */\n      dup8\n        /* \"#utility.yul\":5551:5557   */\n      dup3\n        /* \"#utility.yul\":5540:5549   */\n      dup9\n        /* \"#utility.yul\":5536:5558   */\n      add\n        /* \"#utility.yul\":5505:5568   */\n      tag_304\n      jump\t// in\n    tag_346:\n        /* \"#utility.yul\":5495:5568   */\n      swap5\n      pop\n        /* \"#utility.yul\":5291:5578   */\n      pop\n        /* \"#utility.yul\":5645:5647   */\n      0x20\n        /* \"#utility.yul\":5634:5643   */\n      dup6\n        /* \"#utility.yul\":5630:5648   */\n      add\n        /* \"#utility.yul\":5617:5649   */\n      calldataload\n        /* \"#utility.yul\":5676:5694   */\n      0xffffffffffffffff\n        /* \"#utility.yul\":5668:5674   */\n      dup2\n        /* \"#utility.yul\":5665:5695   */\n      gt\n        /* \"#utility.yul\":5662:5779   */\n      iszero\n      tag_347\n      jumpi\n        /* \"#utility.yul\":5698:5777   */\n      tag_348\n      tag_322\n      jump\t// in\n    tag_348:\n        /* \"#utility.yul\":5662:5779   */\n    tag_347:\n        /* \"#utility.yul\":5803:5866   */\n      tag_349\n        /* \"#utility.yul\":5858:5865   */\n      dup8\n        /* \"#utility.yul\":5849:5855   */\n      dup3\n        /* \"#utility.yul\":5838:5847   */\n      dup9\n        /* \"#utility.yul\":5834:5856   */\n      add\n        /* \"#utility.yul\":5803:5866   */\n      tag_304\n      jump\t// in\n    tag_349:\n        /* \"#utility.yul\":5793:5866   */\n      swap4\n      pop\n        /* \"#utility.yul\":5588:5876   */\n      pop\n        /* \"#utility.yul\":5943:5945   */\n      0x40\n        /* \"#utility.yul\":5932:5941   */\n      dup6\n        /* \"#utility.yul\":5928:5946   */\n      add\n        /* \"#utility.yul\":5915:5947   */\n      calldataload\n        /* \"#utility.yul\":5974:5992   */\n      0xffffffffffffffff\n        /* \"#utility.yul\":5966:5972   */\n      dup2\n        /* \"#utility.yul\":5963:5993   */\n      gt\n        /* \"#utility.yul\":5960:6077   */\n      iszero\n      tag_350\n      jumpi\n        /* \"#utility.yul\":5996:6075   */\n      tag_351\n      tag_322\n      jump\t// in\n    tag_351:\n        /* \"#utility.yul\":5960:6077   */\n    tag_350:\n        /* \"#utility.yul\":6101:6164   */\n      tag_352\n        /* \"#utility.yul\":6156:6163   */\n      dup8\n        /* \"#utility.yul\":6147:6153   */\n      dup3\n        /* \"#utility.yul\":6136:6145   */\n      dup9\n        /* \"#utility.yul\":6132:6154   */\n      add\n        /* \"#utility.yul\":6101:6164   */\n      tag_304\n      jump\t// in\n    tag_352:\n        /* \"#utility.yul\":6091:6164   */\n      swap3\n      pop\n        /* \"#utility.yul\":5886:6174   */\n      pop\n        /* \"#utility.yul\":6241:6243   */\n      0x60\n        /* \"#utility.yul\":6230:6239   */\n      dup6\n        /* \"#utility.yul\":6226:6244   */\n      add\n        /* \"#utility.yul\":6213:6245   */\n      calldataload\n        /* \"#utility.yul\":6272:6290   */\n      0xffffffffffffffff\n        /* \"#utility.yul\":6264:6270   */\n      dup2\n        /* \"#utility.yul\":6261:6291   */\n      gt\n        /* \"#utility.yul\":6258:6375   */\n      iszero\n      tag_353\n      jumpi\n        /* \"#utility.yul\":6294:6373   */\n      tag_354\n      tag_322\n      jump\t// in\n    tag_354:\n        /* \"#utility.yul\":6258:6375   */\n    tag_353:\n        /* \"#utility.yul\":6399:6477   */\n      tag_355\n        /* \"#utility.yul\":6469:6476   */\n      dup8\n        /* \"#utility.yul\":6460:6466   */\n      dup3\n        /* \"#utility.yul\":6449:6458   */\n      dup9\n        /* \"#utility.yul\":6445:6467   */\n      add\n        /* \"#utility.yul\":6399:6477   */\n      tag_294\n      jump\t// in\n    tag_355:\n        /* \"#utility.yul\":6389:6477   */\n      swap2\n      pop\n        /* \"#utility.yul\":6184:6487   */\n      pop\n        /* \"#utility.yul\":4979:6494   */\n      swap3\n      swap6\n      swap2\n      swap5\n      pop\n      swap3\n      pop\n      jump\t// out\n        /* \"#utility.yul\":6500:6829   */\n    tag_18:\n        /* \"#utility.yul\":6559:6565   */\n      0x00\n        /* \"#utility.yul\":6608:6610   */\n      0x20\n        /* \"#utility.yul\":6596:6605   */\n      dup3\n        /* \"#utility.yul\":6587:6594   */\n      dup5\n        /* \"#utility.yul\":6583:6606   */\n      sub\n        /* \"#utility.yul\":6579:6611   */\n      slt\n        /* \"#utility.yul\":6576:6695   */\n      iszero\n      tag_357\n      jumpi\n        /* \"#utility.yul\":6614:6693   */\n      tag_358\n      tag_315\n      jump\t// in\n    tag_358:\n        /* \"#utility.yul\":6576:6695   */\n    tag_357:\n        /* \"#utility.yul\":6734:6735   */\n      0x00\n        /* \"#utility.yul\":6759:6812   */\n      tag_359\n        /* \"#utility.yul\":6804:6811   */\n      dup5\n        /* \"#utility.yul\":6795:6801   */\n      dup3\n        /* \"#utility.yul\":6784:6793   */\n      dup6\n        /* \"#utility.yul\":6780:6802   */\n      add\n        /* \"#utility.yul\":6759:6812   */\n      tag_279\n      jump\t// in\n    tag_359:\n        /* \"#utility.yul\":6749:6812   */\n      swap2\n      pop\n        /* \"#utility.yul\":6705:6822   */\n      pop\n        /* \"#utility.yul\":6500:6829   */\n      swap3\n      swap2\n      pop\n      pop\n      jump\t// out\n        /* \"#utility.yul\":6835:7309   */\n    tag_24:\n        /* \"#utility.yul\":6903:6909   */\n      0x00\n        /* \"#utility.yul\":6911:6917   */\n      dup1\n        /* \"#utility.yul\":6960:6962   */\n      0x40\n        /* \"#utility.yul\":6948:6957   */\n      dup4\n        /* \"#utility.yul\":6939:6946   */\n      dup6\n        /* \"#utility.yul\":6935:6958   */\n      sub\n        /* \"#utility.yul\":6931:6963   */\n      slt\n        /* \"#utility.yul\":6928:7047   */\n      iszero\n      tag_361\n      jumpi\n        /* \"#utility.yul\":6966:7045   */\n      tag_362\n      tag_315\n      jump\t// in\n    tag_362:\n        /* \"#utility.yul\":6928:7047   */\n    tag_361:\n        /* \"#utility.yul\":7086:7087   */\n      0x00\n        /* \"#utility.yul\":7111:7164   */\n      tag_363\n        /* \"#utility.yul\":7156:7163   */\n      dup6\n        /* \"#utility.yul\":7147:7153   */\n      dup3\n        /* \"#utility.yul\":7136:7145   */\n      dup7\n        /* \"#utility.yul\":7132:7154   */\n      add\n        /* \"#utility.yul\":7111:7164   */\n      tag_279\n      jump\t// in\n    tag_363:\n        /* \"#utility.yul\":7101:7164   */\n      swap3\n      pop\n        /* \"#utility.yul\":7057:7174   */\n      pop\n        /* \"#utility.yul\":7213:7215   */\n      0x20\n        /* \"#utility.yul\":7239:7292   */\n      tag_364\n        /* \"#utility.yul\":7284:7291   */\n      dup6\n        /* \"#utility.yul\":7275:7281   */\n      dup3\n        /* \"#utility.yul\":7264:7273   */\n      dup7\n        /* \"#utility.yul\":7260:7282   */\n      add\n        /* \"#utility.yul\":7239:7292   */\n      tag_279\n      jump\t// in\n    tag_364:\n        /* \"#utility.yul\":7229:7292   */\n      swap2\n      pop\n        /* \"#utility.yul\":7184:7302   */\n      pop\n        /* \"#utility.yul\":6835:7309   */\n      swap3\n      pop\n      swap3\n      swap1\n      pop\n      jump\t// out\n        /* \"#utility.yul\":7315:8766   */\n    tag_67:\n        /* \"#utility.yul\":7440:7446   */\n      0x00\n        /* \"#utility.yul\":7448:7454   */\n      dup1\n        /* \"#utility.yul\":7456:7462   */\n      0x00\n        /* \"#utility.yul\":7464:7470   */\n      dup1\n        /* \"#utility.yul\":7472:7478   */\n      0x00\n        /* \"#utility.yul\":7521:7524   */\n      0xa0\n        /* \"#utility.yul\":7509:7518   */\n      dup7\n        /* \"#utility.yul\":7500:7507   */\n      dup9\n        /* \"#utility.yul\":7496:7519   */\n      sub\n        /* \"#utility.yul\":7492:7525   */\n      slt\n        /* \"#utility.yul\":7489:7609   */\n      iszero\n      tag_366\n      jumpi\n        /* \"#utility.yul\":7528:7607   */\n      tag_367\n      tag_315\n      jump\t// in\n    tag_367:\n        /* \"#utility.yul\":7489:7609   */\n    tag_366:\n        /* \"#utility.yul\":7648:7649   */\n      0x00\n        /* \"#utility.yul\":7673:7726   */\n      tag_368\n        /* \"#utility.yul\":7718:7725   */\n      dup9\n        /* \"#utility.yul\":7709:7715   */\n      dup3\n        /* \"#utility.yul\":7698:7707   */\n      dup10\n        /* \"#utility.yul\":7694:7716   */\n      add\n        /* \"#utility.yul\":7673:7726   */\n      tag_279\n      jump\t// in\n    tag_368:\n        /* \"#utility.yul\":7663:7726   */\n      swap6\n      pop\n        /* \"#utility.yul\":7619:7736   */\n      pop\n        /* \"#utility.yul\":7775:7777   */\n      0x20\n        /* \"#utility.yul\":7801:7854   */\n      tag_369\n        /* \"#utility.yul\":7846:7853   */\n      dup9\n        /* \"#utility.yul\":7837:7843   */\n      dup3\n        /* \"#utility.yul\":7826:7835   */\n      dup10\n        /* \"#utility.yul\":7822:7844   */\n      add\n        /* \"#utility.yul\":7801:7854   */\n      tag_279\n      jump\t// in\n    tag_369:\n        /* \"#utility.yul\":7791:7854   */\n      swap5\n      pop\n        /* \"#utility.yul\":7746:7864   */\n      pop\n        /* \"#utility.yul\":7931:7933   */\n      0x40\n        /* \"#utility.yul\":7920:7929   */\n      dup7\n        /* \"#utility.yul\":7916:7934   */\n      add\n        /* \"#utility.yul\":7903:7935   */\n      calldataload\n        /* \"#utility.yul\":7962:7980   */\n      0xffffffffffffffff\n        /* \"#utility.yul\":7954:7960   */\n      dup2\n        /* \"#utility.yul\":7951:7981   */\n      gt\n        /* \"#utility.yul\":7948:8065   */\n      iszero\n      tag_370\n      jumpi\n        /* \"#utility.yul\":7984:8063   */\n      tag_371\n      tag_322\n      jump\t// in\n    tag_371:\n        /* \"#utility.yul\":7948:8065   */\n    tag_370:\n        /* \"#utility.yul\":8089:8152   */\n      tag_372\n        /* \"#utility.yul\":8144:8151   */\n      dup9\n        /* \"#utility.yul\":8135:8141   */\n      dup3\n        /* \"#utility.yul\":8124:8133   */\n      dup10\n        /* \"#utility.yul\":8120:8142   */\n      add\n        /* \"#utility.yul\":8089:8152   */\n      tag_304\n      jump\t// in\n    tag_372:\n        /* \"#utility.yul\":8079:8152   */\n      swap4\n      pop\n        /* \"#utility.yul\":7874:8162   */\n      pop\n        /* \"#utility.yul\":8229:8231   */\n      0x60\n        /* \"#utility.yul\":8218:8227   */\n      dup7\n        /* \"#utility.yul\":8214:8232   */\n      add\n        /* \"#utility.yul\":8201:8233   */\n      calldataload\n        /* \"#utility.yul\":8260:8278   */\n      0xffffffffffffffff\n        /* \"#utility.yul\":8252:8258   */\n      dup2\n        /* \"#utility.yul\":8249:8279   */\n      gt\n        /* \"#utility.yul\":8246:8363   */\n      iszero\n      tag_373\n      jumpi\n        /* \"#utility.yul\":8282:8361   */\n      tag_374\n      tag_322\n      jump\t// in\n    tag_374:\n        /* \"#utility.yul\":8246:8363   */\n    tag_373:\n        /* \"#utility.yul\":8387:8450   */\n      tag_375\n        /* \"#utility.yul\":8442:8449   */\n      dup9\n        /* \"#utility.yul\":8433:8439   */\n      dup3\n        /* \"#utility.yul\":8422:8431   */\n      dup10\n        /* \"#utility.yul\":8418:8440   */\n      add\n        /* \"#utility.yul\":8387:8450   */\n      tag_304\n      jump\t// in\n    tag_375:\n        /* \"#utility.yul\":8377:8450   */\n      swap3\n      pop\n        /* \"#utility.yul\":8172:8460   */\n      pop\n        /* \"#utility.yul\":8527:8530   */\n      0x80\n        /* \"#utility.yul\":8516:8525   */\n      dup7\n        /* \"#utility.yul\":8512:8531   */\n      add\n        /* \"#utility.yul\":8499:8532   */\n      calldataload\n        /* \"#utility.yul\":8559:8577   */\n      0xffffffffffffffff\n        /* \"#utility.yul\":8551:8557   */\n      dup2\n        /* \"#utility.yul\":8548:8578   */\n      gt\n        /* \"#utility.yul\":8545:8662   */\n      iszero\n      tag_376\n      jumpi\n        /* \"#utility.yul\":8581:8660   */\n      tag_377\n      tag_322\n      jump\t// in\n    tag_377:\n        /* \"#utility.yul\":8545:8662   */\n    tag_376:\n        /* \"#utility.yul\":8686:8749   */\n      tag_378\n        /* \"#utility.yul\":8741:8748   */\n      dup9\n        /* \"#utility.yul\":8732:8738   */\n      dup3\n        /* \"#utility.yul\":8721:8730   */\n      dup10\n        /* \"#utility.yul\":8717:8739   */\n      add\n        /* \"#utility.yul\":8686:8749   */\n      tag_304\n      jump\t// in\n    tag_378:\n        /* \"#utility.yul\":8676:8749   */\n      swap2\n      pop\n        /* \"#utility.yul\":8470:8759   */\n      pop\n        /* \"#utility.yul\":7315:8766   */\n      swap3\n      swap6\n      pop\n      swap3\n      swap6\n      swap1\n      swap4\n      pop\n      jump\t// out\n        /* \"#utility.yul\":8772:8951   */\n    tag_379:\n        /* \"#utility.yul\":8841:8851   */\n      0x00\n        /* \"#utility.yul\":8862:8908   */\n      tag_381\n        /* \"#utility.yul\":8904:8907   */\n      dup4\n        /* \"#utility.yul\":8896:8902   */\n      dup4\n        /* \"#utility.yul\":8862:8908   */\n      tag_382\n      jump\t// in\n    tag_381:\n        /* \"#utility.yul\":8940:8944   */\n      0x20\n        /* \"#utility.yul\":8935:8938   */\n      dup4\n        /* \"#utility.yul\":8931:8945   */\n      add\n        /* \"#utility.yul\":8917:8945   */\n      swap1\n      pop\n        /* \"#utility.yul\":8772:8951   */\n      swap3\n      swap2\n      pop\n      pop\n      jump\t// out\n        /* \"#utility.yul\":8957:9237   */\n    tag_383:\n        /* \"#utility.yul\":9088:9098   */\n      0x00\n        /* \"#utility.yul\":9123:9231   */\n      tag_385\n        /* \"#utility.yul\":9227:9230   */\n      dup4\n        /* \"#utility.yul\":9219:9225   */\n      dup4\n        /* \"#utility.yul\":9123:9231   */\n      tag_386\n      jump\t// in\n    tag_385:\n        /* \"#utility.yul\":9109:9231   */\n      swap1\n      pop\n        /* \"#utility.yul\":8957:9237   */\n      swap3\n      swap2\n      pop\n      pop\n      jump\t// out\n        /* \"#utility.yul\":9243:9507   */\n    tag_387:\n        /* \"#utility.yul\":9366:9376   */\n      0x00\n        /* \"#utility.yul\":9401:9501   */\n      tag_389\n        /* \"#utility.yul\":9497:9500   */\n      dup4\n        /* \"#utility.yul\":9489:9495   */\n      dup4\n        /* \"#utility.yul\":9401:9501   */\n      tag_390\n      jump\t// in\n    tag_389:\n        /* \"#utility.yul\":9387:9501   */\n      swap1\n      pop\n        /* \"#utility.yul\":9243:9507   */\n      swap3\n      swap2\n      pop\n      pop\n      jump\t// out\n        /* \"#utility.yul\":9513:9692   */\n    tag_391:\n        /* \"#utility.yul\":9582:9592   */\n      0x00\n        /* \"#utility.yul\":9603:9649   */\n      tag_393\n        /* \"#utility.yul\":9645:9648   */\n      dup4\n        /* \"#utility.yul\":9637:9643   */\n      dup4\n        /* \"#utility.yul\":9603:9649   */\n      tag_394\n      jump\t// in\n    tag_393:\n        /* \"#utility.yul\":9681:9685   */\n      0x20\n        /* \"#utility.yul\":9676:9679   */\n      dup4\n        /* \"#utility.yul\":9672:9686   */\n      add\n        /* \"#utility.yul\":9658:9686   */\n      swap1\n      pop\n        /* \"#utility.yul\":9513:9692   */\n      swap3\n      swap2\n      pop\n      pop\n      jump\t// out\n        /* \"#utility.yul\":9698:9830   */\n    tag_395:\n        /* \"#utility.yul\":9791:9823   */\n      tag_397\n        /* \"#utility.yul\":9817:9822   */\n      dup2\n        /* \"#utility.yul\":9791:9823   */\n      tag_398\n      jump\t// in\n    tag_397:\n        /* \"#utility.yul\":9786:9789   */\n      dup3\n        /* \"#utility.yul\":9779:9824   */\n      mstore\n        /* \"#utility.yul\":9698:9830   */\n      pop\n      pop\n      jump\t// out\n        /* \"#utility.yul\":9836:9978   */\n    tag_399:\n        /* \"#utility.yul\":9939:9971   */\n      tag_401\n        /* \"#utility.yul\":9965:9970   */\n      dup2\n        /* \"#utility.yul\":9939:9971   */\n      tag_398\n      jump\t// in\n    tag_401:\n        /* \"#utility.yul\":9934:9937   */\n      dup3\n        /* \"#utility.yul\":9927:9972   */\n      mstore\n        /* \"#utility.yul\":9836:9978   */\n      pop\n      pop\n      jump\t// out\n        /* \"#utility.yul\":9984:10092   */\n    tag_382:\n        /* \"#utility.yul\":10061:10085   */\n      tag_403\n        /* \"#utility.yul\":10079:10084   */\n      dup2\n        /* \"#utility.yul\":10061:10085   */\n      tag_404\n      jump\t// in\n    tag_403:\n        /* \"#utility.yul\":10056:10059   */\n      dup3\n        /* \"#utility.yul\":10049:10086   */\n      mstore\n        /* \"#utility.yul\":9984:10092   */\n      pop\n      pop\n      jump\t// out\n        /* \"#utility.yul\":10098:10216   */\n    tag_405:\n        /* \"#utility.yul\":10185:10209   */\n      tag_407\n        /* \"#utility.yul\":10203:10208   */\n      dup2\n        /* \"#utility.yul\":10185:10209   */\n      tag_404\n      jump\t// in\n    tag_407:\n        /* \"#utility.yul\":10180:10183   */\n      dup3\n        /* \"#utility.yul\":10173:10210   */\n      mstore\n        /* \"#utility.yul\":10098:10216   */\n      pop\n      pop\n      jump\t// out\n        /* \"#utility.yul\":10252:10964   */\n    tag_408:\n        /* \"#utility.yul\":10361:10364   */\n      0x00\n        /* \"#utility.yul\":10390:10444   */\n      tag_410\n        /* \"#utility.yul\":10438:10443   */\n      dup3\n        /* \"#utility.yul\":10390:10444   */\n      tag_411\n      jump\t// in\n    tag_410:\n        /* \"#utility.yul\":10460:10536   */\n      tag_412\n        /* \"#utility.yul\":10529:10535   */\n      dup2\n        /* \"#utility.yul\":10524:10527   */\n      dup6\n        /* \"#utility.yul\":10460:10536   */\n      tag_413\n      jump\t// in\n    tag_412:\n        /* \"#utility.yul\":10453:10536   */\n      swap4\n      pop\n        /* \"#utility.yul\":10560:10616   */\n      tag_414\n        /* \"#utility.yul\":10610:10615   */\n      dup4\n        /* \"#utility.yul\":10560:10616   */\n      tag_415\n      jump\t// in\n    tag_414:\n        /* \"#utility.yul\":10639:10646   */\n      dup1\n        /* \"#utility.yul\":10670:10671   */\n      0x00\n        /* \"#utility.yul\":10655:10939   */\n    tag_416:\n        /* \"#utility.yul\":10680:10686   */\n      dup4\n        /* \"#utility.yul\":10677:10678   */\n      dup2\n        /* \"#utility.yul\":10674:10687   */\n      lt\n        /* \"#utility.yul\":10655:10939   */\n      iszero\n      tag_418\n      jumpi\n        /* \"#utility.yul\":10756:10762   */\n      dup2\n        /* \"#utility.yul\":10750:10763   */\n      mload\n        /* \"#utility.yul\":10783:10846   */\n      tag_419\n        /* \"#utility.yul\":10842:10845   */\n      dup9\n        /* \"#utility.yul\":10827:10840   */\n      dup3\n        /* \"#utility.yul\":10783:10846   */\n      tag_379\n      jump\t// in\n    tag_419:\n        /* \"#utility.yul\":10776:10846   */\n      swap8\n      pop\n        /* \"#utility.yul\":10869:10929   */\n      tag_420\n        /* \"#utility.yul\":10922:10928   */\n      dup4\n        /* \"#utility.yul\":10869:10929   */\n      tag_421\n      jump\t// in\n    tag_420:\n        /* \"#utility.yul\":10859:10929   */\n      swap3\n      pop\n        /* \"#utility.yul\":10715:10939   */\n      pop\n        /* \"#utility.yul\":10702:10703   */\n      0x01\n        /* \"#utility.yul\":10699:10700   */\n      dup2\n        /* \"#utility.yul\":10695:10704   */\n      add\n        /* \"#utility.yul\":10690:10704   */\n      swap1\n      pop\n        /* \"#utility.yul\":10655:10939   */\n      jump(tag_416)\n    tag_418:\n        /* \"#utility.yul\":10659:10673   */\n      pop\n        /* \"#utility.yul\":10955:10958   */\n      dup6\n        /* \"#utility.yul\":10948:10958   */\n      swap4\n      pop\n        /* \"#utility.yul\":10366:10964   */\n      pop\n      pop\n      pop\n        /* \"#utility.yul\":10252:10964   */\n      swap3\n      swap2\n      pop\n      pop\n      jump\t// out\n        /* \"#utility.yul\":11042:12201   */\n    tag_422:\n        /* \"#utility.yul\":11223:11226   */\n      0x00\n        /* \"#utility.yul\":11252:11337   */\n      tag_424\n        /* \"#utility.yul\":11331:11336   */\n      dup3\n        /* \"#utility.yul\":11252:11337   */\n      tag_425\n      jump\t// in\n    tag_424:\n        /* \"#utility.yul\":11353:11470   */\n      tag_426\n        /* \"#utility.yul\":11463:11469   */\n      dup2\n        /* \"#utility.yul\":11458:11461   */\n      dup6\n        /* \"#utility.yul\":11353:11470   */\n      tag_427\n      jump\t// in\n    tag_426:\n        /* \"#utility.yul\":11346:11470   */\n      swap4\n      pop\n        /* \"#utility.yul\":11496:11499   */\n      dup4\n        /* \"#utility.yul\":11541:11545   */\n      0x20\n        /* \"#utility.yul\":11533:11539   */\n      dup3\n        /* \"#utility.yul\":11529:11546   */\n      mul\n        /* \"#utility.yul\":11524:11527   */\n      dup6\n        /* \"#utility.yul\":11520:11547   */\n      add\n        /* \"#utility.yul\":11571:11658   */\n      tag_428\n        /* \"#utility.yul\":11652:11657   */\n      dup6\n        /* \"#utility.yul\":11571:11658   */\n      tag_429\n      jump\t// in\n    tag_428:\n        /* \"#utility.yul\":11681:11688   */\n      dup1\n        /* \"#utility.yul\":11712:11713   */\n      0x00\n        /* \"#utility.yul\":11697:12156   */\n    tag_430:\n        /* \"#utility.yul\":11722:11728   */\n      dup6\n        /* \"#utility.yul\":11719:11720   */\n      dup2\n        /* \"#utility.yul\":11716:11729   */\n      lt\n        /* \"#utility.yul\":11697:12156   */\n      iszero\n      tag_432\n      jumpi\n        /* \"#utility.yul\":11793:11802   */\n      dup5\n        /* \"#utility.yul\":11787:11791   */\n      dup5\n        /* \"#utility.yul\":11783:11803   */\n      sub\n        /* \"#utility.yul\":11778:11781   */\n      dup10\n        /* \"#utility.yul\":11771:11804   */\n      mstore\n        /* \"#utility.yul\":11844:11850   */\n      dup2\n        /* \"#utility.yul\":11838:11851   */\n      mload\n        /* \"#utility.yul\":11872:11998   */\n      tag_433\n        /* \"#utility.yul\":11993:11997   */\n      dup6\n        /* \"#utility.yul\":11978:11991   */\n      dup3\n        /* \"#utility.yul\":11872:11998   */\n      tag_383\n      jump\t// in\n    tag_433:\n        /* \"#utility.yul\":11864:11998   */\n      swap5\n      pop\n        /* \"#utility.yul\":12021:12112   */\n      tag_434\n        /* \"#utility.yul\":12105:12111   */\n      dup4\n        /* \"#utility.yul\":12021:12112   */\n      tag_435\n      jump\t// in\n    tag_434:\n        /* \"#utility.yul\":12011:12112   */\n      swap3\n      pop\n        /* \"#utility.yul\":12141:12145   */\n      0x20\n        /* \"#utility.yul\":12136:12139   */\n      dup11\n        /* \"#utility.yul\":12132:12146   */\n      add\n        /* \"#utility.yul\":12125:12146   */\n      swap10\n      pop\n        /* \"#utility.yul\":11757:12156   */\n      pop\n        /* \"#utility.yul\":11744:11745   */\n      0x01\n        /* \"#utility.yul\":11741:11742   */\n      dup2\n        /* \"#utility.yul\":11737:11746   */\n      add\n        /* \"#utility.yul\":11732:11746   */\n      swap1\n      pop\n        /* \"#utility.yul\":11697:12156   */\n      jump(tag_430)\n    tag_432:\n        /* \"#utility.yul\":11701:11715   */\n      pop\n        /* \"#utility.yul\":12172:12176   */\n      dup3\n        /* \"#utility.yul\":12165:12176   */\n      swap8\n      pop\n        /* \"#utility.yul\":12192:12195   */\n      dup8\n        /* \"#utility.yul\":12185:12195   */\n      swap6\n      pop\n        /* \"#utility.yul\":11228:12201   */\n      pop\n      pop\n      pop\n      pop\n      pop\n        /* \"#utility.yul\":11042:12201   */\n      swap3\n      swap2\n      pop\n      pop\n      jump\t// out\n        /* \"#utility.yul\":12273:13400   */\n    tag_436:\n        /* \"#utility.yul\":12446:12449   */\n      0x00\n        /* \"#utility.yul\":12475:12556   */\n      tag_438\n        /* \"#utility.yul\":12550:12555   */\n      dup3\n        /* \"#utility.yul\":12475:12556   */\n      tag_439\n      jump\t// in\n    tag_438:\n        /* \"#utility.yul\":12572:12685   */\n      tag_440\n        /* \"#utility.yul\":12678:12684   */\n      dup2\n        /* \"#utility.yul\":12673:12676   */\n      dup6\n        /* \"#utility.yul\":12572:12685   */\n      tag_441\n      jump\t// in\n    tag_440:\n        /* \"#utility.yul\":12565:12685   */\n      swap4\n      pop\n        /* \"#utility.yul\":12711:12714   */\n      dup4\n        /* \"#utility.yul\":12756:12760   */\n      0x20\n        /* \"#utility.yul\":12748:12754   */\n      dup3\n        /* \"#utility.yul\":12744:12761   */\n      mul\n        /* \"#utility.yul\":12739:12742   */\n      dup6\n        /* \"#utility.yul\":12735:12762   */\n      add\n        /* \"#utility.yul\":12786:12869   */\n      tag_442\n        /* \"#utility.yul\":12863:12868   */\n      dup6\n        /* \"#utility.yul\":12786:12869   */\n      tag_443\n      jump\t// in\n    tag_442:\n        /* \"#utility.yul\":12892:12899   */\n      dup1\n        /* \"#utility.yul\":12923:12924   */\n      0x00\n        /* \"#utility.yul\":12908:13355   */\n    tag_444:\n        /* \"#utility.yul\":12933:12939   */\n      dup6\n        /* \"#utility.yul\":12930:12931   */\n      dup2\n        /* \"#utility.yul\":12927:12940   */\n      lt\n        /* \"#utility.yul\":12908:13355   */\n      iszero\n      tag_446\n      jumpi\n        /* \"#utility.yul\":13004:13013   */\n      dup5\n        /* \"#utility.yul\":12998:13002   */\n      dup5\n        /* \"#utility.yul\":12994:13014   */\n      sub\n        /* \"#utility.yul\":12989:12992   */\n      dup10\n        /* \"#utility.yul\":12982:13015   */\n      mstore\n        /* \"#utility.yul\":13055:13061   */\n      dup2\n        /* \"#utility.yul\":13049:13062   */\n      mload\n        /* \"#utility.yul\":13083:13201   */\n      tag_447\n        /* \"#utility.yul\":13196:13200   */\n      dup6\n        /* \"#utility.yul\":13181:13194   */\n      dup3\n        /* \"#utility.yul\":13083:13201   */\n      tag_387\n      jump\t// in\n    tag_447:\n        /* \"#utility.yul\":13075:13201   */\n      swap5\n      pop\n        /* \"#utility.yul\":13224:13311   */\n      tag_448\n        /* \"#utility.yul\":13304:13310   */\n      dup4\n        /* \"#utility.yul\":13224:13311   */\n      tag_449\n      jump\t// in\n    tag_448:\n        /* \"#utility.yul\":13214:13311   */\n      swap3\n      pop\n        /* \"#utility.yul\":13340:13344   */\n      0x20\n        /* \"#utility.yul\":13335:13338   */\n      dup11\n        /* \"#utility.yul\":13331:13345   */\n      add\n        /* \"#utility.yul\":13324:13345   */\n      swap10\n      pop\n        /* \"#utility.yul\":12968:13355   */\n      pop\n        /* \"#utility.yul\":12955:12956   */\n      0x01\n        /* \"#utility.yul\":12952:12953   */\n      dup2\n        /* \"#utility.yul\":12948:12957   */\n      add\n        /* \"#utility.yul\":12943:12957   */\n      swap1\n      pop\n        /* \"#utility.yul\":12908:13355   */\n      jump(tag_444)\n    tag_446:\n        /* \"#utility.yul\":12912:12926   */\n      pop\n        /* \"#utility.yul\":13371:13375   */\n      dup3\n        /* \"#utility.yul\":13364:13375   */\n      swap8\n      pop\n        /* \"#utility.yul\":13391:13394   */\n      dup8\n        /* \"#utility.yul\":13384:13394   */\n      swap6\n      pop\n        /* \"#utility.yul\":12451:13400   */\n      pop\n      pop\n      pop\n      pop\n      pop\n        /* \"#utility.yul\":12273:13400   */\n      swap3\n      swap2\n      pop\n      pop\n      jump\t// out\n        /* \"#utility.yul\":13436:14148   */\n    tag_450:\n        /* \"#utility.yul\":13545:13548   */\n      0x00\n        /* \"#utility.yul\":13574:13628   */\n      tag_452\n        /* \"#utility.yul\":13622:13627   */\n      dup3\n        /* \"#utility.yul\":13574:13628   */\n      tag_453\n      jump\t// in\n    tag_452:\n        /* \"#utility.yul\":13644:13720   */\n      tag_454\n        /* \"#utility.yul\":13713:13719   */\n      dup2\n        /* \"#utility.yul\":13708:13711   */\n      dup6\n        /* \"#utility.yul\":13644:13720   */\n      tag_455\n      jump\t// in\n    tag_454:\n        /* \"#utility.yul\":13637:13720   */\n      swap4\n      pop\n        /* \"#utility.yul\":13744:13800   */\n      tag_456\n        /* \"#utility.yul\":13794:13799   */\n      dup4\n        /* \"#utility.yul\":13744:13800   */\n      tag_457\n      jump\t// in\n    tag_456:\n        /* \"#utility.yul\":13823:13830   */\n      dup1\n        /* \"#utility.yul\":13854:13855   */\n      0x00\n        /* \"#utility.yul\":13839:14123   */\n    tag_458:\n        /* \"#utility.yul\":13864:13870   */\n      dup4\n        /* \"#utility.yul\":13861:13862   */\n      dup2\n        /* \"#utility.yul\":13858:13871   */\n      lt\n        /* \"#utility.yul\":13839:14123   */\n      iszero\n      tag_460\n      jumpi\n        /* \"#utility.yul\":13940:13946   */\n      dup2\n        /* \"#utility.yul\":13934:13947   */\n      mload\n        /* \"#utility.yul\":13967:14030   */\n      tag_461\n        /* \"#utility.yul\":14026:14029   */\n      dup9\n        /* \"#utility.yul\":14011:14024   */\n      dup3\n        /* \"#utility.yul\":13967:14030   */\n      tag_391\n      jump\t// in\n    tag_461:\n        /* \"#utility.yul\":13960:14030   */\n      swap8\n      pop\n        /* \"#utility.yul\":14053:14113   */\n      tag_462\n        /* \"#utility.yul\":14106:14112   */\n      dup4\n        /* \"#utility.yul\":14053:14113   */\n      tag_463\n      jump\t// in\n    tag_462:\n        /* \"#utility.yul\":14043:14113   */\n      swap3\n      pop\n        /* \"#utility.yul\":13899:14123   */\n      pop\n        /* \"#utility.yul\":13886:13887   */\n      0x01\n        /* \"#utility.yul\":13883:13884   */\n      dup2\n        /* \"#utility.yul\":13879:13888   */\n      add\n        /* \"#utility.yul\":13874:13888   */\n      swap1\n      pop\n        /* \"#utility.yul\":13839:14123   */\n      jump(tag_458)\n    tag_460:\n        /* \"#utility.yul\":13843:13857   */\n      pop\n        /* \"#utility.yul\":14139:14142   */\n      dup6\n        /* \"#utility.yul\":14132:14142   */\n      swap4\n      pop\n        /* \"#utility.yul\":13550:14148   */\n      pop\n      pop\n      pop\n        /* \"#utility.yul\":13436:14148   */\n      swap3\n      swap2\n      pop\n      pop\n      jump\t// out\n        /* \"#utility.yul\":14154:14253   */\n    tag_464:\n        /* \"#utility.yul\":14225:14246   */\n      tag_466\n        /* \"#utility.yul\":14240:14245   */\n      dup2\n        /* \"#utility.yul\":14225:14246   */\n      tag_467\n      jump\t// in\n    tag_466:\n        /* \"#utility.yul\":14220:14223   */\n      dup3\n        /* \"#utility.yul\":14213:14247   */\n      mstore\n        /* \"#utility.yul\":14154:14253   */\n      pop\n      pop\n      jump\t// out\n        /* \"#utility.yul\":14259:14368   */\n    tag_468:\n        /* \"#utility.yul\":14340:14361   */\n      tag_470\n        /* \"#utility.yul\":14355:14360   */\n      dup2\n        /* \"#utility.yul\":14340:14361   */\n      tag_467\n      jump\t// in\n    tag_470:\n        /* \"#utility.yul\":14335:14338   */\n      dup3\n        /* \"#utility.yul\":14328:14362   */\n      mstore\n        /* \"#utility.yul\":14259:14368   */\n      pop\n      pop\n      jump\t// out\n        /* \"#utility.yul\":14374:14718   */\n    tag_471:\n        /* \"#utility.yul\":14452:14455   */\n      0x00\n        /* \"#utility.yul\":14480:14519   */\n      tag_473\n        /* \"#utility.yul\":14513:14518   */\n      dup3\n        /* \"#utility.yul\":14480:14519   */\n      tag_474\n      jump\t// in\n    tag_473:\n        /* \"#utility.yul\":14535:14596   */\n      tag_475\n        /* \"#utility.yul\":14589:14595   */\n      dup2\n        /* \"#utility.yul\":14584:14587   */\n      dup6\n        /* \"#utility.yul\":14535:14596   */\n      tag_476\n      jump\t// in\n    tag_475:\n        /* \"#utility.yul\":14528:14596   */\n      swap4\n      pop\n        /* \"#utility.yul\":14605:14657   */\n      tag_477\n        /* \"#utility.yul\":14650:14656   */\n      dup2\n        /* \"#utility.yul\":14645:14648   */\n      dup6\n        /* \"#utility.yul\":14638:14642   */\n      0x20\n        /* \"#utility.yul\":14631:14636   */\n      dup7\n        /* \"#utility.yul\":14627:14643   */\n      add\n        /* \"#utility.yul\":14605:14657   */\n      tag_478\n      jump\t// in\n    tag_477:\n        /* \"#utility.yul\":14682:14711   */\n      tag_479\n        /* \"#utility.yul\":14704:14710   */\n      dup2\n        /* \"#utility.yul\":14682:14711   */\n      tag_480\n      jump\t// in\n    tag_479:\n        /* \"#utility.yul\":14677:14680   */\n      dup5\n        /* \"#utility.yul\":14673:14712   */\n      add\n        /* \"#utility.yul\":14666:14712   */\n      swap2\n      pop\n        /* \"#utility.yul\":14456:14718   */\n      pop\n        /* \"#utility.yul\":14374:14718   */\n      swap3\n      swap2\n      pop\n      pop\n      jump\t// out\n        /* \"#utility.yul\":14724:15088   */\n    tag_481:\n        /* \"#utility.yul\":14812:14815   */\n      0x00\n        /* \"#utility.yul\":14840:14879   */\n      tag_483\n        /* \"#utility.yul\":14873:14878   */\n      dup3\n        /* \"#utility.yul\":14840:14879   */\n      tag_474\n      jump\t// in\n    tag_483:\n        /* \"#utility.yul\":14895:14966   */\n      tag_484\n        /* \"#utility.yul\":14959:14965   */\n      dup2\n        /* \"#utility.yul\":14954:14957   */\n      dup6\n        /* \"#utility.yul\":14895:14966   */\n      tag_485\n      jump\t// in\n    tag_484:\n        /* \"#utility.yul\":14888:14966   */\n      swap4\n      pop\n        /* \"#utility.yul\":14975:15027   */\n      tag_486\n        /* \"#utility.yul\":15020:15026   */\n      dup2\n        /* \"#utility.yul\":15015:15018   */\n      dup6\n        /* \"#utility.yul\":15008:15012   */\n      0x20\n        /* \"#utility.yul\":15001:15006   */\n      dup7\n        /* \"#utility.yul\":14997:15013   */\n      add\n        /* \"#utility.yul\":14975:15027   */\n      tag_478\n      jump\t// in\n    tag_486:\n        /* \"#utility.yul\":15052:15081   */\n      tag_487\n        /* \"#utility.yul\":15074:15080   */\n      dup2\n        /* \"#utility.yul\":15052:15081   */\n      tag_480\n      jump\t// in\n    tag_487:\n        /* \"#utility.yul\":15047:15050   */\n      dup5\n        /* \"#utility.yul\":15043:15082   */\n      add\n        /* \"#utility.yul\":15036:15082   */\n      swap2\n      pop\n        /* \"#utility.yul\":14816:15088   */\n      pop\n        /* \"#utility.yul\":14724:15088   */\n      swap3\n      swap2\n      pop\n      pop\n      jump\t// out\n        /* \"#utility.yul\":15162:16592   */\n    tag_386:\n        /* \"#utility.yul\":15283:15286   */\n      0x00\n        /* \"#utility.yul\":15319:15323   */\n      0xc0\n        /* \"#utility.yul\":15314:15317   */\n      dup4\n        /* \"#utility.yul\":15310:15324   */\n      add\n        /* \"#utility.yul\":15408:15412   */\n      0x00\n        /* \"#utility.yul\":15401:15406   */\n      dup4\n        /* \"#utility.yul\":15397:15413   */\n      add\n        /* \"#utility.yul\":15391:15414   */\n      mload\n        /* \"#utility.yul\":15427:15506   */\n      tag_489\n        /* \"#utility.yul\":15500:15504   */\n      0x00\n        /* \"#utility.yul\":15495:15498   */\n      dup7\n        /* \"#utility.yul\":15491:15505   */\n      add\n        /* \"#utility.yul\":15477:15489   */\n      dup3\n        /* \"#utility.yul\":15427:15506   */\n      tag_395\n      jump\t// in\n    tag_489:\n        /* \"#utility.yul\":15334:15516   */\n      pop\n        /* \"#utility.yul\":15599:15603   */\n      0x20\n        /* \"#utility.yul\":15592:15597   */\n      dup4\n        /* \"#utility.yul\":15588:15604   */\n      add\n        /* \"#utility.yul\":15582:15605   */\n      mload\n        /* \"#utility.yul\":15618:15681   */\n      tag_490\n        /* \"#utility.yul\":15675:15679   */\n      0x20\n        /* \"#utility.yul\":15670:15673   */\n      dup7\n        /* \"#utility.yul\":15666:15680   */\n      add\n        /* \"#utility.yul\":15652:15664   */\n      dup3\n        /* \"#utility.yul\":15618:15681   */\n      tag_394\n      jump\t// in\n    tag_490:\n        /* \"#utility.yul\":15526:15691   */\n      pop\n        /* \"#utility.yul\":15775:15779   */\n      0x40\n        /* \"#utility.yul\":15768:15773   */\n      dup4\n        /* \"#utility.yul\":15764:15780   */\n      add\n        /* \"#utility.yul\":15758:15781   */\n      mload\n        /* \"#utility.yul\":15794:15857   */\n      tag_491\n        /* \"#utility.yul\":15851:15855   */\n      0x40\n        /* \"#utility.yul\":15846:15849   */\n      dup7\n        /* \"#utility.yul\":15842:15856   */\n      add\n        /* \"#utility.yul\":15828:15840   */\n      dup3\n        /* \"#utility.yul\":15794:15857   */\n      tag_394\n      jump\t// in\n    tag_491:\n        /* \"#utility.yul\":15701:15867   */\n      pop\n        /* \"#utility.yul\":15949:15953   */\n      0x60\n        /* \"#utility.yul\":15942:15947   */\n      dup4\n        /* \"#utility.yul\":15938:15954   */\n      add\n        /* \"#utility.yul\":15932:15955   */\n      mload\n        /* \"#utility.yul\":16002:16005   */\n      dup5\n        /* \"#utility.yul\":15996:16000   */\n      dup3\n        /* \"#utility.yul\":15992:16006   */\n      sub\n        /* \"#utility.yul\":15985:15989   */\n      0x60\n        /* \"#utility.yul\":15980:15983   */\n      dup7\n        /* \"#utility.yul\":15976:15990   */\n      add\n        /* \"#utility.yul\":15969:16007   */\n      mstore\n        /* \"#utility.yul\":16028:16101   */\n      tag_492\n        /* \"#utility.yul\":16096:16100   */\n      dup3\n        /* \"#utility.yul\":16082:16094   */\n      dup3\n        /* \"#utility.yul\":16028:16101   */\n      tag_471\n      jump\t// in\n    tag_492:\n        /* \"#utility.yul\":16020:16101   */\n      swap2\n      pop\n        /* \"#utility.yul\":15877:16112   */\n      pop\n        /* \"#utility.yul\":16194:16198   */\n      0x80\n        /* \"#utility.yul\":16187:16192   */\n      dup4\n        /* \"#utility.yul\":16183:16199   */\n      add\n        /* \"#utility.yul\":16177:16200   */\n      mload\n        /* \"#utility.yul\":16213:16276   */\n      tag_493\n        /* \"#utility.yul\":16270:16274   */\n      0x80\n        /* \"#utility.yul\":16265:16268   */\n      dup7\n        /* \"#utility.yul\":16261:16275   */\n      add\n        /* \"#utility.yul\":16247:16259   */\n      dup3\n        /* \"#utility.yul\":16213:16276   */\n      tag_394\n      jump\t// in\n    tag_493:\n        /* \"#utility.yul\":16122:16286   */\n      pop\n        /* \"#utility.yul\":16368:16372   */\n      0xa0\n        /* \"#utility.yul\":16361:16366   */\n      dup4\n        /* \"#utility.yul\":16357:16373   */\n      add\n        /* \"#utility.yul\":16351:16374   */\n      mload\n        /* \"#utility.yul\":16421:16424   */\n      dup5\n        /* \"#utility.yul\":16415:16419   */\n      dup3\n        /* \"#utility.yul\":16411:16425   */\n      sub\n        /* \"#utility.yul\":16404:16408   */\n      0xa0\n        /* \"#utility.yul\":16399:16402   */\n      dup7\n        /* \"#utility.yul\":16395:16409   */\n      add\n        /* \"#utility.yul\":16388:16426   */\n      mstore\n        /* \"#utility.yul\":16447:16554   */\n      tag_494\n        /* \"#utility.yul\":16549:16553   */\n      dup3\n        /* \"#utility.yul\":16535:16547   */\n      dup3\n        /* \"#utility.yul\":16447:16554   */\n      tag_495\n      jump\t// in\n    tag_494:\n        /* \"#utility.yul\":16439:16554   */\n      swap2\n      pop\n        /* \"#utility.yul\":16296:16565   */\n      pop\n        /* \"#utility.yul\":16582:16586   */\n      dup1\n        /* \"#utility.yul\":16575:16586   */\n      swap2\n      pop\n        /* \"#utility.yul\":15288:16592   */\n      pop\n        /* \"#utility.yul\":15162:16592   */\n      swap3\n      swap2\n      pop\n      pop\n      jump\t// out\n        /* \"#utility.yul\":16660:18776   */\n    tag_390:\n        /* \"#utility.yul\":16773:16776   */\n      0x00\n        /* \"#utility.yul\":16809:16815   */\n      0x0120\n        /* \"#utility.yul\":16804:16807   */\n      dup4\n        /* \"#utility.yul\":16800:16816   */\n      add\n        /* \"#utility.yul\":16898:16902   */\n      0x00\n        /* \"#utility.yul\":16891:16896   */\n      dup4\n        /* \"#utility.yul\":16887:16903   */\n      add\n        /* \"#utility.yul\":16881:16904   */\n      mload\n        /* \"#utility.yul\":16951:16954   */\n      dup5\n        /* \"#utility.yul\":16945:16949   */\n      dup3\n        /* \"#utility.yul\":16941:16955   */\n      sub\n        /* \"#utility.yul\":16934:16938   */\n      0x00\n        /* \"#utility.yul\":16929:16932   */\n      dup7\n        /* \"#utility.yul\":16925:16939   */\n      add\n        /* \"#utility.yul\":16918:16956   */\n      mstore\n        /* \"#utility.yul\":16977:17050   */\n      tag_497\n        /* \"#utility.yul\":17045:17049   */\n      dup3\n        /* \"#utility.yul\":17031:17043   */\n      dup3\n        /* \"#utility.yul\":16977:17050   */\n      tag_471\n      jump\t// in\n    tag_497:\n        /* \"#utility.yul\":16969:17050   */\n      swap2\n      pop\n        /* \"#utility.yul\":16826:17061   */\n      pop\n        /* \"#utility.yul\":17143:17147   */\n      0x20\n        /* \"#utility.yul\":17136:17141   */\n      dup4\n        /* \"#utility.yul\":17132:17148   */\n      add\n        /* \"#utility.yul\":17126:17149   */\n      mload\n        /* \"#utility.yul\":17196:17199   */\n      dup5\n        /* \"#utility.yul\":17190:17194   */\n      dup3\n        /* \"#utility.yul\":17186:17200   */\n      sub\n        /* \"#utility.yul\":17179:17183   */\n      0x20\n        /* \"#utility.yul\":17174:17177   */\n      dup7\n        /* \"#utility.yul\":17170:17184   */\n      add\n        /* \"#utility.yul\":17163:17201   */\n      mstore\n        /* \"#utility.yul\":17222:17295   */\n      tag_498\n        /* \"#utility.yul\":17290:17294   */\n      dup3\n        /* \"#utility.yul\":17276:17288   */\n      dup3\n        /* \"#utility.yul\":17222:17295   */\n      tag_471\n      jump\t// in\n    tag_498:\n        /* \"#utility.yul\":17214:17295   */\n      swap2\n      pop\n        /* \"#utility.yul\":17071:17306   */\n      pop\n        /* \"#utility.yul\":17388:17392   */\n      0x40\n        /* \"#utility.yul\":17381:17386   */\n      dup4\n        /* \"#utility.yul\":17377:17393   */\n      add\n        /* \"#utility.yul\":17371:17394   */\n      mload\n        /* \"#utility.yul\":17407:17470   */\n      tag_499\n        /* \"#utility.yul\":17464:17468   */\n      0x40\n        /* \"#utility.yul\":17459:17462   */\n      dup7\n        /* \"#utility.yul\":17455:17469   */\n      add\n        /* \"#utility.yul\":17441:17453   */\n      dup3\n        /* \"#utility.yul\":17407:17470   */\n      tag_394\n      jump\t// in\n    tag_499:\n        /* \"#utility.yul\":17316:17480   */\n      pop\n        /* \"#utility.yul\":17570:17574   */\n      0x60\n        /* \"#utility.yul\":17563:17568   */\n      dup4\n        /* \"#utility.yul\":17559:17575   */\n      add\n        /* \"#utility.yul\":17553:17576   */\n      mload\n        /* \"#utility.yul\":17589:17646   */\n      tag_500\n        /* \"#utility.yul\":17640:17644   */\n      0x60\n        /* \"#utility.yul\":17635:17638   */\n      dup7\n        /* \"#utility.yul\":17631:17645   */\n      add\n        /* \"#utility.yul\":17617:17629   */\n      dup3\n        /* \"#utility.yul\":17589:17646   */\n      tag_464\n      jump\t// in\n    tag_500:\n        /* \"#utility.yul\":17490:17656   */\n      pop\n        /* \"#utility.yul\":17740:17744   */\n      0x80\n        /* \"#utility.yul\":17733:17738   */\n      dup4\n        /* \"#utility.yul\":17729:17745   */\n      add\n        /* \"#utility.yul\":17723:17746   */\n      mload\n        /* \"#utility.yul\":17759:17822   */\n      tag_501\n        /* \"#utility.yul\":17816:17820   */\n      0x80\n        /* \"#utility.yul\":17811:17814   */\n      dup7\n        /* \"#utility.yul\":17807:17821   */\n      add\n        /* \"#utility.yul\":17793:17805   */\n      dup3\n        /* \"#utility.yul\":17759:17822   */\n      tag_394\n      jump\t// in\n    tag_501:\n        /* \"#utility.yul\":17666:17832   */\n      pop\n        /* \"#utility.yul\":17916:17920   */\n      0xa0\n        /* \"#utility.yul\":17909:17914   */\n      dup4\n        /* \"#utility.yul\":17905:17921   */\n      add\n        /* \"#utility.yul\":17899:17922   */\n      mload\n        /* \"#utility.yul\":17935:17998   */\n      tag_502\n        /* \"#utility.yul\":17992:17996   */\n      0xa0\n        /* \"#utility.yul\":17987:17990   */\n      dup7\n        /* \"#utility.yul\":17983:17997   */\n      add\n        /* \"#utility.yul\":17969:17981   */\n      dup3\n        /* \"#utility.yul\":17935:17998   */\n      tag_382\n      jump\t// in\n    tag_502:\n        /* \"#utility.yul\":17842:18008   */\n      pop\n        /* \"#utility.yul\":18095:18099   */\n      0xc0\n        /* \"#utility.yul\":18088:18093   */\n      dup4\n        /* \"#utility.yul\":18084:18100   */\n      add\n        /* \"#utility.yul\":18078:18101   */\n      mload\n        /* \"#utility.yul\":18114:18177   */\n      tag_503\n        /* \"#utility.yul\":18171:18175   */\n      0xc0\n        /* \"#utility.yul\":18166:18169   */\n      dup7\n        /* \"#utility.yul\":18162:18176   */\n      add\n        /* \"#utility.yul\":18148:18160   */\n      dup3\n        /* \"#utility.yul\":18114:18177   */\n      tag_394\n      jump\t// in\n    tag_503:\n        /* \"#utility.yul\":18018:18187   */\n      pop\n        /* \"#utility.yul\":18269:18273   */\n      0xe0\n        /* \"#utility.yul\":18262:18267   */\n      dup4\n        /* \"#utility.yul\":18258:18274   */\n      add\n        /* \"#utility.yul\":18252:18275   */\n      mload\n        /* \"#utility.yul\":18322:18325   */\n      dup5\n        /* \"#utility.yul\":18316:18320   */\n      dup3\n        /* \"#utility.yul\":18312:18326   */\n      sub\n        /* \"#utility.yul\":18305:18309   */\n      0xe0\n        /* \"#utility.yul\":18300:18303   */\n      dup7\n        /* \"#utility.yul\":18296:18310   */\n      add\n        /* \"#utility.yul\":18289:18327   */\n      mstore\n        /* \"#utility.yul\":18348:18455   */\n      tag_504\n        /* \"#utility.yul\":18450:18454   */\n      dup3\n        /* \"#utility.yul\":18436:18448   */\n      dup3\n        /* \"#utility.yul\":18348:18455   */\n      tag_495\n      jump\t// in\n    tag_504:\n        /* \"#utility.yul\":18340:18455   */\n      swap2\n      pop\n        /* \"#utility.yul\":18197:18466   */\n      pop\n        /* \"#utility.yul\":18552:18558   */\n      0x0100\n        /* \"#utility.yul\":18545:18550   */\n      dup4\n        /* \"#utility.yul\":18541:18559   */\n      add\n        /* \"#utility.yul\":18535:18560   */\n      mload\n        /* \"#utility.yul\":18609:18612   */\n      dup5\n        /* \"#utility.yul\":18603:18607   */\n      dup3\n        /* \"#utility.yul\":18599:18613   */\n      sub\n        /* \"#utility.yul\":18590:18596   */\n      0x0100\n        /* \"#utility.yul\":18585:18588   */\n      dup7\n        /* \"#utility.yul\":18581:18597   */\n      add\n        /* \"#utility.yul\":18574:18614   */\n      mstore\n        /* \"#utility.yul\":18635:18738   */\n      tag_505\n        /* \"#utility.yul\":18733:18737   */\n      dup3\n        /* \"#utility.yul\":18719:18731   */\n      dup3\n        /* \"#utility.yul\":18635:18738   */\n      tag_450\n      jump\t// in\n    tag_505:\n        /* \"#utility.yul\":18627:18738   */\n      swap2\n      pop\n        /* \"#utility.yul\":18476:18749   */\n      pop\n        /* \"#utility.yul\":18766:18770   */\n      dup1\n        /* \"#utility.yul\":18759:18770   */\n      swap2\n      pop\n        /* \"#utility.yul\":16778:18776   */\n      pop\n        /* \"#utility.yul\":16660:18776   */\n      swap3\n      swap2\n      pop\n      pop\n      jump\t// out\n        /* \"#utility.yul\":18836:21407   */\n    tag_506:\n        /* \"#utility.yul\":18951:18954   */\n      0x00\n        /* \"#utility.yul\":18987:18993   */\n      0x0160\n        /* \"#utility.yul\":18982:18985   */\n      dup4\n        /* \"#utility.yul\":18978:18994   */\n      add\n        /* \"#utility.yul\":19076:19080   */\n      0x00\n        /* \"#utility.yul\":19069:19074   */\n      dup4\n        /* \"#utility.yul\":19065:19081   */\n      add\n        /* \"#utility.yul\":19059:19082   */\n      mload\n        /* \"#utility.yul\":19095:19174   */\n      tag_508\n        /* \"#utility.yul\":19168:19172   */\n      0x00\n        /* \"#utility.yul\":19163:19166   */\n      dup7\n        /* \"#utility.yul\":19159:19173   */\n      add\n        /* \"#utility.yul\":19145:19157   */\n      dup3\n        /* \"#utility.yul\":19095:19174   */\n      tag_395\n      jump\t// in\n    tag_508:\n        /* \"#utility.yul\":19004:19184   */\n      pop\n        /* \"#utility.yul\":19266:19270   */\n      0x20\n        /* \"#utility.yul\":19259:19264   */\n      dup4\n        /* \"#utility.yul\":19255:19271   */\n      add\n        /* \"#utility.yul\":19249:19272   */\n      mload\n        /* \"#utility.yul\":19319:19322   */\n      dup5\n        /* \"#utility.yul\":19313:19317   */\n      dup3\n        /* \"#utility.yul\":19309:19323   */\n      sub\n        /* \"#utility.yul\":19302:19306   */\n      0x20\n        /* \"#utility.yul\":19297:19300   */\n      dup7\n        /* \"#utility.yul\":19293:19307   */\n      add\n        /* \"#utility.yul\":19286:19324   */\n      mstore\n        /* \"#utility.yul\":19345:19418   */\n      tag_509\n        /* \"#utility.yul\":19413:19417   */\n      dup3\n        /* \"#utility.yul\":19399:19411   */\n      dup3\n        /* \"#utility.yul\":19345:19418   */\n      tag_471\n      jump\t// in\n    tag_509:\n        /* \"#utility.yul\":19337:19418   */\n      swap2\n      pop\n        /* \"#utility.yul\":19194:19429   */\n      pop\n        /* \"#utility.yul\":19510:19514   */\n      0x40\n        /* \"#utility.yul\":19503:19508   */\n      dup4\n        /* \"#utility.yul\":19499:19515   */\n      add\n        /* \"#utility.yul\":19493:19516   */\n      mload\n        /* \"#utility.yul\":19563:19566   */\n      dup5\n        /* \"#utility.yul\":19557:19561   */\n      dup3\n        /* \"#utility.yul\":19553:19567   */\n      sub\n        /* \"#utility.yul\":19546:19550   */\n      0x40\n        /* \"#utility.yul\":19541:19544   */\n      dup7\n        /* \"#utility.yul\":19537:19551   */\n      add\n        /* \"#utility.yul\":19530:19568   */\n      mstore\n        /* \"#utility.yul\":19589:19662   */\n      tag_510\n        /* \"#utility.yul\":19657:19661   */\n      dup3\n        /* \"#utility.yul\":19643:19655   */\n      dup3\n        /* \"#utility.yul\":19589:19662   */\n      tag_471\n      jump\t// in\n    tag_510:\n        /* \"#utility.yul\":19581:19662   */\n      swap2\n      pop\n        /* \"#utility.yul\":19439:19673   */\n      pop\n        /* \"#utility.yul\":19754:19758   */\n      0x60\n        /* \"#utility.yul\":19747:19752   */\n      dup4\n        /* \"#utility.yul\":19743:19759   */\n      add\n        /* \"#utility.yul\":19737:19760   */\n      mload\n        /* \"#utility.yul\":19807:19810   */\n      dup5\n        /* \"#utility.yul\":19801:19805   */\n      dup3\n        /* \"#utility.yul\":19797:19811   */\n      sub\n        /* \"#utility.yul\":19790:19794   */\n      0x60\n        /* \"#utility.yul\":19785:19788   */\n      dup7\n        /* \"#utility.yul\":19781:19795   */\n      add\n        /* \"#utility.yul\":19774:19812   */\n      mstore\n        /* \"#utility.yul\":19833:19906   */\n      tag_511\n        /* \"#utility.yul\":19901:19905   */\n      dup3\n        /* \"#utility.yul\":19887:19899   */\n      dup3\n        /* \"#utility.yul\":19833:19906   */\n      tag_471\n      jump\t// in\n    tag_511:\n        /* \"#utility.yul\":19825:19906   */\n      swap2\n      pop\n        /* \"#utility.yul\":19683:19917   */\n      pop\n        /* \"#utility.yul\":20004:20008   */\n      0x80\n        /* \"#utility.yul\":19997:20002   */\n      dup4\n        /* \"#utility.yul\":19993:20009   */\n      add\n        /* \"#utility.yul\":19987:20010   */\n      mload\n        /* \"#utility.yul\":20057:20060   */\n      dup5\n        /* \"#utility.yul\":20051:20055   */\n      dup3\n        /* \"#utility.yul\":20047:20061   */\n      sub\n        /* \"#utility.yul\":20040:20044   */\n      0x80\n        /* \"#utility.yul\":20035:20038   */\n      dup7\n        /* \"#utility.yul\":20031:20045   */\n      add\n        /* \"#utility.yul\":20024:20062   */\n      mstore\n        /* \"#utility.yul\":20083:20186   */\n      tag_512\n        /* \"#utility.yul\":20181:20185   */\n      dup3\n        /* \"#utility.yul\":20167:20179   */\n      dup3\n        /* \"#utility.yul\":20083:20186   */\n      tag_408\n      jump\t// in\n    tag_512:\n        /* \"#utility.yul\":20075:20186   */\n      swap2\n      pop\n        /* \"#utility.yul\":19927:20197   */\n      pop\n        /* \"#utility.yul\":20287:20291   */\n      0xa0\n        /* \"#utility.yul\":20280:20285   */\n      dup4\n        /* \"#utility.yul\":20276:20292   */\n      add\n        /* \"#utility.yul\":20270:20293   */\n      mload\n        /* \"#utility.yul\":20306:20369   */\n      tag_513\n        /* \"#utility.yul\":20363:20367   */\n      0xa0\n        /* \"#utility.yul\":20358:20361   */\n      dup7\n        /* \"#utility.yul\":20354:20368   */\n      add\n        /* \"#utility.yul\":20340:20352   */\n      dup3\n        /* \"#utility.yul\":20306:20369   */\n      tag_394\n      jump\t// in\n    tag_513:\n        /* \"#utility.yul\":20207:20379   */\n      pop\n        /* \"#utility.yul\":20464:20468   */\n      0xc0\n        /* \"#utility.yul\":20457:20462   */\n      dup4\n        /* \"#utility.yul\":20453:20469   */\n      add\n        /* \"#utility.yul\":20447:20470   */\n      mload\n        /* \"#utility.yul\":20483:20546   */\n      tag_514\n        /* \"#utility.yul\":20540:20544   */\n      0xc0\n        /* \"#utility.yul\":20535:20538   */\n      dup7\n        /* \"#utility.yul\":20531:20545   */\n      add\n        /* \"#utility.yul\":20517:20529   */\n      dup3\n        /* \"#utility.yul\":20483:20546   */\n      tag_394\n      jump\t// in\n    tag_514:\n        /* \"#utility.yul\":20389:20556   */\n      pop\n        /* \"#utility.yul\":20641:20645   */\n      0xe0\n        /* \"#utility.yul\":20634:20639   */\n      dup4\n        /* \"#utility.yul\":20630:20646   */\n      add\n        /* \"#utility.yul\":20624:20647   */\n      mload\n        /* \"#utility.yul\":20660:20723   */\n      tag_515\n        /* \"#utility.yul\":20717:20721   */\n      0xe0\n        /* \"#utility.yul\":20712:20715   */\n      dup7\n        /* \"#utility.yul\":20708:20722   */\n      add\n        /* \"#utility.yul\":20694:20706   */\n      dup3\n        /* \"#utility.yul\":20660:20723   */\n      tag_394\n      jump\t// in\n    tag_515:\n        /* \"#utility.yul\":20566:20733   */\n      pop\n        /* \"#utility.yul\":20818:20824   */\n      0x0100\n        /* \"#utility.yul\":20811:20816   */\n      dup4\n        /* \"#utility.yul\":20807:20825   */\n      add\n        /* \"#utility.yul\":20801:20826   */\n      mload\n        /* \"#utility.yul\":20839:20898   */\n      tag_516\n        /* \"#utility.yul\":20890:20896   */\n      0x0100\n        /* \"#utility.yul\":20885:20888   */\n      dup7\n        /* \"#utility.yul\":20881:20897   */\n      add\n        /* \"#utility.yul\":20867:20879   */\n      dup3\n        /* \"#utility.yul\":20839:20898   */\n      tag_464\n      jump\t// in\n    tag_516:\n        /* \"#utility.yul\":20743:20908   */\n      pop\n        /* \"#utility.yul\":20997:21003   */\n      0x0120\n        /* \"#utility.yul\":20990:20995   */\n      dup4\n        /* \"#utility.yul\":20986:21004   */\n      add\n        /* \"#utility.yul\":20980:21005   */\n      mload\n        /* \"#utility.yul\":21054:21057   */\n      dup5\n        /* \"#utility.yul\":21048:21052   */\n      dup3\n        /* \"#utility.yul\":21044:21058   */\n      sub\n        /* \"#utility.yul\":21035:21041   */\n      0x0120\n        /* \"#utility.yul\":21030:21033   */\n      dup7\n        /* \"#utility.yul\":21026:21042   */\n      add\n        /* \"#utility.yul\":21019:21059   */\n      mstore\n        /* \"#utility.yul\":21080:21183   */\n      tag_517\n        /* \"#utility.yul\":21178:21182   */\n      dup3\n        /* \"#utility.yul\":21164:21176   */\n      dup3\n        /* \"#utility.yul\":21080:21183   */\n      tag_450\n      jump\t// in\n    tag_517:\n        /* \"#utility.yul\":21072:21183   */\n      swap2\n      pop\n        /* \"#utility.yul\":20918:21194   */\n      pop\n        /* \"#utility.yul\":21284:21290   */\n      0x0140\n        /* \"#utility.yul\":21277:21282   */\n      dup4\n        /* \"#utility.yul\":21273:21291   */\n      add\n        /* \"#utility.yul\":21267:21292   */\n      mload\n        /* \"#utility.yul\":21305:21370   */\n      tag_518\n        /* \"#utility.yul\":21362:21368   */\n      0x0140\n        /* \"#utility.yul\":21357:21360   */\n      dup7\n        /* \"#utility.yul\":21353:21369   */\n      add\n        /* \"#utility.yul\":21339:21351   */\n      dup3\n        /* \"#utility.yul\":21305:21370   */\n      tag_394\n      jump\t// in\n    tag_518:\n        /* \"#utility.yul\":21204:21380   */\n      pop\n        /* \"#utility.yul\":21397:21401   */\n      dup1\n        /* \"#utility.yul\":21390:21401   */\n      swap2\n      pop\n        /* \"#utility.yul\":18956:21407   */\n      pop\n        /* \"#utility.yul\":18836:21407   */\n      swap3\n      swap2\n      pop\n      pop\n      jump\t// out\n        /* \"#utility.yul\":21475:22154   */\n    tag_495:\n        /* \"#utility.yul\":21588:21591   */\n      0x00\n        /* \"#utility.yul\":21624:21628   */\n      0x40\n        /* \"#utility.yul\":21619:21622   */\n      dup4\n        /* \"#utility.yul\":21615:21629   */\n      add\n        /* \"#utility.yul\":21715:21719   */\n      0x00\n        /* \"#utility.yul\":21708:21713   */\n      dup4\n        /* \"#utility.yul\":21704:21720   */\n      add\n        /* \"#utility.yul\":21698:21721   */\n      mload\n        /* \"#utility.yul\":21768:21771   */\n      dup5\n        /* \"#utility.yul\":21762:21766   */\n      dup3\n        /* \"#utility.yul\":21758:21772   */\n      sub\n        /* \"#utility.yul\":21751:21755   */\n      0x00\n        /* \"#utility.yul\":21746:21749   */\n      dup7\n        /* \"#utility.yul\":21742:21756   */\n      add\n        /* \"#utility.yul\":21735:21773   */\n      mstore\n        /* \"#utility.yul\":21794:21867   */\n      tag_520\n        /* \"#utility.yul\":21862:21866   */\n      dup3\n        /* \"#utility.yul\":21848:21860   */\n      dup3\n        /* \"#utility.yul\":21794:21867   */\n      tag_471\n      jump\t// in\n    tag_520:\n        /* \"#utility.yul\":21786:21867   */\n      swap2\n      pop\n        /* \"#utility.yul\":21639:21878   */\n      pop\n        /* \"#utility.yul\":21964:21968   */\n      0x20\n        /* \"#utility.yul\":21957:21962   */\n      dup4\n        /* \"#utility.yul\":21953:21969   */\n      add\n        /* \"#utility.yul\":21947:21970   */\n      mload\n        /* \"#utility.yul\":22017:22020   */\n      dup5\n        /* \"#utility.yul\":22011:22015   */\n      dup3\n        /* \"#utility.yul\":22007:22021   */\n      sub\n        /* \"#utility.yul\":22000:22004   */\n      0x20\n        /* \"#utility.yul\":21995:21998   */\n      dup7\n        /* \"#utility.yul\":21991:22005   */\n      add\n        /* \"#utility.yul\":21984:22022   */\n      mstore\n        /* \"#utility.yul\":22043:22116   */\n      tag_521\n        /* \"#utility.yul\":22111:22115   */\n      dup3\n        /* \"#utility.yul\":22097:22109   */\n      dup3\n        /* \"#utility.yul\":22043:22116   */\n      tag_471\n      jump\t// in\n    tag_521:\n        /* \"#utility.yul\":22035:22116   */\n      swap2\n      pop\n        /* \"#utility.yul\":21888:22127   */\n      pop\n        /* \"#utility.yul\":22144:22148   */\n      dup1\n        /* \"#utility.yul\":22137:22148   */\n      swap2\n      pop\n        /* \"#utility.yul\":21593:22154   */\n      pop\n        /* \"#utility.yul\":21475:22154   */\n      swap3\n      swap2\n      pop\n      pop\n      jump\t// out\n        /* \"#utility.yul\":22222:22911   */\n    tag_522:\n        /* \"#utility.yul\":22345:22348   */\n      0x00\n        /* \"#utility.yul\":22381:22385   */\n      0x40\n        /* \"#utility.yul\":22376:22379   */\n      dup4\n        /* \"#utility.yul\":22372:22386   */\n      add\n        /* \"#utility.yul\":22472:22476   */\n      0x00\n        /* \"#utility.yul\":22465:22470   */\n      dup4\n        /* \"#utility.yul\":22461:22477   */\n      add\n        /* \"#utility.yul\":22455:22478   */\n      mload\n        /* \"#utility.yul\":22525:22528   */\n      dup5\n        /* \"#utility.yul\":22519:22523   */\n      dup3\n        /* \"#utility.yul\":22515:22529   */\n      sub\n        /* \"#utility.yul\":22508:22512   */\n      0x00\n        /* \"#utility.yul\":22503:22506   */\n      dup7\n        /* \"#utility.yul\":22499:22513   */\n      add\n        /* \"#utility.yul\":22492:22530   */\n      mstore\n        /* \"#utility.yul\":22551:22624   */\n      tag_524\n        /* \"#utility.yul\":22619:22623   */\n      dup3\n        /* \"#utility.yul\":22605:22617   */\n      dup3\n        /* \"#utility.yul\":22551:22624   */\n      tag_471\n      jump\t// in\n    tag_524:\n        /* \"#utility.yul\":22543:22624   */\n      swap2\n      pop\n        /* \"#utility.yul\":22396:22635   */\n      pop\n        /* \"#utility.yul\":22721:22725   */\n      0x20\n        /* \"#utility.yul\":22714:22719   */\n      dup4\n        /* \"#utility.yul\":22710:22726   */\n      add\n        /* \"#utility.yul\":22704:22727   */\n      mload\n        /* \"#utility.yul\":22774:22777   */\n      dup5\n        /* \"#utility.yul\":22768:22772   */\n      dup3\n        /* \"#utility.yul\":22764:22778   */\n      sub\n        /* \"#utility.yul\":22757:22761   */\n      0x20\n        /* \"#utility.yul\":22752:22755   */\n      dup7\n        /* \"#utility.yul\":22748:22762   */\n      add\n        /* \"#utility.yul\":22741:22779   */\n      mstore\n        /* \"#utility.yul\":22800:22873   */\n      tag_525\n        /* \"#utility.yul\":22868:22872   */\n      dup3\n        /* \"#utility.yul\":22854:22866   */\n      dup3\n        /* \"#utility.yul\":22800:22873   */\n      tag_471\n      jump\t// in\n    tag_525:\n        /* \"#utility.yul\":22792:22873   */\n      swap2\n      pop\n        /* \"#utility.yul\":22645:22884   */\n      pop\n        /* \"#utility.yul\":22901:22905   */\n      dup1\n        /* \"#utility.yul\":22894:22905   */\n      swap2\n      pop\n        /* \"#utility.yul\":22350:22911   */\n      pop\n        /* \"#utility.yul\":22222:22911   */\n      swap3\n      swap2\n      pop\n      pop\n      jump\t// out\n        /* \"#utility.yul\":22917:23025   */\n    tag_394:\n        /* \"#utility.yul\":22994:23018   */\n      tag_527\n        /* \"#utility.yul\":23012:23017   */\n      dup2\n        /* \"#utility.yul\":22994:23018   */\n      tag_528\n      jump\t// in\n    tag_527:\n        /* \"#utility.yul\":22989:22992   */\n      dup3\n        /* \"#utility.yul\":22982:23019   */\n      mstore\n        /* \"#utility.yul\":22917:23025   */\n      pop\n      pop\n      jump\t// out\n        /* \"#utility.yul\":23031:23149   */\n    tag_529:\n        /* \"#utility.yul\":23118:23142   */\n      tag_531\n        /* \"#utility.yul\":23136:23141   */\n      dup2\n        /* \"#utility.yul\":23118:23142   */\n      tag_528\n      jump\t// in\n    tag_531:\n        /* \"#utility.yul\":23113:23116   */\n      dup3\n        /* \"#utility.yul\":23106:23143   */\n      mstore\n        /* \"#utility.yul\":23031:23149   */\n      pop\n      pop\n      jump\t// out\n        /* \"#utility.yul\":23155:24556   */\n    tag_38:\n        /* \"#utility.yul\":23542:23546   */\n      0x00\n        /* \"#utility.yul\":23580:23583   */\n      0x0120\n        /* \"#utility.yul\":23569:23578   */\n      dup3\n        /* \"#utility.yul\":23565:23584   */\n      add\n        /* \"#utility.yul\":23557:23584   */\n      swap1\n      pop\n        /* \"#utility.yul\":23594:23681   */\n      tag_533\n        /* \"#utility.yul\":23678:23679   */\n      0x00\n        /* \"#utility.yul\":23667:23676   */\n      dup4\n        /* \"#utility.yul\":23663:23680   */\n      add\n        /* \"#utility.yul\":23654:23660   */\n      dup13\n        /* \"#utility.yul\":23594:23681   */\n      tag_399\n      jump\t// in\n    tag_533:\n        /* \"#utility.yul\":23728:23737   */\n      dup2\n        /* \"#utility.yul\":23722:23726   */\n      dup2\n        /* \"#utility.yul\":23718:23738   */\n      sub\n        /* \"#utility.yul\":23713:23715   */\n      0x20\n        /* \"#utility.yul\":23702:23711   */\n      dup4\n        /* \"#utility.yul\":23698:23716   */\n      add\n        /* \"#utility.yul\":23691:23739   */\n      mstore\n        /* \"#utility.yul\":23756:23834   */\n      tag_534\n        /* \"#utility.yul\":23829:23833   */\n      dup2\n        /* \"#utility.yul\":23820:23826   */\n      dup12\n        /* \"#utility.yul\":23756:23834   */\n      tag_481\n      jump\t// in\n    tag_534:\n        /* \"#utility.yul\":23748:23834   */\n      swap1\n      pop\n        /* \"#utility.yul\":23881:23890   */\n      dup2\n        /* \"#utility.yul\":23875:23879   */\n      dup2\n        /* \"#utility.yul\":23871:23891   */\n      sub\n        /* \"#utility.yul\":23866:23868   */\n      0x40\n        /* \"#utility.yul\":23855:23864   */\n      dup4\n        /* \"#utility.yul\":23851:23869   */\n      add\n        /* \"#utility.yul\":23844:23892   */\n      mstore\n        /* \"#utility.yul\":23909:23987   */\n      tag_535\n        /* \"#utility.yul\":23982:23986   */\n      dup2\n        /* \"#utility.yul\":23973:23979   */\n      dup11\n        /* \"#utility.yul\":23909:23987   */\n      tag_481\n      jump\t// in\n    tag_535:\n        /* \"#utility.yul\":23901:23987   */\n      swap1\n      pop\n        /* \"#utility.yul\":24034:24043   */\n      dup2\n        /* \"#utility.yul\":24028:24032   */\n      dup2\n        /* \"#utility.yul\":24024:24044   */\n      sub\n        /* \"#utility.yul\":24019:24021   */\n      0x60\n        /* \"#utility.yul\":24008:24017   */\n      dup4\n        /* \"#utility.yul\":24004:24022   */\n      add\n        /* \"#utility.yul\":23997:24045   */\n      mstore\n        /* \"#utility.yul\":24062:24140   */\n      tag_536\n        /* \"#utility.yul\":24135:24139   */\n      dup2\n        /* \"#utility.yul\":24126:24132   */\n      dup10\n        /* \"#utility.yul\":24062:24140   */\n      tag_481\n      jump\t// in\n    tag_536:\n        /* \"#utility.yul\":24054:24140   */\n      swap1\n      pop\n        /* \"#utility.yul\":24150:24223   */\n      tag_537\n        /* \"#utility.yul\":24218:24221   */\n      0x80\n        /* \"#utility.yul\":24207:24216   */\n      dup4\n        /* \"#utility.yul\":24203:24222   */\n      add\n        /* \"#utility.yul\":24194:24200   */\n      dup9\n        /* \"#utility.yul\":24150:24223   */\n      tag_529\n      jump\t// in\n    tag_537:\n        /* \"#utility.yul\":24233:24306   */\n      tag_538\n        /* \"#utility.yul\":24301:24304   */\n      0xa0\n        /* \"#utility.yul\":24290:24299   */\n      dup4\n        /* \"#utility.yul\":24286:24305   */\n      add\n        /* \"#utility.yul\":24277:24283   */\n      dup8\n        /* \"#utility.yul\":24233:24306   */\n      tag_529\n      jump\t// in\n    tag_538:\n        /* \"#utility.yul\":24316:24389   */\n      tag_539\n        /* \"#utility.yul\":24384:24387   */\n      0xc0\n        /* \"#utility.yul\":24373:24382   */\n      dup4\n        /* \"#utility.yul\":24369:24388   */\n      add\n        /* \"#utility.yul\":24360:24366   */\n      dup7\n        /* \"#utility.yul\":24316:24389   */\n      tag_529\n      jump\t// in\n    tag_539:\n        /* \"#utility.yul\":24399:24466   */\n      tag_540\n        /* \"#utility.yul\":24461:24464   */\n      0xe0\n        /* \"#utility.yul\":24450:24459   */\n      dup4\n        /* \"#utility.yul\":24446:24465   */\n      add\n        /* \"#utility.yul\":24437:24443   */\n      dup6\n        /* \"#utility.yul\":24399:24466   */\n      tag_468\n      jump\t// in\n    tag_540:\n        /* \"#utility.yul\":24476:24549   */\n      tag_541\n        /* \"#utility.yul\":24544:24547   */\n      0x0100\n        /* \"#utility.yul\":24533:24542   */\n      dup4\n        /* \"#utility.yul\":24529:24548   */\n      add\n        /* \"#utility.yul\":24520:24526   */\n      dup5\n        /* \"#utility.yul\":24476:24549   */\n      tag_529\n      jump\t// in\n    tag_541:\n        /* \"#utility.yul\":23155:24556   */\n      swap11\n      swap10\n      pop\n      pop\n      pop\n      pop\n      pop\n      pop\n      pop\n      pop\n      pop\n      pop\n      jump\t// out\n        /* \"#utility.yul\":24562:25619   */\n    tag_60:\n        /* \"#utility.yul\":24885:24889   */\n      0x00\n        /* \"#utility.yul\":24923:24926   */\n      0xc0\n        /* \"#utility.yul\":24912:24921   */\n      dup3\n        /* \"#utility.yul\":24908:24927   */\n      add\n        /* \"#utility.yul\":24900:24927   */\n      swap1\n      pop\n        /* \"#utility.yul\":24937:25024   */\n      tag_543\n        /* \"#utility.yul\":25021:25022   */\n      0x00\n        /* \"#utility.yul\":25010:25019   */\n      dup4\n        /* \"#utility.yul\":25006:25023   */\n      add\n        /* \"#utility.yul\":24997:25003   */\n      dup10\n        /* \"#utility.yul\":24937:25024   */\n      tag_399\n      jump\t// in\n    tag_543:\n        /* \"#utility.yul\":25034:25106   */\n      tag_544\n        /* \"#utility.yul\":25102:25104   */\n      0x20\n        /* \"#utility.yul\":25091:25100   */\n      dup4\n        /* \"#utility.yul\":25087:25105   */\n      add\n        /* \"#utility.yul\":25078:25084   */\n      dup9\n        /* \"#utility.yul\":25034:25106   */\n      tag_529\n      jump\t// in\n    tag_544:\n        /* \"#utility.yul\":25116:25188   */\n      tag_545\n        /* \"#utility.yul\":25184:25186   */\n      0x40\n        /* \"#utility.yul\":25173:25182   */\n      dup4\n        /* \"#utility.yul\":25169:25187   */\n      add\n        /* \"#utility.yul\":25160:25166   */\n      dup8\n        /* \"#utility.yul\":25116:25188   */\n      tag_529\n      jump\t// in\n    tag_545:\n        /* \"#utility.yul\":25235:25244   */\n      dup2\n        /* \"#utility.yul\":25229:25233   */\n      dup2\n        /* \"#utility.yul\":25225:25245   */\n      sub\n        /* \"#utility.yul\":25220:25222   */\n      0x60\n        /* \"#utility.yul\":25209:25218   */\n      dup4\n        /* \"#utility.yul\":25205:25223   */\n      add\n        /* \"#utility.yul\":25198:25246   */\n      mstore\n        /* \"#utility.yul\":25263:25341   */\n      tag_546\n        /* \"#utility.yul\":25336:25340   */\n      dup2\n        /* \"#utility.yul\":25327:25333   */\n      dup7\n        /* \"#utility.yul\":25263:25341   */\n      tag_481\n      jump\t// in\n    tag_546:\n        /* \"#utility.yul\":25255:25341   */\n      swap1\n      pop\n        /* \"#utility.yul\":25351:25424   */\n      tag_547\n        /* \"#utility.yul\":25419:25422   */\n      0x80\n        /* \"#utility.yul\":25408:25417   */\n      dup4\n        /* \"#utility.yul\":25404:25423   */\n      add\n        /* \"#utility.yul\":25395:25401   */\n      dup6\n        /* \"#utility.yul\":25351:25424   */\n      tag_529\n      jump\t// in\n    tag_547:\n        /* \"#utility.yul\":25472:25481   */\n      dup2\n        /* \"#utility.yul\":25466:25470   */\n      dup2\n        /* \"#utility.yul\":25462:25482   */\n      sub\n        /* \"#utility.yul\":25456:25459   */\n      0xa0\n        /* \"#utility.yul\":25445:25454   */\n      dup4\n        /* \"#utility.yul\":25441:25460   */\n      add\n        /* \"#utility.yul\":25434:25483   */\n      mstore\n        /* \"#utility.yul\":25500:25612   */\n      tag_548\n        /* \"#utility.yul\":25607:25611   */\n      dup2\n        /* \"#utility.yul\":25598:25604   */\n      dup5\n        /* \"#utility.yul\":25500:25612   */\n      tag_522\n      jump\t// in\n    tag_548:\n        /* \"#utility.yul\":25492:25612   */\n      swap1\n      pop\n        /* \"#utility.yul\":24562:25619   */\n      swap8\n      swap7\n      pop\n      pop\n      pop\n      pop\n      pop\n      pop\n      pop\n      jump\t// out\n        /* \"#utility.yul\":25625:26122   */\n    tag_43:\n        /* \"#utility.yul\":25830:25834   */\n      0x00\n        /* \"#utility.yul\":25868:25870   */\n      0x20\n        /* \"#utility.yul\":25857:25866   */\n      dup3\n        /* \"#utility.yul\":25853:25871   */\n      add\n        /* \"#utility.yul\":25845:25871   */\n      swap1\n      pop\n        /* \"#utility.yul\":25917:25926   */\n      dup2\n        /* \"#utility.yul\":25911:25915   */\n      dup2\n        /* \"#utility.yul\":25907:25927   */\n      sub\n        /* \"#utility.yul\":25903:25904   */\n      0x00\n        /* \"#utility.yul\":25892:25901   */\n      dup4\n        /* \"#utility.yul\":25888:25905   */\n      add\n        /* \"#utility.yul\":25881:25928   */\n      mstore\n        /* \"#utility.yul\":25945:26115   */\n      tag_550\n        /* \"#utility.yul\":26110:26114   */\n      dup2\n        /* \"#utility.yul\":26101:26107   */\n      dup5\n        /* \"#utility.yul\":25945:26115   */\n      tag_422\n      jump\t// in\n    tag_550:\n        /* \"#utility.yul\":25937:26115   */\n      swap1\n      pop\n        /* \"#utility.yul\":25625:26122   */\n      swap3\n      swap2\n      pop\n      pop\n      jump\t// out\n        /* \"#utility.yul\":26128:26609   */\n    tag_21:\n        /* \"#utility.yul\":26325:26329   */\n      0x00\n        /* \"#utility.yul\":26363:26365   */\n      0x20\n        /* \"#utility.yul\":26352:26361   */\n      dup3\n        /* \"#utility.yul\":26348:26366   */\n      add\n        /* \"#utility.yul\":26340:26366   */\n      swap1\n      pop\n        /* \"#utility.yul\":26412:26421   */\n      dup2\n        /* \"#utility.yul\":26406:26410   */\n      dup2\n        /* \"#utility.yul\":26402:26422   */\n      sub\n        /* \"#utility.yul\":26398:26399   */\n      0x00\n        /* \"#utility.yul\":26387:26396   */\n      dup4\n        /* \"#utility.yul\":26383:26400   */\n      add\n        /* \"#utility.yul\":26376:26423   */\n      mstore\n        /* \"#utility.yul\":26440:26602   */\n      tag_552\n        /* \"#utility.yul\":26597:26601   */\n      dup2\n        /* \"#utility.yul\":26588:26594   */\n      dup5\n        /* \"#utility.yul\":26440:26602   */\n      tag_436\n      jump\t// in\n    tag_552:\n        /* \"#utility.yul\":26432:26602   */\n      swap1\n      pop\n        /* \"#utility.yul\":26128:26609   */\n      swap3\n      swap2\n      pop\n      pop\n      jump\t// out\n        /* \"#utility.yul\":26615:27941   */\n    tag_27:\n        /* \"#utility.yul\":26992:26996   */\n      0x00\n        /* \"#utility.yul\":27030:27033   */\n      0x0100\n        /* \"#utility.yul\":27019:27028   */\n      dup3\n        /* \"#utility.yul\":27015:27034   */\n      add\n        /* \"#utility.yul\":27007:27034   */\n      swap1\n      pop\n        /* \"#utility.yul\":27080:27089   */\n      dup2\n        /* \"#utility.yul\":27074:27078   */\n      dup2\n        /* \"#utility.yul\":27070:27090   */\n      sub\n        /* \"#utility.yul\":27066:27067   */\n      0x00\n        /* \"#utility.yul\":27055:27064   */\n      dup4\n        /* \"#utility.yul\":27051:27068   */\n      add\n        /* \"#utility.yul\":27044:27091   */\n      mstore\n        /* \"#utility.yul\":27108:27186   */\n      tag_554\n        /* \"#utility.yul\":27181:27185   */\n      dup2\n        /* \"#utility.yul\":27172:27178   */\n      dup12\n        /* \"#utility.yul\":27108:27186   */\n      tag_481\n      jump\t// in\n    tag_554:\n        /* \"#utility.yul\":27100:27186   */\n      swap1\n      pop\n        /* \"#utility.yul\":27233:27242   */\n      dup2\n        /* \"#utility.yul\":27227:27231   */\n      dup2\n        /* \"#utility.yul\":27223:27243   */\n      sub\n        /* \"#utility.yul\":27218:27220   */\n      0x20\n        /* \"#utility.yul\":27207:27216   */\n      dup4\n        /* \"#utility.yul\":27203:27221   */\n      add\n        /* \"#utility.yul\":27196:27244   */\n      mstore\n        /* \"#utility.yul\":27261:27339   */\n      tag_555\n        /* \"#utility.yul\":27334:27338   */\n      dup2\n        /* \"#utility.yul\":27325:27331   */\n      dup11\n        /* \"#utility.yul\":27261:27339   */\n      tag_481\n      jump\t// in\n    tag_555:\n        /* \"#utility.yul\":27253:27339   */\n      swap1\n      pop\n        /* \"#utility.yul\":27349:27421   */\n      tag_556\n        /* \"#utility.yul\":27417:27419   */\n      0x40\n        /* \"#utility.yul\":27406:27415   */\n      dup4\n        /* \"#utility.yul\":27402:27420   */\n      add\n        /* \"#utility.yul\":27393:27399   */\n      dup10\n        /* \"#utility.yul\":27349:27421   */\n      tag_529\n      jump\t// in\n    tag_556:\n        /* \"#utility.yul\":27431:27497   */\n      tag_557\n        /* \"#utility.yul\":27493:27495   */\n      0x60\n        /* \"#utility.yul\":27482:27491   */\n      dup4\n        /* \"#utility.yul\":27478:27496   */\n      add\n        /* \"#utility.yul\":27469:27475   */\n      dup9\n        /* \"#utility.yul\":27431:27497   */\n      tag_468\n      jump\t// in\n    tag_557:\n        /* \"#utility.yul\":27507:27580   */\n      tag_558\n        /* \"#utility.yul\":27575:27578   */\n      0x80\n        /* \"#utility.yul\":27564:27573   */\n      dup4\n        /* \"#utility.yul\":27560:27579   */\n      add\n        /* \"#utility.yul\":27551:27557   */\n      dup8\n        /* \"#utility.yul\":27507:27580   */\n      tag_529\n      jump\t// in\n    tag_558:\n        /* \"#utility.yul\":27590:27663   */\n      tag_559\n        /* \"#utility.yul\":27658:27661   */\n      0xa0\n        /* \"#utility.yul\":27647:27656   */\n      dup4\n        /* \"#utility.yul\":27643:27662   */\n      add\n        /* \"#utility.yul\":27634:27640   */\n      dup7\n        /* \"#utility.yul\":27590:27663   */\n      tag_405\n      jump\t// in\n    tag_559:\n        /* \"#utility.yul\":27673:27746   */\n      tag_560\n        /* \"#utility.yul\":27741:27744   */\n      0xc0\n        /* \"#utility.yul\":27730:27739   */\n      dup4\n        /* \"#utility.yul\":27726:27745   */\n      add\n        /* \"#utility.yul\":27717:27723   */\n      dup6\n        /* \"#utility.yul\":27673:27746   */\n      tag_529\n      jump\t// in\n    tag_560:\n        /* \"#utility.yul\":27794:27803   */\n      dup2\n        /* \"#utility.yul\":27788:27792   */\n      dup2\n        /* \"#utility.yul\":27784:27804   */\n      sub\n        /* \"#utility.yul\":27778:27781   */\n      0xe0\n        /* \"#utility.yul\":27767:27776   */\n      dup4\n        /* \"#utility.yul\":27763:27782   */\n      add\n        /* \"#utility.yul\":27756:27805   */\n      mstore\n        /* \"#utility.yul\":27822:27934   */\n      tag_561\n        /* \"#utility.yul\":27929:27933   */\n      dup2\n        /* \"#utility.yul\":27920:27926   */\n      dup5\n        /* \"#utility.yul\":27822:27934   */\n      tag_522\n      jump\t// in\n    tag_561:\n        /* \"#utility.yul\":27814:27934   */\n      swap1\n      pop\n        /* \"#utility.yul\":26615:27941   */\n      swap10\n      swap9\n      pop\n      pop\n      pop\n      pop\n      pop\n      pop\n      pop\n      pop\n      pop\n      jump\t// out\n        /* \"#utility.yul\":27947:28845   */\n    tag_32:\n        /* \"#utility.yul\":28216:28220   */\n      0x00\n        /* \"#utility.yul\":28254:28257   */\n      0xc0\n        /* \"#utility.yul\":28243:28252   */\n      dup3\n        /* \"#utility.yul\":28239:28258   */\n      add\n        /* \"#utility.yul\":28231:28258   */\n      swap1\n      pop\n        /* \"#utility.yul\":28304:28313   */\n      dup2\n        /* \"#utility.yul\":28298:28302   */\n      dup2\n        /* \"#utility.yul\":28294:28314   */\n      sub\n        /* \"#utility.yul\":28290:28291   */\n      0x00\n        /* \"#utility.yul\":28279:28288   */\n      dup4\n        /* \"#utility.yul\":28275:28292   */\n      add\n        /* \"#utility.yul\":28268:28315   */\n      mstore\n        /* \"#utility.yul\":28332:28410   */\n      tag_563\n        /* \"#utility.yul\":28405:28409   */\n      dup2\n        /* \"#utility.yul\":28396:28402   */\n      dup10\n        /* \"#utility.yul\":28332:28410   */\n      tag_481\n      jump\t// in\n    tag_563:\n        /* \"#utility.yul\":28324:28410   */\n      swap1\n      pop\n        /* \"#utility.yul\":28420:28492   */\n      tag_564\n        /* \"#utility.yul\":28488:28490   */\n      0x20\n        /* \"#utility.yul\":28477:28486   */\n      dup4\n        /* \"#utility.yul\":28473:28491   */\n      add\n        /* \"#utility.yul\":28464:28470   */\n      dup9\n        /* \"#utility.yul\":28420:28492   */\n      tag_529\n      jump\t// in\n    tag_564:\n        /* \"#utility.yul\":28502:28590   */\n      tag_565\n        /* \"#utility.yul\":28586:28588   */\n      0x40\n        /* \"#utility.yul\":28575:28584   */\n      dup4\n        /* \"#utility.yul\":28571:28589   */\n      add\n        /* \"#utility.yul\":28562:28568   */\n      dup8\n        /* \"#utility.yul\":28502:28590   */\n      tag_399\n      jump\t// in\n    tag_565:\n        /* \"#utility.yul\":28600:28672   */\n      tag_566\n        /* \"#utility.yul\":28668:28670   */\n      0x60\n        /* \"#utility.yul\":28657:28666   */\n      dup4\n        /* \"#utility.yul\":28653:28671   */\n      add\n        /* \"#utility.yul\":28644:28650   */\n      dup7\n        /* \"#utility.yul\":28600:28672   */\n      tag_529\n      jump\t// in\n    tag_566:\n        /* \"#utility.yul\":28682:28755   */\n      tag_567\n        /* \"#utility.yul\":28750:28753   */\n      0x80\n        /* \"#utility.yul\":28739:28748   */\n      dup4\n        /* \"#utility.yul\":28735:28754   */\n      add\n        /* \"#utility.yul\":28726:28732   */\n      dup6\n        /* \"#utility.yul\":28682:28755   */\n      tag_529\n      jump\t// in\n    tag_567:\n        /* \"#utility.yul\":28765:28838   */\n      tag_568\n        /* \"#utility.yul\":28833:28836   */\n      0xa0\n        /* \"#utility.yul\":28822:28831   */\n      dup4\n        /* \"#utility.yul\":28818:28837   */\n      add\n        /* \"#utility.yul\":28809:28815   */\n      dup5\n        /* \"#utility.yul\":28765:28838   */\n      tag_529\n      jump\t// in\n    tag_568:\n        /* \"#utility.yul\":27947:28845   */\n      swap8\n      swap7\n      pop\n      pop\n      pop\n      pop\n      pop\n      pop\n      pop\n      jump\t// out\n        /* \"#utility.yul\":28851:29216   */\n    tag_55:\n        /* \"#utility.yul\":28990:28994   */\n      0x00\n        /* \"#utility.yul\":29028:29030   */\n      0x20\n        /* \"#utility.yul\":29017:29026   */\n      dup3\n        /* \"#utility.yul\":29013:29031   */\n      add\n        /* \"#utility.yul\":29005:29031   */\n      swap1\n      pop\n        /* \"#utility.yul\":29077:29086   */\n      dup2\n        /* \"#utility.yul\":29071:29075   */\n      dup2\n        /* \"#utility.yul\":29067:29087   */\n      sub\n        /* \"#utility.yul\":29063:29064   */\n      0x00\n        /* \"#utility.yul\":29052:29061   */\n      dup4\n        /* \"#utility.yul\":29048:29065   */\n      add\n        /* \"#utility.yul\":29041:29088   */\n      mstore\n        /* \"#utility.yul\":29105:29209   */\n      tag_570\n        /* \"#utility.yul\":29204:29208   */\n      dup2\n        /* \"#utility.yul\":29195:29201   */\n      dup5\n        /* \"#utility.yul\":29105:29209   */\n      tag_506\n      jump\t// in\n    tag_570:\n        /* \"#utility.yul\":29097:29209   */\n      swap1\n      pop\n        /* \"#utility.yul\":28851:29216   */\n      swap3\n      swap2\n      pop\n      pop\n      jump\t// out\n        /* \"#utility.yul\":29222:29351   */\n    tag_271:\n        /* \"#utility.yul\":29256:29262   */\n      0x00\n        /* \"#utility.yul\":29283:29303   */\n      tag_572\n      tag_573\n      jump\t// in\n    tag_572:\n        /* \"#utility.yul\":29273:29303   */\n      swap1\n      pop\n        /* \"#utility.yul\":29312:29345   */\n      tag_574\n        /* \"#utility.yul\":29340:29344   */\n      dup3\n        /* \"#utility.yul\":29332:29338   */\n      dup3\n        /* \"#utility.yul\":29312:29345   */\n      tag_575\n      jump\t// in\n    tag_574:\n        /* \"#utility.yul\":29222:29351   */\n      swap2\n      swap1\n      pop\n      jump\t// out\n        /* \"#utility.yul\":29357:29432   */\n    tag_573:\n        /* \"#utility.yul\":29390:29396   */\n      0x00\n        /* \"#utility.yul\":29423:29425   */\n      0x40\n        /* \"#utility.yul\":29417:29426   */\n      mload\n        /* \"#utility.yul\":29407:29426   */\n      swap1\n      pop\n        /* \"#utility.yul\":29357:29432   */\n      swap1\n      jump\t// out\n        /* \"#utility.yul\":29438:29749   */\n    tag_270:\n        /* \"#utility.yul\":29515:29519   */\n      0x00\n        /* \"#utility.yul\":29605:29623   */\n      0xffffffffffffffff\n        /* \"#utility.yul\":29597:29603   */\n      dup3\n        /* \"#utility.yul\":29594:29624   */\n      gt\n        /* \"#utility.yul\":29591:29647   */\n      iszero\n      tag_578\n      jumpi\n        /* \"#utility.yul\":29627:29645   */\n      tag_579\n      tag_580\n      jump\t// in\n    tag_579:\n        /* \"#utility.yul\":29591:29647   */\n    tag_578:\n        /* \"#utility.yul\":29677:29681   */\n      0x20\n        /* \"#utility.yul\":29669:29675   */\n      dup3\n        /* \"#utility.yul\":29665:29682   */\n      mul\n        /* \"#utility.yul\":29657:29682   */\n      swap1\n      pop\n        /* \"#utility.yul\":29737:29741   */\n      0x20\n        /* \"#utility.yul\":29731:29735   */\n      dup2\n        /* \"#utility.yul\":29727:29742   */\n      add\n        /* \"#utility.yul\":29719:29742   */\n      swap1\n      pop\n        /* \"#utility.yul\":29438:29749   */\n      swap2\n      swap1\n      pop\n      jump\t// out\n        /* \"#utility.yul\":29755:30063   */\n    tag_284:\n        /* \"#utility.yul\":29817:29821   */\n      0x00\n        /* \"#utility.yul\":29907:29925   */\n      0xffffffffffffffff\n        /* \"#utility.yul\":29899:29905   */\n      dup3\n        /* \"#utility.yul\":29896:29926   */\n      gt\n        /* \"#utility.yul\":29893:29949   */\n      iszero\n      tag_582\n      jumpi\n        /* \"#utility.yul\":29929:29947   */\n      tag_583\n      tag_580\n      jump\t// in\n    tag_583:\n        /* \"#utility.yul\":29893:29949   */\n    tag_582:\n        /* \"#utility.yul\":29967:29996   */\n      tag_584\n        /* \"#utility.yul\":29989:29995   */\n      dup3\n        /* \"#utility.yul\":29967:29996   */\n      tag_480\n      jump\t// in\n    tag_584:\n        /* \"#utility.yul\":29959:29996   */\n      swap1\n      pop\n        /* \"#utility.yul\":30051:30055   */\n      0x20\n        /* \"#utility.yul\":30045:30049   */\n      dup2\n        /* \"#utility.yul\":30041:30056   */\n      add\n        /* \"#utility.yul\":30033:30056   */\n      swap1\n      pop\n        /* \"#utility.yul\":29755:30063   */\n      swap2\n      swap1\n      pop\n      jump\t// out\n        /* \"#utility.yul\":30069:30201   */\n    tag_415:\n        /* \"#utility.yul\":30136:30140   */\n      0x00\n        /* \"#utility.yul\":30159:30162   */\n      dup2\n        /* \"#utility.yul\":30151:30162   */\n      swap1\n      pop\n        /* \"#utility.yul\":30189:30193   */\n      0x20\n        /* \"#utility.yul\":30184:30187   */\n      dup3\n        /* \"#utility.yul\":30180:30194   */\n      add\n        /* \"#utility.yul\":30172:30194   */\n      swap1\n      pop\n        /* \"#utility.yul\":30069:30201   */\n      swap2\n      swap1\n      pop\n      jump\t// out\n        /* \"#utility.yul\":30207:30370   */\n    tag_429:\n        /* \"#utility.yul\":30305:30309   */\n      0x00\n        /* \"#utility.yul\":30328:30331   */\n      dup2\n        /* \"#utility.yul\":30320:30331   */\n      swap1\n      pop\n        /* \"#utility.yul\":30358:30362   */\n      0x20\n        /* \"#utility.yul\":30353:30356   */\n      dup3\n        /* \"#utility.yul\":30349:30363   */\n      add\n        /* \"#utility.yul\":30341:30363   */\n      swap1\n      pop\n        /* \"#utility.yul\":30207:30370   */\n      swap2\n      swap1\n      pop\n      jump\t// out\n        /* \"#utility.yul\":30376:30535   */\n    tag_443:\n        /* \"#utility.yul\":30470:30474   */\n      0x00\n        /* \"#utility.yul\":30493:30496   */\n      dup2\n        /* \"#utility.yul\":30485:30496   */\n      swap1\n      pop\n        /* \"#utility.yul\":30523:30527   */\n      0x20\n        /* \"#utility.yul\":30518:30521   */\n      dup3\n        /* \"#utility.yul\":30514:30528   */\n      add\n        /* \"#utility.yul\":30506:30528   */\n      swap1\n      pop\n        /* \"#utility.yul\":30376:30535   */\n      swap2\n      swap1\n      pop\n      jump\t// out\n        /* \"#utility.yul\":30541:30673   */\n    tag_457:\n        /* \"#utility.yul\":30608:30612   */\n      0x00\n        /* \"#utility.yul\":30631:30634   */\n      dup2\n        /* \"#utility.yul\":30623:30634   */\n      swap1\n      pop\n        /* \"#utility.yul\":30661:30665   */\n      0x20\n        /* \"#utility.yul\":30656:30659   */\n      dup3\n        /* \"#utility.yul\":30652:30666   */\n      add\n        /* \"#utility.yul\":30644:30666   */\n      swap1\n      pop\n        /* \"#utility.yul\":30541:30673   */\n      swap2\n      swap1\n      pop\n      jump\t// out\n        /* \"#utility.yul\":30679:30793   */\n    tag_411:\n        /* \"#utility.yul\":30746:30752   */\n      0x00\n        /* \"#utility.yul\":30780:30785   */\n      dup2\n        /* \"#utility.yul\":30774:30786   */\n      mload\n        /* \"#utility.yul\":30764:30786   */\n      swap1\n      pop\n        /* \"#utility.yul\":30679:30793   */\n      swap2\n      swap1\n      pop\n      jump\t// out\n        /* \"#utility.yul\":30799:30944   */\n    tag_425:\n        /* \"#utility.yul\":30897:30903   */\n      0x00\n        /* \"#utility.yul\":30931:30936   */\n      dup2\n        /* \"#utility.yul\":30925:30937   */\n      mload\n        /* \"#utility.yul\":30915:30937   */\n      swap1\n      pop\n        /* \"#utility.yul\":30799:30944   */\n      swap2\n      swap1\n      pop\n      jump\t// out\n        /* \"#utility.yul\":30950:31091   */\n    tag_439:\n        /* \"#utility.yul\":31044:31050   */\n      0x00\n        /* \"#utility.yul\":31078:31083   */\n      dup2\n        /* \"#utility.yul\":31072:31084   */\n      mload\n        /* \"#utility.yul\":31062:31084   */\n      swap1\n      pop\n        /* \"#utility.yul\":30950:31091   */\n      swap2\n      swap1\n      pop\n      jump\t// out\n        /* \"#utility.yul\":31097:31211   */\n    tag_453:\n        /* \"#utility.yul\":31164:31170   */\n      0x00\n        /* \"#utility.yul\":31198:31203   */\n      dup2\n        /* \"#utility.yul\":31192:31204   */\n      mload\n        /* \"#utility.yul\":31182:31204   */\n      swap1\n      pop\n        /* \"#utility.yul\":31097:31211   */\n      swap2\n      swap1\n      pop\n      jump\t// out\n        /* \"#utility.yul\":31217:31316   */\n    tag_474:\n        /* \"#utility.yul\":31269:31275   */\n      0x00\n        /* \"#utility.yul\":31303:31308   */\n      dup2\n        /* \"#utility.yul\":31297:31309   */\n      mload\n        /* \"#utility.yul\":31287:31309   */\n      swap1\n      pop\n        /* \"#utility.yul\":31217:31316   */\n      swap2\n      swap1\n      pop\n      jump\t// out\n        /* \"#utility.yul\":31322:31435   */\n    tag_421:\n        /* \"#utility.yul\":31392:31396   */\n      0x00\n        /* \"#utility.yul\":31424:31428   */\n      0x20\n        /* \"#utility.yul\":31419:31422   */\n      dup3\n        /* \"#utility.yul\":31415:31429   */\n      add\n        /* \"#utility.yul\":31407:31429   */\n      swap1\n      pop\n        /* \"#utility.yul\":31322:31435   */\n      swap2\n      swap1\n      pop\n      jump\t// out\n        /* \"#utility.yul\":31441:31585   */\n    tag_435:\n        /* \"#utility.yul\":31542:31546   */\n      0x00\n        /* \"#utility.yul\":31574:31578   */\n      0x20\n        /* \"#utility.yul\":31569:31572   */\n      dup3\n        /* \"#utility.yul\":31565:31579   */\n      add\n        /* \"#utility.yul\":31557:31579   */\n      swap1\n      pop\n        /* \"#utility.yul\":31441:31585   */\n      swap2\n      swap1\n      pop\n      jump\t// out\n        /* \"#utility.yul\":31591:31731   */\n    tag_449:\n        /* \"#utility.yul\":31688:31692   */\n      0x00\n        /* \"#utility.yul\":31720:31724   */\n      0x20\n        /* \"#utility.yul\":31715:31718   */\n      dup3\n        /* \"#utility.yul\":31711:31725   */\n      add\n        /* \"#utility.yul\":31703:31725   */\n      swap1\n      pop\n        /* \"#utility.yul\":31591:31731   */\n      swap2\n      swap1\n      pop\n      jump\t// out\n        /* \"#utility.yul\":31737:31850   */\n    tag_463:\n        /* \"#utility.yul\":31807:31811   */\n      0x00\n        /* \"#utility.yul\":31839:31843   */\n      0x20\n        /* \"#utility.yul\":31834:31837   */\n      dup3\n        /* \"#utility.yul\":31830:31844   */\n      add\n        /* \"#utility.yul\":31822:31844   */\n      swap1\n      pop\n        /* \"#utility.yul\":31737:31850   */\n      swap2\n      swap1\n      pop\n      jump\t// out\n        /* \"#utility.yul\":31856:32030   */\n    tag_413:\n        /* \"#utility.yul\":31945:31956   */\n      0x00\n        /* \"#utility.yul\":31979:31985   */\n      dup3\n        /* \"#utility.yul\":31974:31977   */\n      dup3\n        /* \"#utility.yul\":31967:31986   */\n      mstore\n        /* \"#utility.yul\":32019:32023   */\n      0x20\n        /* \"#utility.yul\":32014:32017   */\n      dup3\n        /* \"#utility.yul\":32010:32024   */\n      add\n        /* \"#utility.yul\":31995:32024   */\n      swap1\n      pop\n        /* \"#utility.yul\":31856:32030   */\n      swap3\n      swap2\n      pop\n      pop\n      jump\t// out\n        /* \"#utility.yul\":32036:32251   */\n    tag_427:\n        /* \"#utility.yul\":32166:32177   */\n      0x00\n        /* \"#utility.yul\":32200:32206   */\n      dup3\n        /* \"#utility.yul\":32195:32198   */\n      dup3\n        /* \"#utility.yul\":32188:32207   */\n      mstore\n        /* \"#utility.yul\":32240:32244   */\n      0x20\n        /* \"#utility.yul\":32235:32238   */\n      dup3\n        /* \"#utility.yul\":32231:32245   */\n      add\n        /* \"#utility.yul\":32216:32245   */\n      swap1\n      pop\n        /* \"#utility.yul\":32036:32251   */\n      swap3\n      swap2\n      pop\n      pop\n      jump\t// out\n        /* \"#utility.yul\":32257:32468   */\n    tag_441:\n        /* \"#utility.yul\":32383:32394   */\n      0x00\n        /* \"#utility.yul\":32417:32423   */\n      dup3\n        /* \"#utility.yul\":32412:32415   */\n      dup3\n        /* \"#utility.yul\":32405:32424   */\n      mstore\n        /* \"#utility.yul\":32457:32461   */\n      0x20\n        /* \"#utility.yul\":32452:32455   */\n      dup3\n        /* \"#utility.yul\":32448:32462   */\n      add\n        /* \"#utility.yul\":32433:32462   */\n      swap1\n      pop\n        /* \"#utility.yul\":32257:32468   */\n      swap3\n      swap2\n      pop\n      pop\n      jump\t// out\n        /* \"#utility.yul\":32474:32648   */\n    tag_455:\n        /* \"#utility.yul\":32563:32574   */\n      0x00\n        /* \"#utility.yul\":32597:32603   */\n      dup3\n        /* \"#utility.yul\":32592:32595   */\n      dup3\n        /* \"#utility.yul\":32585:32604   */\n      mstore\n        /* \"#utility.yul\":32637:32641   */\n      0x20\n        /* \"#utility.yul\":32632:32635   */\n      dup3\n        /* \"#utility.yul\":32628:32642   */\n      add\n        /* \"#utility.yul\":32613:32642   */\n      swap1\n      pop\n        /* \"#utility.yul\":32474:32648   */\n      swap3\n      swap2\n      pop\n      pop\n      jump\t// out\n        /* \"#utility.yul\":32654:32813   */\n    tag_476:\n        /* \"#utility.yul\":32728:32739   */\n      0x00\n        /* \"#utility.yul\":32762:32768   */\n      dup3\n        /* \"#utility.yul\":32757:32760   */\n      dup3\n        /* \"#utility.yul\":32750:32769   */\n      mstore\n        /* \"#utility.yul\":32802:32806   */\n      0x20\n        /* \"#utility.yul\":32797:32800   */\n      dup3\n        /* \"#utility.yul\":32793:32807   */\n      add\n        /* \"#utility.yul\":32778:32807   */\n      swap1\n      pop\n        /* \"#utility.yul\":32654:32813   */\n      swap3\n      swap2\n      pop\n      pop\n      jump\t// out\n        /* \"#utility.yul\":32819:32988   */\n    tag_485:\n        /* \"#utility.yul\":32903:32914   */\n      0x00\n        /* \"#utility.yul\":32937:32943   */\n      dup3\n        /* \"#utility.yul\":32932:32935   */\n      dup3\n        /* \"#utility.yul\":32925:32944   */\n      mstore\n        /* \"#utility.yul\":32977:32981   */\n      0x20\n        /* \"#utility.yul\":32972:32975   */\n      dup3\n        /* \"#utility.yul\":32968:32982   */\n      add\n        /* \"#utility.yul\":32953:32982   */\n      swap1\n      pop\n        /* \"#utility.yul\":32819:32988   */\n      swap3\n      swap2\n      pop\n      pop\n      jump\t// out\n        /* \"#utility.yul\":32994:33090   */\n    tag_404:\n        /* \"#utility.yul\":33031:33038   */\n      0x00\n        /* \"#utility.yul\":33060:33084   */\n      tag_605\n        /* \"#utility.yul\":33078:33083   */\n      dup3\n        /* \"#utility.yul\":33060:33084   */\n      tag_606\n      jump\t// in\n    tag_605:\n        /* \"#utility.yul\":33049:33084   */\n      swap1\n      pop\n        /* \"#utility.yul\":32994:33090   */\n      swap2\n      swap1\n      pop\n      jump\t// out\n        /* \"#utility.yul\":33096:33200   */\n    tag_398:\n        /* \"#utility.yul\":33141:33148   */\n      0x00\n        /* \"#utility.yul\":33170:33194   */\n      tag_608\n        /* \"#utility.yul\":33188:33193   */\n      dup3\n        /* \"#utility.yul\":33170:33194   */\n      tag_606\n      jump\t// in\n    tag_608:\n        /* \"#utility.yul\":33159:33194   */\n      swap1\n      pop\n        /* \"#utility.yul\":33096:33200   */\n      swap2\n      swap1\n      pop\n      jump\t// out\n        /* \"#utility.yul\":33206:33296   */\n    tag_467:\n        /* \"#utility.yul\":33240:33247   */\n      0x00\n        /* \"#utility.yul\":33283:33288   */\n      dup2\n        /* \"#utility.yul\":33276:33289   */\n      iszero\n        /* \"#utility.yul\":33269:33290   */\n      iszero\n        /* \"#utility.yul\":33258:33290   */\n      swap1\n      pop\n        /* \"#utility.yul\":33206:33296   */\n      swap2\n      swap1\n      pop\n      jump\t// out\n        /* \"#utility.yul\":33302:33428   */\n    tag_606:\n        /* \"#utility.yul\":33339:33346   */\n      0x00\n        /* \"#utility.yul\":33379:33421   */\n      0xffffffffffffffffffffffffffffffffffffffff\n        /* \"#utility.yul\":33372:33377   */\n      dup3\n        /* \"#utility.yul\":33368:33422   */\n      and\n        /* \"#utility.yul\":33357:33422   */\n      swap1\n      pop\n        /* \"#utility.yul\":33302:33428   */\n      swap2\n      swap1\n      pop\n      jump\t// out\n        /* \"#utility.yul\":33434:33511   */\n    tag_528:\n        /* \"#utility.yul\":33471:33478   */\n      0x00\n        /* \"#utility.yul\":33500:33505   */\n      dup2\n        /* \"#utility.yul\":33489:33505   */\n      swap1\n      pop\n        /* \"#utility.yul\":33434:33511   */\n      swap2\n      swap1\n      pop\n      jump\t// out\n        /* \"#utility.yul\":33517:33671   */\n    tag_289:\n        /* \"#utility.yul\":33601:33607   */\n      dup3\n        /* \"#utility.yul\":33596:33599   */\n      dup2\n        /* \"#utility.yul\":33591:33594   */\n      dup4\n        /* \"#utility.yul\":33578:33608   */\n      calldatacopy\n        /* \"#utility.yul\":33663:33664   */\n      0x00\n        /* \"#utility.yul\":33654:33660   */\n      dup4\n        /* \"#utility.yul\":33649:33652   */\n      dup4\n        /* \"#utility.yul\":33645:33661   */\n      add\n        /* \"#utility.yul\":33638:33665   */\n      mstore\n        /* \"#utility.yul\":33517:33671   */\n      pop\n      pop\n      pop\n      jump\t// out\n        /* \"#utility.yul\":33677:33984   */\n    tag_478:\n        /* \"#utility.yul\":33745:33746   */\n      0x00\n        /* \"#utility.yul\":33755:33868   */\n    tag_614:\n        /* \"#utility.yul\":33769:33775   */\n      dup4\n        /* \"#utility.yul\":33766:33767   */\n      dup2\n        /* \"#utility.yul\":33763:33776   */\n      lt\n        /* \"#utility.yul\":33755:33868   */\n      iszero\n      tag_616\n      jumpi\n        /* \"#utility.yul\":33854:33855   */\n      dup1\n        /* \"#utility.yul\":33849:33852   */\n      dup3\n        /* \"#utility.yul\":33845:33856   */\n      add\n        /* \"#utility.yul\":33839:33857   */\n      mload\n        /* \"#utility.yul\":33835:33836   */\n      dup2\n        /* \"#utility.yul\":33830:33833   */\n      dup5\n        /* \"#utility.yul\":33826:33837   */\n      add\n        /* \"#utility.yul\":33819:33858   */\n      mstore\n        /* \"#utility.yul\":33791:33793   */\n      0x20\n        /* \"#utility.yul\":33788:33789   */\n      dup2\n        /* \"#utility.yul\":33784:33794   */\n      add\n        /* \"#utility.yul\":33779:33794   */\n      swap1\n      pop\n        /* \"#utility.yul\":33755:33868   */\n      jump(tag_614)\n    tag_616:\n        /* \"#utility.yul\":33886:33892   */\n      dup4\n        /* \"#utility.yul\":33883:33884   */\n      dup2\n        /* \"#utility.yul\":33880:33893   */\n      gt\n        /* \"#utility.yul\":33877:33978   */\n      iszero\n      tag_617\n      jumpi\n        /* \"#utility.yul\":33966:33967   */\n      0x00\n        /* \"#utility.yul\":33957:33963   */\n      dup5\n        /* \"#utility.yul\":33952:33955   */\n      dup5\n        /* \"#utility.yul\":33948:33964   */\n      add\n        /* \"#utility.yul\":33941:33968   */\n      mstore\n        /* \"#utility.yul\":33877:33978   */\n    tag_617:\n        /* \"#utility.yul\":33726:33984   */\n      pop\n        /* \"#utility.yul\":33677:33984   */\n      pop\n      pop\n      pop\n      jump\t// out\n        /* \"#utility.yul\":33990:34310   */\n    tag_78:\n        /* \"#utility.yul\":34034:34040   */\n      0x00\n        /* \"#utility.yul\":34071:34072   */\n      0x02\n        /* \"#utility.yul\":34065:34069   */\n      dup3\n        /* \"#utility.yul\":34061:34073   */\n      div\n        /* \"#utility.yul\":34051:34073   */\n      swap1\n      pop\n        /* \"#utility.yul\":34118:34119   */\n      0x01\n        /* \"#utility.yul\":34112:34116   */\n      dup3\n        /* \"#utility.yul\":34108:34120   */\n      and\n        /* \"#utility.yul\":34139:34157   */\n      dup1\n        /* \"#utility.yul\":34129:34210   */\n      tag_619\n      jumpi\n        /* \"#utility.yul\":34195:34199   */\n      0x7f\n        /* \"#utility.yul\":34187:34193   */\n      dup3\n        /* \"#utility.yul\":34183:34200   */\n      and\n        /* \"#utility.yul\":34173:34200   */\n      swap2\n      pop\n        /* \"#utility.yul\":34129:34210   */\n    tag_619:\n        /* \"#utility.yul\":34257:34259   */\n      0x20\n        /* \"#utility.yul\":34249:34255   */\n      dup3\n        /* \"#utility.yul\":34246:34260   */\n      lt\n        /* \"#utility.yul\":34226:34244   */\n      dup2\n        /* \"#utility.yul\":34223:34261   */\n      eq\n        /* \"#utility.yul\":34220:34304   */\n      iszero\n      tag_620\n      jumpi\n        /* \"#utility.yul\":34276:34294   */\n      tag_621\n      tag_622\n      jump\t// in\n    tag_621:\n        /* \"#utility.yul\":34220:34304   */\n    tag_620:\n        /* \"#utility.yul\":34041:34310   */\n      pop\n        /* \"#utility.yul\":33990:34310   */\n      swap2\n      swap1\n      pop\n      jump\t// out\n        /* \"#utility.yul\":34316:34597   */\n    tag_575:\n        /* \"#utility.yul\":34399:34426   */\n      tag_624\n        /* \"#utility.yul\":34421:34425   */\n      dup3\n        /* \"#utility.yul\":34399:34426   */\n      tag_480\n      jump\t// in\n    tag_624:\n        /* \"#utility.yul\":34391:34397   */\n      dup2\n        /* \"#utility.yul\":34387:34427   */\n      add\n        /* \"#utility.yul\":34529:34535   */\n      dup2\n        /* \"#utility.yul\":34517:34527   */\n      dup2\n        /* \"#utility.yul\":34514:34536   */\n      lt\n        /* \"#utility.yul\":34493:34511   */\n      0xffffffffffffffff\n        /* \"#utility.yul\":34481:34491   */\n      dup3\n        /* \"#utility.yul\":34478:34512   */\n      gt\n        /* \"#utility.yul\":34475:34537   */\n      or\n        /* \"#utility.yul\":34472:34560   */\n      iszero\n      tag_625\n      jumpi\n        /* \"#utility.yul\":34540:34558   */\n      tag_626\n      tag_580\n      jump\t// in\n    tag_626:\n        /* \"#utility.yul\":34472:34560   */\n    tag_625:\n        /* \"#utility.yul\":34580:34590   */\n      dup1\n        /* \"#utility.yul\":34576:34578   */\n      0x40\n        /* \"#utility.yul\":34569:34591   */\n      mstore\n        /* \"#utility.yul\":34359:34597   */\n      pop\n        /* \"#utility.yul\":34316:34597   */\n      pop\n      pop\n      jump\t// out\n        /* \"#utility.yul\":34603:34836   */\n    tag_175:\n        /* \"#utility.yul\":34642:34645   */\n      0x00\n        /* \"#utility.yul\":34665:34689   */\n      tag_628\n        /* \"#utility.yul\":34683:34688   */\n      dup3\n        /* \"#utility.yul\":34665:34689   */\n      tag_528\n      jump\t// in\n    tag_628:\n        /* \"#utility.yul\":34656:34689   */\n      swap2\n      pop\n        /* \"#utility.yul\":34711:34777   */\n      0xffffffffffffffffffffffffffffffffffffffffffffffffffffffffffffffff\n        /* \"#utility.yul\":34704:34709   */\n      dup3\n        /* \"#utility.yul\":34701:34778   */\n      eq\n        /* \"#utility.yul\":34698:34801   */\n      iszero\n      tag_629\n      jumpi\n        /* \"#utility.yul\":34781:34799   */\n      tag_630\n      tag_631\n      jump\t// in\n    tag_630:\n        /* \"#utility.yul\":34698:34801   */\n    tag_629:\n        /* \"#utility.yul\":34828:34829   */\n      0x01\n        /* \"#utility.yul\":34821:34826   */\n      dup3\n        /* \"#utility.yul\":34817:34830   */\n      add\n        /* \"#utility.yul\":34810:34830   */\n      swap1\n      pop\n        /* \"#utility.yul\":34603:34836   */\n      swap2\n      swap1\n      pop\n      jump\t// out\n        /* \"#utility.yul\":34842:35022   */\n    tag_631:\n        /* \"#utility.yul\":34890:34967   */\n      0x4e487b7100000000000000000000000000000000000000000000000000000000\n        /* \"#utility.yul\":34887:34888   */\n      0x00\n        /* \"#utility.yul\":34880:34968   */\n      mstore\n        /* \"#utility.yul\":34987:34991   */\n      0x11\n        /* \"#utility.yul\":34984:34985   */\n      0x04\n        /* \"#utility.yul\":34977:34992   */\n      mstore\n        /* \"#utility.yul\":35011:35015   */\n      0x24\n        /* \"#utility.yul\":35008:35009   */\n      0x00\n        /* \"#utility.yul\":35001:35016   */\n      revert\n        /* \"#utility.yul\":35028:35208   */\n    tag_622:\n        /* \"#utility.yul\":35076:35153   */\n      0x4e487b7100000000000000000000000000000000000000000000000000000000\n        /* \"#utility.yul\":35073:35074   */\n      0x00\n        /* \"#utility.yul\":35066:35154   */\n      mstore\n        /* \"#utility.yul\":35173:35177   */\n      0x22\n        /* \"#utility.yul\":35170:35171   */\n      0x04\n        /* \"#utility.yul\":35163:35178   */\n      mstore\n        /* \"#utility.yul\":35197:35201   */\n      0x24\n        /* \"#utility.yul\":35194:35195   */\n      0x00\n        /* \"#utility.yul\":35187:35202   */\n      revert\n        /* \"#utility.yul\":35214:35394   */\n    tag_173:\n        /* \"#utility.yul\":35262:35339   */\n      0x4e487b7100000000000000000000000000000000000000000000000000000000\n        /* \"#utility.yul\":35259:35260   */\n      0x00\n        /* \"#utility.yul\":35252:35340   */\n      mstore\n        /* \"#utility.yul\":35359:35363   */\n      0x32\n        /* \"#utility.yul\":35356:35357   */\n      0x04\n        /* \"#utility.yul\":35349:35364   */\n      mstore\n        /* \"#utility.yul\":35383:35387   */\n      0x24\n        /* \"#utility.yul\":35380:35381   */\n      0x00\n        /* \"#utility.yul\":35373:35388   */\n      revert\n        /* \"#utility.yul\":35400:35580   */\n    tag_580:\n        /* \"#utility.yul\":35448:35525   */\n      0x4e487b7100000000000000000000000000000000000000000000000000000000\n        /* \"#utility.yul\":35445:35446   */\n      0x00\n        /* \"#utility.yul\":35438:35526   */\n      mstore\n        /* \"#utility.yul\":35545:35549   */\n      0x41\n        /* \"#utility.yul\":35542:35543   */\n      0x04\n        /* \"#utility.yul\":35535:35550   */\n      mstore\n        /* \"#utility.yul\":35569:35573   */\n      0x24\n        /* \"#utility.yul\":35566:35567   */\n      0x00\n        /* \"#utility.yul\":35559:35574   */\n      revert\n        /* \"#utility.yul\":35586:35703   */\n    tag_298:\n        /* \"#utility.yul\":35695:35696   */\n      0x00\n        /* \"#utility.yul\":35692:35693   */\n      dup1\n        /* \"#utility.yul\":35685:35697   */\n      revert\n        /* \"#utility.yul\":35709:35826   */\n    tag_274:\n        /* \"#utility.yul\":35818:35819   */\n      0x00\n        /* \"#utility.yul\":35815:35816   */\n      dup1\n        /* \"#utility.yul\":35808:35820   */\n      revert\n        /* \"#utility.yul\":35832:35949   */\n    tag_287:\n        /* \"#utility.yul\":35941:35942   */\n      0x00\n        /* \"#utility.yul\":35938:35939   */\n      dup1\n        /* \"#utility.yul\":35931:35943   */\n      revert\n        /* \"#utility.yul\":35955:36072   */\n    tag_322:\n        /* \"#utility.yul\":36064:36065   */\n      0x00\n        /* \"#utility.yul\":36061:36062   */\n      dup1\n        /* \"#utility.yul\":36054:36066   */\n      revert\n        /* \"#utility.yul\":36078:36195   */\n    tag_315:\n        /* \"#utility.yul\":36187:36188   */\n      0x00\n        /* \"#utility.yul\":36184:36185   */\n      dup1\n        /* \"#utility.yul\":36177:36189   */\n      revert\n        /* \"#utility.yul\":36201:36303   */\n    tag_480:\n        /* \"#utility.yul\":36242:36248   */\n      0x00\n        /* \"#utility.yul\":36293:36295   */\n      0x1f\n        /* \"#utility.yul\":36289:36296   */\n      not\n        /* \"#utility.yul\":36284:36286   */\n      0x1f\n        /* \"#utility.yul\":36277:36282   */\n      dup4\n        /* \"#utility.yul\":36273:36287   */\n      add\n        /* \"#utility.yul\":36269:36297   */\n      and\n        /* \"#utility.yul\":36259:36297   */\n      swap1\n      pop\n        /* \"#utility.yul\":36201:36303   */\n      swap2\n      swap1\n      pop\n      jump\t// out\n        /* \"#utility.yul\":36309:36431   */\n    tag_293:\n        /* \"#utility.yul\":36382:36406   */\n      tag_643\n        /* \"#utility.yul\":36400:36405   */\n      dup2\n        /* \"#utility.yul\":36382:36406   */\n      tag_404\n      jump\t// in\n    tag_643:\n        /* \"#utility.yul\":36375:36380   */\n      dup2\n        /* \"#utility.yul\":36372:36407   */\n      eq\n        /* \"#utility.yul\":36362:36425   */\n      tag_644\n      jumpi\n        /* \"#utility.yul\":36421:36422   */\n      0x00\n        /* \"#utility.yul\":36418:36419   */\n      dup1\n        /* \"#utility.yul\":36411:36423   */\n      revert\n        /* \"#utility.yul\":36362:36425   */\n    tag_644:\n        /* \"#utility.yul\":36309:36431   */\n      pop\n      jump\t// out\n        /* \"#utility.yul\":36437:36553   */\n    tag_303:\n        /* \"#utility.yul\":36507:36528   */\n      tag_646\n        /* \"#utility.yul\":36522:36527   */\n      dup2\n        /* \"#utility.yul\":36507:36528   */\n      tag_467\n      jump\t// in\n    tag_646:\n        /* \"#utility.yul\":36500:36505   */\n      dup2\n        /* \"#utility.yul\":36497:36529   */\n      eq\n        /* \"#utility.yul\":36487:36547   */\n      tag_647\n      jumpi\n        /* \"#utility.yul\":36543:36544   */\n      0x00\n        /* \"#utility.yul\":36540:36541   */\n      dup1\n        /* \"#utility.yul\":36533:36545   */\n      revert\n        /* \"#utility.yul\":36487:36547   */\n    tag_647:\n        /* \"#utility.yul\":36437:36553   */\n      pop\n      jump\t// out\n        /* \"#utility.yul\":36559:36681   */\n    tag_311:\n        /* \"#utility.yul\":36632:36656   */\n      tag_649\n        /* \"#utility.yul\":36650:36655   */\n      dup2\n        /* \"#utility.yul\":36632:36656   */\n      tag_528\n      jump\t// in\n    tag_649:\n        /* \"#utility.yul\":36625:36630   */\n      dup2\n        /* \"#utility.yul\":36622:36657   */\n      eq\n        /* \"#utility.yul\":36612:36675   */\n      tag_650\n      jumpi\n        /* \"#utility.yul\":36671:36672   */\n      0x00\n        /* \"#utility.yul\":36668:36669   */\n      dup1\n        /* \"#utility.yul\":36661:36673   */\n      revert\n        /* \"#utility.yul\":36612:36675   */\n    tag_650:\n        /* \"#utility.yul\":36559:36681   */\n      pop\n      jump\t// out\n\n    auxdata: 0xa26469706673582212206c7657b0d8148a78ef1fa63137f818157df0eeb07ca7cb30c60069fb0b6c52d064736f6c63430008070033\n}\n",
				"bytecode": {
					"linkReferences": {},
					"object": "608060405234801561001057600080fd5b506130ef806100206000396000f3fe608060405234801561001057600080fd5b50600436106100b45760003560e01c8063881206431161007157806388120643146101d9578063987ee156146101f5578063cdc66c5b14610225578063e67929221461025a578063f1c5031a14610276578063f559607814610292576100b4565b80630814fce7146100b957806311f0f0da146100e957806320ce2fc114610120578063230eb9c61461015557806369d31fc21461018d57806375d8e58d146101bd575b600080fd5b6100d360048036038101906100ce9190612320565b6102ae565b6040516100e09190612b74565b60405180910390f35b61010360048036038101906100fe919061234d565b610664565b604051610117989796959493929190612b96565b60405180910390f35b61013a60048036038101906101359190612320565b610934565b60405161014c96959493929190612c29565b60405180910390f35b61016f600480360381019061016a91906120d6565b610a18565b60405161018499989796959493929190612a41565b60405180910390f35b6101a760048036038101906101a29190612320565b610c2b565b6040516101b49190612b52565b60405180910390f35b6101d760048036038101906101d29190612249565b610edb565b005b6101f360048036038101906101ee9190612320565b61117c565b005b61020f600480360381019061020a91906120d6565b61126c565b60405161021c9190612c91565b60405180910390f35b61023f600480360381019061023a919061234d565b6115fb565b60405161025196959493929190612ae3565b60405180910390f35b610274600480360381019061026f9190612103565b61182a565b005b610290600480360381019061028b919061238d565b6118e4565b005b6102ac60048036038101906102a7919061214c565b611ac9565b005b606060036000838152602001908152602001600020805480602002602001604051908101604052809291908181526020016000905b8282101561065957838290600052602060002090600a02016040518061012001604052908160008201805461031790612ee2565b80601f016020809104026020016040519081016040528092919081815260200182805461034390612ee2565b80156103905780601f1061036557610100808354040283529160200191610390565b820191906000526020600020905b81548152906001019060200180831161037357829003601f168201915b505050505081526020016001820180546103a990612ee2565b80601f01602080910402602001604051908101604052809291908181526020018280546103d590612ee2565b80156104225780601f106103f757610100808354040283529160200191610422565b820191906000526020600020905b81548152906001019060200180831161040557829003601f168201915b50505050508152602001600282015481526020016003820160009054906101000a900460ff16151515158152602001600482015481526020016005820160009054906101000a900473ffffffffffffffffffffffffffffffffffffffff1673ffffffffffffffffffffffffffffffffffffffff1673ffffffffffffffffffffffffffffffffffffffff16815260200160068201548152602001600782016040518060400160405290816000820180546104da90612ee2565b80601f016020809104026020016040519081016040528092919081815260200182805461050690612ee2565b80156105535780601f1061052857610100808354040283529160200191610553565b820191906000526020600020905b81548152906001019060200180831161053657829003601f168201915b5050505050815260200160018201805461056c90612ee2565b80601f016020809104026020016040519081016040528092919081815260200182805461059890612ee2565b80156105e55780601f106105ba576101008083540402835291602001916105e5565b820191906000526020600020905b8154815290600101906020018083116105c857829003601f168201915b50505050508152505081526020016009820180548060200260200160405190810160405280929190818152602001828054801561064157602002820191906000526020600020905b81548152602001906001019080831161062d575b505050505081525050815260200190600101906102e3565b505050509050919050565b6003602052816000526040600020818154811061068057600080fd5b90600052602060002090600a0201600091509150508060000180546106a490612ee2565b80601f01602080910402602001604051908101604052809291908181526020018280546106d090612ee2565b801561071d5780601f106106f25761010080835404028352916020019161071d565b820191906000526020600020905b81548152906001019060200180831161070057829003601f168201915b50505050509080600101805461073290612ee2565b80601f016020809104026020016040519081016040528092919081815260200182805461075e90612ee2565b80156107ab5780601f10610780576101008083540402835291602001916107ab565b820191906000526020600020905b81548152906001019060200180831161078e57829003601f168201915b5050505050908060020154908060030160009054906101000a900460ff16908060040154908060050160009054906101000a900473ffffffffffffffffffffffffffffffffffffffff16908060060154908060070160405180604001604052908160008201805461081b90612ee2565b80601f016020809104026020016040519081016040528092919081815260200182805461084790612ee2565b80156108945780601f1061086957610100808354040283529160200191610894565b820191906000526020600020905b81548152906001019060200180831161087757829003601f168201915b505050505081526020016001820180546108ad90612ee2565b80601f01602080910402602001604051908101604052809291908181526020018280546108d990612ee2565b80156109265780601f106108fb57610100808354040283529160200191610926565b820191906000526020600020905b81548152906001019060200180831161090957829003601f168201915b505050505081525050905088565b600160205280600052604060002060009150905080600001805461095790612ee2565b80601f016020809104026020016040519081016040528092919081815260200182805461098390612ee2565b80156109d05780601f106109a5576101008083540402835291602001916109d0565b820191906000526020600020905b8154815290600101906020018083116109b357829003601f168201915b5050505050908060010154908060020160009054906101000a900473ffffffffffffffffffffffffffffffffffffffff16908060040154908060060154908060070154905086565b60026020528060005260406000206000915090508060000160009054906101000a900473ffffffffffffffffffffffffffffffffffffffff1690806001018054610a6190612ee2565b80601f0160208091040260200160405190810160405280929190818152602001828054610a8d90612ee2565b8015610ada5780601f10610aaf57610100808354040283529160200191610ada565b820191906000526020600020905b815481529060010190602001808311610abd57829003601f168201915b505050505090806002018054610aef90612ee2565b80601f0160208091040260200160405190810160405280929190818152602001828054610b1b90612ee2565b8015610b685780601f10610b3d57610100808354040283529160200191610b68565b820191906000526020600020905b815481529060010190602001808311610b4b57829003601f168201915b505050505090806003018054610b7d90612ee2565b80601f0160208091040260200160405190810160405280929190818152602001828054610ba990612ee2565b8015610bf65780601f10610bcb57610100808354040283529160200191610bf6565b820191906000526020600020905b815481529060010190602001808311610bd957829003601f168201915b5050505050908060050154908060060154908060070154908060080160009054906101000a900460ff169080600a0154905089565b606060046000838152602001908152602001600020805480602002602001604051908101604052809291908181526020016000905b82821015610ed057838290600052602060002090600702016040518060c00160405290816000820160009054906101000a900473ffffffffffffffffffffffffffffffffffffffff1673ffffffffffffffffffffffffffffffffffffffff1673ffffffffffffffffffffffffffffffffffffffff1681526020016001820154815260200160028201548152602001600382018054610cfd90612ee2565b80601f0160208091040260200160405190810160405280929190818152602001828054610d2990612ee2565b8015610d765780601f10610d4b57610100808354040283529160200191610d76565b820191906000526020600020905b815481529060010190602001808311610d5957829003601f168201915b505050505081526020016004820154815260200160058201604051806040016040529081600082018054610da990612ee2565b80601f0160208091040260200160405190810160405280929190818152602001828054610dd590612ee2565b8015610e225780601f10610df757610100808354040283529160200191610e22565b820191906000526020600020905b815481529060010190602001808311610e0557829003601f168201915b50505050508152602001600182018054610e3b90612ee2565b80601f0160208091040260200160405190810160405280929190818152602001828054610e6790612ee2565b8015610eb45780601f10610e8957610100808354040283529160200191610eb4565b820191906000526020600020905b815481529060010190602001808311610e9757829003601f168201915b5050505050815250508152505081526020019060010190610c60565b505050509050919050565b33600260003373ffffffffffffffffffffffffffffffffffffffff1673ffffffffffffffffffffffffffffffffffffffff16815260200190815260200160002060000160006101000a81548173ffffffffffffffffffffffffffffffffffffffff021916908373ffffffffffffffffffffffffffffffffffffffff16021790555083600260003373ffffffffffffffffffffffffffffffffffffffff1673ffffffffffffffffffffffffffffffffffffffff1681526020019081526020016000206001019080519060200190610fb2929190611d51565b5082600260003373ffffffffffffffffffffffffffffffffffffffff1673ffffffffffffffffffffffffffffffffffffffff1681526020019081526020016000206002019080519060200190611009929190611d51565b5081600260003373ffffffffffffffffffffffffffffffffffffffff1673ffffffffffffffffffffffffffffffffffffffff1681526020019081526020016000206003019080519060200190611060929190611d51565b5080600260003373ffffffffffffffffffffffffffffffffffffffff1673ffffffffffffffffffffffffffffffffffffffff16815260200190815260200160002060090190805190602001906110b7929190611dd7565b5060005b815181101561117557600160008383815181106110db576110da612fec565b5b60200260200101518152602001908152602001600020600401600081548092919061110590612f45565b9190505550600260003373ffffffffffffffffffffffffffffffffffffffff1673ffffffffffffffffffffffffffffffffffffffff168152602001908152602001600020600a01600081548092919061115d90612f45565b9190505550808061116d90612f45565b9150506110bb565b5050505050565b600260003373ffffffffffffffffffffffffffffffffffffffff1673ffffffffffffffffffffffffffffffffffffffff168152602001908152602001600020600901819080600181540180825580915050600190039060005260206000200160009091909190915055600260003373ffffffffffffffffffffffffffffffffffffffff1673ffffffffffffffffffffffffffffffffffffffff168152602001908152602001600020600a01600081548092919061123890612f45565b919050555060016000828152602001908152602001600020600401600081548092919061126490612f45565b919050555050565b611274611e24565b600260008373ffffffffffffffffffffffffffffffffffffffff1673ffffffffffffffffffffffffffffffffffffffff168152602001908152602001600020604051806101600160405290816000820160009054906101000a900473ffffffffffffffffffffffffffffffffffffffff1673ffffffffffffffffffffffffffffffffffffffff1673ffffffffffffffffffffffffffffffffffffffff16815260200160018201805461132590612ee2565b80601f016020809104026020016040519081016040528092919081815260200182805461135190612ee2565b801561139e5780601f106113735761010080835404028352916020019161139e565b820191906000526020600020905b81548152906001019060200180831161138157829003601f168201915b505050505081526020016002820180546113b790612ee2565b80601f01602080910402602001604051908101604052809291908181526020018280546113e390612ee2565b80156114305780601f1061140557610100808354040283529160200191611430565b820191906000526020600020905b81548152906001019060200180831161141357829003601f168201915b5050505050815260200160038201805461144990612ee2565b80601f016020809104026020016040519081016040528092919081815260200182805461147590612ee2565b80156114c25780601f10611497576101008083540402835291602001916114c2565b820191906000526020600020905b8154815290600101906020018083116114a557829003601f168201915b505050505081526020016004820180548060200260200160405190810160405280929190818152602001828054801561155057602002820191906000526020600020905b8160009054906101000a900473ffffffffffffffffffffffffffffffffffffffff1673ffffffffffffffffffffffffffffffffffffffff1681526020019060010190808311611506575b505050505081526020016005820154815260200160068201548152602001600782015481526020016008820160009054906101000a900460ff16151515158152602001600982018054806020026020016040519081016040528092919081815260200182805480156115e157602002820191906000526020600020905b8154815260200190600101908083116115cd575b50505050508152602001600a820154815250509050919050565b6004602052816000526040600020818154811061161757600080fd5b9060005260206000209060070201600091509150508060000160009054906101000a900473ffffffffffffffffffffffffffffffffffffffff169080600101549080600201549080600301805461166d90612ee2565b80601f016020809104026020016040519081016040528092919081815260200182805461169990612ee2565b80156116e65780601f106116bb576101008083540402835291602001916116e6565b820191906000526020600020905b8154815290600101906020018083116116c957829003601f168201915b5050505050908060040154908060050160405180604001604052908160008201805461171190612ee2565b80601f016020809104026020016040519081016040528092919081815260200182805461173d90612ee2565b801561178a5780601f1061175f5761010080835404028352916020019161178a565b820191906000526020600020905b81548152906001019060200180831161176d57829003601f168201915b505050505081526020016001820180546117a390612ee2565b80601f01602080910402602001604051908101604052809291908181526020018280546117cf90612ee2565b801561181c5780601f106117f15761010080835404028352916020019161181c565b820191906000526020600020905b8154815290600101906020018083116117ff57829003601f168201915b505050505081525050905086565b8060016000805481526020019081526020016000206000019080519060200190611855929190611d51565b5060005460016000805481526020019081526020016000206001018190555033600160008054815260200190815260200160002060020160006101000a81548173ffffffffffffffffffffffffffffffffffffffff021916908373ffffffffffffffffffffffffffffffffffffffff1602179055506000808154809291906118dc90612f45565b919050555050565b6118ec611e96565b828160000181905250818160200181905250611906611eb0565b33816000019073ffffffffffffffffffffffffffffffffffffffff16908173ffffffffffffffffffffffffffffffffffffffff1681525050868160200181815250508581604001818152505084816060018190525042816080018181525050818160a0018190525060036000888152602001908152602001600020868154811061199357611992612fec565b5b90600052602060002090600a020160040160008154809291906119b590612f45565b91905055506004600088815260200190815260200160002081908060018154018082558091505060019003906000526020600020906007020160009091909190915060008201518160000160006101000a81548173ffffffffffffffffffffffffffffffffffffffff021916908373ffffffffffffffffffffffffffffffffffffffff16021790555060208201518160010155604082015181600201556060820151816003019080519060200190611a6e929190611d51565b506080820151816004015560a0820151816005016000820151816000019080519060200190611a9e929190611d51565b506020820151816001019080519060200190611abb929190611d51565b505050505050505050505050565b611ad1611e96565b828160000181905250818160200181905250611aeb611f02565b338160a0019073ffffffffffffffffffffffffffffffffffffffff16908173ffffffffffffffffffffffffffffffffffffffff16815250508781600001819052508681602001819052504281604001818152505085816060019015159081151581525050848160c0018181525050818160e00181905250600360008681526020019081526020016000208190806001815401808255809150506001900390600052602060002090600a02016000909190919091506000820151816000019080519060200190611bbb929190611d51565b506020820151816001019080519060200190611bd8929190611d51565b506040820151816002015560608201518160030160006101000a81548160ff0219169083151502179055506080820151816004015560a08201518160050160006101000a81548173ffffffffffffffffffffffffffffffffffffffff021916908373ffffffffffffffffffffffffffffffffffffffff16021790555060c0820151816006015560e0820151816007016000820151816000019080519060200190611c83929190611d51565b506020820151816001019080519060200190611ca0929190611d51565b505050610100820151816009019080519060200190611cc0929190611dd7565b505050600160008681526020019081526020016000206007016000815480929190611cea90612f45565b9190505550600260003373ffffffffffffffffffffffffffffffffffffffff1673ffffffffffffffffffffffffffffffffffffffff1681526020019081526020016000206007016000815480929190611d4290612f45565b91905055505050505050505050565b828054611d5d90612ee2565b90600052602060002090601f016020900481019282611d7f5760008555611dc6565b82601f10611d9857805160ff1916838001178555611dc6565b82800160010185558215611dc6579182015b82811115611dc5578251825591602001919060010190611daa565b5b509050611dd39190611f6c565b5090565b828054828255906000526020600020908101928215611e13579160200282015b82811115611e12578251825591602001919060010190611df7565b5b509050611e209190611f6c565b5090565b604051806101600160405280600073ffffffffffffffffffffffffffffffffffffffff1681526020016060815260200160608152602001606081526020016060815260200160008152602001600081526020016000815260200160001515815260200160608152602001600081525090565b604051806040016040528060608152602001606081525090565b6040518060c00160405280600073ffffffffffffffffffffffffffffffffffffffff16815260200160008152602001600081526020016060815260200160008152602001611efc611e96565b81525090565b60405180610120016040528060608152602001606081526020016000815260200160001515815260200160008152602001600073ffffffffffffffffffffffffffffffffffffffff16815260200160008152602001611f5f611e96565b8152602001606081525090565b5b80821115611f85576000816000905550600101611f6d565b5090565b6000611f9c611f9784612cd8565b612cb3565b90508083825260208201905082856020860282011115611fbf57611fbe61304f565b5b60005b85811015611fef5781611fd588826120c1565b845260208401935060208301925050600181019050611fc2565b5050509392505050565b600061200c61200784612d04565b612cb3565b90508281526020810184848401111561202857612027613054565b5b612033848285612ea0565b509392505050565b60008135905061204a81613074565b92915050565b600082601f8301126120655761206461304a565b5b8135612075848260208601611f89565b91505092915050565b60008135905061208d8161308b565b92915050565b600082601f8301126120a8576120a761304a565b5b81356120b8848260208601611ff9565b91505092915050565b6000813590506120d0816130a2565b92915050565b6000602082840312156120ec576120eb61305e565b5b60006120fa8482850161203b565b91505092915050565b6000602082840312156121195761211861305e565b5b600082013567ffffffffffffffff81111561213757612136613059565b5b61214384828501612093565b91505092915050565b60008060008060008060c087890312156121695761216861305e565b5b600087013567ffffffffffffffff81111561218757612186613059565b5b61219389828a01612093565b965050602087013567ffffffffffffffff8111156121b4576121b3613059565b5b6121c089828a01612093565b95505060406121d189828a0161207e565b94505060606121e289828a016120c1565b935050608087013567ffffffffffffffff81111561220357612202613059565b5b61220f89828a01612093565b92505060a087013567ffffffffffffffff8111156122305761222f613059565b5b61223c89828a01612093565b9150509295509295509295565b600080600080608085870312156122635761226261305e565b5b600085013567ffffffffffffffff81111561228157612280613059565b5b61228d87828801612093565b945050602085013567ffffffffffffffff8111156122ae576122ad613059565b5b6122ba87828801612093565b935050604085013567ffffffffffffffff8111156122db576122da613059565b5b6122e787828801612093565b925050606085013567ffffffffffffffff81111561230857612307613059565b5b61231487828801612050565b91505092959194509250565b6000602082840312156123365761233561305e565b5b6000612344848285016120c1565b91505092915050565b600080604083850312156123645761236361305e565b5b6000612372858286016120c1565b9250506020612383858286016120c1565b9150509250929050565b600080600080600060a086880312156123a9576123a861305e565b5b60006123b7888289016120c1565b95505060206123c8888289016120c1565b945050604086013567ffffffffffffffff8111156123e9576123e8613059565b5b6123f588828901612093565b935050606086013567ffffffffffffffff81111561241657612415613059565b5b61242288828901612093565b925050608086013567ffffffffffffffff81111561244357612442613059565b5b61244f88828901612093565b9150509295509295909350565b600061246883836124d2565b60208301905092915050565b60006124808383612726565b905092915050565b600061249483836127b6565b905092915050565b60006124a88383612a23565b60208301905092915050565b6124bd81612e58565b82525050565b6124cc81612e58565b82525050565b6124db81612e46565b82525050565b6124ea81612e46565b82525050565b60006124fb82612d75565b6125058185612de0565b935061251083612d35565b8060005b83811015612541578151612528888261245c565b975061253383612dac565b925050600181019050612514565b5085935050505092915050565b600061255982612d80565b6125638185612df1565b93508360208202850161257585612d45565b8060005b858110156125b157848403895281516125928582612474565b945061259d83612db9565b925060208a01995050600181019050612579565b50829750879550505050505092915050565b60006125ce82612d8b565b6125d88185612e02565b9350836020820285016125ea85612d55565b8060005b8581101561262657848403895281516126078582612488565b945061261283612dc6565b925060208a019950506001810190506125ee565b50829750879550505050505092915050565b600061264382612d96565b61264d8185612e13565b935061265883612d65565b8060005b83811015612689578151612670888261249c565b975061267b83612dd3565b92505060018101905061265c565b5085935050505092915050565b61269f81612e6a565b82525050565b6126ae81612e6a565b82525050565b60006126bf82612da1565b6126c98185612e24565b93506126d9818560208601612eaf565b6126e281613063565b840191505092915050565b60006126f882612da1565b6127028185612e35565b9350612712818560208601612eaf565b61271b81613063565b840191505092915050565b600060c08301600083015161273e60008601826124b4565b5060208301516127516020860182612a23565b5060408301516127646040860182612a23565b506060830151848203606086015261277c82826126b4565b91505060808301516127916080860182612a23565b5060a083015184820360a08601526127a9828261299b565b9150508091505092915050565b60006101208301600083015184820360008601526127d482826126b4565b915050602083015184820360208601526127ee82826126b4565b91505060408301516128036040860182612a23565b5060608301516128166060860182612696565b5060808301516128296080860182612a23565b5060a083015161283c60a08601826124d2565b5060c083015161284f60c0860182612a23565b5060e083015184820360e0860152612867828261299b565b9150506101008301518482036101008601526128838282612638565b9150508091505092915050565b6000610160830160008301516128a960008601826124b4565b50602083015184820360208601526128c182826126b4565b915050604083015184820360408601526128db82826126b4565b915050606083015184820360608601526128f582826126b4565b9150506080830151848203608086015261290f82826124f0565b91505060a083015161292460a0860182612a23565b5060c083015161293760c0860182612a23565b5060e083015161294a60e0860182612a23565b5061010083015161295f610100860182612696565b506101208301518482036101208601526129798282612638565b915050610140830151612990610140860182612a23565b508091505092915050565b600060408301600083015184820360008601526129b882826126b4565b915050602083015184820360208601526129d282826126b4565b9150508091505092915050565b600060408301600083015184820360008601526129fc82826126b4565b91505060208301518482036020860152612a1682826126b4565b9150508091505092915050565b612a2c81612e96565b82525050565b612a3b81612e96565b82525050565b600061012082019050612a57600083018c6124c3565b8181036020830152612a69818b6126ed565b90508181036040830152612a7d818a6126ed565b90508181036060830152612a9181896126ed565b9050612aa06080830188612a32565b612aad60a0830187612a32565b612aba60c0830186612a32565b612ac760e08301856126a5565b612ad5610100830184612a32565b9a9950505050505050505050565b600060c082019050612af860008301896124c3565b612b056020830188612a32565b612b126040830187612a32565b8181036060830152612b2481866126ed565b9050612b336080830185612a32565b81810360a0830152612b4581846129df565b9050979650505050505050565b60006020820190508181036000830152612b6c818461254e565b905092915050565b60006020820190508181036000830152612b8e81846125c3565b905092915050565b6000610100820190508181036000830152612bb1818b6126ed565b90508181036020830152612bc5818a6126ed565b9050612bd46040830189612a32565b612be160608301886126a5565b612bee6080830187612a32565b612bfb60a08301866124e1565b612c0860c0830185612a32565b81810360e0830152612c1a81846129df565b90509998505050505050505050565b600060c0820190508181036000830152612c4381896126ed565b9050612c526020830188612a32565b612c5f60408301876124c3565b612c6c6060830186612a32565b612c796080830185612a32565b612c8660a0830184612a32565b979650505050505050565b60006020820190508181036000830152612cab8184612890565b905092915050565b6000612cbd612cce565b9050612cc98282612f14565b919050565b6000604051905090565b600067ffffffffffffffff821115612cf357612cf261301b565b5b602082029050602081019050919050565b600067ffffffffffffffff821115612d1f57612d1e61301b565b5b612d2882613063565b9050602081019050919050565b6000819050602082019050919050565b6000819050602082019050919050565b6000819050602082019050919050565b6000819050602082019050919050565b600081519050919050565b600081519050919050565b600081519050919050565b600081519050919050565b600081519050919050565b6000602082019050919050565b6000602082019050919050565b6000602082019050919050565b6000602082019050919050565b600082825260208201905092915050565b600082825260208201905092915050565b600082825260208201905092915050565b600082825260208201905092915050565b600082825260208201905092915050565b600082825260208201905092915050565b6000612e5182612e76565b9050919050565b6000612e6382612e76565b9050919050565b60008115159050919050565b600073ffffffffffffffffffffffffffffffffffffffff82169050919050565b6000819050919050565b82818337600083830152505050565b60005b83811015612ecd578082015181840152602081019050612eb2565b83811115612edc576000848401525b50505050565b60006002820490506001821680612efa57607f821691505b60208210811415612f0e57612f0d612fbd565b5b50919050565b612f1d82613063565b810181811067ffffffffffffffff82111715612f3c57612f3b61301b565b5b80604052505050565b6000612f5082612e96565b91507fffffffffffffffffffffffffffffffffffffffffffffffffffffffffffffffff821415612f8357612f82612f8e565b5b600182019050919050565b7f4e487b7100000000000000000000000000000000000000000000000000000000600052601160045260246000fd5b7f4e487b7100000000000000000000000000000000000000000000000000000000600052602260045260246000fd5b7f4e487b7100000000000000000000000000000000000000000000000000000000600052603260045260246000fd5b7f4e487b7100000000000000000000000000000000000000000000000000000000600052604160045260246000fd5b600080fd5b600080fd5b600080fd5b600080fd5b600080fd5b6000601f19601f8301169050919050565b61307d81612e46565b811461308857600080fd5b50565b61309481612e6a565b811461309f57600080fd5b50565b6130ab81612e96565b81146130b657600080fd5b5056fea26469706673582212206c7657b0d8148a78ef1fa63137f818157df0eeb07ca7cb30c60069fb0b6c52d064736f6c63430008070033",
					"opcodes": "PUSH1 0x80 PUSH1 0x40 MSTORE CALLVALUE DUP1 ISZERO PUSH2 0x10 JUMPI PUSH1 0x0 DUP1 REVERT JUMPDEST POP PUSH2 0x30EF DUP1 PUSH2 0x20 PUSH1 0x0 CODECOPY PUSH1 0x0 RETURN INVALID PUSH1 0x80 PUSH1 0x40 MSTORE CALLVALUE DUP1 ISZERO PUSH2 0x10 JUMPI PUSH1 0x0 DUP1 REVERT JUMPDEST POP PUSH1 0x4 CALLDATASIZE LT PUSH2 0xB4 JUMPI PUSH1 0x0 CALLDATALOAD PUSH1 0xE0 SHR DUP1 PUSH4 0x88120643 GT PUSH2 0x71 JUMPI DUP1 PUSH4 0x88120643 EQ PUSH2 0x1D9 JUMPI DUP1 PUSH4 0x987EE156 EQ PUSH2 0x1F5 JUMPI DUP1 PUSH4 0xCDC66C5B EQ PUSH2 0x225 JUMPI DUP1 PUSH4 0xE6792922 EQ PUSH2 0x25A JUMPI DUP1 PUSH4 0xF1C5031A EQ PUSH2 0x276 JUMPI DUP1 PUSH4 0xF5596078 EQ PUSH2 0x292 JUMPI PUSH2 0xB4 JUMP JUMPDEST DUP1 PUSH4 0x814FCE7 EQ PUSH2 0xB9 JUMPI DUP1 PUSH4 0x11F0F0DA EQ PUSH2 0xE9 JUMPI DUP1 PUSH4 0x20CE2FC1 EQ PUSH2 0x120 JUMPI DUP1 PUSH4 0x230EB9C6 EQ PUSH2 0x155 JUMPI DUP1 PUSH4 0x69D31FC2 EQ PUSH2 0x18D JUMPI DUP1 PUSH4 0x75D8E58D EQ PUSH2 0x1BD JUMPI JUMPDEST PUSH1 0x0 DUP1 REVERT JUMPDEST PUSH2 0xD3 PUSH1 0x4 DUP1 CALLDATASIZE SUB DUP2 ADD SWAP1 PUSH2 0xCE SWAP2 SWAP1 PUSH2 0x2320 JUMP JUMPDEST PUSH2 0x2AE JUMP JUMPDEST PUSH1 0x40 MLOAD PUSH2 0xE0 SWAP2 SWAP1 PUSH2 0x2B74 JUMP JUMPDEST PUSH1 0x40 MLOAD DUP1 SWAP2 SUB SWAP1 RETURN JUMPDEST PUSH2 0x103 PUSH1 0x4 DUP1 CALLDATASIZE SUB DUP2 ADD SWAP1 PUSH2 0xFE SWAP2 SWAP1 PUSH2 0x234D JUMP JUMPDEST PUSH2 0x664 JUMP JUMPDEST PUSH1 0x40 MLOAD PUSH2 0x117 SWAP9 SWAP8 SWAP7 SWAP6 SWAP5 SWAP4 SWAP3 SWAP2 SWAP1 PUSH2 0x2B96 JUMP JUMPDEST PUSH1 0x40 MLOAD DUP1 SWAP2 SUB SWAP1 RETURN JUMPDEST PUSH2 0x13A PUSH1 0x4 DUP1 CALLDATASIZE SUB DUP2 ADD SWAP1 PUSH2 0x135 SWAP2 SWAP1 PUSH2 0x2320 JUMP JUMPDEST PUSH2 0x934 JUMP JUMPDEST PUSH1 0x40 MLOAD PUSH2 0x14C SWAP7 SWAP6 SWAP5 SWAP4 SWAP3 SWAP2 SWAP1 PUSH2 0x2C29 JUMP JUMPDEST PUSH1 0x40 MLOAD DUP1 SWAP2 SUB SWAP1 RETURN JUMPDEST PUSH2 0x16F PUSH1 0x4 DUP1 CALLDATASIZE SUB DUP2 ADD SWAP1 PUSH2 0x16A SWAP2 SWAP1 PUSH2 0x20D6 JUMP JUMPDEST PUSH2 0xA18 JUMP JUMPDEST PUSH1 0x40 MLOAD PUSH2 0x184 SWAP10 SWAP9 SWAP8 SWAP7 SWAP6 SWAP5 SWAP4 SWAP3 SWAP2 SWAP1 PUSH2 0x2A41 JUMP JUMPDEST PUSH1 0x40 MLOAD DUP1 SWAP2 SUB SWAP1 RETURN JUMPDEST PUSH2 0x1A7 PUSH1 0x4 DUP1 CALLDATASIZE SUB DUP2 ADD SWAP1 PUSH2 0x1A2 SWAP2 SWAP1 PUSH2 0x2320 JUMP JUMPDEST PUSH2 0xC2B JUMP JUMPDEST PUSH1 0x40 MLOAD PUSH2 0x1B4 SWAP2 SWAP1 PUSH2 0x2B52 JUMP JUMPDEST PUSH1 0x40 MLOAD DUP1 SWAP2 SUB SWAP1 RETURN JUMPDEST PUSH2 0x1D7 PUSH1 0x4 DUP1 CALLDATASIZE SUB DUP2 ADD SWAP1 PUSH2 0x1D2 SWAP2 SWAP1 PUSH2 0x2249 JUMP JUMPDEST PUSH2 0xEDB JUMP JUMPDEST STOP JUMPDEST PUSH2 0x1F3 PUSH1 0x4 DUP1 CALLDATASIZE SUB DUP2 ADD SWAP1 PUSH2 0x1EE SWAP2 SWAP1 PUSH2 0x2320 JUMP JUMPDEST PUSH2 0x117C JUMP JUMPDEST STOP JUMPDEST PUSH2 0x20F PUSH1 0x4 DUP1 CALLDATASIZE SUB DUP2 ADD SWAP1 PUSH2 0x20A SWAP2 SWAP1 PUSH2 0x20D6 JUMP JUMPDEST PUSH2 0x126C JUMP JUMPDEST PUSH1 0x40 MLOAD PUSH2 0x21C SWAP2 SWAP1 PUSH2 0x2C91 JUMP JUMPDEST PUSH1 0x40 MLOAD DUP1 SWAP2 SUB SWAP1 RETURN JUMPDEST PUSH2 0x23F PUSH1 0x4 DUP1 CALLDATASIZE SUB DUP2 ADD SWAP1 PUSH2 0x23A SWAP2 SWAP1 PUSH2 0x234D JUMP JUMPDEST PUSH2 0x15FB JUMP JUMPDEST PUSH1 0x40 MLOAD PUSH2 0x251 SWAP7 SWAP6 SWAP5 SWAP4 SWAP3 SWAP2 SWAP1 PUSH2 0x2AE3 JUMP JUMPDEST PUSH1 0x40 MLOAD DUP1 SWAP2 SUB SWAP1 RETURN JUMPDEST PUSH2 0x274 PUSH1 0x4 DUP1 CALLDATASIZE SUB DUP2 ADD SWAP1 PUSH2 0x26F SWAP2 SWAP1 PUSH2 0x2103 JUMP JUMPDEST PUSH2 0x182A JUMP JUMPDEST STOP JUMPDEST PUSH2 0x290 PUSH1 0x4 DUP1 CALLDATASIZE SUB DUP2 ADD SWAP1 PUSH2 0x28B SWAP2 SWAP1 PUSH2 0x238D JUMP JUMPDEST PUSH2 0x18E4 JUMP JUMPDEST STOP JUMPDEST PUSH2 0x2AC PUSH1 0x4 DUP1 CALLDATASIZE SUB DUP2 ADD SWAP1 PUSH2 0x2A7 SWAP2 SWAP1 PUSH2 0x214C JUMP JUMPDEST PUSH2 0x1AC9 JUMP JUMPDEST STOP JUMPDEST PUSH1 0x60 PUSH1 0x3 PUSH1 0x0 DUP4 DUP2 MSTORE PUSH1 0x20 ADD SWAP1 DUP2 MSTORE PUSH1 0x20 ADD PUSH1 0x0 KECCAK256 DUP1 SLOAD DUP1 PUSH1 0x20 MUL PUSH1 0x20 ADD PUSH1 0x40 MLOAD SWAP1 DUP2 ADD PUSH1 0x40 MSTORE DUP1 SWAP3 SWAP2 SWAP1 DUP2 DUP2 MSTORE PUSH1 0x20 ADD PUSH1 0x0 SWAP1 JUMPDEST DUP3 DUP3 LT ISZERO PUSH2 0x659 JUMPI DUP4 DUP3 SWAP1 PUSH1 0x0 MSTORE PUSH1 0x20 PUSH1 0x0 KECCAK256 SWAP1 PUSH1 0xA MUL ADD PUSH1 0x40 MLOAD DUP1 PUSH2 0x120 ADD PUSH1 0x40 MSTORE SWAP1 DUP2 PUSH1 0x0 DUP3 ADD DUP1 SLOAD PUSH2 0x317 SWAP1 PUSH2 0x2EE2 JUMP JUMPDEST DUP1 PUSH1 0x1F ADD PUSH1 0x20 DUP1 SWAP2 DIV MUL PUSH1 0x20 ADD PUSH1 0x40 MLOAD SWAP1 DUP2 ADD PUSH1 0x40 MSTORE DUP1 SWAP3 SWAP2 SWAP1 DUP2 DUP2 MSTORE PUSH1 0x20 ADD DUP3 DUP1 SLOAD PUSH2 0x343 SWAP1 PUSH2 0x2EE2 JUMP JUMPDEST DUP1 ISZERO PUSH2 0x390 JUMPI DUP1 PUSH1 0x1F LT PUSH2 0x365 JUMPI PUSH2 0x100 DUP1 DUP4 SLOAD DIV MUL DUP4 MSTORE SWAP2 PUSH1 0x20 ADD SWAP2 PUSH2 0x390 JUMP JUMPDEST DUP3 ADD SWAP2 SWAP1 PUSH1 0x0 MSTORE PUSH1 0x20 PUSH1 0x0 KECCAK256 SWAP1 JUMPDEST DUP2 SLOAD DUP2 MSTORE SWAP1 PUSH1 0x1 ADD SWAP1 PUSH1 0x20 ADD DUP1 DUP4 GT PUSH2 0x373 JUMPI DUP3 SWAP1 SUB PUSH1 0x1F AND DUP3 ADD SWAP2 JUMPDEST POP POP POP POP POP DUP2 MSTORE PUSH1 0x20 ADD PUSH1 0x1 DUP3 ADD DUP1 SLOAD PUSH2 0x3A9 SWAP1 PUSH2 0x2EE2 JUMP JUMPDEST DUP1 PUSH1 0x1F ADD PUSH1 0x20 DUP1 SWAP2 DIV MUL PUSH1 0x20 ADD PUSH1 0x40 MLOAD SWAP1 DUP2 ADD PUSH1 0x40 MSTORE DUP1 SWAP3 SWAP2 SWAP1 DUP2 DUP2 MSTORE PUSH1 0x20 ADD DUP3 DUP1 SLOAD PUSH2 0x3D5 SWAP1 PUSH2 0x2EE2 JUMP JUMPDEST DUP1 ISZERO PUSH2 0x422 JUMPI DUP1 PUSH1 0x1F LT PUSH2 0x3F7 JUMPI PUSH2 0x100 DUP1 DUP4 SLOAD DIV MUL DUP4 MSTORE SWAP2 PUSH1 0x20 ADD SWAP2 PUSH2 0x422 JUMP JUMPDEST DUP3 ADD SWAP2 SWAP1 PUSH1 0x0 MSTORE PUSH1 0x20 PUSH1 0x0 KECCAK256 SWAP1 JUMPDEST DUP2 SLOAD DUP2 MSTORE SWAP1 PUSH1 0x1 ADD SWAP1 PUSH1 0x20 ADD DUP1 DUP4 GT PUSH2 0x405 JUMPI DUP3 SWAP1 SUB PUSH1 0x1F AND DUP3 ADD SWAP2 JUMPDEST POP POP POP POP POP DUP2 MSTORE PUSH1 0x20 ADD PUSH1 0x2 DUP3 ADD SLOAD DUP2 MSTORE PUSH1 0x20 ADD PUSH1 0x3 DUP3 ADD PUSH1 0x0 SWAP1 SLOAD SWAP1 PUSH2 0x100 EXP SWAP1 DIV PUSH1 0xFF AND ISZERO ISZERO ISZERO ISZERO DUP2 MSTORE PUSH1 0x20 ADD PUSH1 0x4 DUP3 ADD SLOAD DUP2 MSTORE PUSH1 0x20 ADD PUSH1 0x5 DUP3 ADD PUSH1 0x0 SWAP1 SLOAD SWAP1 PUSH2 0x100 EXP SWAP1 DIV PUSH20 0xFFFFFFFFFFFFFFFFFFFFFFFFFFFFFFFFFFFFFFFF AND PUSH20 0xFFFFFFFFFFFFFFFFFFFFFFFFFFFFFFFFFFFFFFFF AND PUSH20 0xFFFFFFFFFFFFFFFFFFFFFFFFFFFFFFFFFFFFFFFF AND DUP2 MSTORE PUSH1 0x20 ADD PUSH1 0x6 DUP3 ADD SLOAD DUP2 MSTORE PUSH1 0x20 ADD PUSH1 0x7 DUP3 ADD PUSH1 0x40 MLOAD DUP1 PUSH1 0x40 ADD PUSH1 0x40 MSTORE SWAP1 DUP2 PUSH1 0x0 DUP3 ADD DUP1 SLOAD PUSH2 0x4DA SWAP1 PUSH2 0x2EE2 JUMP JUMPDEST DUP1 PUSH1 0x1F ADD PUSH1 0x20 DUP1 SWAP2 DIV MUL PUSH1 0x20 ADD PUSH1 0x40 MLOAD SWAP1 DUP2 ADD PUSH1 0x40 MSTORE DUP1 SWAP3 SWAP2 SWAP1 DUP2 DUP2 MSTORE PUSH1 0x20 ADD DUP3 DUP1 SLOAD PUSH2 0x506 SWAP1 PUSH2 0x2EE2 JUMP JUMPDEST DUP1 ISZERO PUSH2 0x553 JUMPI DUP1 PUSH1 0x1F LT PUSH2 0x528 JUMPI PUSH2 0x100 DUP1 DUP4 SLOAD DIV MUL DUP4 MSTORE SWAP2 PUSH1 0x20 ADD SWAP2 PUSH2 0x553 JUMP JUMPDEST DUP3 ADD SWAP2 SWAP1 PUSH1 0x0 MSTORE PUSH1 0x20 PUSH1 0x0 KECCAK256 SWAP1 JUMPDEST DUP2 SLOAD DUP2 MSTORE SWAP1 PUSH1 0x1 ADD SWAP1 PUSH1 0x20 ADD DUP1 DUP4 GT PUSH2 0x536 JUMPI DUP3 SWAP1 SUB PUSH1 0x1F AND DUP3 ADD SWAP2 JUMPDEST POP POP POP POP POP DUP2 MSTORE PUSH1 0x20 ADD PUSH1 0x1 DUP3 ADD DUP1 SLOAD PUSH2 0x56C SWAP1 PUSH2 0x2EE2 JUMP JUMPDEST DUP1 PUSH1 0x1F ADD PUSH1 0x20 DUP1 SWAP2 DIV MUL PUSH1 0x20 ADD PUSH1 0x40 MLOAD SWAP1 DUP2 ADD PUSH1 0x40 MSTORE DUP1 SWAP3 SWAP2 SWAP1 DUP2 DUP2 MSTORE PUSH1 0x20 ADD DUP3 DUP1 SLOAD PUSH2 0x598 SWAP1 PUSH2 0x2EE2 JUMP JUMPDEST DUP1 ISZERO PUSH2 0x5E5 JUMPI DUP1 PUSH1 0x1F LT PUSH2 0x5BA JUMPI PUSH2 0x100 DUP1 DUP4 SLOAD DIV MUL DUP4 MSTORE SWAP2 PUSH1 0x20 ADD SWAP2 PUSH2 0x5E5 JUMP JUMPDEST DUP3 ADD SWAP2 SWAP1 PUSH1 0x0 MSTORE PUSH1 0x20 PUSH1 0x0 KECCAK256 SWAP1 JUMPDEST DUP2 SLOAD DUP2 MSTORE SWAP1 PUSH1 0x1 ADD SWAP1 PUSH1 0x20 ADD DUP1 DUP4 GT PUSH2 0x5C8 JUMPI DUP3 SWAP1 SUB PUSH1 0x1F AND DUP3 ADD SWAP2 JUMPDEST POP POP POP POP POP DUP2 MSTORE POP POP DUP2 MSTORE PUSH1 0x20 ADD PUSH1 0x9 DUP3 ADD DUP1 SLOAD DUP1 PUSH1 0x20 MUL PUSH1 0x20 ADD PUSH1 0x40 MLOAD SWAP1 DUP2 ADD PUSH1 0x40 MSTORE DUP1 SWAP3 SWAP2 SWAP1 DUP2 DUP2 MSTORE PUSH1 0x20 ADD DUP3 DUP1 SLOAD DUP1 ISZERO PUSH2 0x641 JUMPI PUSH1 0x20 MUL DUP3 ADD SWAP2 SWAP1 PUSH1 0x0 MSTORE PUSH1 0x20 PUSH1 0x0 KECCAK256 SWAP1 JUMPDEST DUP2 SLOAD DUP2 MSTORE PUSH1 0x20 ADD SWAP1 PUSH1 0x1 ADD SWAP1 DUP1 DUP4 GT PUSH2 0x62D JUMPI JUMPDEST POP POP POP POP POP DUP2 MSTORE POP POP DUP2 MSTORE PUSH1 0x20 ADD SWAP1 PUSH1 0x1 ADD SWAP1 PUSH2 0x2E3 JUMP JUMPDEST POP POP POP POP SWAP1 POP SWAP2 SWAP1 POP JUMP JUMPDEST PUSH1 0x3 PUSH1 0x20 MSTORE DUP2 PUSH1 0x0 MSTORE PUSH1 0x40 PUSH1 0x0 KECCAK256 DUP2 DUP2 SLOAD DUP2 LT PUSH2 0x680 JUMPI PUSH1 0x0 DUP1 REVERT JUMPDEST SWAP1 PUSH1 0x0 MSTORE PUSH1 0x20 PUSH1 0x0 KECCAK256 SWAP1 PUSH1 0xA MUL ADD PUSH1 0x0 SWAP2 POP SWAP2 POP POP DUP1 PUSH1 0x0 ADD DUP1 SLOAD PUSH2 0x6A4 SWAP1 PUSH2 0x2EE2 JUMP JUMPDEST DUP1 PUSH1 0x1F ADD PUSH1 0x20 DUP1 SWAP2 DIV MUL PUSH1 0x20 ADD PUSH1 0x40 MLOAD SWAP1 DUP2 ADD PUSH1 0x40 MSTORE DUP1 SWAP3 SWAP2 SWAP1 DUP2 DUP2 MSTORE PUSH1 0x20 ADD DUP3 DUP1 SLOAD PUSH2 0x6D0 SWAP1 PUSH2 0x2EE2 JUMP JUMPDEST DUP1 ISZERO PUSH2 0x71D JUMPI DUP1 PUSH1 0x1F LT PUSH2 0x6F2 JUMPI PUSH2 0x100 DUP1 DUP4 SLOAD DIV MUL DUP4 MSTORE SWAP2 PUSH1 0x20 ADD SWAP2 PUSH2 0x71D JUMP JUMPDEST DUP3 ADD SWAP2 SWAP1 PUSH1 0x0 MSTORE PUSH1 0x20 PUSH1 0x0 KECCAK256 SWAP1 JUMPDEST DUP2 SLOAD DUP2 MSTORE SWAP1 PUSH1 0x1 ADD SWAP1 PUSH1 0x20 ADD DUP1 DUP4 GT PUSH2 0x700 JUMPI DUP3 SWAP1 SUB PUSH1 0x1F AND DUP3 ADD SWAP2 JUMPDEST POP POP POP POP POP SWAP1 DUP1 PUSH1 0x1 ADD DUP1 SLOAD PUSH2 0x732 SWAP1 PUSH2 0x2EE2 JUMP JUMPDEST DUP1 PUSH1 0x1F ADD PUSH1 0x20 DUP1 SWAP2 DIV MUL PUSH1 0x20 ADD PUSH1 0x40 MLOAD SWAP1 DUP2 ADD PUSH1 0x40 MSTORE DUP1 SWAP3 SWAP2 SWAP1 DUP2 DUP2 MSTORE PUSH1 0x20 ADD DUP3 DUP1 SLOAD PUSH2 0x75E SWAP1 PUSH2 0x2EE2 JUMP JUMPDEST DUP1 ISZERO PUSH2 0x7AB JUMPI DUP1 PUSH1 0x1F LT PUSH2 0x780 JUMPI PUSH2 0x100 DUP1 DUP4 SLOAD DIV MUL DUP4 MSTORE SWAP2 PUSH1 0x20 ADD SWAP2 PUSH2 0x7AB JUMP JUMPDEST DUP3 ADD SWAP2 SWAP1 PUSH1 0x0 MSTORE PUSH1 0x20 PUSH1 0x0 KECCAK256 SWAP1 JUMPDEST DUP2 SLOAD DUP2 MSTORE SWAP1 PUSH1 0x1 ADD SWAP1 PUSH1 0x20 ADD DUP1 DUP4 GT PUSH2 0x78E JUMPI DUP3 SWAP1 SUB PUSH1 0x1F AND DUP3 ADD SWAP2 JUMPDEST POP POP POP POP POP SWAP1 DUP1 PUSH1 0x2 ADD SLOAD SWAP1 DUP1 PUSH1 0x3 ADD PUSH1 0x0 SWAP1 SLOAD SWAP1 PUSH2 0x100 EXP SWAP1 DIV PUSH1 0xFF AND SWAP1 DUP1 PUSH1 0x4 ADD SLOAD SWAP1 DUP1 PUSH1 0x5 ADD PUSH1 0x0 SWAP1 SLOAD SWAP1 PUSH2 0x100 EXP SWAP1 DIV PUSH20 0xFFFFFFFFFFFFFFFFFFFFFFFFFFFFFFFFFFFFFFFF AND SWAP1 DUP1 PUSH1 0x6 ADD SLOAD SWAP1 DUP1 PUSH1 0x7 ADD PUSH1 0x40 MLOAD DUP1 PUSH1 0x40 ADD PUSH1 0x40 MSTORE SWAP1 DUP2 PUSH1 0x0 DUP3 ADD DUP1 SLOAD PUSH2 0x81B SWAP1 PUSH2 0x2EE2 JUMP JUMPDEST DUP1 PUSH1 0x1F ADD PUSH1 0x20 DUP1 SWAP2 DIV MUL PUSH1 0x20 ADD PUSH1 0x40 MLOAD SWAP1 DUP2 ADD PUSH1 0x40 MSTORE DUP1 SWAP3 SWAP2 SWAP1 DUP2 DUP2 MSTORE PUSH1 0x20 ADD DUP3 DUP1 SLOAD PUSH2 0x847 SWAP1 PUSH2 0x2EE2 JUMP JUMPDEST DUP1 ISZERO PUSH2 0x894 JUMPI DUP1 PUSH1 0x1F LT PUSH2 0x869 JUMPI PUSH2 0x100 DUP1 DUP4 SLOAD DIV MUL DUP4 MSTORE SWAP2 PUSH1 0x20 ADD SWAP2 PUSH2 0x894 JUMP JUMPDEST DUP3 ADD SWAP2 SWAP1 PUSH1 0x0 MSTORE PUSH1 0x20 PUSH1 0x0 KECCAK256 SWAP1 JUMPDEST DUP2 SLOAD DUP2 MSTORE SWAP1 PUSH1 0x1 ADD SWAP1 PUSH1 0x20 ADD DUP1 DUP4 GT PUSH2 0x877 JUMPI DUP3 SWAP1 SUB PUSH1 0x1F AND DUP3 ADD SWAP2 JUMPDEST POP POP POP POP POP DUP2 MSTORE PUSH1 0x20 ADD PUSH1 0x1 DUP3 ADD DUP1 SLOAD PUSH2 0x8AD SWAP1 PUSH2 0x2EE2 JUMP JUMPDEST DUP1 PUSH1 0x1F ADD PUSH1 0x20 DUP1 SWAP2 DIV MUL PUSH1 0x20 ADD PUSH1 0x40 MLOAD SWAP1 DUP2 ADD PUSH1 0x40 MSTORE DUP1 SWAP3 SWAP2 SWAP1 DUP2 DUP2 MSTORE PUSH1 0x20 ADD DUP3 DUP1 SLOAD PUSH2 0x8D9 SWAP1 PUSH2 0x2EE2 JUMP JUMPDEST DUP1 ISZERO PUSH2 0x926 JUMPI DUP1 PUSH1 0x1F LT PUSH2 0x8FB JUMPI PUSH2 0x100 DUP1 DUP4 SLOAD DIV MUL DUP4 MSTORE SWAP2 PUSH1 0x20 ADD SWAP2 PUSH2 0x926 JUMP JUMPDEST DUP3 ADD SWAP2 SWAP1 PUSH1 0x0 MSTORE PUSH1 0x20 PUSH1 0x0 KECCAK256 SWAP1 JUMPDEST DUP2 SLOAD DUP2 MSTORE SWAP1 PUSH1 0x1 ADD SWAP1 PUSH1 0x20 ADD DUP1 DUP4 GT PUSH2 0x909 JUMPI DUP3 SWAP1 SUB PUSH1 0x1F AND DUP3 ADD SWAP2 JUMPDEST POP POP POP POP POP DUP2 MSTORE POP POP SWAP1 POP DUP9 JUMP JUMPDEST PUSH1 0x1 PUSH1 0x20 MSTORE DUP1 PUSH1 0x0 MSTORE PUSH1 0x40 PUSH1 0x0 KECCAK256 PUSH1 0x0 SWAP2 POP SWAP1 POP DUP1 PUSH1 0x0 ADD DUP1 SLOAD PUSH2 0x957 SWAP1 PUSH2 0x2EE2 JUMP JUMPDEST DUP1 PUSH1 0x1F ADD PUSH1 0x20 DUP1 SWAP2 DIV MUL PUSH1 0x20 ADD PUSH1 0x40 MLOAD SWAP1 DUP2 ADD PUSH1 0x40 MSTORE DUP1 SWAP3 SWAP2 SWAP1 DUP2 DUP2 MSTORE PUSH1 0x20 ADD DUP3 DUP1 SLOAD PUSH2 0x983 SWAP1 PUSH2 0x2EE2 JUMP JUMPDEST DUP1 ISZERO PUSH2 0x9D0 JUMPI DUP1 PUSH1 0x1F LT PUSH2 0x9A5 JUMPI PUSH2 0x100 DUP1 DUP4 SLOAD DIV MUL DUP4 MSTORE SWAP2 PUSH1 0x20 ADD SWAP2 PUSH2 0x9D0 JUMP JUMPDEST DUP3 ADD SWAP2 SWAP1 PUSH1 0x0 MSTORE PUSH1 0x20 PUSH1 0x0 KECCAK256 SWAP1 JUMPDEST DUP2 SLOAD DUP2 MSTORE SWAP1 PUSH1 0x1 ADD SWAP1 PUSH1 0x20 ADD DUP1 DUP4 GT PUSH2 0x9B3 JUMPI DUP3 SWAP1 SUB PUSH1 0x1F AND DUP3 ADD SWAP2 JUMPDEST POP POP POP POP POP SWAP1 DUP1 PUSH1 0x1 ADD SLOAD SWAP1 DUP1 PUSH1 0x2 ADD PUSH1 0x0 SWAP1 SLOAD SWAP1 PUSH2 0x100 EXP SWAP1 DIV PUSH20 0xFFFFFFFFFFFFFFFFFFFFFFFFFFFFFFFFFFFFFFFF AND SWAP1 DUP1 PUSH1 0x4 ADD SLOAD SWAP1 DUP1 PUSH1 0x6 ADD SLOAD SWAP1 DUP1 PUSH1 0x7 ADD SLOAD SWAP1 POP DUP7 JUMP JUMPDEST PUSH1 0x2 PUSH1 0x20 MSTORE DUP1 PUSH1 0x0 MSTORE PUSH1 0x40 PUSH1 0x0 KECCAK256 PUSH1 0x0 SWAP2 POP SWAP1 POP DUP1 PUSH1 0x0 ADD PUSH1 0x0 SWAP1 SLOAD SWAP1 PUSH2 0x100 EXP SWAP1 DIV PUSH20 0xFFFFFFFFFFFFFFFFFFFFFFFFFFFFFFFFFFFFFFFF AND SWAP1 DUP1 PUSH1 0x1 ADD DUP1 SLOAD PUSH2 0xA61 SWAP1 PUSH2 0x2EE2 JUMP JUMPDEST DUP1 PUSH1 0x1F ADD PUSH1 0x20 DUP1 SWAP2 DIV MUL PUSH1 0x20 ADD PUSH1 0x40 MLOAD SWAP1 DUP2 ADD PUSH1 0x40 MSTORE DUP1 SWAP3 SWAP2 SWAP1 DUP2 DUP2 MSTORE PUSH1 0x20 ADD DUP3 DUP1 SLOAD PUSH2 0xA8D SWAP1 PUSH2 0x2EE2 JUMP JUMPDEST DUP1 ISZERO PUSH2 0xADA JUMPI DUP1 PUSH1 0x1F LT PUSH2 0xAAF JUMPI PUSH2 0x100 DUP1 DUP4 SLOAD DIV MUL DUP4 MSTORE SWAP2 PUSH1 0x20 ADD SWAP2 PUSH2 0xADA JUMP JUMPDEST DUP3 ADD SWAP2 SWAP1 PUSH1 0x0 MSTORE PUSH1 0x20 PUSH1 0x0 KECCAK256 SWAP1 JUMPDEST DUP2 SLOAD DUP2 MSTORE SWAP1 PUSH1 0x1 ADD SWAP1 PUSH1 0x20 ADD DUP1 DUP4 GT PUSH2 0xABD JUMPI DUP3 SWAP1 SUB PUSH1 0x1F AND DUP3 ADD SWAP2 JUMPDEST POP POP POP POP POP SWAP1 DUP1 PUSH1 0x2 ADD DUP1 SLOAD PUSH2 0xAEF SWAP1 PUSH2 0x2EE2 JUMP JUMPDEST DUP1 PUSH1 0x1F ADD PUSH1 0x20 DUP1 SWAP2 DIV MUL PUSH1 0x20 ADD PUSH1 0x40 MLOAD SWAP1 DUP2 ADD PUSH1 0x40 MSTORE DUP1 SWAP3 SWAP2 SWAP1 DUP2 DUP2 MSTORE PUSH1 0x20 ADD DUP3 DUP1 SLOAD PUSH2 0xB1B SWAP1 PUSH2 0x2EE2 JUMP JUMPDEST DUP1 ISZERO PUSH2 0xB68 JUMPI DUP1 PUSH1 0x1F LT PUSH2 0xB3D JUMPI PUSH2 0x100 DUP1 DUP4 SLOAD DIV MUL DUP4 MSTORE SWAP2 PUSH1 0x20 ADD SWAP2 PUSH2 0xB68 JUMP JUMPDEST DUP3 ADD SWAP2 SWAP1 PUSH1 0x0 MSTORE PUSH1 0x20 PUSH1 0x0 KECCAK256 SWAP1 JUMPDEST DUP2 SLOAD DUP2 MSTORE SWAP1 PUSH1 0x1 ADD SWAP1 PUSH1 0x20 ADD DUP1 DUP4 GT PUSH2 0xB4B JUMPI DUP3 SWAP1 SUB PUSH1 0x1F AND DUP3 ADD SWAP2 JUMPDEST POP POP POP POP POP SWAP1 DUP1 PUSH1 0x3 ADD DUP1 SLOAD PUSH2 0xB7D SWAP1 PUSH2 0x2EE2 JUMP JUMPDEST DUP1 PUSH1 0x1F ADD PUSH1 0x20 DUP1 SWAP2 DIV MUL PUSH1 0x20 ADD PUSH1 0x40 MLOAD SWAP1 DUP2 ADD PUSH1 0x40 MSTORE DUP1 SWAP3 SWAP2 SWAP1 DUP2 DUP2 MSTORE PUSH1 0x20 ADD DUP3 DUP1 SLOAD PUSH2 0xBA9 SWAP1 PUSH2 0x2EE2 JUMP JUMPDEST DUP1 ISZERO PUSH2 0xBF6 JUMPI DUP1 PUSH1 0x1F LT PUSH2 0xBCB JUMPI PUSH2 0x100 DUP1 DUP4 SLOAD DIV MUL DUP4 MSTORE SWAP2 PUSH1 0x20 ADD SWAP2 PUSH2 0xBF6 JUMP JUMPDEST DUP3 ADD SWAP2 SWAP1 PUSH1 0x0 MSTORE PUSH1 0x20 PUSH1 0x0 KECCAK256 SWAP1 JUMPDEST DUP2 SLOAD DUP2 MSTORE SWAP1 PUSH1 0x1 ADD SWAP1 PUSH1 0x20 ADD DUP1 DUP4 GT PUSH2 0xBD9 JUMPI DUP3 SWAP1 SUB PUSH1 0x1F AND DUP3 ADD SWAP2 JUMPDEST POP POP POP POP POP SWAP1 DUP1 PUSH1 0x5 ADD SLOAD SWAP1 DUP1 PUSH1 0x6 ADD SLOAD SWAP1 DUP1 PUSH1 0x7 ADD SLOAD SWAP1 DUP1 PUSH1 0x8 ADD PUSH1 0x0 SWAP1 SLOAD SWAP1 PUSH2 0x100 EXP SWAP1 DIV PUSH1 0xFF AND SWAP1 DUP1 PUSH1 0xA ADD SLOAD SWAP1 POP DUP10 JUMP JUMPDEST PUSH1 0x60 PUSH1 0x4 PUSH1 0x0 DUP4 DUP2 MSTORE PUSH1 0x20 ADD SWAP1 DUP2 MSTORE PUSH1 0x20 ADD PUSH1 0x0 KECCAK256 DUP1 SLOAD DUP1 PUSH1 0x20 MUL PUSH1 0x20 ADD PUSH1 0x40 MLOAD SWAP1 DUP2 ADD PUSH1 0x40 MSTORE DUP1 SWAP3 SWAP2 SWAP1 DUP2 DUP2 MSTORE PUSH1 0x20 ADD PUSH1 0x0 SWAP1 JUMPDEST DUP3 DUP3 LT ISZERO PUSH2 0xED0 JUMPI DUP4 DUP3 SWAP1 PUSH1 0x0 MSTORE PUSH1 0x20 PUSH1 0x0 KECCAK256 SWAP1 PUSH1 0x7 MUL ADD PUSH1 0x40 MLOAD DUP1 PUSH1 0xC0 ADD PUSH1 0x40 MSTORE SWAP1 DUP2 PUSH1 0x0 DUP3 ADD PUSH1 0x0 SWAP1 SLOAD SWAP1 PUSH2 0x100 EXP SWAP1 DIV PUSH20 0xFFFFFFFFFFFFFFFFFFFFFFFFFFFFFFFFFFFFFFFF AND PUSH20 0xFFFFFFFFFFFFFFFFFFFFFFFFFFFFFFFFFFFFFFFF AND PUSH20 0xFFFFFFFFFFFFFFFFFFFFFFFFFFFFFFFFFFFFFFFF AND DUP2 MSTORE PUSH1 0x20 ADD PUSH1 0x1 DUP3 ADD SLOAD DUP2 MSTORE PUSH1 0x20 ADD PUSH1 0x2 DUP3 ADD SLOAD DUP2 MSTORE PUSH1 0x20 ADD PUSH1 0x3 DUP3 ADD DUP1 SLOAD PUSH2 0xCFD SWAP1 PUSH2 0x2EE2 JUMP JUMPDEST DUP1 PUSH1 0x1F ADD PUSH1 0x20 DUP1 SWAP2 DIV MUL PUSH1 0x20 ADD PUSH1 0x40 MLOAD SWAP1 DUP2 ADD PUSH1 0x40 MSTORE DUP1 SWAP3 SWAP2 SWAP1 DUP2 DUP2 MSTORE PUSH1 0x20 ADD DUP3 DUP1 SLOAD PUSH2 0xD29 SWAP1 PUSH2 0x2EE2 JUMP JUMPDEST DUP1 ISZERO PUSH2 0xD76 JUMPI DUP1 PUSH1 0x1F LT PUSH2 0xD4B JUMPI PUSH2 0x100 DUP1 DUP4 SLOAD DIV MUL DUP4 MSTORE SWAP2 PUSH1 0x20 ADD SWAP2 PUSH2 0xD76 JUMP JUMPDEST DUP3 ADD SWAP2 SWAP1 PUSH1 0x0 MSTORE PUSH1 0x20 PUSH1 0x0 KECCAK256 SWAP1 JUMPDEST DUP2 SLOAD DUP2 MSTORE SWAP1 PUSH1 0x1 ADD SWAP1 PUSH1 0x20 ADD DUP1 DUP4 GT PUSH2 0xD59 JUMPI DUP3 SWAP1 SUB PUSH1 0x1F AND DUP3 ADD SWAP2 JUMPDEST POP POP POP POP POP DUP2 MSTORE PUSH1 0x20 ADD PUSH1 0x4 DUP3 ADD SLOAD DUP2 MSTORE PUSH1 0x20 ADD PUSH1 0x5 DUP3 ADD PUSH1 0x40 MLOAD DUP1 PUSH1 0x40 ADD PUSH1 0x40 MSTORE SWAP1 DUP2 PUSH1 0x0 DUP3 ADD DUP1 SLOAD PUSH2 0xDA9 SWAP1 PUSH2 0x2EE2 JUMP JUMPDEST DUP1 PUSH1 0x1F ADD PUSH1 0x20 DUP1 SWAP2 DIV MUL PUSH1 0x20 ADD PUSH1 0x40 MLOAD SWAP1 DUP2 ADD PUSH1 0x40 MSTORE DUP1 SWAP3 SWAP2 SWAP1 DUP2 DUP2 MSTORE PUSH1 0x20 ADD DUP3 DUP1 SLOAD PUSH2 0xDD5 SWAP1 PUSH2 0x2EE2 JUMP JUMPDEST DUP1 ISZERO PUSH2 0xE22 JUMPI DUP1 PUSH1 0x1F LT PUSH2 0xDF7 JUMPI PUSH2 0x100 DUP1 DUP4 SLOAD DIV MUL DUP4 MSTORE SWAP2 PUSH1 0x20 ADD SWAP2 PUSH2 0xE22 JUMP JUMPDEST DUP3 ADD SWAP2 SWAP1 PUSH1 0x0 MSTORE PUSH1 0x20 PUSH1 0x0 KECCAK256 SWAP1 JUMPDEST DUP2 SLOAD DUP2 MSTORE SWAP1 PUSH1 0x1 ADD SWAP1 PUSH1 0x20 ADD DUP1 DUP4 GT PUSH2 0xE05 JUMPI DUP3 SWAP1 SUB PUSH1 0x1F AND DUP3 ADD SWAP2 JUMPDEST POP POP POP POP POP DUP2 MSTORE PUSH1 0x20 ADD PUSH1 0x1 DUP3 ADD DUP1 SLOAD PUSH2 0xE3B SWAP1 PUSH2 0x2EE2 JUMP JUMPDEST DUP1 PUSH1 0x1F ADD PUSH1 0x20 DUP1 SWAP2 DIV MUL PUSH1 0x20 ADD PUSH1 0x40 MLOAD SWAP1 DUP2 ADD PUSH1 0x40 MSTORE DUP1 SWAP3 SWAP2 SWAP1 DUP2 DUP2 MSTORE PUSH1 0x20 ADD DUP3 DUP1 SLOAD PUSH2 0xE67 SWAP1 PUSH2 0x2EE2 JUMP JUMPDEST DUP1 ISZERO PUSH2 0xEB4 JUMPI DUP1 PUSH1 0x1F LT PUSH2 0xE89 JUMPI PUSH2 0x100 DUP1 DUP4 SLOAD DIV MUL DUP4 MSTORE SWAP2 PUSH1 0x20 ADD SWAP2 PUSH2 0xEB4 JUMP JUMPDEST DUP3 ADD SWAP2 SWAP1 PUSH1 0x0 MSTORE PUSH1 0x20 PUSH1 0x0 KECCAK256 SWAP1 JUMPDEST DUP2 SLOAD DUP2 MSTORE SWAP1 PUSH1 0x1 ADD SWAP1 PUSH1 0x20 ADD DUP1 DUP4 GT PUSH2 0xE97 JUMPI DUP3 SWAP1 SUB PUSH1 0x1F AND DUP3 ADD SWAP2 JUMPDEST POP POP POP POP POP DUP2 MSTORE POP POP DUP2 MSTORE POP POP DUP2 MSTORE PUSH1 0x20 ADD SWAP1 PUSH1 0x1 ADD SWAP1 PUSH2 0xC60 JUMP JUMPDEST POP POP POP POP SWAP1 POP SWAP2 SWAP1 POP JUMP JUMPDEST CALLER PUSH1 0x2 PUSH1 0x0 CALLER PUSH20 0xFFFFFFFFFFFFFFFFFFFFFFFFFFFFFFFFFFFFFFFF AND PUSH20 0xFFFFFFFFFFFFFFFFFFFFFFFFFFFFFFFFFFFFFFFF AND DUP2 MSTORE PUSH1 0x20 ADD SWAP1 DUP2 MSTORE PUSH1 0x20 ADD PUSH1 0x0 KECCAK256 PUSH1 0x0 ADD PUSH1 0x0 PUSH2 0x100 EXP DUP2 SLOAD DUP2 PUSH20 0xFFFFFFFFFFFFFFFFFFFFFFFFFFFFFFFFFFFFFFFF MUL NOT AND SWAP1 DUP4 PUSH20 0xFFFFFFFFFFFFFFFFFFFFFFFFFFFFFFFFFFFFFFFF AND MUL OR SWAP1 SSTORE POP DUP4 PUSH1 0x2 PUSH1 0x0 CALLER PUSH20 0xFFFFFFFFFFFFFFFFFFFFFFFFFFFFFFFFFFFFFFFF AND PUSH20 0xFFFFFFFFFFFFFFFFFFFFFFFFFFFFFFFFFFFFFFFF AND DUP2 MSTORE PUSH1 0x20 ADD SWAP1 DUP2 MSTORE PUSH1 0x20 ADD PUSH1 0x0 KECCAK256 PUSH1 0x1 ADD SWAP1 DUP1 MLOAD SWAP1 PUSH1 0x20 ADD SWAP1 PUSH2 0xFB2 SWAP3 SWAP2 SWAP1 PUSH2 0x1D51 JUMP JUMPDEST POP DUP3 PUSH1 0x2 PUSH1 0x0 CALLER PUSH20 0xFFFFFFFFFFFFFFFFFFFFFFFFFFFFFFFFFFFFFFFF AND PUSH20 0xFFFFFFFFFFFFFFFFFFFFFFFFFFFFFFFFFFFFFFFF AND DUP2 MSTORE PUSH1 0x20 ADD SWAP1 DUP2 MSTORE PUSH1 0x20 ADD PUSH1 0x0 KECCAK256 PUSH1 0x2 ADD SWAP1 DUP1 MLOAD SWAP1 PUSH1 0x20 ADD SWAP1 PUSH2 0x1009 SWAP3 SWAP2 SWAP1 PUSH2 0x1D51 JUMP JUMPDEST POP DUP2 PUSH1 0x2 PUSH1 0x0 CALLER PUSH20 0xFFFFFFFFFFFFFFFFFFFFFFFFFFFFFFFFFFFFFFFF AND PUSH20 0xFFFFFFFFFFFFFFFFFFFFFFFFFFFFFFFFFFFFFFFF AND DUP2 MSTORE PUSH1 0x20 ADD SWAP1 DUP2 MSTORE PUSH1 0x20 ADD PUSH1 0x0 KECCAK256 PUSH1 0x3 ADD SWAP1 DUP1 MLOAD SWAP1 PUSH1 0x20 ADD SWAP1 PUSH2 0x1060 SWAP3 SWAP2 SWAP1 PUSH2 0x1D51 JUMP JUMPDEST POP DUP1 PUSH1 0x2 PUSH1 0x0 CALLER PUSH20 0xFFFFFFFFFFFFFFFFFFFFFFFFFFFFFFFFFFFFFFFF AND PUSH20 0xFFFFFFFFFFFFFFFFFFFFFFFFFFFFFFFFFFFFFFFF AND DUP2 MSTORE PUSH1 0x20 ADD SWAP1 DUP2 MSTORE PUSH1 0x20 ADD PUSH1 0x0 KECCAK256 PUSH1 0x9 ADD SWAP1 DUP1 MLOAD SWAP1 PUSH1 0x20 ADD SWAP1 PUSH2 0x10B7 SWAP3 SWAP2 SWAP1 PUSH2 0x1DD7 JUMP JUMPDEST POP PUSH1 0x0 JUMPDEST DUP2 MLOAD DUP2 LT ISZERO PUSH2 0x1175 JUMPI PUSH1 0x1 PUSH1 0x0 DUP4 DUP4 DUP2 MLOAD DUP2 LT PUSH2 0x10DB JUMPI PUSH2 0x10DA PUSH2 0x2FEC JUMP JUMPDEST JUMPDEST PUSH1 0x20 MUL PUSH1 0x20 ADD ADD MLOAD DUP2 MSTORE PUSH1 0x20 ADD SWAP1 DUP2 MSTORE PUSH1 0x20 ADD PUSH1 0x0 KECCAK256 PUSH1 0x4 ADD PUSH1 0x0 DUP2 SLOAD DUP1 SWAP3 SWAP2 SWAP1 PUSH2 0x1105 SWAP1 PUSH2 0x2F45 JUMP JUMPDEST SWAP2 SWAP1 POP SSTORE POP PUSH1 0x2 PUSH1 0x0 CALLER PUSH20 0xFFFFFFFFFFFFFFFFFFFFFFFFFFFFFFFFFFFFFFFF AND PUSH20 0xFFFFFFFFFFFFFFFFFFFFFFFFFFFFFFFFFFFFFFFF AND DUP2 MSTORE PUSH1 0x20 ADD SWAP1 DUP2 MSTORE PUSH1 0x20 ADD PUSH1 0x0 KECCAK256 PUSH1 0xA ADD PUSH1 0x0 DUP2 SLOAD DUP1 SWAP3 SWAP2 SWAP1 PUSH2 0x115D SWAP1 PUSH2 0x2F45 JUMP JUMPDEST SWAP2 SWAP1 POP SSTORE POP DUP1 DUP1 PUSH2 0x116D SWAP1 PUSH2 0x2F45 JUMP JUMPDEST SWAP2 POP POP PUSH2 0x10BB JUMP JUMPDEST POP POP POP POP POP JUMP JUMPDEST PUSH1 0x2 PUSH1 0x0 CALLER PUSH20 0xFFFFFFFFFFFFFFFFFFFFFFFFFFFFFFFFFFFFFFFF AND PUSH20 0xFFFFFFFFFFFFFFFFFFFFFFFFFFFFFFFFFFFFFFFF AND DUP2 MSTORE PUSH1 0x20 ADD SWAP1 DUP2 MSTORE PUSH1 0x20 ADD PUSH1 0x0 KECCAK256 PUSH1 0x9 ADD DUP2 SWAP1 DUP1 PUSH1 0x1 DUP2 SLOAD ADD DUP1 DUP3 SSTORE DUP1 SWAP2 POP POP PUSH1 0x1 SWAP1 SUB SWAP1 PUSH1 0x0 MSTORE PUSH1 0x20 PUSH1 0x0 KECCAK256 ADD PUSH1 0x0 SWAP1 SWAP2 SWAP1 SWAP2 SWAP1 SWAP2 POP SSTORE PUSH1 0x2 PUSH1 0x0 CALLER PUSH20 0xFFFFFFFFFFFFFFFFFFFFFFFFFFFFFFFFFFFFFFFF AND PUSH20 0xFFFFFFFFFFFFFFFFFFFFFFFFFFFFFFFFFFFFFFFF AND DUP2 MSTORE PUSH1 0x20 ADD SWAP1 DUP2 MSTORE PUSH1 0x20 ADD PUSH1 0x0 KECCAK256 PUSH1 0xA ADD PUSH1 0x0 DUP2 SLOAD DUP1 SWAP3 SWAP2 SWAP1 PUSH2 0x1238 SWAP1 PUSH2 0x2F45 JUMP JUMPDEST SWAP2 SWAP1 POP SSTORE POP PUSH1 0x1 PUSH1 0x0 DUP3 DUP2 MSTORE PUSH1 0x20 ADD SWAP1 DUP2 MSTORE PUSH1 0x20 ADD PUSH1 0x0 KECCAK256 PUSH1 0x4 ADD PUSH1 0x0 DUP2 SLOAD DUP1 SWAP3 SWAP2 SWAP1 PUSH2 0x1264 SWAP1 PUSH2 0x2F45 JUMP JUMPDEST SWAP2 SWAP1 POP SSTORE POP POP JUMP JUMPDEST PUSH2 0x1274 PUSH2 0x1E24 JUMP JUMPDEST PUSH1 0x2 PUSH1 0x0 DUP4 PUSH20 0xFFFFFFFFFFFFFFFFFFFFFFFFFFFFFFFFFFFFFFFF AND PUSH20 0xFFFFFFFFFFFFFFFFFFFFFFFFFFFFFFFFFFFFFFFF AND DUP2 MSTORE PUSH1 0x20 ADD SWAP1 DUP2 MSTORE PUSH1 0x20 ADD PUSH1 0x0 KECCAK256 PUSH1 0x40 MLOAD DUP1 PUSH2 0x160 ADD PUSH1 0x40 MSTORE SWAP1 DUP2 PUSH1 0x0 DUP3 ADD PUSH1 0x0 SWAP1 SLOAD SWAP1 PUSH2 0x100 EXP SWAP1 DIV PUSH20 0xFFFFFFFFFFFFFFFFFFFFFFFFFFFFFFFFFFFFFFFF AND PUSH20 0xFFFFFFFFFFFFFFFFFFFFFFFFFFFFFFFFFFFFFFFF AND PUSH20 0xFFFFFFFFFFFFFFFFFFFFFFFFFFFFFFFFFFFFFFFF AND DUP2 MSTORE PUSH1 0x20 ADD PUSH1 0x1 DUP3 ADD DUP1 SLOAD PUSH2 0x1325 SWAP1 PUSH2 0x2EE2 JUMP JUMPDEST DUP1 PUSH1 0x1F ADD PUSH1 0x20 DUP1 SWAP2 DIV MUL PUSH1 0x20 ADD PUSH1 0x40 MLOAD SWAP1 DUP2 ADD PUSH1 0x40 MSTORE DUP1 SWAP3 SWAP2 SWAP1 DUP2 DUP2 MSTORE PUSH1 0x20 ADD DUP3 DUP1 SLOAD PUSH2 0x1351 SWAP1 PUSH2 0x2EE2 JUMP JUMPDEST DUP1 ISZERO PUSH2 0x139E JUMPI DUP1 PUSH1 0x1F LT PUSH2 0x1373 JUMPI PUSH2 0x100 DUP1 DUP4 SLOAD DIV MUL DUP4 MSTORE SWAP2 PUSH1 0x20 ADD SWAP2 PUSH2 0x139E JUMP JUMPDEST DUP3 ADD SWAP2 SWAP1 PUSH1 0x0 MSTORE PUSH1 0x20 PUSH1 0x0 KECCAK256 SWAP1 JUMPDEST DUP2 SLOAD DUP2 MSTORE SWAP1 PUSH1 0x1 ADD SWAP1 PUSH1 0x20 ADD DUP1 DUP4 GT PUSH2 0x1381 JUMPI DUP3 SWAP1 SUB PUSH1 0x1F AND DUP3 ADD SWAP2 JUMPDEST POP POP POP POP POP DUP2 MSTORE PUSH1 0x20 ADD PUSH1 0x2 DUP3 ADD DUP1 SLOAD PUSH2 0x13B7 SWAP1 PUSH2 0x2EE2 JUMP JUMPDEST DUP1 PUSH1 0x1F ADD PUSH1 0x20 DUP1 SWAP2 DIV MUL PUSH1 0x20 ADD PUSH1 0x40 MLOAD SWAP1 DUP2 ADD PUSH1 0x40 MSTORE DUP1 SWAP3 SWAP2 SWAP1 DUP2 DUP2 MSTORE PUSH1 0x20 ADD DUP3 DUP1 SLOAD PUSH2 0x13E3 SWAP1 PUSH2 0x2EE2 JUMP JUMPDEST DUP1 ISZERO PUSH2 0x1430 JUMPI DUP1 PUSH1 0x1F LT PUSH2 0x1405 JUMPI PUSH2 0x100 DUP1 DUP4 SLOAD DIV MUL DUP4 MSTORE SWAP2 PUSH1 0x20 ADD SWAP2 PUSH2 0x1430 JUMP JUMPDEST DUP3 ADD SWAP2 SWAP1 PUSH1 0x0 MSTORE PUSH1 0x20 PUSH1 0x0 KECCAK256 SWAP1 JUMPDEST DUP2 SLOAD DUP2 MSTORE SWAP1 PUSH1 0x1 ADD SWAP1 PUSH1 0x20 ADD DUP1 DUP4 GT PUSH2 0x1413 JUMPI DUP3 SWAP1 SUB PUSH1 0x1F AND DUP3 ADD SWAP2 JUMPDEST POP POP POP POP POP DUP2 MSTORE PUSH1 0x20 ADD PUSH1 0x3 DUP3 ADD DUP1 SLOAD PUSH2 0x1449 SWAP1 PUSH2 0x2EE2 JUMP JUMPDEST DUP1 PUSH1 0x1F ADD PUSH1 0x20 DUP1 SWAP2 DIV MUL PUSH1 0x20 ADD PUSH1 0x40 MLOAD SWAP1 DUP2 ADD PUSH1 0x40 MSTORE DUP1 SWAP3 SWAP2 SWAP1 DUP2 DUP2 MSTORE PUSH1 0x20 ADD DUP3 DUP1 SLOAD PUSH2 0x1475 SWAP1 PUSH2 0x2EE2 JUMP JUMPDEST DUP1 ISZERO PUSH2 0x14C2 JUMPI DUP1 PUSH1 0x1F LT PUSH2 0x1497 JUMPI PUSH2 0x100 DUP1 DUP4 SLOAD DIV MUL DUP4 MSTORE SWAP2 PUSH1 0x20 ADD SWAP2 PUSH2 0x14C2 JUMP JUMPDEST DUP3 ADD SWAP2 SWAP1 PUSH1 0x0 MSTORE PUSH1 0x20 PUSH1 0x0 KECCAK256 SWAP1 JUMPDEST DUP2 SLOAD DUP2 MSTORE SWAP1 PUSH1 0x1 ADD SWAP1 PUSH1 0x20 ADD DUP1 DUP4 GT PUSH2 0x14A5 JUMPI DUP3 SWAP1 SUB PUSH1 0x1F AND DUP3 ADD SWAP2 JUMPDEST POP POP POP POP POP DUP2 MSTORE PUSH1 0x20 ADD PUSH1 0x4 DUP3 ADD DUP1 SLOAD DUP1 PUSH1 0x20 MUL PUSH1 0x20 ADD PUSH1 0x40 MLOAD SWAP1 DUP2 ADD PUSH1 0x40 MSTORE DUP1 SWAP3 SWAP2 SWAP1 DUP2 DUP2 MSTORE PUSH1 0x20 ADD DUP3 DUP1 SLOAD DUP1 ISZERO PUSH2 0x1550 JUMPI PUSH1 0x20 MUL DUP3 ADD SWAP2 SWAP1 PUSH1 0x0 MSTORE PUSH1 0x20 PUSH1 0x0 KECCAK256 SWAP1 JUMPDEST DUP2 PUSH1 0x0 SWAP1 SLOAD SWAP1 PUSH2 0x100 EXP SWAP1 DIV PUSH20 0xFFFFFFFFFFFFFFFFFFFFFFFFFFFFFFFFFFFFFFFF AND PUSH20 0xFFFFFFFFFFFFFFFFFFFFFFFFFFFFFFFFFFFFFFFF AND DUP2 MSTORE PUSH1 0x20 ADD SWAP1 PUSH1 0x1 ADD SWAP1 DUP1 DUP4 GT PUSH2 0x1506 JUMPI JUMPDEST POP POP POP POP POP DUP2 MSTORE PUSH1 0x20 ADD PUSH1 0x5 DUP3 ADD SLOAD DUP2 MSTORE PUSH1 0x20 ADD PUSH1 0x6 DUP3 ADD SLOAD DUP2 MSTORE PUSH1 0x20 ADD PUSH1 0x7 DUP3 ADD SLOAD DUP2 MSTORE PUSH1 0x20 ADD PUSH1 0x8 DUP3 ADD PUSH1 0x0 SWAP1 SLOAD SWAP1 PUSH2 0x100 EXP SWAP1 DIV PUSH1 0xFF AND ISZERO ISZERO ISZERO ISZERO DUP2 MSTORE PUSH1 0x20 ADD PUSH1 0x9 DUP3 ADD DUP1 SLOAD DUP1 PUSH1 0x20 MUL PUSH1 0x20 ADD PUSH1 0x40 MLOAD SWAP1 DUP2 ADD PUSH1 0x40 MSTORE DUP1 SWAP3 SWAP2 SWAP1 DUP2 DUP2 MSTORE PUSH1 0x20 ADD DUP3 DUP1 SLOAD DUP1 ISZERO PUSH2 0x15E1 JUMPI PUSH1 0x20 MUL DUP3 ADD SWAP2 SWAP1 PUSH1 0x0 MSTORE PUSH1 0x20 PUSH1 0x0 KECCAK256 SWAP1 JUMPDEST DUP2 SLOAD DUP2 MSTORE PUSH1 0x20 ADD SWAP1 PUSH1 0x1 ADD SWAP1 DUP1 DUP4 GT PUSH2 0x15CD JUMPI JUMPDEST POP POP POP POP POP DUP2 MSTORE PUSH1 0x20 ADD PUSH1 0xA DUP3 ADD SLOAD DUP2 MSTORE POP POP SWAP1 POP SWAP2 SWAP1 POP JUMP JUMPDEST PUSH1 0x4 PUSH1 0x20 MSTORE DUP2 PUSH1 0x0 MSTORE PUSH1 0x40 PUSH1 0x0 KECCAK256 DUP2 DUP2 SLOAD DUP2 LT PUSH2 0x1617 JUMPI PUSH1 0x0 DUP1 REVERT JUMPDEST SWAP1 PUSH1 0x0 MSTORE PUSH1 0x20 PUSH1 0x0 KECCAK256 SWAP1 PUSH1 0x7 MUL ADD PUSH1 0x0 SWAP2 POP SWAP2 POP POP DUP1 PUSH1 0x0 ADD PUSH1 0x0 SWAP1 SLOAD SWAP1 PUSH2 0x100 EXP SWAP1 DIV PUSH20 0xFFFFFFFFFFFFFFFFFFFFFFFFFFFFFFFFFFFFFFFF AND SWAP1 DUP1 PUSH1 0x1 ADD SLOAD SWAP1 DUP1 PUSH1 0x2 ADD SLOAD SWAP1 DUP1 PUSH1 0x3 ADD DUP1 SLOAD PUSH2 0x166D SWAP1 PUSH2 0x2EE2 JUMP JUMPDEST DUP1 PUSH1 0x1F ADD PUSH1 0x20 DUP1 SWAP2 DIV MUL PUSH1 0x20 ADD PUSH1 0x40 MLOAD SWAP1 DUP2 ADD PUSH1 0x40 MSTORE DUP1 SWAP3 SWAP2 SWAP1 DUP2 DUP2 MSTORE PUSH1 0x20 ADD DUP3 DUP1 SLOAD PUSH2 0x1699 SWAP1 PUSH2 0x2EE2 JUMP JUMPDEST DUP1 ISZERO PUSH2 0x16E6 JUMPI DUP1 PUSH1 0x1F LT PUSH2 0x16BB JUMPI PUSH2 0x100 DUP1 DUP4 SLOAD DIV MUL DUP4 MSTORE SWAP2 PUSH1 0x20 ADD SWAP2 PUSH2 0x16E6 JUMP JUMPDEST DUP3 ADD SWAP2 SWAP1 PUSH1 0x0 MSTORE PUSH1 0x20 PUSH1 0x0 KECCAK256 SWAP1 JUMPDEST DUP2 SLOAD DUP2 MSTORE SWAP1 PUSH1 0x1 ADD SWAP1 PUSH1 0x20 ADD DUP1 DUP4 GT PUSH2 0x16C9 JUMPI DUP3 SWAP1 SUB PUSH1 0x1F AND DUP3 ADD SWAP2 JUMPDEST POP POP POP POP POP SWAP1 DUP1 PUSH1 0x4 ADD SLOAD SWAP1 DUP1 PUSH1 0x5 ADD PUSH1 0x40 MLOAD DUP1 PUSH1 0x40 ADD PUSH1 0x40 MSTORE SWAP1 DUP2 PUSH1 0x0 DUP3 ADD DUP1 SLOAD PUSH2 0x1711 SWAP1 PUSH2 0x2EE2 JUMP JUMPDEST DUP1 PUSH1 0x1F ADD PUSH1 0x20 DUP1 SWAP2 DIV MUL PUSH1 0x20 ADD PUSH1 0x40 MLOAD SWAP1 DUP2 ADD PUSH1 0x40 MSTORE DUP1 SWAP3 SWAP2 SWAP1 DUP2 DUP2 MSTORE PUSH1 0x20 ADD DUP3 DUP1 SLOAD PUSH2 0x173D SWAP1 PUSH2 0x2EE2 JUMP JUMPDEST DUP1 ISZERO PUSH2 0x178A JUMPI DUP1 PUSH1 0x1F LT PUSH2 0x175F JUMPI PUSH2 0x100 DUP1 DUP4 SLOAD DIV MUL DUP4 MSTORE SWAP2 PUSH1 0x20 ADD SWAP2 PUSH2 0x178A JUMP JUMPDEST DUP3 ADD SWAP2 SWAP1 PUSH1 0x0 MSTORE PUSH1 0x20 PUSH1 0x0 KECCAK256 SWAP1 JUMPDEST DUP2 SLOAD DUP2 MSTORE SWAP1 PUSH1 0x1 ADD SWAP1 PUSH1 0x20 ADD DUP1 DUP4 GT PUSH2 0x176D JUMPI DUP3 SWAP1 SUB PUSH1 0x1F AND DUP3 ADD SWAP2 JUMPDEST POP POP POP POP POP DUP2 MSTORE PUSH1 0x20 ADD PUSH1 0x1 DUP3 ADD DUP1 SLOAD PUSH2 0x17A3 SWAP1 PUSH2 0x2EE2 JUMP JUMPDEST DUP1 PUSH1 0x1F ADD PUSH1 0x20 DUP1 SWAP2 DIV MUL PUSH1 0x20 ADD PUSH1 0x40 MLOAD SWAP1 DUP2 ADD PUSH1 0x40 MSTORE DUP1 SWAP3 SWAP2 SWAP1 DUP2 DUP2 MSTORE PUSH1 0x20 ADD DUP3 DUP1 SLOAD PUSH2 0x17CF SWAP1 PUSH2 0x2EE2 JUMP JUMPDEST DUP1 ISZERO PUSH2 0x181C JUMPI DUP1 PUSH1 0x1F LT PUSH2 0x17F1 JUMPI PUSH2 0x100 DUP1 DUP4 SLOAD DIV MUL DUP4 MSTORE SWAP2 PUSH1 0x20 ADD SWAP2 PUSH2 0x181C JUMP JUMPDEST DUP3 ADD SWAP2 SWAP1 PUSH1 0x0 MSTORE PUSH1 0x20 PUSH1 0x0 KECCAK256 SWAP1 JUMPDEST DUP2 SLOAD DUP2 MSTORE SWAP1 PUSH1 0x1 ADD SWAP1 PUSH1 0x20 ADD DUP1 DUP4 GT PUSH2 0x17FF JUMPI DUP3 SWAP1 SUB PUSH1 0x1F AND DUP3 ADD SWAP2 JUMPDEST POP POP POP POP POP DUP2 MSTORE POP POP SWAP1 POP DUP7 JUMP JUMPDEST DUP1 PUSH1 0x1 PUSH1 0x0 DUP1 SLOAD DUP2 MSTORE PUSH1 0x20 ADD SWAP1 DUP2 MSTORE PUSH1 0x20 ADD PUSH1 0x0 KECCAK256 PUSH1 0x0 ADD SWAP1 DUP1 MLOAD SWAP1 PUSH1 0x20 ADD SWAP1 PUSH2 0x1855 SWAP3 SWAP2 SWAP1 PUSH2 0x1D51 JUMP JUMPDEST POP PUSH1 0x0 SLOAD PUSH1 0x1 PUSH1 0x0 DUP1 SLOAD DUP2 MSTORE PUSH1 0x20 ADD SWAP1 DUP2 MSTORE PUSH1 0x20 ADD PUSH1 0x0 KECCAK256 PUSH1 0x1 ADD DUP2 SWAP1 SSTORE POP CALLER PUSH1 0x1 PUSH1 0x0 DUP1 SLOAD DUP2 MSTORE PUSH1 0x20 ADD SWAP1 DUP2 MSTORE PUSH1 0x20 ADD PUSH1 0x0 KECCAK256 PUSH1 0x2 ADD PUSH1 0x0 PUSH2 0x100 EXP DUP2 SLOAD DUP2 PUSH20 0xFFFFFFFFFFFFFFFFFFFFFFFFFFFFFFFFFFFFFFFF MUL NOT AND SWAP1 DUP4 PUSH20 0xFFFFFFFFFFFFFFFFFFFFFFFFFFFFFFFFFFFFFFFF AND MUL OR SWAP1 SSTORE POP PUSH1 0x0 DUP1 DUP2 SLOAD DUP1 SWAP3 SWAP2 SWAP1 PUSH2 0x18DC SWAP1 PUSH2 0x2F45 JUMP JUMPDEST SWAP2 SWAP1 POP SSTORE POP POP JUMP JUMPDEST PUSH2 0x18EC PUSH2 0x1E96 JUMP JUMPDEST DUP3 DUP2 PUSH1 0x0 ADD DUP2 SWAP1 MSTORE POP DUP2 DUP2 PUSH1 0x20 ADD DUP2 SWAP1 MSTORE POP PUSH2 0x1906 PUSH2 0x1EB0 JUMP JUMPDEST CALLER DUP2 PUSH1 0x0 ADD SWAP1 PUSH20 0xFFFFFFFFFFFFFFFFFFFFFFFFFFFFFFFFFFFFFFFF AND SWAP1 DUP2 PUSH20 0xFFFFFFFFFFFFFFFFFFFFFFFFFFFFFFFFFFFFFFFF AND DUP2 MSTORE POP POP DUP7 DUP2 PUSH1 0x20 ADD DUP2 DUP2 MSTORE POP POP DUP6 DUP2 PUSH1 0x40 ADD DUP2 DUP2 MSTORE POP POP DUP5 DUP2 PUSH1 0x60 ADD DUP2 SWAP1 MSTORE POP TIMESTAMP DUP2 PUSH1 0x80 ADD DUP2 DUP2 MSTORE POP POP DUP2 DUP2 PUSH1 0xA0 ADD DUP2 SWAP1 MSTORE POP PUSH1 0x3 PUSH1 0x0 DUP9 DUP2 MSTORE PUSH1 0x20 ADD SWAP1 DUP2 MSTORE PUSH1 0x20 ADD PUSH1 0x0 KECCAK256 DUP7 DUP2 SLOAD DUP2 LT PUSH2 0x1993 JUMPI PUSH2 0x1992 PUSH2 0x2FEC JUMP JUMPDEST JUMPDEST SWAP1 PUSH1 0x0 MSTORE PUSH1 0x20 PUSH1 0x0 KECCAK256 SWAP1 PUSH1 0xA MUL ADD PUSH1 0x4 ADD PUSH1 0x0 DUP2 SLOAD DUP1 SWAP3 SWAP2 SWAP1 PUSH2 0x19B5 SWAP1 PUSH2 0x2F45 JUMP JUMPDEST SWAP2 SWAP1 POP SSTORE POP PUSH1 0x4 PUSH1 0x0 DUP9 DUP2 MSTORE PUSH1 0x20 ADD SWAP1 DUP2 MSTORE PUSH1 0x20 ADD PUSH1 0x0 KECCAK256 DUP2 SWAP1 DUP1 PUSH1 0x1 DUP2 SLOAD ADD DUP1 DUP3 SSTORE DUP1 SWAP2 POP POP PUSH1 0x1 SWAP1 SUB SWAP1 PUSH1 0x0 MSTORE PUSH1 0x20 PUSH1 0x0 KECCAK256 SWAP1 PUSH1 0x7 MUL ADD PUSH1 0x0 SWAP1 SWAP2 SWAP1 SWAP2 SWAP1 SWAP2 POP PUSH1 0x0 DUP3 ADD MLOAD DUP2 PUSH1 0x0 ADD PUSH1 0x0 PUSH2 0x100 EXP DUP2 SLOAD DUP2 PUSH20 0xFFFFFFFFFFFFFFFFFFFFFFFFFFFFFFFFFFFFFFFF MUL NOT AND SWAP1 DUP4 PUSH20 0xFFFFFFFFFFFFFFFFFFFFFFFFFFFFFFFFFFFFFFFF AND MUL OR SWAP1 SSTORE POP PUSH1 0x20 DUP3 ADD MLOAD DUP2 PUSH1 0x1 ADD SSTORE PUSH1 0x40 DUP3 ADD MLOAD DUP2 PUSH1 0x2 ADD SSTORE PUSH1 0x60 DUP3 ADD MLOAD DUP2 PUSH1 0x3 ADD SWAP1 DUP1 MLOAD SWAP1 PUSH1 0x20 ADD SWAP1 PUSH2 0x1A6E SWAP3 SWAP2 SWAP1 PUSH2 0x1D51 JUMP JUMPDEST POP PUSH1 0x80 DUP3 ADD MLOAD DUP2 PUSH1 0x4 ADD SSTORE PUSH1 0xA0 DUP3 ADD MLOAD DUP2 PUSH1 0x5 ADD PUSH1 0x0 DUP3 ADD MLOAD DUP2 PUSH1 0x0 ADD SWAP1 DUP1 MLOAD SWAP1 PUSH1 0x20 ADD SWAP1 PUSH2 0x1A9E SWAP3 SWAP2 SWAP1 PUSH2 0x1D51 JUMP JUMPDEST POP PUSH1 0x20 DUP3 ADD MLOAD DUP2 PUSH1 0x1 ADD SWAP1 DUP1 MLOAD SWAP1 PUSH1 0x20 ADD SWAP1 PUSH2 0x1ABB SWAP3 SWAP2 SWAP1 PUSH2 0x1D51 JUMP JUMPDEST POP POP POP POP POP POP POP POP POP POP POP POP JUMP JUMPDEST PUSH2 0x1AD1 PUSH2 0x1E96 JUMP JUMPDEST DUP3 DUP2 PUSH1 0x0 ADD DUP2 SWAP1 MSTORE POP DUP2 DUP2 PUSH1 0x20 ADD DUP2 SWAP1 MSTORE POP PUSH2 0x1AEB PUSH2 0x1F02 JUMP JUMPDEST CALLER DUP2 PUSH1 0xA0 ADD SWAP1 PUSH20 0xFFFFFFFFFFFFFFFFFFFFFFFFFFFFFFFFFFFFFFFF AND SWAP1 DUP2 PUSH20 0xFFFFFFFFFFFFFFFFFFFFFFFFFFFFFFFFFFFFFFFF AND DUP2 MSTORE POP POP DUP8 DUP2 PUSH1 0x0 ADD DUP2 SWAP1 MSTORE POP DUP7 DUP2 PUSH1 0x20 ADD DUP2 SWAP1 MSTORE POP TIMESTAMP DUP2 PUSH1 0x40 ADD DUP2 DUP2 MSTORE POP POP DUP6 DUP2 PUSH1 0x60 ADD SWAP1 ISZERO ISZERO SWAP1 DUP2 ISZERO ISZERO DUP2 MSTORE POP POP DUP5 DUP2 PUSH1 0xC0 ADD DUP2 DUP2 MSTORE POP POP DUP2 DUP2 PUSH1 0xE0 ADD DUP2 SWAP1 MSTORE POP PUSH1 0x3 PUSH1 0x0 DUP7 DUP2 MSTORE PUSH1 0x20 ADD SWAP1 DUP2 MSTORE PUSH1 0x20 ADD PUSH1 0x0 KECCAK256 DUP2 SWAP1 DUP1 PUSH1 0x1 DUP2 SLOAD ADD DUP1 DUP3 SSTORE DUP1 SWAP2 POP POP PUSH1 0x1 SWAP1 SUB SWAP1 PUSH1 0x0 MSTORE PUSH1 0x20 PUSH1 0x0 KECCAK256 SWAP1 PUSH1 0xA MUL ADD PUSH1 0x0 SWAP1 SWAP2 SWAP1 SWAP2 SWAP1 SWAP2 POP PUSH1 0x0 DUP3 ADD MLOAD DUP2 PUSH1 0x0 ADD SWAP1 DUP1 MLOAD SWAP1 PUSH1 0x20 ADD SWAP1 PUSH2 0x1BBB SWAP3 SWAP2 SWAP1 PUSH2 0x1D51 JUMP JUMPDEST POP PUSH1 0x20 DUP3 ADD MLOAD DUP2 PUSH1 0x1 ADD SWAP1 DUP1 MLOAD SWAP1 PUSH1 0x20 ADD SWAP1 PUSH2 0x1BD8 SWAP3 SWAP2 SWAP1 PUSH2 0x1D51 JUMP JUMPDEST POP PUSH1 0x40 DUP3 ADD MLOAD DUP2 PUSH1 0x2 ADD SSTORE PUSH1 0x60 DUP3 ADD MLOAD DUP2 PUSH1 0x3 ADD PUSH1 0x0 PUSH2 0x100 EXP DUP2 SLOAD DUP2 PUSH1 0xFF MUL NOT AND SWAP1 DUP4 ISZERO ISZERO MUL OR SWAP1 SSTORE POP PUSH1 0x80 DUP3 ADD MLOAD DUP2 PUSH1 0x4 ADD SSTORE PUSH1 0xA0 DUP3 ADD MLOAD DUP2 PUSH1 0x5 ADD PUSH1 0x0 PUSH2 0x100 EXP DUP2 SLOAD DUP2 PUSH20 0xFFFFFFFFFFFFFFFFFFFFFFFFFFFFFFFFFFFFFFFF MUL NOT AND SWAP1 DUP4 PUSH20 0xFFFFFFFFFFFFFFFFFFFFFFFFFFFFFFFFFFFFFFFF AND MUL OR SWAP1 SSTORE POP PUSH1 0xC0 DUP3 ADD MLOAD DUP2 PUSH1 0x6 ADD SSTORE PUSH1 0xE0 DUP3 ADD MLOAD DUP2 PUSH1 0x7 ADD PUSH1 0x0 DUP3 ADD MLOAD DUP2 PUSH1 0x0 ADD SWAP1 DUP1 MLOAD SWAP1 PUSH1 0x20 ADD SWAP1 PUSH2 0x1C83 SWAP3 SWAP2 SWAP1 PUSH2 0x1D51 JUMP JUMPDEST POP PUSH1 0x20 DUP3 ADD MLOAD DUP2 PUSH1 0x1 ADD SWAP1 DUP1 MLOAD SWAP1 PUSH1 0x20 ADD SWAP1 PUSH2 0x1CA0 SWAP3 SWAP2 SWAP1 PUSH2 0x1D51 JUMP JUMPDEST POP POP POP PUSH2 0x100 DUP3 ADD MLOAD DUP2 PUSH1 0x9 ADD SWAP1 DUP1 MLOAD SWAP1 PUSH1 0x20 ADD SWAP1 PUSH2 0x1CC0 SWAP3 SWAP2 SWAP1 PUSH2 0x1DD7 JUMP JUMPDEST POP POP POP PUSH1 0x1 PUSH1 0x0 DUP7 DUP2 MSTORE PUSH1 0x20 ADD SWAP1 DUP2 MSTORE PUSH1 0x20 ADD PUSH1 0x0 KECCAK256 PUSH1 0x7 ADD PUSH1 0x0 DUP2 SLOAD DUP1 SWAP3 SWAP2 SWAP1 PUSH2 0x1CEA SWAP1 PUSH2 0x2F45 JUMP JUMPDEST SWAP2 SWAP1 POP SSTORE POP PUSH1 0x2 PUSH1 0x0 CALLER PUSH20 0xFFFFFFFFFFFFFFFFFFFFFFFFFFFFFFFFFFFFFFFF AND PUSH20 0xFFFFFFFFFFFFFFFFFFFFFFFFFFFFFFFFFFFFFFFF AND DUP2 MSTORE PUSH1 0x20 ADD SWAP1 DUP2 MSTORE PUSH1 0x20 ADD PUSH1 0x0 KECCAK256 PUSH1 0x7 ADD PUSH1 0x0 DUP2 SLOAD DUP1 SWAP3 SWAP2 SWAP1 PUSH2 0x1D42 SWAP1 PUSH2 0x2F45 JUMP JUMPDEST SWAP2 SWAP1 POP SSTORE POP POP POP POP POP POP POP POP POP JUMP JUMPDEST DUP3 DUP1 SLOAD PUSH2 0x1D5D SWAP1 PUSH2 0x2EE2 JUMP JUMPDEST SWAP1 PUSH1 0x0 MSTORE PUSH1 0x20 PUSH1 0x0 KECCAK256 SWAP1 PUSH1 0x1F ADD PUSH1 0x20 SWAP1 DIV DUP2 ADD SWAP3 DUP3 PUSH2 0x1D7F JUMPI PUSH1 0x0 DUP6 SSTORE PUSH2 0x1DC6 JUMP JUMPDEST DUP3 PUSH1 0x1F LT PUSH2 0x1D98 JUMPI DUP1 MLOAD PUSH1 0xFF NOT AND DUP4 DUP1 ADD OR DUP6 SSTORE PUSH2 0x1DC6 JUMP JUMPDEST DUP3 DUP1 ADD PUSH1 0x1 ADD DUP6 SSTORE DUP3 ISZERO PUSH2 0x1DC6 JUMPI SWAP2 DUP3 ADD JUMPDEST DUP3 DUP2 GT ISZERO PUSH2 0x1DC5 JUMPI DUP3 MLOAD DUP3 SSTORE SWAP2 PUSH1 0x20 ADD SWAP2 SWAP1 PUSH1 0x1 ADD SWAP1 PUSH2 0x1DAA JUMP JUMPDEST JUMPDEST POP SWAP1 POP PUSH2 0x1DD3 SWAP2 SWAP1 PUSH2 0x1F6C JUMP JUMPDEST POP SWAP1 JUMP JUMPDEST DUP3 DUP1 SLOAD DUP3 DUP3 SSTORE SWAP1 PUSH1 0x0 MSTORE PUSH1 0x20 PUSH1 0x0 KECCAK256 SWAP1 DUP2 ADD SWAP3 DUP3 ISZERO PUSH2 0x1E13 JUMPI SWAP2 PUSH1 0x20 MUL DUP3 ADD JUMPDEST DUP3 DUP2 GT ISZERO PUSH2 0x1E12 JUMPI DUP3 MLOAD DUP3 SSTORE SWAP2 PUSH1 0x20 ADD SWAP2 SWAP1 PUSH1 0x1 ADD SWAP1 PUSH2 0x1DF7 JUMP JUMPDEST JUMPDEST POP SWAP1 POP PUSH2 0x1E20 SWAP2 SWAP1 PUSH2 0x1F6C JUMP JUMPDEST POP SWAP1 JUMP JUMPDEST PUSH1 0x40 MLOAD DUP1 PUSH2 0x160 ADD PUSH1 0x40 MSTORE DUP1 PUSH1 0x0 PUSH20 0xFFFFFFFFFFFFFFFFFFFFFFFFFFFFFFFFFFFFFFFF AND DUP2 MSTORE PUSH1 0x20 ADD PUSH1 0x60 DUP2 MSTORE PUSH1 0x20 ADD PUSH1 0x60 DUP2 MSTORE PUSH1 0x20 ADD PUSH1 0x60 DUP2 MSTORE PUSH1 0x20 ADD PUSH1 0x60 DUP2 MSTORE PUSH1 0x20 ADD PUSH1 0x0 DUP2 MSTORE PUSH1 0x20 ADD PUSH1 0x0 DUP2 MSTORE PUSH1 0x20 ADD PUSH1 0x0 DUP2 MSTORE PUSH1 0x20 ADD PUSH1 0x0 ISZERO ISZERO DUP2 MSTORE PUSH1 0x20 ADD PUSH1 0x60 DUP2 MSTORE PUSH1 0x20 ADD PUSH1 0x0 DUP2 MSTORE POP SWAP1 JUMP JUMPDEST PUSH1 0x40 MLOAD DUP1 PUSH1 0x40 ADD PUSH1 0x40 MSTORE DUP1 PUSH1 0x60 DUP2 MSTORE PUSH1 0x20 ADD PUSH1 0x60 DUP2 MSTORE POP SWAP1 JUMP JUMPDEST PUSH1 0x40 MLOAD DUP1 PUSH1 0xC0 ADD PUSH1 0x40 MSTORE DUP1 PUSH1 0x0 PUSH20 0xFFFFFFFFFFFFFFFFFFFFFFFFFFFFFFFFFFFFFFFF AND DUP2 MSTORE PUSH1 0x20 ADD PUSH1 0x0 DUP2 MSTORE PUSH1 0x20 ADD PUSH1 0x0 DUP2 MSTORE PUSH1 0x20 ADD PUSH1 0x60 DUP2 MSTORE PUSH1 0x20 ADD PUSH1 0x0 DUP2 MSTORE PUSH1 0x20 ADD PUSH2 0x1EFC PUSH2 0x1E96 JUMP JUMPDEST DUP2 MSTORE POP SWAP1 JUMP JUMPDEST PUSH1 0x40 MLOAD DUP1 PUSH2 0x120 ADD PUSH1 0x40 MSTORE DUP1 PUSH1 0x60 DUP2 MSTORE PUSH1 0x20 ADD PUSH1 0x60 DUP2 MSTORE PUSH1 0x20 ADD PUSH1 0x0 DUP2 MSTORE PUSH1 0x20 ADD PUSH1 0x0 ISZERO ISZERO DUP2 MSTORE PUSH1 0x20 ADD PUSH1 0x0 DUP2 MSTORE PUSH1 0x20 ADD PUSH1 0x0 PUSH20 0xFFFFFFFFFFFFFFFFFFFFFFFFFFFFFFFFFFFFFFFF AND DUP2 MSTORE PUSH1 0x20 ADD PUSH1 0x0 DUP2 MSTORE PUSH1 0x20 ADD PUSH2 0x1F5F PUSH2 0x1E96 JUMP JUMPDEST DUP2 MSTORE PUSH1 0x20 ADD PUSH1 0x60 DUP2 MSTORE POP SWAP1 JUMP JUMPDEST JUMPDEST DUP1 DUP3 GT ISZERO PUSH2 0x1F85 JUMPI PUSH1 0x0 DUP2 PUSH1 0x0 SWAP1 SSTORE POP PUSH1 0x1 ADD PUSH2 0x1F6D JUMP JUMPDEST POP SWAP1 JUMP JUMPDEST PUSH1 0x0 PUSH2 0x1F9C PUSH2 0x1F97 DUP5 PUSH2 0x2CD8 JUMP JUMPDEST PUSH2 0x2CB3 JUMP JUMPDEST SWAP1 POP DUP1 DUP4 DUP3 MSTORE PUSH1 0x20 DUP3 ADD SWAP1 POP DUP3 DUP6 PUSH1 0x20 DUP7 MUL DUP3 ADD GT ISZERO PUSH2 0x1FBF JUMPI PUSH2 0x1FBE PUSH2 0x304F JUMP JUMPDEST JUMPDEST PUSH1 0x0 JUMPDEST DUP6 DUP2 LT ISZERO PUSH2 0x1FEF JUMPI DUP2 PUSH2 0x1FD5 DUP9 DUP3 PUSH2 0x20C1 JUMP JUMPDEST DUP5 MSTORE PUSH1 0x20 DUP5 ADD SWAP4 POP PUSH1 0x20 DUP4 ADD SWAP3 POP POP PUSH1 0x1 DUP2 ADD SWAP1 POP PUSH2 0x1FC2 JUMP JUMPDEST POP POP POP SWAP4 SWAP3 POP POP POP JUMP JUMPDEST PUSH1 0x0 PUSH2 0x200C PUSH2 0x2007 DUP5 PUSH2 0x2D04 JUMP JUMPDEST PUSH2 0x2CB3 JUMP JUMPDEST SWAP1 POP DUP3 DUP2 MSTORE PUSH1 0x20 DUP2 ADD DUP5 DUP5 DUP5 ADD GT ISZERO PUSH2 0x2028 JUMPI PUSH2 0x2027 PUSH2 0x3054 JUMP JUMPDEST JUMPDEST PUSH2 0x2033 DUP5 DUP3 DUP6 PUSH2 0x2EA0 JUMP JUMPDEST POP SWAP4 SWAP3 POP POP POP JUMP JUMPDEST PUSH1 0x0 DUP2 CALLDATALOAD SWAP1 POP PUSH2 0x204A DUP2 PUSH2 0x3074 JUMP JUMPDEST SWAP3 SWAP2 POP POP JUMP JUMPDEST PUSH1 0x0 DUP3 PUSH1 0x1F DUP4 ADD SLT PUSH2 0x2065 JUMPI PUSH2 0x2064 PUSH2 0x304A JUMP JUMPDEST JUMPDEST DUP2 CALLDATALOAD PUSH2 0x2075 DUP5 DUP3 PUSH1 0x20 DUP7 ADD PUSH2 0x1F89 JUMP JUMPDEST SWAP2 POP POP SWAP3 SWAP2 POP POP JUMP JUMPDEST PUSH1 0x0 DUP2 CALLDATALOAD SWAP1 POP PUSH2 0x208D DUP2 PUSH2 0x308B JUMP JUMPDEST SWAP3 SWAP2 POP POP JUMP JUMPDEST PUSH1 0x0 DUP3 PUSH1 0x1F DUP4 ADD SLT PUSH2 0x20A8 JUMPI PUSH2 0x20A7 PUSH2 0x304A JUMP JUMPDEST JUMPDEST DUP2 CALLDATALOAD PUSH2 0x20B8 DUP5 DUP3 PUSH1 0x20 DUP7 ADD PUSH2 0x1FF9 JUMP JUMPDEST SWAP2 POP POP SWAP3 SWAP2 POP POP JUMP JUMPDEST PUSH1 0x0 DUP2 CALLDATALOAD SWAP1 POP PUSH2 0x20D0 DUP2 PUSH2 0x30A2 JUMP JUMPDEST SWAP3 SWAP2 POP POP JUMP JUMPDEST PUSH1 0x0 PUSH1 0x20 DUP3 DUP5 SUB SLT ISZERO PUSH2 0x20EC JUMPI PUSH2 0x20EB PUSH2 0x305E JUMP JUMPDEST JUMPDEST PUSH1 0x0 PUSH2 0x20FA DUP5 DUP3 DUP6 ADD PUSH2 0x203B JUMP JUMPDEST SWAP2 POP POP SWAP3 SWAP2 POP POP JUMP JUMPDEST PUSH1 0x0 PUSH1 0x20 DUP3 DUP5 SUB SLT ISZERO PUSH2 0x2119 JUMPI PUSH2 0x2118 PUSH2 0x305E JUMP JUMPDEST JUMPDEST PUSH1 0x0 DUP3 ADD CALLDATALOAD PUSH8 0xFFFFFFFFFFFFFFFF DUP2 GT ISZERO PUSH2 0x2137 JUMPI PUSH2 0x2136 PUSH2 0x3059 JUMP JUMPDEST JUMPDEST PUSH2 0x2143 DUP5 DUP3 DUP6 ADD PUSH2 0x2093 JUMP JUMPDEST SWAP2 POP POP SWAP3 SWAP2 POP POP JUMP JUMPDEST PUSH1 0x0 DUP1 PUSH1 0x0 DUP1 PUSH1 0x0 DUP1 PUSH1 0xC0 DUP8 DUP10 SUB SLT ISZERO PUSH2 0x2169 JUMPI PUSH2 0x2168 PUSH2 0x305E JUMP JUMPDEST JUMPDEST PUSH1 0x0 DUP8 ADD CALLDATALOAD PUSH8 0xFFFFFFFFFFFFFFFF DUP2 GT ISZERO PUSH2 0x2187 JUMPI PUSH2 0x2186 PUSH2 0x3059 JUMP JUMPDEST JUMPDEST PUSH2 0x2193 DUP10 DUP3 DUP11 ADD PUSH2 0x2093 JUMP JUMPDEST SWAP7 POP POP PUSH1 0x20 DUP8 ADD CALLDATALOAD PUSH8 0xFFFFFFFFFFFFFFFF DUP2 GT ISZERO PUSH2 0x21B4 JUMPI PUSH2 0x21B3 PUSH2 0x3059 JUMP JUMPDEST JUMPDEST PUSH2 0x21C0 DUP10 DUP3 DUP11 ADD PUSH2 0x2093 JUMP JUMPDEST SWAP6 POP POP PUSH1 0x40 PUSH2 0x21D1 DUP10 DUP3 DUP11 ADD PUSH2 0x207E JUMP JUMPDEST SWAP5 POP POP PUSH1 0x60 PUSH2 0x21E2 DUP10 DUP3 DUP11 ADD PUSH2 0x20C1 JUMP JUMPDEST SWAP4 POP POP PUSH1 0x80 DUP8 ADD CALLDATALOAD PUSH8 0xFFFFFFFFFFFFFFFF DUP2 GT ISZERO PUSH2 0x2203 JUMPI PUSH2 0x2202 PUSH2 0x3059 JUMP JUMPDEST JUMPDEST PUSH2 0x220F DUP10 DUP3 DUP11 ADD PUSH2 0x2093 JUMP JUMPDEST SWAP3 POP POP PUSH1 0xA0 DUP8 ADD CALLDATALOAD PUSH8 0xFFFFFFFFFFFFFFFF DUP2 GT ISZERO PUSH2 0x2230 JUMPI PUSH2 0x222F PUSH2 0x3059 JUMP JUMPDEST JUMPDEST PUSH2 0x223C DUP10 DUP3 DUP11 ADD PUSH2 0x2093 JUMP JUMPDEST SWAP2 POP POP SWAP3 SWAP6 POP SWAP3 SWAP6 POP SWAP3 SWAP6 JUMP JUMPDEST PUSH1 0x0 DUP1 PUSH1 0x0 DUP1 PUSH1 0x80 DUP6 DUP8 SUB SLT ISZERO PUSH2 0x2263 JUMPI PUSH2 0x2262 PUSH2 0x305E JUMP JUMPDEST JUMPDEST PUSH1 0x0 DUP6 ADD CALLDATALOAD PUSH8 0xFFFFFFFFFFFFFFFF DUP2 GT ISZERO PUSH2 0x2281 JUMPI PUSH2 0x2280 PUSH2 0x3059 JUMP JUMPDEST JUMPDEST PUSH2 0x228D DUP8 DUP3 DUP9 ADD PUSH2 0x2093 JUMP JUMPDEST SWAP5 POP POP PUSH1 0x20 DUP6 ADD CALLDATALOAD PUSH8 0xFFFFFFFFFFFFFFFF DUP2 GT ISZERO PUSH2 0x22AE JUMPI PUSH2 0x22AD PUSH2 0x3059 JUMP JUMPDEST JUMPDEST PUSH2 0x22BA DUP8 DUP3 DUP9 ADD PUSH2 0x2093 JUMP JUMPDEST SWAP4 POP POP PUSH1 0x40 DUP6 ADD CALLDATALOAD PUSH8 0xFFFFFFFFFFFFFFFF DUP2 GT ISZERO PUSH2 0x22DB JUMPI PUSH2 0x22DA PUSH2 0x3059 JUMP JUMPDEST JUMPDEST PUSH2 0x22E7 DUP8 DUP3 DUP9 ADD PUSH2 0x2093 JUMP JUMPDEST SWAP3 POP POP PUSH1 0x60 DUP6 ADD CALLDATALOAD PUSH8 0xFFFFFFFFFFFFFFFF DUP2 GT ISZERO PUSH2 0x2308 JUMPI PUSH2 0x2307 PUSH2 0x3059 JUMP JUMPDEST JUMPDEST PUSH2 0x2314 DUP8 DUP3 DUP9 ADD PUSH2 0x2050 JUMP JUMPDEST SWAP2 POP POP SWAP3 SWAP6 SWAP2 SWAP5 POP SWAP3 POP JUMP JUMPDEST PUSH1 0x0 PUSH1 0x20 DUP3 DUP5 SUB SLT ISZERO PUSH2 0x2336 JUMPI PUSH2 0x2335 PUSH2 0x305E JUMP JUMPDEST JUMPDEST PUSH1 0x0 PUSH2 0x2344 DUP5 DUP3 DUP6 ADD PUSH2 0x20C1 JUMP JUMPDEST SWAP2 POP POP SWAP3 SWAP2 POP POP JUMP JUMPDEST PUSH1 0x0 DUP1 PUSH1 0x40 DUP4 DUP6 SUB SLT ISZERO PUSH2 0x2364 JUMPI PUSH2 0x2363 PUSH2 0x305E JUMP JUMPDEST JUMPDEST PUSH1 0x0 PUSH2 0x2372 DUP6 DUP3 DUP7 ADD PUSH2 0x20C1 JUMP JUMPDEST SWAP3 POP POP PUSH1 0x20 PUSH2 0x2383 DUP6 DUP3 DUP7 ADD PUSH2 0x20C1 JUMP JUMPDEST SWAP2 POP POP SWAP3 POP SWAP3 SWAP1 POP JUMP JUMPDEST PUSH1 0x0 DUP1 PUSH1 0x0 DUP1 PUSH1 0x0 PUSH1 0xA0 DUP7 DUP9 SUB SLT ISZERO PUSH2 0x23A9 JUMPI PUSH2 0x23A8 PUSH2 0x305E JUMP JUMPDEST JUMPDEST PUSH1 0x0 PUSH2 0x23B7 DUP9 DUP3 DUP10 ADD PUSH2 0x20C1 JUMP JUMPDEST SWAP6 POP POP PUSH1 0x20 PUSH2 0x23C8 DUP9 DUP3 DUP10 ADD PUSH2 0x20C1 JUMP JUMPDEST SWAP5 POP POP PUSH1 0x40 DUP7 ADD CALLDATALOAD PUSH8 0xFFFFFFFFFFFFFFFF DUP2 GT ISZERO PUSH2 0x23E9 JUMPI PUSH2 0x23E8 PUSH2 0x3059 JUMP JUMPDEST JUMPDEST PUSH2 0x23F5 DUP9 DUP3 DUP10 ADD PUSH2 0x2093 JUMP JUMPDEST SWAP4 POP POP PUSH1 0x60 DUP7 ADD CALLDATALOAD PUSH8 0xFFFFFFFFFFFFFFFF DUP2 GT ISZERO PUSH2 0x2416 JUMPI PUSH2 0x2415 PUSH2 0x3059 JUMP JUMPDEST JUMPDEST PUSH2 0x2422 DUP9 DUP3 DUP10 ADD PUSH2 0x2093 JUMP JUMPDEST SWAP3 POP POP PUSH1 0x80 DUP7 ADD CALLDATALOAD PUSH8 0xFFFFFFFFFFFFFFFF DUP2 GT ISZERO PUSH2 0x2443 JUMPI PUSH2 0x2442 PUSH2 0x3059 JUMP JUMPDEST JUMPDEST PUSH2 0x244F DUP9 DUP3 DUP10 ADD PUSH2 0x2093 JUMP JUMPDEST SWAP2 POP POP SWAP3 SWAP6 POP SWAP3 SWAP6 SWAP1 SWAP4 POP JUMP JUMPDEST PUSH1 0x0 PUSH2 0x2468 DUP4 DUP4 PUSH2 0x24D2 JUMP JUMPDEST PUSH1 0x20 DUP4 ADD SWAP1 POP SWAP3 SWAP2 POP POP JUMP JUMPDEST PUSH1 0x0 PUSH2 0x2480 DUP4 DUP4 PUSH2 0x2726 JUMP JUMPDEST SWAP1 POP SWAP3 SWAP2 POP POP JUMP JUMPDEST PUSH1 0x0 PUSH2 0x2494 DUP4 DUP4 PUSH2 0x27B6 JUMP JUMPDEST SWAP1 POP SWAP3 SWAP2 POP POP JUMP JUMPDEST PUSH1 0x0 PUSH2 0x24A8 DUP4 DUP4 PUSH2 0x2A23 JUMP JUMPDEST PUSH1 0x20 DUP4 ADD SWAP1 POP SWAP3 SWAP2 POP POP JUMP JUMPDEST PUSH2 0x24BD DUP2 PUSH2 0x2E58 JUMP JUMPDEST DUP3 MSTORE POP POP JUMP JUMPDEST PUSH2 0x24CC DUP2 PUSH2 0x2E58 JUMP JUMPDEST DUP3 MSTORE POP POP JUMP JUMPDEST PUSH2 0x24DB DUP2 PUSH2 0x2E46 JUMP JUMPDEST DUP3 MSTORE POP POP JUMP JUMPDEST PUSH2 0x24EA DUP2 PUSH2 0x2E46 JUMP JUMPDEST DUP3 MSTORE POP POP JUMP JUMPDEST PUSH1 0x0 PUSH2 0x24FB DUP3 PUSH2 0x2D75 JUMP JUMPDEST PUSH2 0x2505 DUP2 DUP6 PUSH2 0x2DE0 JUMP JUMPDEST SWAP4 POP PUSH2 0x2510 DUP4 PUSH2 0x2D35 JUMP JUMPDEST DUP1 PUSH1 0x0 JUMPDEST DUP4 DUP2 LT ISZERO PUSH2 0x2541 JUMPI DUP2 MLOAD PUSH2 0x2528 DUP9 DUP3 PUSH2 0x245C JUMP JUMPDEST SWAP8 POP PUSH2 0x2533 DUP4 PUSH2 0x2DAC JUMP JUMPDEST SWAP3 POP POP PUSH1 0x1 DUP2 ADD SWAP1 POP PUSH2 0x2514 JUMP JUMPDEST POP DUP6 SWAP4 POP POP POP POP SWAP3 SWAP2 POP POP JUMP JUMPDEST PUSH1 0x0 PUSH2 0x2559 DUP3 PUSH2 0x2D80 JUMP JUMPDEST PUSH2 0x2563 DUP2 DUP6 PUSH2 0x2DF1 JUMP JUMPDEST SWAP4 POP DUP4 PUSH1 0x20 DUP3 MUL DUP6 ADD PUSH2 0x2575 DUP6 PUSH2 0x2D45 JUMP JUMPDEST DUP1 PUSH1 0x0 JUMPDEST DUP6 DUP2 LT ISZERO PUSH2 0x25B1 JUMPI DUP5 DUP5 SUB DUP10 MSTORE DUP2 MLOAD PUSH2 0x2592 DUP6 DUP3 PUSH2 0x2474 JUMP JUMPDEST SWAP5 POP PUSH2 0x259D DUP4 PUSH2 0x2DB9 JUMP JUMPDEST SWAP3 POP PUSH1 0x20 DUP11 ADD SWAP10 POP POP PUSH1 0x1 DUP2 ADD SWAP1 POP PUSH2 0x2579 JUMP JUMPDEST POP DUP3 SWAP8 POP DUP8 SWAP6 POP POP POP POP POP POP SWAP3 SWAP2 POP POP JUMP JUMPDEST PUSH1 0x0 PUSH2 0x25CE DUP3 PUSH2 0x2D8B JUMP JUMPDEST PUSH2 0x25D8 DUP2 DUP6 PUSH2 0x2E02 JUMP JUMPDEST SWAP4 POP DUP4 PUSH1 0x20 DUP3 MUL DUP6 ADD PUSH2 0x25EA DUP6 PUSH2 0x2D55 JUMP JUMPDEST DUP1 PUSH1 0x0 JUMPDEST DUP6 DUP2 LT ISZERO PUSH2 0x2626 JUMPI DUP5 DUP5 SUB DUP10 MSTORE DUP2 MLOAD PUSH2 0x2607 DUP6 DUP3 PUSH2 0x2488 JUMP JUMPDEST SWAP5 POP PUSH2 0x2612 DUP4 PUSH2 0x2DC6 JUMP JUMPDEST SWAP3 POP PUSH1 0x20 DUP11 ADD SWAP10 POP POP PUSH1 0x1 DUP2 ADD SWAP1 POP PUSH2 0x25EE JUMP JUMPDEST POP DUP3 SWAP8 POP DUP8 SWAP6 POP POP POP POP POP POP SWAP3 SWAP2 POP POP JUMP JUMPDEST PUSH1 0x0 PUSH2 0x2643 DUP3 PUSH2 0x2D96 JUMP JUMPDEST PUSH2 0x264D DUP2 DUP6 PUSH2 0x2E13 JUMP JUMPDEST SWAP4 POP PUSH2 0x2658 DUP4 PUSH2 0x2D65 JUMP JUMPDEST DUP1 PUSH1 0x0 JUMPDEST DUP4 DUP2 LT ISZERO PUSH2 0x2689 JUMPI DUP2 MLOAD PUSH2 0x2670 DUP9 DUP3 PUSH2 0x249C JUMP JUMPDEST SWAP8 POP PUSH2 0x267B DUP4 PUSH2 0x2DD3 JUMP JUMPDEST SWAP3 POP POP PUSH1 0x1 DUP2 ADD SWAP1 POP PUSH2 0x265C JUMP JUMPDEST POP DUP6 SWAP4 POP POP POP POP SWAP3 SWAP2 POP POP JUMP JUMPDEST PUSH2 0x269F DUP2 PUSH2 0x2E6A JUMP JUMPDEST DUP3 MSTORE POP POP JUMP JUMPDEST PUSH2 0x26AE DUP2 PUSH2 0x2E6A JUMP JUMPDEST DUP3 MSTORE POP POP JUMP JUMPDEST PUSH1 0x0 PUSH2 0x26BF DUP3 PUSH2 0x2DA1 JUMP JUMPDEST PUSH2 0x26C9 DUP2 DUP6 PUSH2 0x2E24 JUMP JUMPDEST SWAP4 POP PUSH2 0x26D9 DUP2 DUP6 PUSH1 0x20 DUP7 ADD PUSH2 0x2EAF JUMP JUMPDEST PUSH2 0x26E2 DUP2 PUSH2 0x3063 JUMP JUMPDEST DUP5 ADD SWAP2 POP POP SWAP3 SWAP2 POP POP JUMP JUMPDEST PUSH1 0x0 PUSH2 0x26F8 DUP3 PUSH2 0x2DA1 JUMP JUMPDEST PUSH2 0x2702 DUP2 DUP6 PUSH2 0x2E35 JUMP JUMPDEST SWAP4 POP PUSH2 0x2712 DUP2 DUP6 PUSH1 0x20 DUP7 ADD PUSH2 0x2EAF JUMP JUMPDEST PUSH2 0x271B DUP2 PUSH2 0x3063 JUMP JUMPDEST DUP5 ADD SWAP2 POP POP SWAP3 SWAP2 POP POP JUMP JUMPDEST PUSH1 0x0 PUSH1 0xC0 DUP4 ADD PUSH1 0x0 DUP4 ADD MLOAD PUSH2 0x273E PUSH1 0x0 DUP7 ADD DUP3 PUSH2 0x24B4 JUMP JUMPDEST POP PUSH1 0x20 DUP4 ADD MLOAD PUSH2 0x2751 PUSH1 0x20 DUP7 ADD DUP3 PUSH2 0x2A23 JUMP JUMPDEST POP PUSH1 0x40 DUP4 ADD MLOAD PUSH2 0x2764 PUSH1 0x40 DUP7 ADD DUP3 PUSH2 0x2A23 JUMP JUMPDEST POP PUSH1 0x60 DUP4 ADD MLOAD DUP5 DUP3 SUB PUSH1 0x60 DUP7 ADD MSTORE PUSH2 0x277C DUP3 DUP3 PUSH2 0x26B4 JUMP JUMPDEST SWAP2 POP POP PUSH1 0x80 DUP4 ADD MLOAD PUSH2 0x2791 PUSH1 0x80 DUP7 ADD DUP3 PUSH2 0x2A23 JUMP JUMPDEST POP PUSH1 0xA0 DUP4 ADD MLOAD DUP5 DUP3 SUB PUSH1 0xA0 DUP7 ADD MSTORE PUSH2 0x27A9 DUP3 DUP3 PUSH2 0x299B JUMP JUMPDEST SWAP2 POP POP DUP1 SWAP2 POP POP SWAP3 SWAP2 POP POP JUMP JUMPDEST PUSH1 0x0 PUSH2 0x120 DUP4 ADD PUSH1 0x0 DUP4 ADD MLOAD DUP5 DUP3 SUB PUSH1 0x0 DUP7 ADD MSTORE PUSH2 0x27D4 DUP3 DUP3 PUSH2 0x26B4 JUMP JUMPDEST SWAP2 POP POP PUSH1 0x20 DUP4 ADD MLOAD DUP5 DUP3 SUB PUSH1 0x20 DUP7 ADD MSTORE PUSH2 0x27EE DUP3 DUP3 PUSH2 0x26B4 JUMP JUMPDEST SWAP2 POP POP PUSH1 0x40 DUP4 ADD MLOAD PUSH2 0x2803 PUSH1 0x40 DUP7 ADD DUP3 PUSH2 0x2A23 JUMP JUMPDEST POP PUSH1 0x60 DUP4 ADD MLOAD PUSH2 0x2816 PUSH1 0x60 DUP7 ADD DUP3 PUSH2 0x2696 JUMP JUMPDEST POP PUSH1 0x80 DUP4 ADD MLOAD PUSH2 0x2829 PUSH1 0x80 DUP7 ADD DUP3 PUSH2 0x2A23 JUMP JUMPDEST POP PUSH1 0xA0 DUP4 ADD MLOAD PUSH2 0x283C PUSH1 0xA0 DUP7 ADD DUP3 PUSH2 0x24D2 JUMP JUMPDEST POP PUSH1 0xC0 DUP4 ADD MLOAD PUSH2 0x284F PUSH1 0xC0 DUP7 ADD DUP3 PUSH2 0x2A23 JUMP JUMPDEST POP PUSH1 0xE0 DUP4 ADD MLOAD DUP5 DUP3 SUB PUSH1 0xE0 DUP7 ADD MSTORE PUSH2 0x2867 DUP3 DUP3 PUSH2 0x299B JUMP JUMPDEST SWAP2 POP POP PUSH2 0x100 DUP4 ADD MLOAD DUP5 DUP3 SUB PUSH2 0x100 DUP7 ADD MSTORE PUSH2 0x2883 DUP3 DUP3 PUSH2 0x2638 JUMP JUMPDEST SWAP2 POP POP DUP1 SWAP2 POP POP SWAP3 SWAP2 POP POP JUMP JUMPDEST PUSH1 0x0 PUSH2 0x160 DUP4 ADD PUSH1 0x0 DUP4 ADD MLOAD PUSH2 0x28A9 PUSH1 0x0 DUP7 ADD DUP3 PUSH2 0x24B4 JUMP JUMPDEST POP PUSH1 0x20 DUP4 ADD MLOAD DUP5 DUP3 SUB PUSH1 0x20 DUP7 ADD MSTORE PUSH2 0x28C1 DUP3 DUP3 PUSH2 0x26B4 JUMP JUMPDEST SWAP2 POP POP PUSH1 0x40 DUP4 ADD MLOAD DUP5 DUP3 SUB PUSH1 0x40 DUP7 ADD MSTORE PUSH2 0x28DB DUP3 DUP3 PUSH2 0x26B4 JUMP JUMPDEST SWAP2 POP POP PUSH1 0x60 DUP4 ADD MLOAD DUP5 DUP3 SUB PUSH1 0x60 DUP7 ADD MSTORE PUSH2 0x28F5 DUP3 DUP3 PUSH2 0x26B4 JUMP JUMPDEST SWAP2 POP POP PUSH1 0x80 DUP4 ADD MLOAD DUP5 DUP3 SUB PUSH1 0x80 DUP7 ADD MSTORE PUSH2 0x290F DUP3 DUP3 PUSH2 0x24F0 JUMP JUMPDEST SWAP2 POP POP PUSH1 0xA0 DUP4 ADD MLOAD PUSH2 0x2924 PUSH1 0xA0 DUP7 ADD DUP3 PUSH2 0x2A23 JUMP JUMPDEST POP PUSH1 0xC0 DUP4 ADD MLOAD PUSH2 0x2937 PUSH1 0xC0 DUP7 ADD DUP3 PUSH2 0x2A23 JUMP JUMPDEST POP PUSH1 0xE0 DUP4 ADD MLOAD PUSH2 0x294A PUSH1 0xE0 DUP7 ADD DUP3 PUSH2 0x2A23 JUMP JUMPDEST POP PUSH2 0x100 DUP4 ADD MLOAD PUSH2 0x295F PUSH2 0x100 DUP7 ADD DUP3 PUSH2 0x2696 JUMP JUMPDEST POP PUSH2 0x120 DUP4 ADD MLOAD DUP5 DUP3 SUB PUSH2 0x120 DUP7 ADD MSTORE PUSH2 0x2979 DUP3 DUP3 PUSH2 0x2638 JUMP JUMPDEST SWAP2 POP POP PUSH2 0x140 DUP4 ADD MLOAD PUSH2 0x2990 PUSH2 0x140 DUP7 ADD DUP3 PUSH2 0x2A23 JUMP JUMPDEST POP DUP1 SWAP2 POP POP SWAP3 SWAP2 POP POP JUMP JUMPDEST PUSH1 0x0 PUSH1 0x40 DUP4 ADD PUSH1 0x0 DUP4 ADD MLOAD DUP5 DUP3 SUB PUSH1 0x0 DUP7 ADD MSTORE PUSH2 0x29B8 DUP3 DUP3 PUSH2 0x26B4 JUMP JUMPDEST SWAP2 POP POP PUSH1 0x20 DUP4 ADD MLOAD DUP5 DUP3 SUB PUSH1 0x20 DUP7 ADD MSTORE PUSH2 0x29D2 DUP3 DUP3 PUSH2 0x26B4 JUMP JUMPDEST SWAP2 POP POP DUP1 SWAP2 POP POP SWAP3 SWAP2 POP POP JUMP JUMPDEST PUSH1 0x0 PUSH1 0x40 DUP4 ADD PUSH1 0x0 DUP4 ADD MLOAD DUP5 DUP3 SUB PUSH1 0x0 DUP7 ADD MSTORE PUSH2 0x29FC DUP3 DUP3 PUSH2 0x26B4 JUMP JUMPDEST SWAP2 POP POP PUSH1 0x20 DUP4 ADD MLOAD DUP5 DUP3 SUB PUSH1 0x20 DUP7 ADD MSTORE PUSH2 0x2A16 DUP3 DUP3 PUSH2 0x26B4 JUMP JUMPDEST SWAP2 POP POP DUP1 SWAP2 POP POP SWAP3 SWAP2 POP POP JUMP JUMPDEST PUSH2 0x2A2C DUP2 PUSH2 0x2E96 JUMP JUMPDEST DUP3 MSTORE POP POP JUMP JUMPDEST PUSH2 0x2A3B DUP2 PUSH2 0x2E96 JUMP JUMPDEST DUP3 MSTORE POP POP JUMP JUMPDEST PUSH1 0x0 PUSH2 0x120 DUP3 ADD SWAP1 POP PUSH2 0x2A57 PUSH1 0x0 DUP4 ADD DUP13 PUSH2 0x24C3 JUMP JUMPDEST DUP2 DUP2 SUB PUSH1 0x20 DUP4 ADD MSTORE PUSH2 0x2A69 DUP2 DUP12 PUSH2 0x26ED JUMP JUMPDEST SWAP1 POP DUP2 DUP2 SUB PUSH1 0x40 DUP4 ADD MSTORE PUSH2 0x2A7D DUP2 DUP11 PUSH2 0x26ED JUMP JUMPDEST SWAP1 POP DUP2 DUP2 SUB PUSH1 0x60 DUP4 ADD MSTORE PUSH2 0x2A91 DUP2 DUP10 PUSH2 0x26ED JUMP JUMPDEST SWAP1 POP PUSH2 0x2AA0 PUSH1 0x80 DUP4 ADD DUP9 PUSH2 0x2A32 JUMP JUMPDEST PUSH2 0x2AAD PUSH1 0xA0 DUP4 ADD DUP8 PUSH2 0x2A32 JUMP JUMPDEST PUSH2 0x2ABA PUSH1 0xC0 DUP4 ADD DUP7 PUSH2 0x2A32 JUMP JUMPDEST PUSH2 0x2AC7 PUSH1 0xE0 DUP4 ADD DUP6 PUSH2 0x26A5 JUMP JUMPDEST PUSH2 0x2AD5 PUSH2 0x100 DUP4 ADD DUP5 PUSH2 0x2A32 JUMP JUMPDEST SWAP11 SWAP10 POP POP POP POP POP POP POP POP POP POP JUMP JUMPDEST PUSH1 0x0 PUSH1 0xC0 DUP3 ADD SWAP1 POP PUSH2 0x2AF8 PUSH1 0x0 DUP4 ADD DUP10 PUSH2 0x24C3 JUMP JUMPDEST PUSH2 0x2B05 PUSH1 0x20 DUP4 ADD DUP9 PUSH2 0x2A32 JUMP JUMPDEST PUSH2 0x2B12 PUSH1 0x40 DUP4 ADD DUP8 PUSH2 0x2A32 JUMP JUMPDEST DUP2 DUP2 SUB PUSH1 0x60 DUP4 ADD MSTORE PUSH2 0x2B24 DUP2 DUP7 PUSH2 0x26ED JUMP JUMPDEST SWAP1 POP PUSH2 0x2B33 PUSH1 0x80 DUP4 ADD DUP6 PUSH2 0x2A32 JUMP JUMPDEST DUP2 DUP2 SUB PUSH1 0xA0 DUP4 ADD MSTORE PUSH2 0x2B45 DUP2 DUP5 PUSH2 0x29DF JUMP JUMPDEST SWAP1 POP SWAP8 SWAP7 POP POP POP POP POP POP POP JUMP JUMPDEST PUSH1 0x0 PUSH1 0x20 DUP3 ADD SWAP1 POP DUP2 DUP2 SUB PUSH1 0x0 DUP4 ADD MSTORE PUSH2 0x2B6C DUP2 DUP5 PUSH2 0x254E JUMP JUMPDEST SWAP1 POP SWAP3 SWAP2 POP POP JUMP JUMPDEST PUSH1 0x0 PUSH1 0x20 DUP3 ADD SWAP1 POP DUP2 DUP2 SUB PUSH1 0x0 DUP4 ADD MSTORE PUSH2 0x2B8E DUP2 DUP5 PUSH2 0x25C3 JUMP JUMPDEST SWAP1 POP SWAP3 SWAP2 POP POP JUMP JUMPDEST PUSH1 0x0 PUSH2 0x100 DUP3 ADD SWAP1 POP DUP2 DUP2 SUB PUSH1 0x0 DUP4 ADD MSTORE PUSH2 0x2BB1 DUP2 DUP12 PUSH2 0x26ED JUMP JUMPDEST SWAP1 POP DUP2 DUP2 SUB PUSH1 0x20 DUP4 ADD MSTORE PUSH2 0x2BC5 DUP2 DUP11 PUSH2 0x26ED JUMP JUMPDEST SWAP1 POP PUSH2 0x2BD4 PUSH1 0x40 DUP4 ADD DUP10 PUSH2 0x2A32 JUMP JUMPDEST PUSH2 0x2BE1 PUSH1 0x60 DUP4 ADD DUP9 PUSH2 0x26A5 JUMP JUMPDEST PUSH2 0x2BEE PUSH1 0x80 DUP4 ADD DUP8 PUSH2 0x2A32 JUMP JUMPDEST PUSH2 0x2BFB PUSH1 0xA0 DUP4 ADD DUP7 PUSH2 0x24E1 JUMP JUMPDEST PUSH2 0x2C08 PUSH1 0xC0 DUP4 ADD DUP6 PUSH2 0x2A32 JUMP JUMPDEST DUP2 DUP2 SUB PUSH1 0xE0 DUP4 ADD MSTORE PUSH2 0x2C1A DUP2 DUP5 PUSH2 0x29DF JUMP JUMPDEST SWAP1 POP SWAP10 SWAP9 POP POP POP POP POP POP POP POP POP JUMP JUMPDEST PUSH1 0x0 PUSH1 0xC0 DUP3 ADD SWAP1 POP DUP2 DUP2 SUB PUSH1 0x0 DUP4 ADD MSTORE PUSH2 0x2C43 DUP2 DUP10 PUSH2 0x26ED JUMP JUMPDEST SWAP1 POP PUSH2 0x2C52 PUSH1 0x20 DUP4 ADD DUP9 PUSH2 0x2A32 JUMP JUMPDEST PUSH2 0x2C5F PUSH1 0x40 DUP4 ADD DUP8 PUSH2 0x24C3 JUMP JUMPDEST PUSH2 0x2C6C PUSH1 0x60 DUP4 ADD DUP7 PUSH2 0x2A32 JUMP JUMPDEST PUSH2 0x2C79 PUSH1 0x80 DUP4 ADD DUP6 PUSH2 0x2A32 JUMP JUMPDEST PUSH2 0x2C86 PUSH1 0xA0 DUP4 ADD DUP5 PUSH2 0x2A32 JUMP JUMPDEST SWAP8 SWAP7 POP POP POP POP POP POP POP JUMP JUMPDEST PUSH1 0x0 PUSH1 0x20 DUP3 ADD SWAP1 POP DUP2 DUP2 SUB PUSH1 0x0 DUP4 ADD MSTORE PUSH2 0x2CAB DUP2 DUP5 PUSH2 0x2890 JUMP JUMPDEST SWAP1 POP SWAP3 SWAP2 POP POP JUMP JUMPDEST PUSH1 0x0 PUSH2 0x2CBD PUSH2 0x2CCE JUMP JUMPDEST SWAP1 POP PUSH2 0x2CC9 DUP3 DUP3 PUSH2 0x2F14 JUMP JUMPDEST SWAP2 SWAP1 POP JUMP JUMPDEST PUSH1 0x0 PUSH1 0x40 MLOAD SWAP1 POP SWAP1 JUMP JUMPDEST PUSH1 0x0 PUSH8 0xFFFFFFFFFFFFFFFF DUP3 GT ISZERO PUSH2 0x2CF3 JUMPI PUSH2 0x2CF2 PUSH2 0x301B JUMP JUMPDEST JUMPDEST PUSH1 0x20 DUP3 MUL SWAP1 POP PUSH1 0x20 DUP2 ADD SWAP1 POP SWAP2 SWAP1 POP JUMP JUMPDEST PUSH1 0x0 PUSH8 0xFFFFFFFFFFFFFFFF DUP3 GT ISZERO PUSH2 0x2D1F JUMPI PUSH2 0x2D1E PUSH2 0x301B JUMP JUMPDEST JUMPDEST PUSH2 0x2D28 DUP3 PUSH2 0x3063 JUMP JUMPDEST SWAP1 POP PUSH1 0x20 DUP2 ADD SWAP1 POP SWAP2 SWAP1 POP JUMP JUMPDEST PUSH1 0x0 DUP2 SWAP1 POP PUSH1 0x20 DUP3 ADD SWAP1 POP SWAP2 SWAP1 POP JUMP JUMPDEST PUSH1 0x0 DUP2 SWAP1 POP PUSH1 0x20 DUP3 ADD SWAP1 POP SWAP2 SWAP1 POP JUMP JUMPDEST PUSH1 0x0 DUP2 SWAP1 POP PUSH1 0x20 DUP3 ADD SWAP1 POP SWAP2 SWAP1 POP JUMP JUMPDEST PUSH1 0x0 DUP2 SWAP1 POP PUSH1 0x20 DUP3 ADD SWAP1 POP SWAP2 SWAP1 POP JUMP JUMPDEST PUSH1 0x0 DUP2 MLOAD SWAP1 POP SWAP2 SWAP1 POP JUMP JUMPDEST PUSH1 0x0 DUP2 MLOAD SWAP1 POP SWAP2 SWAP1 POP JUMP JUMPDEST PUSH1 0x0 DUP2 MLOAD SWAP1 POP SWAP2 SWAP1 POP JUMP JUMPDEST PUSH1 0x0 DUP2 MLOAD SWAP1 POP SWAP2 SWAP1 POP JUMP JUMPDEST PUSH1 0x0 DUP2 MLOAD SWAP1 POP SWAP2 SWAP1 POP JUMP JUMPDEST PUSH1 0x0 PUSH1 0x20 DUP3 ADD SWAP1 POP SWAP2 SWAP1 POP JUMP JUMPDEST PUSH1 0x0 PUSH1 0x20 DUP3 ADD SWAP1 POP SWAP2 SWAP1 POP JUMP JUMPDEST PUSH1 0x0 PUSH1 0x20 DUP3 ADD SWAP1 POP SWAP2 SWAP1 POP JUMP JUMPDEST PUSH1 0x0 PUSH1 0x20 DUP3 ADD SWAP1 POP SWAP2 SWAP1 POP JUMP JUMPDEST PUSH1 0x0 DUP3 DUP3 MSTORE PUSH1 0x20 DUP3 ADD SWAP1 POP SWAP3 SWAP2 POP POP JUMP JUMPDEST PUSH1 0x0 DUP3 DUP3 MSTORE PUSH1 0x20 DUP3 ADD SWAP1 POP SWAP3 SWAP2 POP POP JUMP JUMPDEST PUSH1 0x0 DUP3 DUP3 MSTORE PUSH1 0x20 DUP3 ADD SWAP1 POP SWAP3 SWAP2 POP POP JUMP JUMPDEST PUSH1 0x0 DUP3 DUP3 MSTORE PUSH1 0x20 DUP3 ADD SWAP1 POP SWAP3 SWAP2 POP POP JUMP JUMPDEST PUSH1 0x0 DUP3 DUP3 MSTORE PUSH1 0x20 DUP3 ADD SWAP1 POP SWAP3 SWAP2 POP POP JUMP JUMPDEST PUSH1 0x0 DUP3 DUP3 MSTORE PUSH1 0x20 DUP3 ADD SWAP1 POP SWAP3 SWAP2 POP POP JUMP JUMPDEST PUSH1 0x0 PUSH2 0x2E51 DUP3 PUSH2 0x2E76 JUMP JUMPDEST SWAP1 POP SWAP2 SWAP1 POP JUMP JUMPDEST PUSH1 0x0 PUSH2 0x2E63 DUP3 PUSH2 0x2E76 JUMP JUMPDEST SWAP1 POP SWAP2 SWAP1 POP JUMP JUMPDEST PUSH1 0x0 DUP2 ISZERO ISZERO SWAP1 POP SWAP2 SWAP1 POP JUMP JUMPDEST PUSH1 0x0 PUSH20 0xFFFFFFFFFFFFFFFFFFFFFFFFFFFFFFFFFFFFFFFF DUP3 AND SWAP1 POP SWAP2 SWAP1 POP JUMP JUMPDEST PUSH1 0x0 DUP2 SWAP1 POP SWAP2 SWAP1 POP JUMP JUMPDEST DUP3 DUP2 DUP4 CALLDATACOPY PUSH1 0x0 DUP4 DUP4 ADD MSTORE POP POP POP JUMP JUMPDEST PUSH1 0x0 JUMPDEST DUP4 DUP2 LT ISZERO PUSH2 0x2ECD JUMPI DUP1 DUP3 ADD MLOAD DUP2 DUP5 ADD MSTORE PUSH1 0x20 DUP2 ADD SWAP1 POP PUSH2 0x2EB2 JUMP JUMPDEST DUP4 DUP2 GT ISZERO PUSH2 0x2EDC JUMPI PUSH1 0x0 DUP5 DUP5 ADD MSTORE JUMPDEST POP POP POP POP JUMP JUMPDEST PUSH1 0x0 PUSH1 0x2 DUP3 DIV SWAP1 POP PUSH1 0x1 DUP3 AND DUP1 PUSH2 0x2EFA JUMPI PUSH1 0x7F DUP3 AND SWAP2 POP JUMPDEST PUSH1 0x20 DUP3 LT DUP2 EQ ISZERO PUSH2 0x2F0E JUMPI PUSH2 0x2F0D PUSH2 0x2FBD JUMP JUMPDEST JUMPDEST POP SWAP2 SWAP1 POP JUMP JUMPDEST PUSH2 0x2F1D DUP3 PUSH2 0x3063 JUMP JUMPDEST DUP2 ADD DUP2 DUP2 LT PUSH8 0xFFFFFFFFFFFFFFFF DUP3 GT OR ISZERO PUSH2 0x2F3C JUMPI PUSH2 0x2F3B PUSH2 0x301B JUMP JUMPDEST JUMPDEST DUP1 PUSH1 0x40 MSTORE POP POP POP JUMP JUMPDEST PUSH1 0x0 PUSH2 0x2F50 DUP3 PUSH2 0x2E96 JUMP JUMPDEST SWAP2 POP PUSH32 0xFFFFFFFFFFFFFFFFFFFFFFFFFFFFFFFFFFFFFFFFFFFFFFFFFFFFFFFFFFFFFFFF DUP3 EQ ISZERO PUSH2 0x2F83 JUMPI PUSH2 0x2F82 PUSH2 0x2F8E JUMP JUMPDEST JUMPDEST PUSH1 0x1 DUP3 ADD SWAP1 POP SWAP2 SWAP1 POP JUMP JUMPDEST PUSH32 0x4E487B7100000000000000000000000000000000000000000000000000000000 PUSH1 0x0 MSTORE PUSH1 0x11 PUSH1 0x4 MSTORE PUSH1 0x24 PUSH1 0x0 REVERT JUMPDEST PUSH32 0x4E487B7100000000000000000000000000000000000000000000000000000000 PUSH1 0x0 MSTORE PUSH1 0x22 PUSH1 0x4 MSTORE PUSH1 0x24 PUSH1 0x0 REVERT JUMPDEST PUSH32 0x4E487B7100000000000000000000000000000000000000000000000000000000 PUSH1 0x0 MSTORE PUSH1 0x32 PUSH1 0x4 MSTORE PUSH1 0x24 PUSH1 0x0 REVERT JUMPDEST PUSH32 0x4E487B7100000000000000000000000000000000000000000000000000000000 PUSH1 0x0 MSTORE PUSH1 0x41 PUSH1 0x4 MSTORE PUSH1 0x24 PUSH1 0x0 REVERT JUMPDEST PUSH1 0x0 DUP1 REVERT JUMPDEST PUSH1 0x0 DUP1 REVERT JUMPDEST PUSH1 0x0 DUP1 REVERT JUMPDEST PUSH1 0x0 DUP1 REVERT JUMPDEST PUSH1 0x0 DUP1 REVERT JUMPDEST PUSH1 0x0 PUSH1 0x1F NOT PUSH1 0x1F DUP4 ADD AND SWAP1 POP SWAP2 SWAP1 POP JUMP JUMPDEST PUSH2 0x307D DUP2 PUSH2 0x2E46 JUMP JUMPDEST DUP2 EQ PUSH2 0x3088 JUMPI PUSH1 0x0 DUP1 REVERT JUMPDEST POP JUMP JUMPDEST PUSH2 0x3094 DUP2 PUSH2 0x2E6A JUMP JUMPDEST DUP2 EQ PUSH2 0x309F JUMPI PUSH1 0x0 DUP1 REVERT JUMPDEST POP JUMP JUMPDEST PUSH2 0x30AB DUP2 PUSH2 0x2E96 JUMP JUMPDEST DUP2 EQ PUSH2 0x30B6 JUMPI PUSH1 0x0 DUP1 REVERT JUMPDEST POP JUMP INVALID LOG2 PUSH5 0x6970667358 0x22 SLT KECCAK256 PUSH13 0x7657B0D8148A78EF1FA63137F8 XOR ISZERO PUSH30 0xF0EEB07CA7CB30C60069FB0B6C52D064736F6C6343000807003300000000 "
				},
				"gasEstimates": {
					"creation": {
						"codeDepositCost": "2505400",
						"executionCost": "2703",
						"totalCost": "2508103"
					},
					"external": {
						"Comment(uint256,uint256)": "infinite",
						"Post(uint256,uint256)": "infinite",
						"User(address)": "infinite",
						"communityProfile(uint256)": "infinite",
						"createComment(uint256,uint256,string,string,string)": "infinite",
						"createCommunity(string)": "infinite",
						"createPost(string,string,bool,uint256,string,string)": "infinite",
						"createUser(string,string,string,uint256[])": "infinite",
						"getComPost(uint256)": "infinite",
						"getPostComment(uint256)": "infinite",
						"getUserProfile(address)": "infinite",
						"joinCommuinty(uint256)": "infinite"
					}
				},
				"methodIdentifiers": {
					"Comment(uint256,uint256)": "cdc66c5b",
					"Post(uint256,uint256)": "11f0f0da",
					"User(address)": "230eb9c6",
					"communityProfile(uint256)": "20ce2fc1",
					"createComment(uint256,uint256,string,string,string)": "f1c5031a",
					"createCommunity(string)": "e6792922",
					"createPost(string,string,bool,uint256,string,string)": "f5596078",
					"createUser(string,string,string,uint256[])": "75d8e58d",
					"getComPost(uint256)": "0814fce7",
					"getPostComment(uint256)": "69d31fc2",
					"getUserProfile(address)": "987ee156",
					"joinCommuinty(uint256)": "88120643"
				}
			},
			"storageLayout": {
				"storage": [
					{
						"astId": 4,
						"contract": "contracts/Kobis.sol:Kosbis",
						"label": "communityCounter",
						"offset": 0,
						"slot": "0",
						"type": "t_uint256"
					},
					{
						"astId": 118,
						"contract": "contracts/Kobis.sol:Kosbis",
						"label": "communityProfile",
						"offset": 0,
						"slot": "1",
						"type": "t_mapping(t_uint256,t_struct(CommunityContent)37_storage)"
					},
					{
						"astId": 123,
						"contract": "contracts/Kobis.sol:Kosbis",
						"label": "User",
						"offset": 0,
						"slot": "2",
						"type": "t_mapping(t_address,t_struct(Profile)62_storage)"
					},
					{
						"astId": 129,
						"contract": "contracts/Kobis.sol:Kosbis",
						"label": "Post",
						"offset": 0,
						"slot": "3",
						"type": "t_mapping(t_uint256,t_array(t_struct(PostContent)83_storage)dyn_storage)"
					},
					{
						"astId": 135,
						"contract": "contracts/Kobis.sol:Kosbis",
						"label": "Comment",
						"offset": 0,
						"slot": "4",
						"type": "t_mapping(t_uint256,t_array(t_struct(CommentContent)102_storage)dyn_storage)"
					}
				],
				"types": {
					"t_address": {
						"encoding": "inplace",
						"label": "address",
						"numberOfBytes": "20"
					},
					"t_address_payable": {
						"encoding": "inplace",
						"label": "address payable",
						"numberOfBytes": "20"
					},
					"t_array(t_address)dyn_storage": {
						"base": "t_address",
						"encoding": "dynamic_array",
						"label": "address[]",
						"numberOfBytes": "32"
					},
					"t_array(t_struct(CommentContent)102_storage)dyn_storage": {
						"base": "t_struct(CommentContent)102_storage",
						"encoding": "dynamic_array",
						"label": "struct Kosbis.CommentContent[]",
						"numberOfBytes": "32"
					},
					"t_array(t_struct(PostContent)83_storage)dyn_storage": {
						"base": "t_struct(PostContent)83_storage",
						"encoding": "dynamic_array",
						"label": "struct Kosbis.PostContent[]",
						"numberOfBytes": "32"
					},
					"t_array(t_struct(advert)17_storage)dyn_storage": {
						"base": "t_struct(advert)17_storage",
						"encoding": "dynamic_array",
						"label": "struct Kosbis.advert[]",
						"numberOfBytes": "32"
					},
					"t_array(t_uint256)dyn_storage": {
						"base": "t_uint256",
						"encoding": "dynamic_array",
						"label": "uint256[]",
						"numberOfBytes": "32"
					},
					"t_bool": {
						"encoding": "inplace",
						"label": "bool",
						"numberOfBytes": "1"
					},
					"t_mapping(t_address,t_struct(Profile)62_storage)": {
						"encoding": "mapping",
						"key": "t_address",
						"label": "mapping(address => struct Kosbis.Profile)",
						"numberOfBytes": "32",
						"value": "t_struct(Profile)62_storage"
					},
					"t_mapping(t_uint256,t_array(t_struct(CommentContent)102_storage)dyn_storage)": {
						"encoding": "mapping",
						"key": "t_uint256",
						"label": "mapping(uint256 => struct Kosbis.CommentContent[])",
						"numberOfBytes": "32",
						"value": "t_array(t_struct(CommentContent)102_storage)dyn_storage"
					},
					"t_mapping(t_uint256,t_array(t_struct(PostContent)83_storage)dyn_storage)": {
						"encoding": "mapping",
						"key": "t_uint256",
						"label": "mapping(uint256 => struct Kosbis.PostContent[])",
						"numberOfBytes": "32",
						"value": "t_array(t_struct(PostContent)83_storage)dyn_storage"
					},
					"t_mapping(t_uint256,t_struct(CommunityContent)37_storage)": {
						"encoding": "mapping",
						"key": "t_uint256",
						"label": "mapping(uint256 => struct Kosbis.CommunityContent)",
						"numberOfBytes": "32",
						"value": "t_struct(CommunityContent)37_storage"
					},
					"t_string_storage": {
						"encoding": "bytes",
						"label": "string",
						"numberOfBytes": "32"
					},
					"t_struct(CommentContent)102_storage": {
						"encoding": "inplace",
						"label": "struct Kosbis.CommentContent",
						"members": [
							{
								"astId": 90,
								"contract": "contracts/Kobis.sol:Kosbis",
								"label": "author",
								"offset": 0,
								"slot": "0",
								"type": "t_address_payable"
							},
							{
								"astId": 92,
								"contract": "contracts/Kobis.sol:Kosbis",
								"label": "comId",
								"offset": 0,
								"slot": "1",
								"type": "t_uint256"
							},
							{
								"astId": 94,
								"contract": "contracts/Kobis.sol:Kosbis",
								"label": "postId",
								"offset": 0,
								"slot": "2",
								"type": "t_uint256"
							},
							{
								"astId": 96,
								"contract": "contracts/Kobis.sol:Kosbis",
								"label": "post",
								"offset": 0,
								"slot": "3",
								"type": "t_string_storage"
							},
							{
								"astId": 98,
								"contract": "contracts/Kobis.sol:Kosbis",
								"label": "time",
								"offset": 0,
								"slot": "4",
								"type": "t_uint256"
							},
							{
								"astId": 101,
								"contract": "contracts/Kobis.sol:Kosbis",
								"label": "file",
								"offset": 0,
								"slot": "5",
								"type": "t_struct(fileContent)88_storage"
							}
						],
						"numberOfBytes": "224"
					},
					"t_struct(CommunityContent)37_storage": {
						"encoding": "inplace",
						"label": "struct Kosbis.CommunityContent",
						"members": [
							{
								"astId": 19,
								"contract": "contracts/Kobis.sol:Kosbis",
								"label": "name",
								"offset": 0,
								"slot": "0",
								"type": "t_string_storage"
							},
							{
								"astId": 21,
								"contract": "contracts/Kobis.sol:Kosbis",
								"label": "uid",
								"offset": 0,
								"slot": "1",
								"type": "t_uint256"
							},
							{
								"astId": 23,
								"contract": "contracts/Kobis.sol:Kosbis",
								"label": "admin",
								"offset": 0,
								"slot": "2",
								"type": "t_address_payable"
							},
							{
								"astId": 26,
								"contract": "contracts/Kobis.sol:Kosbis",
								"label": "members",
								"offset": 0,
								"slot": "3",
								"type": "t_array(t_address)dyn_storage"
							},
							{
								"astId": 28,
								"contract": "contracts/Kobis.sol:Kosbis",
								"label": "membersNum",
								"offset": 0,
								"slot": "4",
								"type": "t_uint256"
							},
							{
								"astId": 32,
								"contract": "contracts/Kobis.sol:Kosbis",
								"label": "advertisement",
								"offset": 0,
								"slot": "5",
								"type": "t_array(t_struct(advert)17_storage)dyn_storage"
							},
							{
								"astId": 34,
								"contract": "contracts/Kobis.sol:Kosbis",
								"label": "adPrice",
								"offset": 0,
								"slot": "6",
								"type": "t_uint256"
							},
							{
								"astId": 36,
								"contract": "contracts/Kobis.sol:Kosbis",
								"label": "postNum",
								"offset": 0,
								"slot": "7",
								"type": "t_uint256"
							}
						],
						"numberOfBytes": "256"
					},
					"t_struct(PostContent)83_storage": {
						"encoding": "inplace",
						"label": "struct Kosbis.PostContent",
						"members": [
							{
								"astId": 64,
								"contract": "contracts/Kobis.sol:Kosbis",
								"label": "name",
								"offset": 0,
								"slot": "0",
								"type": "t_string_storage"
							},
							{
								"astId": 66,
								"contract": "contracts/Kobis.sol:Kosbis",
								"label": "post",
								"offset": 0,
								"slot": "1",
								"type": "t_string_storage"
							},
							{
								"astId": 68,
								"contract": "contracts/Kobis.sol:Kosbis",
								"label": "time",
								"offset": 0,
								"slot": "2",
								"type": "t_uint256"
							},
							{
								"astId": 70,
								"contract": "contracts/Kobis.sol:Kosbis",
								"label": "hideIdentity",
								"offset": 0,
								"slot": "3",
								"type": "t_bool"
							},
							{
								"astId": 72,
								"contract": "contracts/Kobis.sol:Kosbis",
								"label": "comNum",
								"offset": 0,
								"slot": "4",
								"type": "t_uint256"
							},
							{
								"astId": 74,
								"contract": "contracts/Kobis.sol:Kosbis",
								"label": "author",
								"offset": 0,
								"slot": "5",
								"type": "t_address"
							},
							{
								"astId": 76,
								"contract": "contracts/Kobis.sol:Kosbis",
								"label": "community",
								"offset": 0,
								"slot": "6",
								"type": "t_uint256"
							},
							{
								"astId": 79,
								"contract": "contracts/Kobis.sol:Kosbis",
								"label": "file",
								"offset": 0,
								"slot": "7",
								"type": "t_struct(fileContent)88_storage"
							},
							{
								"astId": 82,
								"contract": "contracts/Kobis.sol:Kosbis",
								"label": "comments",
								"offset": 0,
								"slot": "9",
								"type": "t_array(t_uint256)dyn_storage"
							}
						],
						"numberOfBytes": "320"
					},
					"t_struct(Profile)62_storage": {
						"encoding": "inplace",
						"label": "struct Kosbis.Profile",
						"members": [
							{
								"astId": 39,
								"contract": "contracts/Kobis.sol:Kosbis",
								"label": "addr",
								"offset": 0,
								"slot": "0",
								"type": "t_address_payable"
							},
							{
								"astId": 41,
								"contract": "contracts/Kobis.sol:Kosbis",
								"label": "name",
								"offset": 0,
								"slot": "1",
								"type": "t_string_storage"
							},
							{
								"astId": 43,
								"contract": "contracts/Kobis.sol:Kosbis",
								"label": "bio",
								"offset": 0,
								"slot": "2",
								"type": "t_string_storage"
							},
							{
								"astId": 45,
								"contract": "contracts/Kobis.sol:Kosbis",
								"label": "img",
								"offset": 0,
								"slot": "3",
								"type": "t_string_storage"
							},
							{
								"astId": 48,
								"contract": "contracts/Kobis.sol:Kosbis",
								"label": "followers",
								"offset": 0,
								"slot": "4",
								"type": "t_array(t_address)dyn_storage"
							},
							{
								"astId": 50,
								"contract": "contracts/Kobis.sol:Kosbis",
								"label": "followersNum",
								"offset": 0,
								"slot": "5",
								"type": "t_uint256"
							},
							{
								"astId": 52,
								"contract": "contracts/Kobis.sol:Kosbis",
								"label": "balance",
								"offset": 0,
								"slot": "6",
								"type": "t_uint256"
							},
							{
								"astId": 54,
								"contract": "contracts/Kobis.sol:Kosbis",
								"label": "postNum",
								"offset": 0,
								"slot": "7",
								"type": "t_uint256"
							},
							{
								"astId": 56,
								"contract": "contracts/Kobis.sol:Kosbis",
								"label": "verfied",
								"offset": 0,
								"slot": "8",
								"type": "t_bool"
							},
							{
								"astId": 59,
								"contract": "contracts/Kobis.sol:Kosbis",
								"label": "communities",
								"offset": 0,
								"slot": "9",
								"type": "t_array(t_uint256)dyn_storage"
							},
							{
								"astId": 61,
								"contract": "contracts/Kobis.sol:Kosbis",
								"label": "communityNum",
								"offset": 0,
								"slot": "10",
								"type": "t_uint256"
							}
						],
						"numberOfBytes": "352"
					},
					"t_struct(advert)17_storage": {
						"encoding": "inplace",
						"label": "struct Kosbis.advert",
						"members": [
							{
								"astId": 6,
								"contract": "contracts/Kobis.sol:Kosbis",
								"label": "name",
								"offset": 0,
								"slot": "0",
								"type": "t_string_storage"
							},
							{
								"astId": 8,
								"contract": "contracts/Kobis.sol:Kosbis",
								"label": "desc",
								"offset": 0,
								"slot": "1",
								"type": "t_string_storage"
							},
							{
								"astId": 10,
								"contract": "contracts/Kobis.sol:Kosbis",
								"label": "image",
								"offset": 0,
								"slot": "2",
								"type": "t_string_storage"
							},
							{
								"astId": 12,
								"contract": "contracts/Kobis.sol:Kosbis",
								"label": "link",
								"offset": 0,
								"slot": "3",
								"type": "t_string_storage"
							},
							{
								"astId": 14,
								"contract": "contracts/Kobis.sol:Kosbis",
								"label": "addr",
								"offset": 0,
								"slot": "4",
								"type": "t_address_payable"
							},
							{
								"astId": 16,
								"contract": "contracts/Kobis.sol:Kosbis",
								"label": "price",
								"offset": 0,
								"slot": "5",
								"type": "t_uint256"
							}
						],
						"numberOfBytes": "192"
					},
					"t_struct(fileContent)88_storage": {
						"encoding": "inplace",
						"label": "struct Kosbis.fileContent",
						"members": [
							{
								"astId": 85,
								"contract": "contracts/Kobis.sol:Kosbis",
								"label": "fileIpfs",
								"offset": 0,
								"slot": "0",
								"type": "t_string_storage"
							},
							{
								"astId": 87,
								"contract": "contracts/Kobis.sol:Kosbis",
								"label": "fileType",
								"offset": 0,
								"slot": "1",
								"type": "t_string_storage"
							}
						],
						"numberOfBytes": "64"
					},
					"t_uint256": {
						"encoding": "inplace",
						"label": "uint256",
						"numberOfBytes": "32"
					}
				}
			},
			"userdoc": {
				"kind": "user",
				"methods": {},
				"version": 1
			}
		}
	}
}