{
	"contracts/Kobis.sol": {
		"Kosbis": {
			"abi": [
				{
					"inputs": [
						{
							"internalType": "address",
							"name": "",
							"type": "address"
						},
						{
							"internalType": "uint256",
							"name": "",
							"type": "uint256"
						}
					],
					"name": "Comment",
					"outputs": [
						{
							"internalType": "address payable",
							"name": "author",
							"type": "address"
						},
						{
							"internalType": "uint256",
							"name": "comId",
							"type": "uint256"
						},
						{
							"internalType": "uint256",
							"name": "postId",
							"type": "uint256"
						},
						{
							"internalType": "string",
							"name": "post",
							"type": "string"
						},
						{
							"internalType": "uint256",
							"name": "time",
							"type": "uint256"
						},
						{
							"components": [
								{
									"internalType": "string",
									"name": "fileIpfs",
									"type": "string"
								},
								{
									"internalType": "string",
									"name": "fileType",
									"type": "string"
								}
							],
							"internalType": "struct Kosbis.fileContent",
							"name": "file",
							"type": "tuple"
						}
					],
					"stateMutability": "view",
					"type": "function"
				},
				{
					"inputs": [
						{
							"internalType": "uint256",
							"name": "",
							"type": "uint256"
						},
						{
							"internalType": "uint256",
							"name": "",
							"type": "uint256"
						}
					],
					"name": "Post",
					"outputs": [
						{
							"internalType": "string",
							"name": "name",
							"type": "string"
						},
						{
							"internalType": "string",
							"name": "post",
							"type": "string"
						},
						{
							"internalType": "uint256",
							"name": "time",
							"type": "uint256"
						},
						{
							"internalType": "bool",
							"name": "hideIdentity",
							"type": "bool"
						},
						{
							"internalType": "address",
							"name": "author",
							"type": "address"
						},
						{
							"internalType": "uint256",
							"name": "community",
							"type": "uint256"
						},
						{
							"components": [
								{
									"internalType": "string",
									"name": "fileIpfs",
									"type": "string"
								},
								{
									"internalType": "string",
									"name": "fileType",
									"type": "string"
								}
							],
							"internalType": "struct Kosbis.fileContent",
							"name": "file",
							"type": "tuple"
						}
					],
					"stateMutability": "view",
					"type": "function"
				},
				{
					"inputs": [
						{
							"internalType": "address",
							"name": "",
							"type": "address"
						}
					],
					"name": "User",
					"outputs": [
						{
							"internalType": "address payable",
							"name": "addr",
							"type": "address"
						},
						{
							"internalType": "string",
							"name": "name",
							"type": "string"
						},
						{
							"internalType": "string",
							"name": "bio",
							"type": "string"
						},
						{
							"internalType": "string",
							"name": "img",
							"type": "string"
						},
						{
							"internalType": "uint256",
							"name": "followersNum",
							"type": "uint256"
						},
						{
							"internalType": "uint256",
							"name": "balance",
							"type": "uint256"
						},
						{
							"internalType": "uint256",
							"name": "postNum",
							"type": "uint256"
						},
						{
							"internalType": "bool",
							"name": "verfied",
							"type": "bool"
						},
						{
							"internalType": "uint256",
							"name": "communityNum",
							"type": "uint256"
						}
					],
					"stateMutability": "view",
					"type": "function"
				},
				{
					"inputs": [
						{
							"internalType": "uint256",
							"name": "",
							"type": "uint256"
						}
					],
					"name": "communityProfile",
					"outputs": [
						{
							"internalType": "string",
							"name": "name",
							"type": "string"
						},
						{
							"internalType": "uint256",
							"name": "uid",
							"type": "uint256"
						},
						{
							"internalType": "address payable",
							"name": "admin",
							"type": "address"
						},
						{
							"internalType": "uint256",
							"name": "membersNum",
							"type": "uint256"
						},
						{
							"internalType": "uint256",
							"name": "adPrice",
							"type": "uint256"
						},
						{
							"internalType": "uint256",
							"name": "postNum",
							"type": "uint256"
						}
					],
					"stateMutability": "view",
					"type": "function"
				},
				{
					"inputs": [
						{
							"internalType": "uint256",
							"name": "comId",
							"type": "uint256"
						},
						{
							"internalType": "uint256",
							"name": "postId",
							"type": "uint256"
						},
						{
							"internalType": "string",
							"name": "text",
							"type": "string"
						},
						{
							"internalType": "string",
							"name": "fileIpfs",
							"type": "string"
						},
						{
							"internalType": "string",
							"name": "fileType",
							"type": "string"
						}
					],
					"name": "createComment",
					"outputs": [],
					"stateMutability": "nonpayable",
					"type": "function"
				},
				{
					"inputs": [
						{
							"internalType": "string",
							"name": "name",
							"type": "string"
						}
					],
					"name": "createCommunity",
					"outputs": [],
					"stateMutability": "nonpayable",
					"type": "function"
				},
				{
					"inputs": [
						{
							"internalType": "string",
							"name": "name",
							"type": "string"
						},
						{
							"internalType": "string",
							"name": "post",
							"type": "string"
						},
						{
							"internalType": "bool",
							"name": "hideIdentity",
							"type": "bool"
						},
						{
							"internalType": "uint256",
							"name": "community",
							"type": "uint256"
						},
						{
							"internalType": "string",
							"name": "fileIpfs",
							"type": "string"
						},
						{
							"internalType": "string",
							"name": "fileType",
							"type": "string"
						}
					],
					"name": "createPost",
					"outputs": [],
					"stateMutability": "nonpayable",
					"type": "function"
				},
				{
					"inputs": [
						{
							"internalType": "string",
							"name": "name",
							"type": "string"
						},
						{
							"internalType": "string",
							"name": "bio",
							"type": "string"
						},
						{
							"internalType": "string",
							"name": "img",
							"type": "string"
						},
						{
							"internalType": "uint256[]",
							"name": "communities",
							"type": "uint256[]"
						}
					],
					"name": "createUser",
					"outputs": [],
					"stateMutability": "nonpayable",
					"type": "function"
				}
			],
			"devdoc": {
				"kind": "dev",
				"methods": {},
				"title": "Kosbis",
				"version": 1
			},
			"evm": {
				"assembly": "    /* \"contracts/Kobis.sol\":95:3936  contract Kosbis {... */\n  mstore(0x40, 0x80)\n  callvalue\n  dup1\n  iszero\n  tag_1\n  jumpi\n  0x00\n  dup1\n  revert\ntag_1:\n  pop\n  dataSize(sub_0)\n  dup1\n  dataOffset(sub_0)\n  0x00\n  codecopy\n  0x00\n  return\nstop\n\nsub_0: assembly {\n        /* \"contracts/Kobis.sol\":95:3936  contract Kosbis {... */\n      mstore(0x40, 0x80)\n      callvalue\n      dup1\n      iszero\n      tag_1\n      jumpi\n      0x00\n      dup1\n      revert\n    tag_1:\n      pop\n      jumpi(tag_2, lt(calldatasize, 0x04))\n      shr(0xe0, calldataload(0x00))\n      dup1\n      0xce74aea9\n      gt\n      tag_11\n      jumpi\n      dup1\n      0xce74aea9\n      eq\n      tag_7\n      jumpi\n      dup1\n      0xe6792922\n      eq\n      tag_8\n      jumpi\n      dup1\n      0xf1c5031a\n      eq\n      tag_9\n      jumpi\n      dup1\n      0xf5596078\n      eq\n      tag_10\n      jumpi\n      jump(tag_2)\n    tag_11:\n      dup1\n      0x11f0f0da\n      eq\n      tag_3\n      jumpi\n      dup1\n      0x20ce2fc1\n      eq\n      tag_4\n      jumpi\n      dup1\n      0x230eb9c6\n      eq\n      tag_5\n      jumpi\n      dup1\n      0x75d8e58d\n      eq\n      tag_6\n      jumpi\n    tag_2:\n      0x00\n      dup1\n      revert\n        /* \"contracts/Kobis.sol\":1661:1707  mapping(uint256 => PostContent []) public Post */\n    tag_3:\n      tag_12\n      0x04\n      dup1\n      calldatasize\n      sub\n      dup2\n      add\n      swap1\n      tag_13\n      swap2\n      swap1\n      tag_14\n      jump\t// in\n    tag_13:\n      tag_15\n      jump\t// in\n    tag_12:\n      mload(0x40)\n      tag_16\n      swap8\n      swap7\n      swap6\n      swap5\n      swap4\n      swap3\n      swap2\n      swap1\n      tag_17\n      jump\t// in\n    tag_16:\n      mload(0x40)\n      dup1\n      swap2\n      sub\n      swap1\n      return\n        /* \"contracts/Kobis.sol\":1550:1610  mapping(uint256 => CommunityContent) public communityProfile */\n    tag_4:\n      tag_18\n      0x04\n      dup1\n      calldatasize\n      sub\n      dup2\n      add\n      swap1\n      tag_19\n      swap2\n      swap1\n      tag_20\n      jump\t// in\n    tag_19:\n      tag_21\n      jump\t// in\n    tag_18:\n      mload(0x40)\n      tag_22\n      swap7\n      swap6\n      swap5\n      swap4\n      swap3\n      swap2\n      swap1\n      tag_23\n      jump\t// in\n    tag_22:\n      mload(0x40)\n      dup1\n      swap2\n      sub\n      swap1\n      return\n        /* \"contracts/Kobis.sol\":1616:1655  mapping(address => Profile) public User */\n    tag_5:\n      tag_24\n      0x04\n      dup1\n      calldatasize\n      sub\n      dup2\n      add\n      swap1\n      tag_25\n      swap2\n      swap1\n      tag_26\n      jump\t// in\n    tag_25:\n      tag_27\n      jump\t// in\n    tag_24:\n      mload(0x40)\n      tag_28\n      swap10\n      swap9\n      swap8\n      swap7\n      swap6\n      swap5\n      swap4\n      swap3\n      swap2\n      swap1\n      tag_29\n      jump\t// in\n    tag_28:\n      mload(0x40)\n      dup1\n      swap2\n      sub\n      swap1\n      return\n        /* \"contracts/Kobis.sol\":1772:2275  function createUser(... */\n    tag_6:\n      tag_30\n      0x04\n      dup1\n      calldatasize\n      sub\n      dup2\n      add\n      swap1\n      tag_31\n      swap2\n      swap1\n      tag_32\n      jump\t// in\n    tag_31:\n      tag_33\n      jump\t// in\n    tag_30:\n      stop\n        /* \"contracts/Kobis.sol\":1713:1765  mapping(address => CommentContent []) public Comment */\n    tag_7:\n      tag_34\n      0x04\n      dup1\n      calldatasize\n      sub\n      dup2\n      add\n      swap1\n      tag_35\n      swap2\n      swap1\n      tag_36\n      jump\t// in\n    tag_35:\n      tag_37\n      jump\t// in\n    tag_34:\n      mload(0x40)\n      tag_38\n      swap7\n      swap6\n      swap5\n      swap4\n      swap3\n      swap2\n      swap1\n      tag_39\n      jump\t// in\n    tag_38:\n      mload(0x40)\n      dup1\n      swap2\n      sub\n      swap1\n      return\n        /* \"contracts/Kobis.sol\":2281:2557  function createCommunity (... */\n    tag_8:\n      tag_40\n      0x04\n      dup1\n      calldatasize\n      sub\n      dup2\n      add\n      swap1\n      tag_41\n      swap2\n      swap1\n      tag_42\n      jump\t// in\n    tag_41:\n      tag_43\n      jump\t// in\n    tag_40:\n      stop\n        /* \"contracts/Kobis.sol\":3318:3933  function createComment(... */\n    tag_9:\n      tag_44\n      0x04\n      dup1\n      calldatasize\n      sub\n      dup2\n      add\n      swap1\n      tag_45\n      swap2\n      swap1\n      tag_46\n      jump\t// in\n    tag_45:\n      tag_47\n      jump\t// in\n    tag_44:\n      stop\n        /* \"contracts/Kobis.sol\":2563:3312  function createPost(... */\n    tag_10:\n      tag_48\n      0x04\n      dup1\n      calldatasize\n      sub\n      dup2\n      add\n      swap1\n      tag_49\n      swap2\n      swap1\n      tag_50\n      jump\t// in\n    tag_49:\n      tag_51\n      jump\t// in\n    tag_48:\n      stop\n        /* \"contracts/Kobis.sol\":1661:1707  mapping(uint256 => PostContent []) public Post */\n    tag_15:\n      mstore(0x20, 0x03)\n      dup2\n      0x00\n      mstore\n      keccak256(0x00, 0x40)\n      dup2\n      dup2\n      sload\n      dup2\n      lt\n      tag_52\n      jumpi\n      0x00\n      dup1\n      revert\n    tag_52:\n      swap1\n      0x00\n      mstore\n      keccak256(0x00, 0x20)\n      swap1\n      0x08\n      mul\n      add\n      0x00\n      swap2\n      pop\n      swap2\n      pop\n      pop\n      dup1\n      0x00\n      add\n      dup1\n      sload\n      tag_54\n      swap1\n      tag_55\n      jump\t// in\n    tag_54:\n      dup1\n      0x1f\n      add\n      0x20\n      dup1\n      swap2\n      div\n      mul\n      0x20\n      add\n      mload(0x40)\n      swap1\n      dup2\n      add\n      0x40\n      mstore\n      dup1\n      swap3\n      swap2\n      swap1\n      dup2\n      dup2\n      mstore\n      0x20\n      add\n      dup3\n      dup1\n      sload\n      tag_56\n      swap1\n      tag_55\n      jump\t// in\n    tag_56:\n      dup1\n      iszero\n      tag_57\n      jumpi\n      dup1\n      0x1f\n      lt\n      tag_58\n      jumpi\n      0x0100\n      dup1\n      dup4\n      sload\n      div\n      mul\n      dup4\n      mstore\n      swap2\n      0x20\n      add\n      swap2\n      jump(tag_57)\n    tag_58:\n      dup3\n      add\n      swap2\n      swap1\n      0x00\n      mstore\n      keccak256(0x00, 0x20)\n      swap1\n    tag_59:\n      dup2\n      sload\n      dup2\n      mstore\n      swap1\n      0x01\n      add\n      swap1\n      0x20\n      add\n      dup1\n      dup4\n      gt\n      tag_59\n      jumpi\n      dup3\n      swap1\n      sub\n      0x1f\n      and\n      dup3\n      add\n      swap2\n    tag_57:\n      pop\n      pop\n      pop\n      pop\n      pop\n      swap1\n      dup1\n      0x01\n      add\n      dup1\n      sload\n      tag_60\n      swap1\n      tag_55\n      jump\t// in\n    tag_60:\n      dup1\n      0x1f\n      add\n      0x20\n      dup1\n      swap2\n      div\n      mul\n      0x20\n      add\n      mload(0x40)\n      swap1\n      dup2\n      add\n      0x40\n      mstore\n      dup1\n      swap3\n      swap2\n      swap1\n      dup2\n      dup2\n      mstore\n      0x20\n      add\n      dup3\n      dup1\n      sload\n      tag_61\n      swap1\n      tag_55\n      jump\t// in\n    tag_61:\n      dup1\n      iszero\n      tag_62\n      jumpi\n      dup1\n      0x1f\n      lt\n      tag_63\n      jumpi\n      0x0100\n      dup1\n      dup4\n      sload\n      div\n      mul\n      dup4\n      mstore\n      swap2\n      0x20\n      add\n      swap2\n      jump(tag_62)\n    tag_63:\n      dup3\n      add\n      swap2\n      swap1\n      0x00\n      mstore\n      keccak256(0x00, 0x20)\n      swap1\n    tag_64:\n      dup2\n      sload\n      dup2\n      mstore\n      swap1\n      0x01\n      add\n      swap1\n      0x20\n      add\n      dup1\n      dup4\n      gt\n      tag_64\n      jumpi\n      dup3\n      swap1\n      sub\n      0x1f\n      and\n      dup3\n      add\n      swap2\n    tag_62:\n      pop\n      pop\n      pop\n      pop\n      pop\n      swap1\n      dup1\n      0x02\n      add\n      sload\n      swap1\n      dup1\n      0x03\n      add\n      0x00\n      swap1\n      sload\n      swap1\n      0x0100\n      exp\n      swap1\n      div\n      0xff\n      and\n      swap1\n      dup1\n      0x03\n      add\n      0x01\n      swap1\n      sload\n      swap1\n      0x0100\n      exp\n      swap1\n      div\n      0xffffffffffffffffffffffffffffffffffffffff\n      and\n      swap1\n      dup1\n      0x04\n      add\n      sload\n      swap1\n      dup1\n      0x05\n      add\n      mload(0x40)\n      dup1\n      0x40\n      add\n      0x40\n      mstore\n      swap1\n      dup2\n      0x00\n      dup3\n      add\n      dup1\n      sload\n      tag_65\n      swap1\n      tag_55\n      jump\t// in\n    tag_65:\n      dup1\n      0x1f\n      add\n      0x20\n      dup1\n      swap2\n      div\n      mul\n      0x20\n      add\n      mload(0x40)\n      swap1\n      dup2\n      add\n      0x40\n      mstore\n      dup1\n      swap3\n      swap2\n      swap1\n      dup2\n      dup2\n      mstore\n      0x20\n      add\n      dup3\n      dup1\n      sload\n      tag_66\n      swap1\n      tag_55\n      jump\t// in\n    tag_66:\n      dup1\n      iszero\n      tag_67\n      jumpi\n      dup1\n      0x1f\n      lt\n      tag_68\n      jumpi\n      0x0100\n      dup1\n      dup4\n      sload\n      div\n      mul\n      dup4\n      mstore\n      swap2\n      0x20\n      add\n      swap2\n      jump(tag_67)\n    tag_68:\n      dup3\n      add\n      swap2\n      swap1\n      0x00\n      mstore\n      keccak256(0x00, 0x20)\n      swap1\n    tag_69:\n      dup2\n      sload\n      dup2\n      mstore\n      swap1\n      0x01\n      add\n      swap1\n      0x20\n      add\n      dup1\n      dup4\n      gt\n      tag_69\n      jumpi\n      dup3\n      swap1\n      sub\n      0x1f\n      and\n      dup3\n      add\n      swap2\n    tag_67:\n      pop\n      pop\n      pop\n      pop\n      pop\n      dup2\n      mstore\n      0x20\n      add\n      0x01\n      dup3\n      add\n      dup1\n      sload\n      tag_70\n      swap1\n      tag_55\n      jump\t// in\n    tag_70:\n      dup1\n      0x1f\n      add\n      0x20\n      dup1\n      swap2\n      div\n      mul\n      0x20\n      add\n      mload(0x40)\n      swap1\n      dup2\n      add\n      0x40\n      mstore\n      dup1\n      swap3\n      swap2\n      swap1\n      dup2\n      dup2\n      mstore\n      0x20\n      add\n      dup3\n      dup1\n      sload\n      tag_71\n      swap1\n      tag_55\n      jump\t// in\n    tag_71:\n      dup1\n      iszero\n      tag_72\n      jumpi\n      dup1\n      0x1f\n      lt\n      tag_73\n      jumpi\n      0x0100\n      dup1\n      dup4\n      sload\n      div\n      mul\n      dup4\n      mstore\n      swap2\n      0x20\n      add\n      swap2\n      jump(tag_72)\n    tag_73:\n      dup3\n      add\n      swap2\n      swap1\n      0x00\n      mstore\n      keccak256(0x00, 0x20)\n      swap1\n    tag_74:\n      dup2\n      sload\n      dup2\n      mstore\n      swap1\n      0x01\n      add\n      swap1\n      0x20\n      add\n      dup1\n      dup4\n      gt\n      tag_74\n      jumpi\n      dup3\n      swap1\n      sub\n      0x1f\n      and\n      dup3\n      add\n      swap2\n    tag_72:\n      pop\n      pop\n      pop\n      pop\n      pop\n      dup2\n      mstore\n      pop\n      pop\n      swap1\n      pop\n      dup8\n      jump\t// out\n        /* \"contracts/Kobis.sol\":1550:1610  mapping(uint256 => CommunityContent) public communityProfile */\n    tag_21:\n      mstore(0x20, 0x01)\n      dup1\n      0x00\n      mstore\n      keccak256(0x00, 0x40)\n      0x00\n      swap2\n      pop\n      swap1\n      pop\n      dup1\n      0x00\n      add\n      dup1\n      sload\n      tag_75\n      swap1\n      tag_55\n      jump\t// in\n    tag_75:\n      dup1\n      0x1f\n      add\n      0x20\n      dup1\n      swap2\n      div\n      mul\n      0x20\n      add\n      mload(0x40)\n      swap1\n      dup2\n      add\n      0x40\n      mstore\n      dup1\n      swap3\n      swap2\n      swap1\n      dup2\n      dup2\n      mstore\n      0x20\n      add\n      dup3\n      dup1\n      sload\n      tag_76\n      swap1\n      tag_55\n      jump\t// in\n    tag_76:\n      dup1\n      iszero\n      tag_77\n      jumpi\n      dup1\n      0x1f\n      lt\n      tag_78\n      jumpi\n      0x0100\n      dup1\n      dup4\n      sload\n      div\n      mul\n      dup4\n      mstore\n      swap2\n      0x20\n      add\n      swap2\n      jump(tag_77)\n    tag_78:\n      dup3\n      add\n      swap2\n      swap1\n      0x00\n      mstore\n      keccak256(0x00, 0x20)\n      swap1\n    tag_79:\n      dup2\n      sload\n      dup2\n      mstore\n      swap1\n      0x01\n      add\n      swap1\n      0x20\n      add\n      dup1\n      dup4\n      gt\n      tag_79\n      jumpi\n      dup3\n      swap1\n      sub\n      0x1f\n      and\n      dup3\n      add\n      swap2\n    tag_77:\n      pop\n      pop\n      pop\n      pop\n      pop\n      swap1\n      dup1\n      0x01\n      add\n      sload\n      swap1\n      dup1\n      0x02\n      add\n      0x00\n      swap1\n      sload\n      swap1\n      0x0100\n      exp\n      swap1\n      div\n      0xffffffffffffffffffffffffffffffffffffffff\n      and\n      swap1\n      dup1\n      0x04\n      add\n      sload\n      swap1\n      dup1\n      0x06\n      add\n      sload\n      swap1\n      dup1\n      0x07\n      add\n      sload\n      swap1\n      pop\n      dup7\n      jump\t// out\n        /* \"contracts/Kobis.sol\":1616:1655  mapping(address => Profile) public User */\n    tag_27:\n      mstore(0x20, 0x02)\n      dup1\n      0x00\n      mstore\n      keccak256(0x00, 0x40)\n      0x00\n      swap2\n      pop\n      swap1\n      pop\n      dup1\n      0x00\n      add\n      0x00\n      swap1\n      sload\n      swap1\n      0x0100\n      exp\n      swap1\n      div\n      0xffffffffffffffffffffffffffffffffffffffff\n      and\n      swap1\n      dup1\n      0x01\n      add\n      dup1\n      sload\n      tag_80\n      swap1\n      tag_55\n      jump\t// in\n    tag_80:\n      dup1\n      0x1f\n      add\n      0x20\n      dup1\n      swap2\n      div\n      mul\n      0x20\n      add\n      mload(0x40)\n      swap1\n      dup2\n      add\n      0x40\n      mstore\n      dup1\n      swap3\n      swap2\n      swap1\n      dup2\n      dup2\n      mstore\n      0x20\n      add\n      dup3\n      dup1\n      sload\n      tag_81\n      swap1\n      tag_55\n      jump\t// in\n    tag_81:\n      dup1\n      iszero\n      tag_82\n      jumpi\n      dup1\n      0x1f\n      lt\n      tag_83\n      jumpi\n      0x0100\n      dup1\n      dup4\n      sload\n      div\n      mul\n      dup4\n      mstore\n      swap2\n      0x20\n      add\n      swap2\n      jump(tag_82)\n    tag_83:\n      dup3\n      add\n      swap2\n      swap1\n      0x00\n      mstore\n      keccak256(0x00, 0x20)\n      swap1\n    tag_84:\n      dup2\n      sload\n      dup2\n      mstore\n      swap1\n      0x01\n      add\n      swap1\n      0x20\n      add\n      dup1\n      dup4\n      gt\n      tag_84\n      jumpi\n      dup3\n      swap1\n      sub\n      0x1f\n      and\n      dup3\n      add\n      swap2\n    tag_82:\n      pop\n      pop\n      pop\n      pop\n      pop\n      swap1\n      dup1\n      0x02\n      add\n      dup1\n      sload\n      tag_85\n      swap1\n      tag_55\n      jump\t// in\n    tag_85:\n      dup1\n      0x1f\n      add\n      0x20\n      dup1\n      swap2\n      div\n      mul\n      0x20\n      add\n      mload(0x40)\n      swap1\n      dup2\n      add\n      0x40\n      mstore\n      dup1\n      swap3\n      swap2\n      swap1\n      dup2\n      dup2\n      mstore\n      0x20\n      add\n      dup3\n      dup1\n      sload\n      tag_86\n      swap1\n      tag_55\n      jump\t// in\n    tag_86:\n      dup1\n      iszero\n      tag_87\n      jumpi\n      dup1\n      0x1f\n      lt\n      tag_88\n      jumpi\n      0x0100\n      dup1\n      dup4\n      sload\n      div\n      mul\n      dup4\n      mstore\n      swap2\n      0x20\n      add\n      swap2\n      jump(tag_87)\n    tag_88:\n      dup3\n      add\n      swap2\n      swap1\n      0x00\n      mstore\n      keccak256(0x00, 0x20)\n      swap1\n    tag_89:\n      dup2\n      sload\n      dup2\n      mstore\n      swap1\n      0x01\n      add\n      swap1\n      0x20\n      add\n      dup1\n      dup4\n      gt\n      tag_89\n      jumpi\n      dup3\n      swap1\n      sub\n      0x1f\n      and\n      dup3\n      add\n      swap2\n    tag_87:\n      pop\n      pop\n      pop\n      pop\n      pop\n      swap1\n      dup1\n      0x03\n      add\n      dup1\n      sload\n      tag_90\n      swap1\n      tag_55\n      jump\t// in\n    tag_90:\n      dup1\n      0x1f\n      add\n      0x20\n      dup1\n      swap2\n      div\n      mul\n      0x20\n      add\n      mload(0x40)\n      swap1\n      dup2\n      add\n      0x40\n      mstore\n      dup1\n      swap3\n      swap2\n      swap1\n      dup2\n      dup2\n      mstore\n      0x20\n      add\n      dup3\n      dup1\n      sload\n      tag_91\n      swap1\n      tag_55\n      jump\t// in\n    tag_91:\n      dup1\n      iszero\n      tag_92\n      jumpi\n      dup1\n      0x1f\n      lt\n      tag_93\n      jumpi\n      0x0100\n      dup1\n      dup4\n      sload\n      div\n      mul\n      dup4\n      mstore\n      swap2\n      0x20\n      add\n      swap2\n      jump(tag_92)\n    tag_93:\n      dup3\n      add\n      swap2\n      swap1\n      0x00\n      mstore\n      keccak256(0x00, 0x20)\n      swap1\n    tag_94:\n      dup2\n      sload\n      dup2\n      mstore\n      swap1\n      0x01\n      add\n      swap1\n      0x20\n      add\n      dup1\n      dup4\n      gt\n      tag_94\n      jumpi\n      dup3\n      swap1\n      sub\n      0x1f\n      and\n      dup3\n      add\n      swap2\n    tag_92:\n      pop\n      pop\n      pop\n      pop\n      pop\n      swap1\n      dup1\n      0x05\n      add\n      sload\n      swap1\n      dup1\n      0x06\n      add\n      sload\n      swap1\n      dup1\n      0x07\n      add\n      sload\n      swap1\n      dup1\n      0x08\n      add\n      0x00\n      swap1\n      sload\n      swap1\n      0x0100\n      exp\n      swap1\n      div\n      0xff\n      and\n      swap1\n      dup1\n      0x0a\n      add\n      sload\n      swap1\n      pop\n      dup10\n      jump\t// out\n        /* \"contracts/Kobis.sol\":1772:2275  function createUser(... */\n    tag_33:\n        /* \"contracts/Kobis.sol\":1968:1978  msg.sender */\n      caller\n        /* \"contracts/Kobis.sol\":1936:1940  User */\n      0x02\n        /* \"contracts/Kobis.sol\":1936:1952  User[msg.sender] */\n      0x00\n        /* \"contracts/Kobis.sol\":1941:1951  msg.sender */\n      caller\n        /* \"contracts/Kobis.sol\":1936:1952  User[msg.sender] */\n      0xffffffffffffffffffffffffffffffffffffffff\n      and\n      0xffffffffffffffffffffffffffffffffffffffff\n      and\n      dup2\n      mstore\n      0x20\n      add\n      swap1\n      dup2\n      mstore\n      0x20\n      add\n      0x00\n      keccak256\n        /* \"contracts/Kobis.sol\":1936:1957  User[msg.sender].addr */\n      0x00\n      add\n      0x00\n        /* \"contracts/Kobis.sol\":1936:1979  User[msg.sender].addr = payable(msg.sender) */\n      0x0100\n      exp\n      dup2\n      sload\n      dup2\n      0xffffffffffffffffffffffffffffffffffffffff\n      mul\n      not\n      and\n      swap1\n      dup4\n      0xffffffffffffffffffffffffffffffffffffffff\n      and\n      mul\n      or\n      swap1\n      sstore\n      pop\n        /* \"contracts/Kobis.sol\":2013:2017  name */\n      dup4\n        /* \"contracts/Kobis.sol\":1989:1993  User */\n      0x02\n        /* \"contracts/Kobis.sol\":1989:2005  User[msg.sender] */\n      0x00\n        /* \"contracts/Kobis.sol\":1994:2004  msg.sender */\n      caller\n        /* \"contracts/Kobis.sol\":1989:2005  User[msg.sender] */\n      0xffffffffffffffffffffffffffffffffffffffff\n      and\n      0xffffffffffffffffffffffffffffffffffffffff\n      and\n      dup2\n      mstore\n      0x20\n      add\n      swap1\n      dup2\n      mstore\n      0x20\n      add\n      0x00\n      keccak256\n        /* \"contracts/Kobis.sol\":1989:2010  User[msg.sender].name */\n      0x01\n      add\n        /* \"contracts/Kobis.sol\":1989:2017  User[msg.sender].name = name */\n      swap1\n      dup1\n      mload\n      swap1\n      0x20\n      add\n      swap1\n      tag_96\n      swap3\n      swap2\n      swap1\n      tag_97\n      jump\t// in\n    tag_96:\n      pop\n        /* \"contracts/Kobis.sol\":2050:2053  bio */\n      dup3\n        /* \"contracts/Kobis.sol\":2027:2031  User */\n      0x02\n        /* \"contracts/Kobis.sol\":2027:2043  User[msg.sender] */\n      0x00\n        /* \"contracts/Kobis.sol\":2032:2042  msg.sender */\n      caller\n        /* \"contracts/Kobis.sol\":2027:2043  User[msg.sender] */\n      0xffffffffffffffffffffffffffffffffffffffff\n      and\n      0xffffffffffffffffffffffffffffffffffffffff\n      and\n      dup2\n      mstore\n      0x20\n      add\n      swap1\n      dup2\n      mstore\n      0x20\n      add\n      0x00\n      keccak256\n        /* \"contracts/Kobis.sol\":2027:2047  User[msg.sender].bio */\n      0x02\n      add\n        /* \"contracts/Kobis.sol\":2027:2053  User[msg.sender].bio = bio */\n      swap1\n      dup1\n      mload\n      swap1\n      0x20\n      add\n      swap1\n      tag_98\n      swap3\n      swap2\n      swap1\n      tag_97\n      jump\t// in\n    tag_98:\n      pop\n        /* \"contracts/Kobis.sol\":2086:2089  img */\n      dup2\n        /* \"contracts/Kobis.sol\":2063:2067  User */\n      0x02\n        /* \"contracts/Kobis.sol\":2063:2079  User[msg.sender] */\n      0x00\n        /* \"contracts/Kobis.sol\":2068:2078  msg.sender */\n      caller\n        /* \"contracts/Kobis.sol\":2063:2079  User[msg.sender] */\n      0xffffffffffffffffffffffffffffffffffffffff\n      and\n      0xffffffffffffffffffffffffffffffffffffffff\n      and\n      dup2\n      mstore\n      0x20\n      add\n      swap1\n      dup2\n      mstore\n      0x20\n      add\n      0x00\n      keccak256\n        /* \"contracts/Kobis.sol\":2063:2083  User[msg.sender].img */\n      0x03\n      add\n        /* \"contracts/Kobis.sol\":2063:2089  User[msg.sender].img = img */\n      swap1\n      dup1\n      mload\n      swap1\n      0x20\n      add\n      swap1\n      tag_99\n      swap3\n      swap2\n      swap1\n      tag_97\n      jump\t// in\n    tag_99:\n      pop\n        /* \"contracts/Kobis.sol\":2130:2141  communities */\n      dup1\n        /* \"contracts/Kobis.sol\":2099:2103  User */\n      0x02\n        /* \"contracts/Kobis.sol\":2099:2115  User[msg.sender] */\n      0x00\n        /* \"contracts/Kobis.sol\":2104:2114  msg.sender */\n      caller\n        /* \"contracts/Kobis.sol\":2099:2115  User[msg.sender] */\n      0xffffffffffffffffffffffffffffffffffffffff\n      and\n      0xffffffffffffffffffffffffffffffffffffffff\n      and\n      dup2\n      mstore\n      0x20\n      add\n      swap1\n      dup2\n      mstore\n      0x20\n      add\n      0x00\n      keccak256\n        /* \"contracts/Kobis.sol\":2099:2127  User[msg.sender].communities */\n      0x09\n      add\n        /* \"contracts/Kobis.sol\":2099:2141  User[msg.sender].communities = communities */\n      swap1\n      dup1\n      mload\n      swap1\n      0x20\n      add\n      swap1\n      tag_100\n      swap3\n      swap2\n      swap1\n      tag_101\n      jump\t// in\n    tag_100:\n      pop\n        /* \"contracts/Kobis.sol\":2156:2165  uint256 i */\n      0x00\n        /* \"contracts/Kobis.sol\":2152:2269  for(uint256 i = 0; i < communities.length; i++){... */\n    tag_102:\n        /* \"contracts/Kobis.sol\":2175:2186  communities */\n      dup2\n        /* \"contracts/Kobis.sol\":2175:2193  communities.length */\n      mload\n        /* \"contracts/Kobis.sol\":2171:2172  i */\n      dup2\n        /* \"contracts/Kobis.sol\":2171:2193  i < communities.length */\n      lt\n        /* \"contracts/Kobis.sol\":2152:2269  for(uint256 i = 0; i < communities.length; i++){... */\n      iszero\n      tag_103\n      jumpi\n        /* \"contracts/Kobis.sol\":2213:2229  communityProfile */\n      0x01\n        /* \"contracts/Kobis.sol\":2213:2245  communityProfile[communities[i]] */\n      0x00\n        /* \"contracts/Kobis.sol\":2230:2241  communities */\n      dup4\n        /* \"contracts/Kobis.sol\":2242:2243  i */\n      dup4\n        /* \"contracts/Kobis.sol\":2230:2244  communities[i] */\n      dup2\n      mload\n      dup2\n      lt\n      tag_105\n      jumpi\n      tag_106\n      tag_107\n      jump\t// in\n    tag_106:\n    tag_105:\n      0x20\n      mul\n      0x20\n      add\n      add\n      mload\n        /* \"contracts/Kobis.sol\":2213:2245  communityProfile[communities[i]] */\n      dup2\n      mstore\n      0x20\n      add\n      swap1\n      dup2\n      mstore\n      0x20\n      add\n      0x00\n      keccak256\n        /* \"contracts/Kobis.sol\":2213:2256  communityProfile[communities[i]].membersNum */\n      0x04\n      add\n      0x00\n        /* \"contracts/Kobis.sol\":2213:2258  communityProfile[communities[i]].membersNum++ */\n      dup2\n      sload\n      dup1\n      swap3\n      swap2\n      swap1\n      tag_108\n      swap1\n      tag_109\n      jump\t// in\n    tag_108:\n      swap2\n      swap1\n      pop\n      sstore\n      pop\n        /* \"contracts/Kobis.sol\":2195:2198  i++ */\n      dup1\n      dup1\n      tag_110\n      swap1\n      tag_109\n      jump\t// in\n    tag_110:\n      swap2\n      pop\n      pop\n        /* \"contracts/Kobis.sol\":2152:2269  for(uint256 i = 0; i < communities.length; i++){... */\n      jump(tag_102)\n    tag_103:\n      pop\n        /* \"contracts/Kobis.sol\":1772:2275  function createUser(... */\n      pop\n      pop\n      pop\n      pop\n      jump\t// out\n        /* \"contracts/Kobis.sol\":1713:1765  mapping(address => CommentContent []) public Comment */\n    tag_37:\n      mstore(0x20, 0x04)\n      dup2\n      0x00\n      mstore\n      keccak256(0x00, 0x40)\n      dup2\n      dup2\n      sload\n      dup2\n      lt\n      tag_111\n      jumpi\n      0x00\n      dup1\n      revert\n    tag_111:\n      swap1\n      0x00\n      mstore\n      keccak256(0x00, 0x20)\n      swap1\n      0x07\n      mul\n      add\n      0x00\n      swap2\n      pop\n      swap2\n      pop\n      pop\n      dup1\n      0x00\n      add\n      0x00\n      swap1\n      sload\n      swap1\n      0x0100\n      exp\n      swap1\n      div\n      0xffffffffffffffffffffffffffffffffffffffff\n      and\n      swap1\n      dup1\n      0x01\n      add\n      sload\n      swap1\n      dup1\n      0x02\n      add\n      sload\n      swap1\n      dup1\n      0x03\n      add\n      dup1\n      sload\n      tag_113\n      swap1\n      tag_55\n      jump\t// in\n    tag_113:\n      dup1\n      0x1f\n      add\n      0x20\n      dup1\n      swap2\n      div\n      mul\n      0x20\n      add\n      mload(0x40)\n      swap1\n      dup2\n      add\n      0x40\n      mstore\n      dup1\n      swap3\n      swap2\n      swap1\n      dup2\n      dup2\n      mstore\n      0x20\n      add\n      dup3\n      dup1\n      sload\n      tag_114\n      swap1\n      tag_55\n      jump\t// in\n    tag_114:\n      dup1\n      iszero\n      tag_115\n      jumpi\n      dup1\n      0x1f\n      lt\n      tag_116\n      jumpi\n      0x0100\n      dup1\n      dup4\n      sload\n      div\n      mul\n      dup4\n      mstore\n      swap2\n      0x20\n      add\n      swap2\n      jump(tag_115)\n    tag_116:\n      dup3\n      add\n      swap2\n      swap1\n      0x00\n      mstore\n      keccak256(0x00, 0x20)\n      swap1\n    tag_117:\n      dup2\n      sload\n      dup2\n      mstore\n      swap1\n      0x01\n      add\n      swap1\n      0x20\n      add\n      dup1\n      dup4\n      gt\n      tag_117\n      jumpi\n      dup3\n      swap1\n      sub\n      0x1f\n      and\n      dup3\n      add\n      swap2\n    tag_115:\n      pop\n      pop\n      pop\n      pop\n      pop\n      swap1\n      dup1\n      0x04\n      add\n      sload\n      swap1\n      dup1\n      0x05\n      add\n      mload(0x40)\n      dup1\n      0x40\n      add\n      0x40\n      mstore\n      swap1\n      dup2\n      0x00\n      dup3\n      add\n      dup1\n      sload\n      tag_118\n      swap1\n      tag_55\n      jump\t// in\n    tag_118:\n      dup1\n      0x1f\n      add\n      0x20\n      dup1\n      swap2\n      div\n      mul\n      0x20\n      add\n      mload(0x40)\n      swap1\n      dup2\n      add\n      0x40\n      mstore\n      dup1\n      swap3\n      swap2\n      swap1\n      dup2\n      dup2\n      mstore\n      0x20\n      add\n      dup3\n      dup1\n      sload\n      tag_119\n      swap1\n      tag_55\n      jump\t// in\n    tag_119:\n      dup1\n      iszero\n      tag_120\n      jumpi\n      dup1\n      0x1f\n      lt\n      tag_121\n      jumpi\n      0x0100\n      dup1\n      dup4\n      sload\n      div\n      mul\n      dup4\n      mstore\n      swap2\n      0x20\n      add\n      swap2\n      jump(tag_120)\n    tag_121:\n      dup3\n      add\n      swap2\n      swap1\n      0x00\n      mstore\n      keccak256(0x00, 0x20)\n      swap1\n    tag_122:\n      dup2\n      sload\n      dup2\n      mstore\n      swap1\n      0x01\n      add\n      swap1\n      0x20\n      add\n      dup1\n      dup4\n      gt\n      tag_122\n      jumpi\n      dup3\n      swap1\n      sub\n      0x1f\n      and\n      dup3\n      add\n      swap2\n    tag_120:\n      pop\n      pop\n      pop\n      pop\n      pop\n      dup2\n      mstore\n      0x20\n      add\n      0x01\n      dup3\n      add\n      dup1\n      sload\n      tag_123\n      swap1\n      tag_55\n      jump\t// in\n    tag_123:\n      dup1\n      0x1f\n      add\n      0x20\n      dup1\n      swap2\n      div\n      mul\n      0x20\n      add\n      mload(0x40)\n      swap1\n      dup2\n      add\n      0x40\n      mstore\n      dup1\n      swap3\n      swap2\n      swap1\n      dup2\n      dup2\n      mstore\n      0x20\n      add\n      dup3\n      dup1\n      sload\n      tag_124\n      swap1\n      tag_55\n      jump\t// in\n    tag_124:\n      dup1\n      iszero\n      tag_125\n      jumpi\n      dup1\n      0x1f\n      lt\n      tag_126\n      jumpi\n      0x0100\n      dup1\n      dup4\n      sload\n      div\n      mul\n      dup4\n      mstore\n      swap2\n      0x20\n      add\n      swap2\n      jump(tag_125)\n    tag_126:\n      dup3\n      add\n      swap2\n      swap1\n      0x00\n      mstore\n      keccak256(0x00, 0x20)\n      swap1\n    tag_127:\n      dup2\n      sload\n      dup2\n      mstore\n      swap1\n      0x01\n      add\n      swap1\n      0x20\n      add\n      dup1\n      dup4\n      gt\n      tag_127\n      jumpi\n      dup3\n      swap1\n      sub\n      0x1f\n      and\n      dup3\n      add\n      swap2\n    tag_125:\n      pop\n      pop\n      pop\n      pop\n      pop\n      dup2\n      mstore\n      pop\n      pop\n      swap1\n      pop\n      dup7\n      jump\t// out\n        /* \"contracts/Kobis.sol\":2281:2557  function createCommunity (... */\n    tag_43:\n        /* \"contracts/Kobis.sol\":2407:2411  name */\n      dup1\n        /* \"contracts/Kobis.sol\":2365:2381  communityProfile */\n      0x01\n        /* \"contracts/Kobis.sol\":2365:2399  communityProfile[communityCounter] */\n      0x00\n        /* \"contracts/Kobis.sol\":2382:2398  communityCounter */\n      dup1\n      sload\n        /* \"contracts/Kobis.sol\":2365:2399  communityProfile[communityCounter] */\n      dup2\n      mstore\n      0x20\n      add\n      swap1\n      dup2\n      mstore\n      0x20\n      add\n      0x00\n      keccak256\n        /* \"contracts/Kobis.sol\":2365:2404  communityProfile[communityCounter].name */\n      0x00\n      add\n        /* \"contracts/Kobis.sol\":2365:2411  communityProfile[communityCounter].name = name */\n      swap1\n      dup1\n      mload\n      swap1\n      0x20\n      add\n      swap1\n      tag_129\n      swap3\n      swap2\n      swap1\n      tag_97\n      jump\t// in\n    tag_129:\n      pop\n        /* \"contracts/Kobis.sol\":2462:2478  communityCounter */\n      sload(0x00)\n        /* \"contracts/Kobis.sol\":2421:2437  communityProfile */\n      0x01\n        /* \"contracts/Kobis.sol\":2421:2455  communityProfile[communityCounter] */\n      0x00\n        /* \"contracts/Kobis.sol\":2438:2454  communityCounter */\n      dup1\n      sload\n        /* \"contracts/Kobis.sol\":2421:2455  communityProfile[communityCounter] */\n      dup2\n      mstore\n      0x20\n      add\n      swap1\n      dup2\n      mstore\n      0x20\n      add\n      0x00\n      keccak256\n        /* \"contracts/Kobis.sol\":2421:2459  communityProfile[communityCounter].uid */\n      0x01\n      add\n        /* \"contracts/Kobis.sol\":2421:2478  communityProfile[communityCounter].uid = communityCounter */\n      dup2\n      swap1\n      sstore\n      pop\n        /* \"contracts/Kobis.sol\":2539:2549  msg.sender */\n      caller\n        /* \"contracts/Kobis.sol\":2488:2504  communityProfile */\n      0x01\n        /* \"contracts/Kobis.sol\":2488:2522  communityProfile[communityCounter] */\n      0x00\n        /* \"contracts/Kobis.sol\":2505:2521  communityCounter */\n      dup1\n      sload\n        /* \"contracts/Kobis.sol\":2488:2522  communityProfile[communityCounter] */\n      dup2\n      mstore\n      0x20\n      add\n      swap1\n      dup2\n      mstore\n      0x20\n      add\n      0x00\n      keccak256\n        /* \"contracts/Kobis.sol\":2488:2528  communityProfile[communityCounter].admin */\n      0x02\n      add\n      0x00\n        /* \"contracts/Kobis.sol\":2488:2550  communityProfile[communityCounter].admin = payable(msg.sender) */\n      0x0100\n      exp\n      dup2\n      sload\n      dup2\n      0xffffffffffffffffffffffffffffffffffffffff\n      mul\n      not\n      and\n      swap1\n      dup4\n      0xffffffffffffffffffffffffffffffffffffffff\n      and\n      mul\n      or\n      swap1\n      sstore\n      pop\n        /* \"contracts/Kobis.sol\":2281:2557  function createCommunity (... */\n      pop\n      jump\t// out\n        /* \"contracts/Kobis.sol\":3318:3933  function createComment(... */\n    tag_47:\n        /* \"contracts/Kobis.sol\":3502:3528  fileContent memory newFile */\n      tag_131\n      tag_132\n      jump\t// in\n    tag_131:\n        /* \"contracts/Kobis.sol\":3557:3565  fileIpfs */\n      dup3\n        /* \"contracts/Kobis.sol\":3538:3545  newFile */\n      dup2\n        /* \"contracts/Kobis.sol\":3538:3554  newFile.fileIpfs */\n      0x00\n      add\n        /* \"contracts/Kobis.sol\":3538:3565  newFile.fileIpfs = fileIpfs */\n      dup2\n      swap1\n      mstore\n      pop\n        /* \"contracts/Kobis.sol\":3594:3602  fileType */\n      dup2\n        /* \"contracts/Kobis.sol\":3575:3582  newFile */\n      dup2\n        /* \"contracts/Kobis.sol\":3575:3591  newFile.fileType */\n      0x20\n      add\n        /* \"contracts/Kobis.sol\":3575:3602  newFile.fileType = fileType */\n      dup2\n      swap1\n      mstore\n      pop\n        /* \"contracts/Kobis.sol\":3613:3645  CommentContent memory newComment */\n      tag_133\n      tag_134\n      jump\t// in\n    tag_133:\n        /* \"contracts/Kobis.sol\":3684:3694  msg.sender */\n      caller\n        /* \"contracts/Kobis.sol\":3656:3666  newComment */\n      dup2\n        /* \"contracts/Kobis.sol\":3656:3673  newComment.author */\n      0x00\n      add\n        /* \"contracts/Kobis.sol\":3656:3695  newComment.author = payable(msg.sender) */\n      swap1\n      0xffffffffffffffffffffffffffffffffffffffff\n      and\n      swap1\n      dup2\n      0xffffffffffffffffffffffffffffffffffffffff\n      and\n      dup2\n      mstore\n      pop\n      pop\n        /* \"contracts/Kobis.sol\":3724:3729  comId */\n      dup7\n        /* \"contracts/Kobis.sol\":3705:3715  newComment */\n      dup2\n        /* \"contracts/Kobis.sol\":3705:3721  newComment.comId */\n      0x20\n      add\n        /* \"contracts/Kobis.sol\":3705:3729  newComment.comId = comId */\n      dup2\n      dup2\n      mstore\n      pop\n      pop\n        /* \"contracts/Kobis.sol\":3759:3765  postId */\n      dup6\n        /* \"contracts/Kobis.sol\":3739:3749  newComment */\n      dup2\n        /* \"contracts/Kobis.sol\":3739:3756  newComment.postId */\n      0x40\n      add\n        /* \"contracts/Kobis.sol\":3739:3765  newComment.postId = postId */\n      dup2\n      dup2\n      mstore\n      pop\n      pop\n        /* \"contracts/Kobis.sol\":3794:3798  text */\n      dup5\n        /* \"contracts/Kobis.sol\":3776:3786  newComment */\n      dup2\n        /* \"contracts/Kobis.sol\":3776:3791  newComment.post */\n      0x60\n      add\n        /* \"contracts/Kobis.sol\":3776:3798  newComment.post = text */\n      dup2\n      swap1\n      mstore\n      pop\n        /* \"contracts/Kobis.sol\":3827:3842  block.timestamp */\n      timestamp\n        /* \"contracts/Kobis.sol\":3809:3819  newComment */\n      dup2\n        /* \"contracts/Kobis.sol\":3809:3824  newComment.time */\n      0x80\n      add\n        /* \"contracts/Kobis.sol\":3809:3842  newComment.time = block.timestamp */\n      dup2\n      dup2\n      mstore\n      pop\n      pop\n        /* \"contracts/Kobis.sol\":3870:3877  newFile */\n      dup2\n        /* \"contracts/Kobis.sol\":3852:3862  newComment */\n      dup2\n        /* \"contracts/Kobis.sol\":3852:3867  newComment.file */\n      0xa0\n      add\n        /* \"contracts/Kobis.sol\":3852:3877  newComment.file = newFile */\n      dup2\n      swap1\n      mstore\n      pop\n        /* \"contracts/Kobis.sol\":3888:3895  Comment */\n      0x04\n        /* \"contracts/Kobis.sol\":3888:3907  Comment[msg.sender] */\n      0x00\n        /* \"contracts/Kobis.sol\":3896:3906  msg.sender */\n      caller\n        /* \"contracts/Kobis.sol\":3888:3907  Comment[msg.sender] */\n      0xffffffffffffffffffffffffffffffffffffffff\n      and\n      0xffffffffffffffffffffffffffffffffffffffff\n      and\n      dup2\n      mstore\n      0x20\n      add\n      swap1\n      dup2\n      mstore\n      0x20\n      add\n      0x00\n      keccak256\n        /* \"contracts/Kobis.sol\":3913:3923  newComment */\n      dup2\n        /* \"contracts/Kobis.sol\":3888:3924  Comment[msg.sender].push(newComment) */\n      swap1\n      dup1\n      0x01\n      dup2\n      sload\n      add\n      dup1\n      dup3\n      sstore\n      dup1\n      swap2\n      pop\n      pop\n      0x01\n      swap1\n      sub\n      swap1\n      0x00\n      mstore\n      keccak256(0x00, 0x20)\n      swap1\n      0x07\n      mul\n      add\n      0x00\n      swap1\n      swap2\n      swap1\n      swap2\n      swap1\n      swap2\n      pop\n      0x00\n      dup3\n      add\n      mload\n      dup2\n      0x00\n      add\n      exp(0x0100, 0x00)\n      dup2\n      sload\n      dup2\n      0xffffffffffffffffffffffffffffffffffffffff\n      mul\n      not\n      and\n      swap1\n      dup4\n      0xffffffffffffffffffffffffffffffffffffffff\n      and\n      mul\n      or\n      swap1\n      sstore\n      pop\n      0x20\n      dup3\n      add\n      mload\n      dup2\n      0x01\n      add\n      sstore\n      0x40\n      dup3\n      add\n      mload\n      dup2\n      0x02\n      add\n      sstore\n      0x60\n      dup3\n      add\n      mload\n      dup2\n      0x03\n      add\n      swap1\n      dup1\n      mload\n      swap1\n      0x20\n      add\n      swap1\n      tag_136\n      swap3\n      swap2\n      swap1\n      tag_97\n      jump\t// in\n    tag_136:\n      pop\n      0x80\n      dup3\n      add\n      mload\n      dup2\n      0x04\n      add\n      sstore\n      0xa0\n      dup3\n      add\n      mload\n      dup2\n      0x05\n      add\n      0x00\n      dup3\n      add\n      mload\n      dup2\n      0x00\n      add\n      swap1\n      dup1\n      mload\n      swap1\n      0x20\n      add\n      swap1\n      tag_137\n      swap3\n      swap2\n      swap1\n      tag_97\n      jump\t// in\n    tag_137:\n      pop\n      0x20\n      dup3\n      add\n      mload\n      dup2\n      0x01\n      add\n      swap1\n      dup1\n      mload\n      swap1\n      0x20\n      add\n      swap1\n      tag_138\n      swap3\n      swap2\n      swap1\n      tag_97\n      jump\t// in\n    tag_138:\n      pop\n      pop\n      pop\n      pop\n      pop\n        /* \"contracts/Kobis.sol\":3492:3933  {... */\n      pop\n      pop\n        /* \"contracts/Kobis.sol\":3318:3933  function createComment(... */\n      pop\n      pop\n      pop\n      pop\n      pop\n      jump\t// out\n        /* \"contracts/Kobis.sol\":2563:3312  function createPost(... */\n    tag_51:\n        /* \"contracts/Kobis.sol\":2789:2815  fileContent memory newFile */\n      tag_140\n      tag_132\n      jump\t// in\n    tag_140:\n        /* \"contracts/Kobis.sol\":2844:2852  fileIpfs */\n      dup3\n        /* \"contracts/Kobis.sol\":2825:2832  newFile */\n      dup2\n        /* \"contracts/Kobis.sol\":2825:2841  newFile.fileIpfs */\n      0x00\n      add\n        /* \"contracts/Kobis.sol\":2825:2852  newFile.fileIpfs = fileIpfs */\n      dup2\n      swap1\n      mstore\n      pop\n        /* \"contracts/Kobis.sol\":2881:2889  fileType */\n      dup2\n        /* \"contracts/Kobis.sol\":2862:2869  newFile */\n      dup2\n        /* \"contracts/Kobis.sol\":2862:2878  newFile.fileType */\n      0x20\n      add\n        /* \"contracts/Kobis.sol\":2862:2889  newFile.fileType = fileType */\n      dup2\n      swap1\n      mstore\n      pop\n        /* \"contracts/Kobis.sol\":2900:2926  PostContent memory newPost */\n      tag_141\n      tag_142\n      jump\t// in\n    tag_141:\n        /* \"contracts/Kobis.sol\":2954:2964  msg.sender */\n      caller\n        /* \"contracts/Kobis.sol\":2937:2944  newPost */\n      dup2\n        /* \"contracts/Kobis.sol\":2937:2951  newPost.author */\n      0x80\n      add\n        /* \"contracts/Kobis.sol\":2937:2964  newPost.author = msg.sender */\n      swap1\n      0xffffffffffffffffffffffffffffffffffffffff\n      and\n      swap1\n      dup2\n      0xffffffffffffffffffffffffffffffffffffffff\n      and\n      dup2\n      mstore\n      pop\n      pop\n        /* \"contracts/Kobis.sol\":2989:2993  name */\n      dup8\n        /* \"contracts/Kobis.sol\":2974:2981  newPost */\n      dup2\n        /* \"contracts/Kobis.sol\":2974:2986  newPost.name */\n      0x00\n      add\n        /* \"contracts/Kobis.sol\":2974:2993  newPost.name = name */\n      dup2\n      swap1\n      mstore\n      pop\n        /* \"contracts/Kobis.sol\":3018:3022  post */\n      dup7\n        /* \"contracts/Kobis.sol\":3003:3010  newPost */\n      dup2\n        /* \"contracts/Kobis.sol\":3003:3015  newPost.post */\n      0x20\n      add\n        /* \"contracts/Kobis.sol\":3003:3022  newPost.post = post */\n      dup2\n      swap1\n      mstore\n      pop\n        /* \"contracts/Kobis.sol\":3047:3062  block.timestamp */\n      timestamp\n        /* \"contracts/Kobis.sol\":3032:3039  newPost */\n      dup2\n        /* \"contracts/Kobis.sol\":3032:3044  newPost.time */\n      0x40\n      add\n        /* \"contracts/Kobis.sol\":3032:3062  newPost.time = block.timestamp */\n      dup2\n      dup2\n      mstore\n      pop\n      pop\n        /* \"contracts/Kobis.sol\":3095:3107  hideIdentity */\n      dup6\n        /* \"contracts/Kobis.sol\":3072:3079  newPost */\n      dup2\n        /* \"contracts/Kobis.sol\":3072:3092  newPost.hideIdentity */\n      0x60\n      add\n        /* \"contracts/Kobis.sol\":3072:3107  newPost.hideIdentity = hideIdentity */\n      swap1\n      iszero\n      iszero\n      swap1\n      dup2\n      iszero\n      iszero\n      dup2\n      mstore\n      pop\n      pop\n        /* \"contracts/Kobis.sol\":3137:3146  community */\n      dup5\n        /* \"contracts/Kobis.sol\":3117:3124  newPost */\n      dup2\n        /* \"contracts/Kobis.sol\":3117:3134  newPost.community */\n      0xa0\n      add\n        /* \"contracts/Kobis.sol\":3117:3146  newPost.community = community */\n      dup2\n      dup2\n      mstore\n      pop\n      pop\n        /* \"contracts/Kobis.sol\":3171:3178  newFile */\n      dup2\n        /* \"contracts/Kobis.sol\":3156:3163  newPost */\n      dup2\n        /* \"contracts/Kobis.sol\":3156:3168  newPost.file */\n      0xc0\n      add\n        /* \"contracts/Kobis.sol\":3156:3178  newPost.file = newFile */\n      dup2\n      swap1\n      mstore\n      pop\n        /* \"contracts/Kobis.sol\":3189:3193  Post */\n      0x03\n        /* \"contracts/Kobis.sol\":3189:3204  Post[community] */\n      0x00\n        /* \"contracts/Kobis.sol\":3194:3203  community */\n      dup7\n        /* \"contracts/Kobis.sol\":3189:3204  Post[community] */\n      dup2\n      mstore\n      0x20\n      add\n      swap1\n      dup2\n      mstore\n      0x20\n      add\n      0x00\n      keccak256\n        /* \"contracts/Kobis.sol\":3210:3217  newPost */\n      dup2\n        /* \"contracts/Kobis.sol\":3189:3218  Post[community].push(newPost) */\n      swap1\n      dup1\n      0x01\n      dup2\n      sload\n      add\n      dup1\n      dup3\n      sstore\n      dup1\n      swap2\n      pop\n      pop\n      0x01\n      swap1\n      sub\n      swap1\n      0x00\n      mstore\n      keccak256(0x00, 0x20)\n      swap1\n      0x08\n      mul\n      add\n      0x00\n      swap1\n      swap2\n      swap1\n      swap2\n      swap1\n      swap2\n      pop\n      0x00\n      dup3\n      add\n      mload\n      dup2\n      0x00\n      add\n      swap1\n      dup1\n      mload\n      swap1\n      0x20\n      add\n      swap1\n      tag_144\n      swap3\n      swap2\n      swap1\n      tag_97\n      jump\t// in\n    tag_144:\n      pop\n      0x20\n      dup3\n      add\n      mload\n      dup2\n      0x01\n      add\n      swap1\n      dup1\n      mload\n      swap1\n      0x20\n      add\n      swap1\n      tag_145\n      swap3\n      swap2\n      swap1\n      tag_97\n      jump\t// in\n    tag_145:\n      pop\n      0x40\n      dup3\n      add\n      mload\n      dup2\n      0x02\n      add\n      sstore\n      0x60\n      dup3\n      add\n      mload\n      dup2\n      0x03\n      add\n      exp(0x0100, 0x00)\n      dup2\n      sload\n      dup2\n      0xff\n      mul\n      not\n      and\n      swap1\n      dup4\n      iszero\n      iszero\n      mul\n      or\n      swap1\n      sstore\n      pop\n      0x80\n      dup3\n      add\n      mload\n      dup2\n      0x03\n      add\n      exp(0x0100, 0x01)\n      dup2\n      sload\n      dup2\n      0xffffffffffffffffffffffffffffffffffffffff\n      mul\n      not\n      and\n      swap1\n      dup4\n      0xffffffffffffffffffffffffffffffffffffffff\n      and\n      mul\n      or\n      swap1\n      sstore\n      pop\n      0xa0\n      dup3\n      add\n      mload\n      dup2\n      0x04\n      add\n      sstore\n      0xc0\n      dup3\n      add\n      mload\n      dup2\n      0x05\n      add\n      0x00\n      dup3\n      add\n      mload\n      dup2\n      0x00\n      add\n      swap1\n      dup1\n      mload\n      swap1\n      0x20\n      add\n      swap1\n      tag_146\n      swap3\n      swap2\n      swap1\n      tag_97\n      jump\t// in\n    tag_146:\n      pop\n      0x20\n      dup3\n      add\n      mload\n      dup2\n      0x01\n      add\n      swap1\n      dup1\n      mload\n      swap1\n      0x20\n      add\n      swap1\n      tag_147\n      swap3\n      swap2\n      swap1\n      tag_97\n      jump\t// in\n    tag_147:\n      pop\n      pop\n      pop\n      0xe0\n      dup3\n      add\n      mload\n      dup2\n      0x07\n      add\n      swap1\n      dup1\n      mload\n      swap1\n      0x20\n      add\n      swap1\n      tag_148\n      swap3\n      swap2\n      swap1\n      tag_101\n      jump\t// in\n    tag_148:\n      pop\n      pop\n      pop\n        /* \"contracts/Kobis.sol\":3229:3245  communityProfile */\n      0x01\n        /* \"contracts/Kobis.sol\":3229:3256  communityProfile[community] */\n      0x00\n        /* \"contracts/Kobis.sol\":3246:3255  community */\n      dup7\n        /* \"contracts/Kobis.sol\":3229:3256  communityProfile[community] */\n      dup2\n      mstore\n      0x20\n      add\n      swap1\n      dup2\n      mstore\n      0x20\n      add\n      0x00\n      keccak256\n        /* \"contracts/Kobis.sol\":3229:3264  communityProfile[community].postNum */\n      0x07\n      add\n      0x00\n        /* \"contracts/Kobis.sol\":3229:3266  communityProfile[community].postNum++ */\n      dup2\n      sload\n      dup1\n      swap3\n      swap2\n      swap1\n      tag_149\n      swap1\n      tag_109\n      jump\t// in\n    tag_149:\n      swap2\n      swap1\n      pop\n      sstore\n      pop\n        /* \"contracts/Kobis.sol\":3278:3282  User */\n      0x02\n        /* \"contracts/Kobis.sol\":3278:3294  User[msg.sender] */\n      0x00\n        /* \"contracts/Kobis.sol\":3283:3293  msg.sender */\n      caller\n        /* \"contracts/Kobis.sol\":3278:3294  User[msg.sender] */\n      0xffffffffffffffffffffffffffffffffffffffff\n      and\n      0xffffffffffffffffffffffffffffffffffffffff\n      and\n      dup2\n      mstore\n      0x20\n      add\n      swap1\n      dup2\n      mstore\n      0x20\n      add\n      0x00\n      keccak256\n        /* \"contracts/Kobis.sol\":3278:3302  User[msg.sender].postNum */\n      0x07\n      add\n      0x00\n        /* \"contracts/Kobis.sol\":3278:3304  User[msg.sender].postNum++ */\n      dup2\n      sload\n      dup1\n      swap3\n      swap2\n      swap1\n      tag_150\n      swap1\n      tag_109\n      jump\t// in\n    tag_150:\n      swap2\n      swap1\n      pop\n      sstore\n      pop\n        /* \"contracts/Kobis.sol\":2772:3312  {... */\n      pop\n      pop\n        /* \"contracts/Kobis.sol\":2563:3312  function createPost(... */\n      pop\n      pop\n      pop\n      pop\n      pop\n      pop\n      jump\t// out\n    tag_97:\n      dup3\n      dup1\n      sload\n      tag_151\n      swap1\n      tag_55\n      jump\t// in\n    tag_151:\n      swap1\n      0x00\n      mstore\n      keccak256(0x00, 0x20)\n      swap1\n      0x1f\n      add\n      0x20\n      swap1\n      div\n      dup2\n      add\n      swap3\n      dup3\n      tag_153\n      jumpi\n      0x00\n      dup6\n      sstore\n      jump(tag_152)\n    tag_153:\n      dup3\n      0x1f\n      lt\n      tag_154\n      jumpi\n      dup1\n      mload\n      not(0xff)\n      and\n      dup4\n      dup1\n      add\n      or\n      dup6\n      sstore\n      jump(tag_152)\n    tag_154:\n      dup3\n      dup1\n      add\n      0x01\n      add\n      dup6\n      sstore\n      dup3\n      iszero\n      tag_152\n      jumpi\n      swap2\n      dup3\n      add\n    tag_155:\n      dup3\n      dup2\n      gt\n      iszero\n      tag_156\n      jumpi\n      dup3\n      mload\n      dup3\n      sstore\n      swap2\n      0x20\n      add\n      swap2\n      swap1\n      0x01\n      add\n      swap1\n      jump(tag_155)\n    tag_156:\n    tag_152:\n      pop\n      swap1\n      pop\n      tag_157\n      swap2\n      swap1\n      tag_158\n      jump\t// in\n    tag_157:\n      pop\n      swap1\n      jump\t// out\n    tag_101:\n      dup3\n      dup1\n      sload\n      dup3\n      dup3\n      sstore\n      swap1\n      0x00\n      mstore\n      keccak256(0x00, 0x20)\n      swap1\n      dup2\n      add\n      swap3\n      dup3\n      iszero\n      tag_159\n      jumpi\n      swap2\n      0x20\n      mul\n      dup3\n      add\n    tag_160:\n      dup3\n      dup2\n      gt\n      iszero\n      tag_161\n      jumpi\n      dup3\n      mload\n      dup3\n      sstore\n      swap2\n      0x20\n      add\n      swap2\n      swap1\n      0x01\n      add\n      swap1\n      jump(tag_160)\n    tag_161:\n    tag_159:\n      pop\n      swap1\n      pop\n      tag_162\n      swap2\n      swap1\n      tag_158\n      jump\t// in\n    tag_162:\n      pop\n      swap1\n      jump\t// out\n    tag_132:\n      mload(0x40)\n      dup1\n      0x40\n      add\n      0x40\n      mstore\n      dup1\n      0x60\n      dup2\n      mstore\n      0x20\n      add\n      0x60\n      dup2\n      mstore\n      pop\n      swap1\n      jump\t// out\n    tag_134:\n      mload(0x40)\n      dup1\n      0xc0\n      add\n      0x40\n      mstore\n      dup1\n      and(0xffffffffffffffffffffffffffffffffffffffff, 0x00)\n      dup2\n      mstore\n      0x20\n      add\n      0x00\n      dup2\n      mstore\n      0x20\n      add\n      0x00\n      dup2\n      mstore\n      0x20\n      add\n      0x60\n      dup2\n      mstore\n      0x20\n      add\n      0x00\n      dup2\n      mstore\n      0x20\n      add\n      tag_163\n      tag_132\n      jump\t// in\n    tag_163:\n      dup2\n      mstore\n      pop\n      swap1\n      jump\t// out\n    tag_142:\n      mload(0x40)\n      dup1\n      0x0100\n      add\n      0x40\n      mstore\n      dup1\n      0x60\n      dup2\n      mstore\n      0x20\n      add\n      0x60\n      dup2\n      mstore\n      0x20\n      add\n      0x00\n      dup2\n      mstore\n      0x20\n      add\n      iszero(iszero(0x00))\n      dup2\n      mstore\n      0x20\n      add\n      and(0xffffffffffffffffffffffffffffffffffffffff, 0x00)\n      dup2\n      mstore\n      0x20\n      add\n      0x00\n      dup2\n      mstore\n      0x20\n      add\n      tag_164\n      tag_132\n      jump\t// in\n    tag_164:\n      dup2\n      mstore\n      0x20\n      add\n      0x60\n      dup2\n      mstore\n      pop\n      swap1\n      jump\t// out\n    tag_158:\n    tag_165:\n      dup1\n      dup3\n      gt\n      iszero\n      tag_166\n      jumpi\n      0x00\n      dup2\n      0x00\n      swap1\n      sstore\n      pop\n      0x01\n      add\n      jump(tag_165)\n    tag_166:\n      pop\n      swap1\n      jump\t// out\n        /* \"#utility.yul\":24:746   */\n    tag_168:\n        /* \"#utility.yul\":120:125   */\n      0x00\n        /* \"#utility.yul\":145:226   */\n      tag_170\n        /* \"#utility.yul\":161:225   */\n      tag_171\n        /* \"#utility.yul\":218:224   */\n      dup5\n        /* \"#utility.yul\":161:225   */\n      tag_172\n      jump\t// in\n    tag_171:\n        /* \"#utility.yul\":145:226   */\n      tag_173\n      jump\t// in\n    tag_170:\n        /* \"#utility.yul\":136:226   */\n      swap1\n      pop\n        /* \"#utility.yul\":246:251   */\n      dup1\n        /* \"#utility.yul\":275:281   */\n      dup4\n        /* \"#utility.yul\":268:273   */\n      dup3\n        /* \"#utility.yul\":261:282   */\n      mstore\n        /* \"#utility.yul\":309:313   */\n      0x20\n        /* \"#utility.yul\":302:307   */\n      dup3\n        /* \"#utility.yul\":298:314   */\n      add\n        /* \"#utility.yul\":291:314   */\n      swap1\n      pop\n        /* \"#utility.yul\":335:341   */\n      dup3\n        /* \"#utility.yul\":385:388   */\n      dup6\n        /* \"#utility.yul\":377:381   */\n      0x20\n        /* \"#utility.yul\":369:375   */\n      dup7\n        /* \"#utility.yul\":365:382   */\n      mul\n        /* \"#utility.yul\":360:363   */\n      dup3\n        /* \"#utility.yul\":356:383   */\n      add\n        /* \"#utility.yul\":353:389   */\n      gt\n        /* \"#utility.yul\":350:493   */\n      iszero\n      tag_174\n      jumpi\n        /* \"#utility.yul\":404:483   */\n      tag_175\n      tag_176\n      jump\t// in\n    tag_175:\n        /* \"#utility.yul\":350:493   */\n    tag_174:\n        /* \"#utility.yul\":517:518   */\n      0x00\n        /* \"#utility.yul\":502:740   */\n    tag_177:\n        /* \"#utility.yul\":527:533   */\n      dup6\n        /* \"#utility.yul\":524:525   */\n      dup2\n        /* \"#utility.yul\":521:534   */\n      lt\n        /* \"#utility.yul\":502:740   */\n      iszero\n      tag_179\n      jumpi\n        /* \"#utility.yul\":595:598   */\n      dup2\n        /* \"#utility.yul\":624:661   */\n      tag_180\n        /* \"#utility.yul\":657:660   */\n      dup9\n        /* \"#utility.yul\":645:655   */\n      dup3\n        /* \"#utility.yul\":624:661   */\n      tag_181\n      jump\t// in\n    tag_180:\n        /* \"#utility.yul\":619:622   */\n      dup5\n        /* \"#utility.yul\":612:662   */\n      mstore\n        /* \"#utility.yul\":691:695   */\n      0x20\n        /* \"#utility.yul\":686:689   */\n      dup5\n        /* \"#utility.yul\":682:696   */\n      add\n        /* \"#utility.yul\":675:696   */\n      swap4\n      pop\n        /* \"#utility.yul\":725:729   */\n      0x20\n        /* \"#utility.yul\":720:723   */\n      dup4\n        /* \"#utility.yul\":716:730   */\n      add\n        /* \"#utility.yul\":709:730   */\n      swap3\n      pop\n        /* \"#utility.yul\":562:740   */\n      pop\n        /* \"#utility.yul\":549:550   */\n      0x01\n        /* \"#utility.yul\":546:547   */\n      dup2\n        /* \"#utility.yul\":542:551   */\n      add\n        /* \"#utility.yul\":537:551   */\n      swap1\n      pop\n        /* \"#utility.yul\":502:740   */\n      jump(tag_177)\n    tag_179:\n        /* \"#utility.yul\":506:520   */\n      pop\n        /* \"#utility.yul\":126:746   */\n      pop\n      pop\n        /* \"#utility.yul\":24:746   */\n      swap4\n      swap3\n      pop\n      pop\n      pop\n      jump\t// out\n        /* \"#utility.yul\":752:1164   */\n    tag_182:\n        /* \"#utility.yul\":830:835   */\n      0x00\n        /* \"#utility.yul\":855:921   */\n      tag_184\n        /* \"#utility.yul\":871:920   */\n      tag_185\n        /* \"#utility.yul\":913:919   */\n      dup5\n        /* \"#utility.yul\":871:920   */\n      tag_186\n      jump\t// in\n    tag_185:\n        /* \"#utility.yul\":855:921   */\n      tag_173\n      jump\t// in\n    tag_184:\n        /* \"#utility.yul\":846:921   */\n      swap1\n      pop\n        /* \"#utility.yul\":944:950   */\n      dup3\n        /* \"#utility.yul\":937:942   */\n      dup2\n        /* \"#utility.yul\":930:951   */\n      mstore\n        /* \"#utility.yul\":982:986   */\n      0x20\n        /* \"#utility.yul\":975:980   */\n      dup2\n        /* \"#utility.yul\":971:987   */\n      add\n        /* \"#utility.yul\":1020:1023   */\n      dup5\n        /* \"#utility.yul\":1011:1017   */\n      dup5\n        /* \"#utility.yul\":1006:1009   */\n      dup5\n        /* \"#utility.yul\":1002:1018   */\n      add\n        /* \"#utility.yul\":999:1024   */\n      gt\n        /* \"#utility.yul\":996:1108   */\n      iszero\n      tag_187\n      jumpi\n        /* \"#utility.yul\":1027:1106   */\n      tag_188\n      tag_189\n      jump\t// in\n    tag_188:\n        /* \"#utility.yul\":996:1108   */\n    tag_187:\n        /* \"#utility.yul\":1117:1158   */\n      tag_190\n        /* \"#utility.yul\":1151:1157   */\n      dup5\n        /* \"#utility.yul\":1146:1149   */\n      dup3\n        /* \"#utility.yul\":1141:1144   */\n      dup6\n        /* \"#utility.yul\":1117:1158   */\n      tag_191\n      jump\t// in\n    tag_190:\n        /* \"#utility.yul\":836:1164   */\n      pop\n        /* \"#utility.yul\":752:1164   */\n      swap4\n      swap3\n      pop\n      pop\n      pop\n      jump\t// out\n        /* \"#utility.yul\":1170:1309   */\n    tag_192:\n        /* \"#utility.yul\":1216:1221   */\n      0x00\n        /* \"#utility.yul\":1254:1260   */\n      dup2\n        /* \"#utility.yul\":1241:1261   */\n      calldataload\n        /* \"#utility.yul\":1232:1261   */\n      swap1\n      pop\n        /* \"#utility.yul\":1270:1303   */\n      tag_194\n        /* \"#utility.yul\":1297:1302   */\n      dup2\n        /* \"#utility.yul\":1270:1303   */\n      tag_195\n      jump\t// in\n    tag_194:\n        /* \"#utility.yul\":1170:1309   */\n      swap3\n      swap2\n      pop\n      pop\n      jump\t// out\n        /* \"#utility.yul\":1332:1702   */\n    tag_196:\n        /* \"#utility.yul\":1403:1408   */\n      0x00\n        /* \"#utility.yul\":1452:1455   */\n      dup3\n        /* \"#utility.yul\":1445:1449   */\n      0x1f\n        /* \"#utility.yul\":1437:1443   */\n      dup4\n        /* \"#utility.yul\":1433:1450   */\n      add\n        /* \"#utility.yul\":1429:1456   */\n      slt\n        /* \"#utility.yul\":1419:1541   */\n      tag_198\n      jumpi\n        /* \"#utility.yul\":1460:1539   */\n      tag_199\n      tag_200\n      jump\t// in\n    tag_199:\n        /* \"#utility.yul\":1419:1541   */\n    tag_198:\n        /* \"#utility.yul\":1577:1583   */\n      dup2\n        /* \"#utility.yul\":1564:1584   */\n      calldataload\n        /* \"#utility.yul\":1602:1696   */\n      tag_201\n        /* \"#utility.yul\":1692:1695   */\n      dup5\n        /* \"#utility.yul\":1684:1690   */\n      dup3\n        /* \"#utility.yul\":1677:1681   */\n      0x20\n        /* \"#utility.yul\":1669:1675   */\n      dup7\n        /* \"#utility.yul\":1665:1682   */\n      add\n        /* \"#utility.yul\":1602:1696   */\n      tag_168\n      jump\t// in\n    tag_201:\n        /* \"#utility.yul\":1593:1696   */\n      swap2\n      pop\n        /* \"#utility.yul\":1409:1702   */\n      pop\n        /* \"#utility.yul\":1332:1702   */\n      swap3\n      swap2\n      pop\n      pop\n      jump\t// out\n        /* \"#utility.yul\":1708:1841   */\n    tag_202:\n        /* \"#utility.yul\":1751:1756   */\n      0x00\n        /* \"#utility.yul\":1789:1795   */\n      dup2\n        /* \"#utility.yul\":1776:1796   */\n      calldataload\n        /* \"#utility.yul\":1767:1796   */\n      swap1\n      pop\n        /* \"#utility.yul\":1805:1835   */\n      tag_204\n        /* \"#utility.yul\":1829:1834   */\n      dup2\n        /* \"#utility.yul\":1805:1835   */\n      tag_205\n      jump\t// in\n    tag_204:\n        /* \"#utility.yul\":1708:1841   */\n      swap3\n      swap2\n      pop\n      pop\n      jump\t// out\n        /* \"#utility.yul\":1861:2201   */\n    tag_206:\n        /* \"#utility.yul\":1917:1922   */\n      0x00\n        /* \"#utility.yul\":1966:1969   */\n      dup3\n        /* \"#utility.yul\":1959:1963   */\n      0x1f\n        /* \"#utility.yul\":1951:1957   */\n      dup4\n        /* \"#utility.yul\":1947:1964   */\n      add\n        /* \"#utility.yul\":1943:1970   */\n      slt\n        /* \"#utility.yul\":1933:2055   */\n      tag_208\n      jumpi\n        /* \"#utility.yul\":1974:2053   */\n      tag_209\n      tag_200\n      jump\t// in\n    tag_209:\n        /* \"#utility.yul\":1933:2055   */\n    tag_208:\n        /* \"#utility.yul\":2091:2097   */\n      dup2\n        /* \"#utility.yul\":2078:2098   */\n      calldataload\n        /* \"#utility.yul\":2116:2195   */\n      tag_210\n        /* \"#utility.yul\":2191:2194   */\n      dup5\n        /* \"#utility.yul\":2183:2189   */\n      dup3\n        /* \"#utility.yul\":2176:2180   */\n      0x20\n        /* \"#utility.yul\":2168:2174   */\n      dup7\n        /* \"#utility.yul\":2164:2181   */\n      add\n        /* \"#utility.yul\":2116:2195   */\n      tag_182\n      jump\t// in\n    tag_210:\n        /* \"#utility.yul\":2107:2195   */\n      swap2\n      pop\n        /* \"#utility.yul\":1923:2201   */\n      pop\n        /* \"#utility.yul\":1861:2201   */\n      swap3\n      swap2\n      pop\n      pop\n      jump\t// out\n        /* \"#utility.yul\":2207:2346   */\n    tag_181:\n        /* \"#utility.yul\":2253:2258   */\n      0x00\n        /* \"#utility.yul\":2291:2297   */\n      dup2\n        /* \"#utility.yul\":2278:2298   */\n      calldataload\n        /* \"#utility.yul\":2269:2298   */\n      swap1\n      pop\n        /* \"#utility.yul\":2307:2340   */\n      tag_212\n        /* \"#utility.yul\":2334:2339   */\n      dup2\n        /* \"#utility.yul\":2307:2340   */\n      tag_213\n      jump\t// in\n    tag_212:\n        /* \"#utility.yul\":2207:2346   */\n      swap3\n      swap2\n      pop\n      pop\n      jump\t// out\n        /* \"#utility.yul\":2352:2681   */\n    tag_26:\n        /* \"#utility.yul\":2411:2417   */\n      0x00\n        /* \"#utility.yul\":2460:2462   */\n      0x20\n        /* \"#utility.yul\":2448:2457   */\n      dup3\n        /* \"#utility.yul\":2439:2446   */\n      dup5\n        /* \"#utility.yul\":2435:2458   */\n      sub\n        /* \"#utility.yul\":2431:2463   */\n      slt\n        /* \"#utility.yul\":2428:2547   */\n      iszero\n      tag_215\n      jumpi\n        /* \"#utility.yul\":2466:2545   */\n      tag_216\n      tag_217\n      jump\t// in\n    tag_216:\n        /* \"#utility.yul\":2428:2547   */\n    tag_215:\n        /* \"#utility.yul\":2586:2587   */\n      0x00\n        /* \"#utility.yul\":2611:2664   */\n      tag_218\n        /* \"#utility.yul\":2656:2663   */\n      dup5\n        /* \"#utility.yul\":2647:2653   */\n      dup3\n        /* \"#utility.yul\":2636:2645   */\n      dup6\n        /* \"#utility.yul\":2632:2654   */\n      add\n        /* \"#utility.yul\":2611:2664   */\n      tag_192\n      jump\t// in\n    tag_218:\n        /* \"#utility.yul\":2601:2664   */\n      swap2\n      pop\n        /* \"#utility.yul\":2557:2674   */\n      pop\n        /* \"#utility.yul\":2352:2681   */\n      swap3\n      swap2\n      pop\n      pop\n      jump\t// out\n        /* \"#utility.yul\":2687:3161   */\n    tag_36:\n        /* \"#utility.yul\":2755:2761   */\n      0x00\n        /* \"#utility.yul\":2763:2769   */\n      dup1\n        /* \"#utility.yul\":2812:2814   */\n      0x40\n        /* \"#utility.yul\":2800:2809   */\n      dup4\n        /* \"#utility.yul\":2791:2798   */\n      dup6\n        /* \"#utility.yul\":2787:2810   */\n      sub\n        /* \"#utility.yul\":2783:2815   */\n      slt\n        /* \"#utility.yul\":2780:2899   */\n      iszero\n      tag_220\n      jumpi\n        /* \"#utility.yul\":2818:2897   */\n      tag_221\n      tag_217\n      jump\t// in\n    tag_221:\n        /* \"#utility.yul\":2780:2899   */\n    tag_220:\n        /* \"#utility.yul\":2938:2939   */\n      0x00\n        /* \"#utility.yul\":2963:3016   */\n      tag_222\n        /* \"#utility.yul\":3008:3015   */\n      dup6\n        /* \"#utility.yul\":2999:3005   */\n      dup3\n        /* \"#utility.yul\":2988:2997   */\n      dup7\n        /* \"#utility.yul\":2984:3006   */\n      add\n        /* \"#utility.yul\":2963:3016   */\n      tag_192\n      jump\t// in\n    tag_222:\n        /* \"#utility.yul\":2953:3016   */\n      swap3\n      pop\n        /* \"#utility.yul\":2909:3026   */\n      pop\n        /* \"#utility.yul\":3065:3067   */\n      0x20\n        /* \"#utility.yul\":3091:3144   */\n      tag_223\n        /* \"#utility.yul\":3136:3143   */\n      dup6\n        /* \"#utility.yul\":3127:3133   */\n      dup3\n        /* \"#utility.yul\":3116:3125   */\n      dup7\n        /* \"#utility.yul\":3112:3134   */\n      add\n        /* \"#utility.yul\":3091:3144   */\n      tag_181\n      jump\t// in\n    tag_223:\n        /* \"#utility.yul\":3081:3144   */\n      swap2\n      pop\n        /* \"#utility.yul\":3036:3154   */\n      pop\n        /* \"#utility.yul\":2687:3161   */\n      swap3\n      pop\n      swap3\n      swap1\n      pop\n      jump\t// out\n        /* \"#utility.yul\":3167:3676   */\n    tag_42:\n        /* \"#utility.yul\":3236:3242   */\n      0x00\n        /* \"#utility.yul\":3285:3287   */\n      0x20\n        /* \"#utility.yul\":3273:3282   */\n      dup3\n        /* \"#utility.yul\":3264:3271   */\n      dup5\n        /* \"#utility.yul\":3260:3283   */\n      sub\n        /* \"#utility.yul\":3256:3288   */\n      slt\n        /* \"#utility.yul\":3253:3372   */\n      iszero\n      tag_225\n      jumpi\n        /* \"#utility.yul\":3291:3370   */\n      tag_226\n      tag_217\n      jump\t// in\n    tag_226:\n        /* \"#utility.yul\":3253:3372   */\n    tag_225:\n        /* \"#utility.yul\":3439:3440   */\n      0x00\n        /* \"#utility.yul\":3428:3437   */\n      dup3\n        /* \"#utility.yul\":3424:3441   */\n      add\n        /* \"#utility.yul\":3411:3442   */\n      calldataload\n        /* \"#utility.yul\":3469:3487   */\n      0xffffffffffffffff\n        /* \"#utility.yul\":3461:3467   */\n      dup2\n        /* \"#utility.yul\":3458:3488   */\n      gt\n        /* \"#utility.yul\":3455:3572   */\n      iszero\n      tag_227\n      jumpi\n        /* \"#utility.yul\":3491:3570   */\n      tag_228\n      tag_229\n      jump\t// in\n    tag_228:\n        /* \"#utility.yul\":3455:3572   */\n    tag_227:\n        /* \"#utility.yul\":3596:3659   */\n      tag_230\n        /* \"#utility.yul\":3651:3658   */\n      dup5\n        /* \"#utility.yul\":3642:3648   */\n      dup3\n        /* \"#utility.yul\":3631:3640   */\n      dup6\n        /* \"#utility.yul\":3627:3649   */\n      add\n        /* \"#utility.yul\":3596:3659   */\n      tag_206\n      jump\t// in\n    tag_230:\n        /* \"#utility.yul\":3586:3659   */\n      swap2\n      pop\n        /* \"#utility.yul\":3382:3669   */\n      pop\n        /* \"#utility.yul\":3167:3676   */\n      swap3\n      swap2\n      pop\n      pop\n      jump\t// out\n        /* \"#utility.yul\":3682:5453   */\n    tag_50:\n        /* \"#utility.yul\":3823:3829   */\n      0x00\n        /* \"#utility.yul\":3831:3837   */\n      dup1\n        /* \"#utility.yul\":3839:3845   */\n      0x00\n        /* \"#utility.yul\":3847:3853   */\n      dup1\n        /* \"#utility.yul\":3855:3861   */\n      0x00\n        /* \"#utility.yul\":3863:3869   */\n      dup1\n        /* \"#utility.yul\":3912:3915   */\n      0xc0\n        /* \"#utility.yul\":3900:3909   */\n      dup8\n        /* \"#utility.yul\":3891:3898   */\n      dup10\n        /* \"#utility.yul\":3887:3910   */\n      sub\n        /* \"#utility.yul\":3883:3916   */\n      slt\n        /* \"#utility.yul\":3880:4000   */\n      iszero\n      tag_232\n      jumpi\n        /* \"#utility.yul\":3919:3998   */\n      tag_233\n      tag_217\n      jump\t// in\n    tag_233:\n        /* \"#utility.yul\":3880:4000   */\n    tag_232:\n        /* \"#utility.yul\":4067:4068   */\n      0x00\n        /* \"#utility.yul\":4056:4065   */\n      dup8\n        /* \"#utility.yul\":4052:4069   */\n      add\n        /* \"#utility.yul\":4039:4070   */\n      calldataload\n        /* \"#utility.yul\":4097:4115   */\n      0xffffffffffffffff\n        /* \"#utility.yul\":4089:4095   */\n      dup2\n        /* \"#utility.yul\":4086:4116   */\n      gt\n        /* \"#utility.yul\":4083:4200   */\n      iszero\n      tag_234\n      jumpi\n        /* \"#utility.yul\":4119:4198   */\n      tag_235\n      tag_229\n      jump\t// in\n    tag_235:\n        /* \"#utility.yul\":4083:4200   */\n    tag_234:\n        /* \"#utility.yul\":4224:4287   */\n      tag_236\n        /* \"#utility.yul\":4279:4286   */\n      dup10\n        /* \"#utility.yul\":4270:4276   */\n      dup3\n        /* \"#utility.yul\":4259:4268   */\n      dup11\n        /* \"#utility.yul\":4255:4277   */\n      add\n        /* \"#utility.yul\":4224:4287   */\n      tag_206\n      jump\t// in\n    tag_236:\n        /* \"#utility.yul\":4214:4287   */\n      swap7\n      pop\n        /* \"#utility.yul\":4010:4297   */\n      pop\n        /* \"#utility.yul\":4364:4366   */\n      0x20\n        /* \"#utility.yul\":4353:4362   */\n      dup8\n        /* \"#utility.yul\":4349:4367   */\n      add\n        /* \"#utility.yul\":4336:4368   */\n      calldataload\n        /* \"#utility.yul\":4395:4413   */\n      0xffffffffffffffff\n        /* \"#utility.yul\":4387:4393   */\n      dup2\n        /* \"#utility.yul\":4384:4414   */\n      gt\n        /* \"#utility.yul\":4381:4498   */\n      iszero\n      tag_237\n      jumpi\n        /* \"#utility.yul\":4417:4496   */\n      tag_238\n      tag_229\n      jump\t// in\n    tag_238:\n        /* \"#utility.yul\":4381:4498   */\n    tag_237:\n        /* \"#utility.yul\":4522:4585   */\n      tag_239\n        /* \"#utility.yul\":4577:4584   */\n      dup10\n        /* \"#utility.yul\":4568:4574   */\n      dup3\n        /* \"#utility.yul\":4557:4566   */\n      dup11\n        /* \"#utility.yul\":4553:4575   */\n      add\n        /* \"#utility.yul\":4522:4585   */\n      tag_206\n      jump\t// in\n    tag_239:\n        /* \"#utility.yul\":4512:4585   */\n      swap6\n      pop\n        /* \"#utility.yul\":4307:4595   */\n      pop\n        /* \"#utility.yul\":4634:4636   */\n      0x40\n        /* \"#utility.yul\":4660:4710   */\n      tag_240\n        /* \"#utility.yul\":4702:4709   */\n      dup10\n        /* \"#utility.yul\":4693:4699   */\n      dup3\n        /* \"#utility.yul\":4682:4691   */\n      dup11\n        /* \"#utility.yul\":4678:4700   */\n      add\n        /* \"#utility.yul\":4660:4710   */\n      tag_202\n      jump\t// in\n    tag_240:\n        /* \"#utility.yul\":4650:4710   */\n      swap5\n      pop\n        /* \"#utility.yul\":4605:4720   */\n      pop\n        /* \"#utility.yul\":4759:4761   */\n      0x60\n        /* \"#utility.yul\":4785:4838   */\n      tag_241\n        /* \"#utility.yul\":4830:4837   */\n      dup10\n        /* \"#utility.yul\":4821:4827   */\n      dup3\n        /* \"#utility.yul\":4810:4819   */\n      dup11\n        /* \"#utility.yul\":4806:4828   */\n      add\n        /* \"#utility.yul\":4785:4838   */\n      tag_181\n      jump\t// in\n    tag_241:\n        /* \"#utility.yul\":4775:4838   */\n      swap4\n      pop\n        /* \"#utility.yul\":4730:4848   */\n      pop\n        /* \"#utility.yul\":4915:4918   */\n      0x80\n        /* \"#utility.yul\":4904:4913   */\n      dup8\n        /* \"#utility.yul\":4900:4919   */\n      add\n        /* \"#utility.yul\":4887:4920   */\n      calldataload\n        /* \"#utility.yul\":4947:4965   */\n      0xffffffffffffffff\n        /* \"#utility.yul\":4939:4945   */\n      dup2\n        /* \"#utility.yul\":4936:4966   */\n      gt\n        /* \"#utility.yul\":4933:5050   */\n      iszero\n      tag_242\n      jumpi\n        /* \"#utility.yul\":4969:5048   */\n      tag_243\n      tag_229\n      jump\t// in\n    tag_243:\n        /* \"#utility.yul\":4933:5050   */\n    tag_242:\n        /* \"#utility.yul\":5074:5137   */\n      tag_244\n        /* \"#utility.yul\":5129:5136   */\n      dup10\n        /* \"#utility.yul\":5120:5126   */\n      dup3\n        /* \"#utility.yul\":5109:5118   */\n      dup11\n        /* \"#utility.yul\":5105:5127   */\n      add\n        /* \"#utility.yul\":5074:5137   */\n      tag_206\n      jump\t// in\n    tag_244:\n        /* \"#utility.yul\":5064:5137   */\n      swap3\n      pop\n        /* \"#utility.yul\":4858:5147   */\n      pop\n        /* \"#utility.yul\":5214:5217   */\n      0xa0\n        /* \"#utility.yul\":5203:5212   */\n      dup8\n        /* \"#utility.yul\":5199:5218   */\n      add\n        /* \"#utility.yul\":5186:5219   */\n      calldataload\n        /* \"#utility.yul\":5246:5264   */\n      0xffffffffffffffff\n        /* \"#utility.yul\":5238:5244   */\n      dup2\n        /* \"#utility.yul\":5235:5265   */\n      gt\n        /* \"#utility.yul\":5232:5349   */\n      iszero\n      tag_245\n      jumpi\n        /* \"#utility.yul\":5268:5347   */\n      tag_246\n      tag_229\n      jump\t// in\n    tag_246:\n        /* \"#utility.yul\":5232:5349   */\n    tag_245:\n        /* \"#utility.yul\":5373:5436   */\n      tag_247\n        /* \"#utility.yul\":5428:5435   */\n      dup10\n        /* \"#utility.yul\":5419:5425   */\n      dup3\n        /* \"#utility.yul\":5408:5417   */\n      dup11\n        /* \"#utility.yul\":5404:5426   */\n      add\n        /* \"#utility.yul\":5373:5436   */\n      tag_206\n      jump\t// in\n    tag_247:\n        /* \"#utility.yul\":5363:5436   */\n      swap2\n      pop\n        /* \"#utility.yul\":5157:5446   */\n      pop\n        /* \"#utility.yul\":3682:5453   */\n      swap3\n      swap6\n      pop\n      swap3\n      swap6\n      pop\n      swap3\n      swap6\n      jump\t// out\n        /* \"#utility.yul\":5459:6974   */\n    tag_32:\n        /* \"#utility.yul\":5600:5606   */\n      0x00\n        /* \"#utility.yul\":5608:5614   */\n      dup1\n        /* \"#utility.yul\":5616:5622   */\n      0x00\n        /* \"#utility.yul\":5624:5630   */\n      dup1\n        /* \"#utility.yul\":5673:5676   */\n      0x80\n        /* \"#utility.yul\":5661:5670   */\n      dup6\n        /* \"#utility.yul\":5652:5659   */\n      dup8\n        /* \"#utility.yul\":5648:5671   */\n      sub\n        /* \"#utility.yul\":5644:5677   */\n      slt\n        /* \"#utility.yul\":5641:5761   */\n      iszero\n      tag_249\n      jumpi\n        /* \"#utility.yul\":5680:5759   */\n      tag_250\n      tag_217\n      jump\t// in\n    tag_250:\n        /* \"#utility.yul\":5641:5761   */\n    tag_249:\n        /* \"#utility.yul\":5828:5829   */\n      0x00\n        /* \"#utility.yul\":5817:5826   */\n      dup6\n        /* \"#utility.yul\":5813:5830   */\n      add\n        /* \"#utility.yul\":5800:5831   */\n      calldataload\n        /* \"#utility.yul\":5858:5876   */\n      0xffffffffffffffff\n        /* \"#utility.yul\":5850:5856   */\n      dup2\n        /* \"#utility.yul\":5847:5877   */\n      gt\n        /* \"#utility.yul\":5844:5961   */\n      iszero\n      tag_251\n      jumpi\n        /* \"#utility.yul\":5880:5959   */\n      tag_252\n      tag_229\n      jump\t// in\n    tag_252:\n        /* \"#utility.yul\":5844:5961   */\n    tag_251:\n        /* \"#utility.yul\":5985:6048   */\n      tag_253\n        /* \"#utility.yul\":6040:6047   */\n      dup8\n        /* \"#utility.yul\":6031:6037   */\n      dup3\n        /* \"#utility.yul\":6020:6029   */\n      dup9\n        /* \"#utility.yul\":6016:6038   */\n      add\n        /* \"#utility.yul\":5985:6048   */\n      tag_206\n      jump\t// in\n    tag_253:\n        /* \"#utility.yul\":5975:6048   */\n      swap5\n      pop\n        /* \"#utility.yul\":5771:6058   */\n      pop\n        /* \"#utility.yul\":6125:6127   */\n      0x20\n        /* \"#utility.yul\":6114:6123   */\n      dup6\n        /* \"#utility.yul\":6110:6128   */\n      add\n        /* \"#utility.yul\":6097:6129   */\n      calldataload\n        /* \"#utility.yul\":6156:6174   */\n      0xffffffffffffffff\n        /* \"#utility.yul\":6148:6154   */\n      dup2\n        /* \"#utility.yul\":6145:6175   */\n      gt\n        /* \"#utility.yul\":6142:6259   */\n      iszero\n      tag_254\n      jumpi\n        /* \"#utility.yul\":6178:6257   */\n      tag_255\n      tag_229\n      jump\t// in\n    tag_255:\n        /* \"#utility.yul\":6142:6259   */\n    tag_254:\n        /* \"#utility.yul\":6283:6346   */\n      tag_256\n        /* \"#utility.yul\":6338:6345   */\n      dup8\n        /* \"#utility.yul\":6329:6335   */\n      dup3\n        /* \"#utility.yul\":6318:6327   */\n      dup9\n        /* \"#utility.yul\":6314:6336   */\n      add\n        /* \"#utility.yul\":6283:6346   */\n      tag_206\n      jump\t// in\n    tag_256:\n        /* \"#utility.yul\":6273:6346   */\n      swap4\n      pop\n        /* \"#utility.yul\":6068:6356   */\n      pop\n        /* \"#utility.yul\":6423:6425   */\n      0x40\n        /* \"#utility.yul\":6412:6421   */\n      dup6\n        /* \"#utility.yul\":6408:6426   */\n      add\n        /* \"#utility.yul\":6395:6427   */\n      calldataload\n        /* \"#utility.yul\":6454:6472   */\n      0xffffffffffffffff\n        /* \"#utility.yul\":6446:6452   */\n      dup2\n        /* \"#utility.yul\":6443:6473   */\n      gt\n        /* \"#utility.yul\":6440:6557   */\n      iszero\n      tag_257\n      jumpi\n        /* \"#utility.yul\":6476:6555   */\n      tag_258\n      tag_229\n      jump\t// in\n    tag_258:\n        /* \"#utility.yul\":6440:6557   */\n    tag_257:\n        /* \"#utility.yul\":6581:6644   */\n      tag_259\n        /* \"#utility.yul\":6636:6643   */\n      dup8\n        /* \"#utility.yul\":6627:6633   */\n      dup3\n        /* \"#utility.yul\":6616:6625   */\n      dup9\n        /* \"#utility.yul\":6612:6634   */\n      add\n        /* \"#utility.yul\":6581:6644   */\n      tag_206\n      jump\t// in\n    tag_259:\n        /* \"#utility.yul\":6571:6644   */\n      swap3\n      pop\n        /* \"#utility.yul\":6366:6654   */\n      pop\n        /* \"#utility.yul\":6721:6723   */\n      0x60\n        /* \"#utility.yul\":6710:6719   */\n      dup6\n        /* \"#utility.yul\":6706:6724   */\n      add\n        /* \"#utility.yul\":6693:6725   */\n      calldataload\n        /* \"#utility.yul\":6752:6770   */\n      0xffffffffffffffff\n        /* \"#utility.yul\":6744:6750   */\n      dup2\n        /* \"#utility.yul\":6741:6771   */\n      gt\n        /* \"#utility.yul\":6738:6855   */\n      iszero\n      tag_260\n      jumpi\n        /* \"#utility.yul\":6774:6853   */\n      tag_261\n      tag_229\n      jump\t// in\n    tag_261:\n        /* \"#utility.yul\":6738:6855   */\n    tag_260:\n        /* \"#utility.yul\":6879:6957   */\n      tag_262\n        /* \"#utility.yul\":6949:6956   */\n      dup8\n        /* \"#utility.yul\":6940:6946   */\n      dup3\n        /* \"#utility.yul\":6929:6938   */\n      dup9\n        /* \"#utility.yul\":6925:6947   */\n      add\n        /* \"#utility.yul\":6879:6957   */\n      tag_196\n      jump\t// in\n    tag_262:\n        /* \"#utility.yul\":6869:6957   */\n      swap2\n      pop\n        /* \"#utility.yul\":6664:6967   */\n      pop\n        /* \"#utility.yul\":5459:6974   */\n      swap3\n      swap6\n      swap2\n      swap5\n      pop\n      swap3\n      pop\n      jump\t// out\n        /* \"#utility.yul\":6980:7309   */\n    tag_20:\n        /* \"#utility.yul\":7039:7045   */\n      0x00\n        /* \"#utility.yul\":7088:7090   */\n      0x20\n        /* \"#utility.yul\":7076:7085   */\n      dup3\n        /* \"#utility.yul\":7067:7074   */\n      dup5\n        /* \"#utility.yul\":7063:7086   */\n      sub\n        /* \"#utility.yul\":7059:7091   */\n      slt\n        /* \"#utility.yul\":7056:7175   */\n      iszero\n      tag_264\n      jumpi\n        /* \"#utility.yul\":7094:7173   */\n      tag_265\n      tag_217\n      jump\t// in\n    tag_265:\n        /* \"#utility.yul\":7056:7175   */\n    tag_264:\n        /* \"#utility.yul\":7214:7215   */\n      0x00\n        /* \"#utility.yul\":7239:7292   */\n      tag_266\n        /* \"#utility.yul\":7284:7291   */\n      dup5\n        /* \"#utility.yul\":7275:7281   */\n      dup3\n        /* \"#utility.yul\":7264:7273   */\n      dup6\n        /* \"#utility.yul\":7260:7282   */\n      add\n        /* \"#utility.yul\":7239:7292   */\n      tag_181\n      jump\t// in\n    tag_266:\n        /* \"#utility.yul\":7229:7292   */\n      swap2\n      pop\n        /* \"#utility.yul\":7185:7302   */\n      pop\n        /* \"#utility.yul\":6980:7309   */\n      swap3\n      swap2\n      pop\n      pop\n      jump\t// out\n        /* \"#utility.yul\":7315:7789   */\n    tag_14:\n        /* \"#utility.yul\":7383:7389   */\n      0x00\n        /* \"#utility.yul\":7391:7397   */\n      dup1\n        /* \"#utility.yul\":7440:7442   */\n      0x40\n        /* \"#utility.yul\":7428:7437   */\n      dup4\n        /* \"#utility.yul\":7419:7426   */\n      dup6\n        /* \"#utility.yul\":7415:7438   */\n      sub\n        /* \"#utility.yul\":7411:7443   */\n      slt\n        /* \"#utility.yul\":7408:7527   */\n      iszero\n      tag_268\n      jumpi\n        /* \"#utility.yul\":7446:7525   */\n      tag_269\n      tag_217\n      jump\t// in\n    tag_269:\n        /* \"#utility.yul\":7408:7527   */\n    tag_268:\n        /* \"#utility.yul\":7566:7567   */\n      0x00\n        /* \"#utility.yul\":7591:7644   */\n      tag_270\n        /* \"#utility.yul\":7636:7643   */\n      dup6\n        /* \"#utility.yul\":7627:7633   */\n      dup3\n        /* \"#utility.yul\":7616:7625   */\n      dup7\n        /* \"#utility.yul\":7612:7634   */\n      add\n        /* \"#utility.yul\":7591:7644   */\n      tag_181\n      jump\t// in\n    tag_270:\n        /* \"#utility.yul\":7581:7644   */\n      swap3\n      pop\n        /* \"#utility.yul\":7537:7654   */\n      pop\n        /* \"#utility.yul\":7693:7695   */\n      0x20\n        /* \"#utility.yul\":7719:7772   */\n      tag_271\n        /* \"#utility.yul\":7764:7771   */\n      dup6\n        /* \"#utility.yul\":7755:7761   */\n      dup3\n        /* \"#utility.yul\":7744:7753   */\n      dup7\n        /* \"#utility.yul\":7740:7762   */\n      add\n        /* \"#utility.yul\":7719:7772   */\n      tag_181\n      jump\t// in\n    tag_271:\n        /* \"#utility.yul\":7709:7772   */\n      swap2\n      pop\n        /* \"#utility.yul\":7664:7782   */\n      pop\n        /* \"#utility.yul\":7315:7789   */\n      swap3\n      pop\n      swap3\n      swap1\n      pop\n      jump\t// out\n        /* \"#utility.yul\":7795:9246   */\n    tag_46:\n        /* \"#utility.yul\":7920:7926   */\n      0x00\n        /* \"#utility.yul\":7928:7934   */\n      dup1\n        /* \"#utility.yul\":7936:7942   */\n      0x00\n        /* \"#utility.yul\":7944:7950   */\n      dup1\n        /* \"#utility.yul\":7952:7958   */\n      0x00\n        /* \"#utility.yul\":8001:8004   */\n      0xa0\n        /* \"#utility.yul\":7989:7998   */\n      dup7\n        /* \"#utility.yul\":7980:7987   */\n      dup9\n        /* \"#utility.yul\":7976:7999   */\n      sub\n        /* \"#utility.yul\":7972:8005   */\n      slt\n        /* \"#utility.yul\":7969:8089   */\n      iszero\n      tag_273\n      jumpi\n        /* \"#utility.yul\":8008:8087   */\n      tag_274\n      tag_217\n      jump\t// in\n    tag_274:\n        /* \"#utility.yul\":7969:8089   */\n    tag_273:\n        /* \"#utility.yul\":8128:8129   */\n      0x00\n        /* \"#utility.yul\":8153:8206   */\n      tag_275\n        /* \"#utility.yul\":8198:8205   */\n      dup9\n        /* \"#utility.yul\":8189:8195   */\n      dup3\n        /* \"#utility.yul\":8178:8187   */\n      dup10\n        /* \"#utility.yul\":8174:8196   */\n      add\n        /* \"#utility.yul\":8153:8206   */\n      tag_181\n      jump\t// in\n    tag_275:\n        /* \"#utility.yul\":8143:8206   */\n      swap6\n      pop\n        /* \"#utility.yul\":8099:8216   */\n      pop\n        /* \"#utility.yul\":8255:8257   */\n      0x20\n        /* \"#utility.yul\":8281:8334   */\n      tag_276\n        /* \"#utility.yul\":8326:8333   */\n      dup9\n        /* \"#utility.yul\":8317:8323   */\n      dup3\n        /* \"#utility.yul\":8306:8315   */\n      dup10\n        /* \"#utility.yul\":8302:8324   */\n      add\n        /* \"#utility.yul\":8281:8334   */\n      tag_181\n      jump\t// in\n    tag_276:\n        /* \"#utility.yul\":8271:8334   */\n      swap5\n      pop\n        /* \"#utility.yul\":8226:8344   */\n      pop\n        /* \"#utility.yul\":8411:8413   */\n      0x40\n        /* \"#utility.yul\":8400:8409   */\n      dup7\n        /* \"#utility.yul\":8396:8414   */\n      add\n        /* \"#utility.yul\":8383:8415   */\n      calldataload\n        /* \"#utility.yul\":8442:8460   */\n      0xffffffffffffffff\n        /* \"#utility.yul\":8434:8440   */\n      dup2\n        /* \"#utility.yul\":8431:8461   */\n      gt\n        /* \"#utility.yul\":8428:8545   */\n      iszero\n      tag_277\n      jumpi\n        /* \"#utility.yul\":8464:8543   */\n      tag_278\n      tag_229\n      jump\t// in\n    tag_278:\n        /* \"#utility.yul\":8428:8545   */\n    tag_277:\n        /* \"#utility.yul\":8569:8632   */\n      tag_279\n        /* \"#utility.yul\":8624:8631   */\n      dup9\n        /* \"#utility.yul\":8615:8621   */\n      dup3\n        /* \"#utility.yul\":8604:8613   */\n      dup10\n        /* \"#utility.yul\":8600:8622   */\n      add\n        /* \"#utility.yul\":8569:8632   */\n      tag_206\n      jump\t// in\n    tag_279:\n        /* \"#utility.yul\":8559:8632   */\n      swap4\n      pop\n        /* \"#utility.yul\":8354:8642   */\n      pop\n        /* \"#utility.yul\":8709:8711   */\n      0x60\n        /* \"#utility.yul\":8698:8707   */\n      dup7\n        /* \"#utility.yul\":8694:8712   */\n      add\n        /* \"#utility.yul\":8681:8713   */\n      calldataload\n        /* \"#utility.yul\":8740:8758   */\n      0xffffffffffffffff\n        /* \"#utility.yul\":8732:8738   */\n      dup2\n        /* \"#utility.yul\":8729:8759   */\n      gt\n        /* \"#utility.yul\":8726:8843   */\n      iszero\n      tag_280\n      jumpi\n        /* \"#utility.yul\":8762:8841   */\n      tag_281\n      tag_229\n      jump\t// in\n    tag_281:\n        /* \"#utility.yul\":8726:8843   */\n    tag_280:\n        /* \"#utility.yul\":8867:8930   */\n      tag_282\n        /* \"#utility.yul\":8922:8929   */\n      dup9\n        /* \"#utility.yul\":8913:8919   */\n      dup3\n        /* \"#utility.yul\":8902:8911   */\n      dup10\n        /* \"#utility.yul\":8898:8920   */\n      add\n        /* \"#utility.yul\":8867:8930   */\n      tag_206\n      jump\t// in\n    tag_282:\n        /* \"#utility.yul\":8857:8930   */\n      swap3\n      pop\n        /* \"#utility.yul\":8652:8940   */\n      pop\n        /* \"#utility.yul\":9007:9010   */\n      0x80\n        /* \"#utility.yul\":8996:9005   */\n      dup7\n        /* \"#utility.yul\":8992:9011   */\n      add\n        /* \"#utility.yul\":8979:9012   */\n      calldataload\n        /* \"#utility.yul\":9039:9057   */\n      0xffffffffffffffff\n        /* \"#utility.yul\":9031:9037   */\n      dup2\n        /* \"#utility.yul\":9028:9058   */\n      gt\n        /* \"#utility.yul\":9025:9142   */\n      iszero\n      tag_283\n      jumpi\n        /* \"#utility.yul\":9061:9140   */\n      tag_284\n      tag_229\n      jump\t// in\n    tag_284:\n        /* \"#utility.yul\":9025:9142   */\n    tag_283:\n        /* \"#utility.yul\":9166:9229   */\n      tag_285\n        /* \"#utility.yul\":9221:9228   */\n      dup9\n        /* \"#utility.yul\":9212:9218   */\n      dup3\n        /* \"#utility.yul\":9201:9210   */\n      dup10\n        /* \"#utility.yul\":9197:9219   */\n      add\n        /* \"#utility.yul\":9166:9229   */\n      tag_206\n      jump\t// in\n    tag_285:\n        /* \"#utility.yul\":9156:9229   */\n      swap2\n      pop\n        /* \"#utility.yul\":8950:9239   */\n      pop\n        /* \"#utility.yul\":7795:9246   */\n      swap3\n      swap6\n      pop\n      swap3\n      swap6\n      swap1\n      swap4\n      pop\n      jump\t// out\n        /* \"#utility.yul\":9252:9394   */\n    tag_286:\n        /* \"#utility.yul\":9355:9387   */\n      tag_288\n        /* \"#utility.yul\":9381:9386   */\n      dup2\n        /* \"#utility.yul\":9355:9387   */\n      tag_289\n      jump\t// in\n    tag_288:\n        /* \"#utility.yul\":9350:9353   */\n      dup3\n        /* \"#utility.yul\":9343:9388   */\n      mstore\n        /* \"#utility.yul\":9252:9394   */\n      pop\n      pop\n      jump\t// out\n        /* \"#utility.yul\":9400:9518   */\n    tag_290:\n        /* \"#utility.yul\":9487:9511   */\n      tag_292\n        /* \"#utility.yul\":9505:9510   */\n      dup2\n        /* \"#utility.yul\":9487:9511   */\n      tag_293\n      jump\t// in\n    tag_292:\n        /* \"#utility.yul\":9482:9485   */\n      dup3\n        /* \"#utility.yul\":9475:9512   */\n      mstore\n        /* \"#utility.yul\":9400:9518   */\n      pop\n      pop\n      jump\t// out\n        /* \"#utility.yul\":9524:9633   */\n    tag_294:\n        /* \"#utility.yul\":9605:9626   */\n      tag_296\n        /* \"#utility.yul\":9620:9625   */\n      dup2\n        /* \"#utility.yul\":9605:9626   */\n      tag_297\n      jump\t// in\n    tag_296:\n        /* \"#utility.yul\":9600:9603   */\n      dup3\n        /* \"#utility.yul\":9593:9627   */\n      mstore\n        /* \"#utility.yul\":9524:9633   */\n      pop\n      pop\n      jump\t// out\n        /* \"#utility.yul\":9639:9983   */\n    tag_298:\n        /* \"#utility.yul\":9717:9720   */\n      0x00\n        /* \"#utility.yul\":9745:9784   */\n      tag_300\n        /* \"#utility.yul\":9778:9783   */\n      dup3\n        /* \"#utility.yul\":9745:9784   */\n      tag_301\n      jump\t// in\n    tag_300:\n        /* \"#utility.yul\":9800:9861   */\n      tag_302\n        /* \"#utility.yul\":9854:9860   */\n      dup2\n        /* \"#utility.yul\":9849:9852   */\n      dup6\n        /* \"#utility.yul\":9800:9861   */\n      tag_303\n      jump\t// in\n    tag_302:\n        /* \"#utility.yul\":9793:9861   */\n      swap4\n      pop\n        /* \"#utility.yul\":9870:9922   */\n      tag_304\n        /* \"#utility.yul\":9915:9921   */\n      dup2\n        /* \"#utility.yul\":9910:9913   */\n      dup6\n        /* \"#utility.yul\":9903:9907   */\n      0x20\n        /* \"#utility.yul\":9896:9901   */\n      dup7\n        /* \"#utility.yul\":9892:9908   */\n      add\n        /* \"#utility.yul\":9870:9922   */\n      tag_305\n      jump\t// in\n    tag_304:\n        /* \"#utility.yul\":9947:9976   */\n      tag_306\n        /* \"#utility.yul\":9969:9975   */\n      dup2\n        /* \"#utility.yul\":9947:9976   */\n      tag_307\n      jump\t// in\n    tag_306:\n        /* \"#utility.yul\":9942:9945   */\n      dup5\n        /* \"#utility.yul\":9938:9977   */\n      add\n        /* \"#utility.yul\":9931:9977   */\n      swap2\n      pop\n        /* \"#utility.yul\":9721:9983   */\n      pop\n        /* \"#utility.yul\":9639:9983   */\n      swap3\n      swap2\n      pop\n      pop\n      jump\t// out\n        /* \"#utility.yul\":9989:10353   */\n    tag_308:\n        /* \"#utility.yul\":10077:10080   */\n      0x00\n        /* \"#utility.yul\":10105:10144   */\n      tag_310\n        /* \"#utility.yul\":10138:10143   */\n      dup3\n        /* \"#utility.yul\":10105:10144   */\n      tag_301\n      jump\t// in\n    tag_310:\n        /* \"#utility.yul\":10160:10231   */\n      tag_311\n        /* \"#utility.yul\":10224:10230   */\n      dup2\n        /* \"#utility.yul\":10219:10222   */\n      dup6\n        /* \"#utility.yul\":10160:10231   */\n      tag_312\n      jump\t// in\n    tag_311:\n        /* \"#utility.yul\":10153:10231   */\n      swap4\n      pop\n        /* \"#utility.yul\":10240:10292   */\n      tag_313\n        /* \"#utility.yul\":10285:10291   */\n      dup2\n        /* \"#utility.yul\":10280:10283   */\n      dup6\n        /* \"#utility.yul\":10273:10277   */\n      0x20\n        /* \"#utility.yul\":10266:10271   */\n      dup7\n        /* \"#utility.yul\":10262:10278   */\n      add\n        /* \"#utility.yul\":10240:10292   */\n      tag_305\n      jump\t// in\n    tag_313:\n        /* \"#utility.yul\":10317:10346   */\n      tag_314\n        /* \"#utility.yul\":10339:10345   */\n      dup2\n        /* \"#utility.yul\":10317:10346   */\n      tag_307\n      jump\t// in\n    tag_314:\n        /* \"#utility.yul\":10312:10315   */\n      dup5\n        /* \"#utility.yul\":10308:10347   */\n      add\n        /* \"#utility.yul\":10301:10347   */\n      swap2\n      pop\n        /* \"#utility.yul\":10081:10353   */\n      pop\n        /* \"#utility.yul\":9989:10353   */\n      swap3\n      swap2\n      pop\n      pop\n      jump\t// out\n        /* \"#utility.yul\":10421:11110   */\n    tag_315:\n        /* \"#utility.yul\":10544:10547   */\n      0x00\n        /* \"#utility.yul\":10580:10584   */\n      0x40\n        /* \"#utility.yul\":10575:10578   */\n      dup4\n        /* \"#utility.yul\":10571:10585   */\n      add\n        /* \"#utility.yul\":10671:10675   */\n      0x00\n        /* \"#utility.yul\":10664:10669   */\n      dup4\n        /* \"#utility.yul\":10660:10676   */\n      add\n        /* \"#utility.yul\":10654:10677   */\n      mload\n        /* \"#utility.yul\":10724:10727   */\n      dup5\n        /* \"#utility.yul\":10718:10722   */\n      dup3\n        /* \"#utility.yul\":10714:10728   */\n      sub\n        /* \"#utility.yul\":10707:10711   */\n      0x00\n        /* \"#utility.yul\":10702:10705   */\n      dup7\n        /* \"#utility.yul\":10698:10712   */\n      add\n        /* \"#utility.yul\":10691:10729   */\n      mstore\n        /* \"#utility.yul\":10750:10823   */\n      tag_317\n        /* \"#utility.yul\":10818:10822   */\n      dup3\n        /* \"#utility.yul\":10804:10816   */\n      dup3\n        /* \"#utility.yul\":10750:10823   */\n      tag_298\n      jump\t// in\n    tag_317:\n        /* \"#utility.yul\":10742:10823   */\n      swap2\n      pop\n        /* \"#utility.yul\":10595:10834   */\n      pop\n        /* \"#utility.yul\":10920:10924   */\n      0x20\n        /* \"#utility.yul\":10913:10918   */\n      dup4\n        /* \"#utility.yul\":10909:10925   */\n      add\n        /* \"#utility.yul\":10903:10926   */\n      mload\n        /* \"#utility.yul\":10973:10976   */\n      dup5\n        /* \"#utility.yul\":10967:10971   */\n      dup3\n        /* \"#utility.yul\":10963:10977   */\n      sub\n        /* \"#utility.yul\":10956:10960   */\n      0x20\n        /* \"#utility.yul\":10951:10954   */\n      dup7\n        /* \"#utility.yul\":10947:10961   */\n      add\n        /* \"#utility.yul\":10940:10978   */\n      mstore\n        /* \"#utility.yul\":10999:11072   */\n      tag_318\n        /* \"#utility.yul\":11067:11071   */\n      dup3\n        /* \"#utility.yul\":11053:11065   */\n      dup3\n        /* \"#utility.yul\":10999:11072   */\n      tag_298\n      jump\t// in\n    tag_318:\n        /* \"#utility.yul\":10991:11072   */\n      swap2\n      pop\n        /* \"#utility.yul\":10844:11083   */\n      pop\n        /* \"#utility.yul\":11100:11104   */\n      dup1\n        /* \"#utility.yul\":11093:11104   */\n      swap2\n      pop\n        /* \"#utility.yul\":10549:11110   */\n      pop\n        /* \"#utility.yul\":10421:11110   */\n      swap3\n      swap2\n      pop\n      pop\n      jump\t// out\n        /* \"#utility.yul\":11116:11234   */\n    tag_319:\n        /* \"#utility.yul\":11203:11227   */\n      tag_321\n        /* \"#utility.yul\":11221:11226   */\n      dup2\n        /* \"#utility.yul\":11203:11227   */\n      tag_322\n      jump\t// in\n    tag_321:\n        /* \"#utility.yul\":11198:11201   */\n      dup3\n        /* \"#utility.yul\":11191:11228   */\n      mstore\n        /* \"#utility.yul\":11116:11234   */\n      pop\n      pop\n      jump\t// out\n        /* \"#utility.yul\":11240:12641   */\n    tag_29:\n        /* \"#utility.yul\":11627:11631   */\n      0x00\n        /* \"#utility.yul\":11665:11668   */\n      0x0120\n        /* \"#utility.yul\":11654:11663   */\n      dup3\n        /* \"#utility.yul\":11650:11669   */\n      add\n        /* \"#utility.yul\":11642:11669   */\n      swap1\n      pop\n        /* \"#utility.yul\":11679:11766   */\n      tag_324\n        /* \"#utility.yul\":11763:11764   */\n      0x00\n        /* \"#utility.yul\":11752:11761   */\n      dup4\n        /* \"#utility.yul\":11748:11765   */\n      add\n        /* \"#utility.yul\":11739:11745   */\n      dup13\n        /* \"#utility.yul\":11679:11766   */\n      tag_286\n      jump\t// in\n    tag_324:\n        /* \"#utility.yul\":11813:11822   */\n      dup2\n        /* \"#utility.yul\":11807:11811   */\n      dup2\n        /* \"#utility.yul\":11803:11823   */\n      sub\n        /* \"#utility.yul\":11798:11800   */\n      0x20\n        /* \"#utility.yul\":11787:11796   */\n      dup4\n        /* \"#utility.yul\":11783:11801   */\n      add\n        /* \"#utility.yul\":11776:11824   */\n      mstore\n        /* \"#utility.yul\":11841:11919   */\n      tag_325\n        /* \"#utility.yul\":11914:11918   */\n      dup2\n        /* \"#utility.yul\":11905:11911   */\n      dup12\n        /* \"#utility.yul\":11841:11919   */\n      tag_308\n      jump\t// in\n    tag_325:\n        /* \"#utility.yul\":11833:11919   */\n      swap1\n      pop\n        /* \"#utility.yul\":11966:11975   */\n      dup2\n        /* \"#utility.yul\":11960:11964   */\n      dup2\n        /* \"#utility.yul\":11956:11976   */\n      sub\n        /* \"#utility.yul\":11951:11953   */\n      0x40\n        /* \"#utility.yul\":11940:11949   */\n      dup4\n        /* \"#utility.yul\":11936:11954   */\n      add\n        /* \"#utility.yul\":11929:11977   */\n      mstore\n        /* \"#utility.yul\":11994:12072   */\n      tag_326\n        /* \"#utility.yul\":12067:12071   */\n      dup2\n        /* \"#utility.yul\":12058:12064   */\n      dup11\n        /* \"#utility.yul\":11994:12072   */\n      tag_308\n      jump\t// in\n    tag_326:\n        /* \"#utility.yul\":11986:12072   */\n      swap1\n      pop\n        /* \"#utility.yul\":12119:12128   */\n      dup2\n        /* \"#utility.yul\":12113:12117   */\n      dup2\n        /* \"#utility.yul\":12109:12129   */\n      sub\n        /* \"#utility.yul\":12104:12106   */\n      0x60\n        /* \"#utility.yul\":12093:12102   */\n      dup4\n        /* \"#utility.yul\":12089:12107   */\n      add\n        /* \"#utility.yul\":12082:12130   */\n      mstore\n        /* \"#utility.yul\":12147:12225   */\n      tag_327\n        /* \"#utility.yul\":12220:12224   */\n      dup2\n        /* \"#utility.yul\":12211:12217   */\n      dup10\n        /* \"#utility.yul\":12147:12225   */\n      tag_308\n      jump\t// in\n    tag_327:\n        /* \"#utility.yul\":12139:12225   */\n      swap1\n      pop\n        /* \"#utility.yul\":12235:12308   */\n      tag_328\n        /* \"#utility.yul\":12303:12306   */\n      0x80\n        /* \"#utility.yul\":12292:12301   */\n      dup4\n        /* \"#utility.yul\":12288:12307   */\n      add\n        /* \"#utility.yul\":12279:12285   */\n      dup9\n        /* \"#utility.yul\":12235:12308   */\n      tag_319\n      jump\t// in\n    tag_328:\n        /* \"#utility.yul\":12318:12391   */\n      tag_329\n        /* \"#utility.yul\":12386:12389   */\n      0xa0\n        /* \"#utility.yul\":12375:12384   */\n      dup4\n        /* \"#utility.yul\":12371:12390   */\n      add\n        /* \"#utility.yul\":12362:12368   */\n      dup8\n        /* \"#utility.yul\":12318:12391   */\n      tag_319\n      jump\t// in\n    tag_329:\n        /* \"#utility.yul\":12401:12474   */\n      tag_330\n        /* \"#utility.yul\":12469:12472   */\n      0xc0\n        /* \"#utility.yul\":12458:12467   */\n      dup4\n        /* \"#utility.yul\":12454:12473   */\n      add\n        /* \"#utility.yul\":12445:12451   */\n      dup7\n        /* \"#utility.yul\":12401:12474   */\n      tag_319\n      jump\t// in\n    tag_330:\n        /* \"#utility.yul\":12484:12551   */\n      tag_331\n        /* \"#utility.yul\":12546:12549   */\n      0xe0\n        /* \"#utility.yul\":12535:12544   */\n      dup4\n        /* \"#utility.yul\":12531:12550   */\n      add\n        /* \"#utility.yul\":12522:12528   */\n      dup6\n        /* \"#utility.yul\":12484:12551   */\n      tag_294\n      jump\t// in\n    tag_331:\n        /* \"#utility.yul\":12561:12634   */\n      tag_332\n        /* \"#utility.yul\":12629:12632   */\n      0x0100\n        /* \"#utility.yul\":12618:12627   */\n      dup4\n        /* \"#utility.yul\":12614:12633   */\n      add\n        /* \"#utility.yul\":12605:12611   */\n      dup5\n        /* \"#utility.yul\":12561:12634   */\n      tag_319\n      jump\t// in\n    tag_332:\n        /* \"#utility.yul\":11240:12641   */\n      swap11\n      swap10\n      pop\n      pop\n      pop\n      pop\n      pop\n      pop\n      pop\n      pop\n      pop\n      pop\n      jump\t// out\n        /* \"#utility.yul\":12647:13704   */\n    tag_39:\n        /* \"#utility.yul\":12970:12974   */\n      0x00\n        /* \"#utility.yul\":13008:13011   */\n      0xc0\n        /* \"#utility.yul\":12997:13006   */\n      dup3\n        /* \"#utility.yul\":12993:13012   */\n      add\n        /* \"#utility.yul\":12985:13012   */\n      swap1\n      pop\n        /* \"#utility.yul\":13022:13109   */\n      tag_334\n        /* \"#utility.yul\":13106:13107   */\n      0x00\n        /* \"#utility.yul\":13095:13104   */\n      dup4\n        /* \"#utility.yul\":13091:13108   */\n      add\n        /* \"#utility.yul\":13082:13088   */\n      dup10\n        /* \"#utility.yul\":13022:13109   */\n      tag_286\n      jump\t// in\n    tag_334:\n        /* \"#utility.yul\":13119:13191   */\n      tag_335\n        /* \"#utility.yul\":13187:13189   */\n      0x20\n        /* \"#utility.yul\":13176:13185   */\n      dup4\n        /* \"#utility.yul\":13172:13190   */\n      add\n        /* \"#utility.yul\":13163:13169   */\n      dup9\n        /* \"#utility.yul\":13119:13191   */\n      tag_319\n      jump\t// in\n    tag_335:\n        /* \"#utility.yul\":13201:13273   */\n      tag_336\n        /* \"#utility.yul\":13269:13271   */\n      0x40\n        /* \"#utility.yul\":13258:13267   */\n      dup4\n        /* \"#utility.yul\":13254:13272   */\n      add\n        /* \"#utility.yul\":13245:13251   */\n      dup8\n        /* \"#utility.yul\":13201:13273   */\n      tag_319\n      jump\t// in\n    tag_336:\n        /* \"#utility.yul\":13320:13329   */\n      dup2\n        /* \"#utility.yul\":13314:13318   */\n      dup2\n        /* \"#utility.yul\":13310:13330   */\n      sub\n        /* \"#utility.yul\":13305:13307   */\n      0x60\n        /* \"#utility.yul\":13294:13303   */\n      dup4\n        /* \"#utility.yul\":13290:13308   */\n      add\n        /* \"#utility.yul\":13283:13331   */\n      mstore\n        /* \"#utility.yul\":13348:13426   */\n      tag_337\n        /* \"#utility.yul\":13421:13425   */\n      dup2\n        /* \"#utility.yul\":13412:13418   */\n      dup7\n        /* \"#utility.yul\":13348:13426   */\n      tag_308\n      jump\t// in\n    tag_337:\n        /* \"#utility.yul\":13340:13426   */\n      swap1\n      pop\n        /* \"#utility.yul\":13436:13509   */\n      tag_338\n        /* \"#utility.yul\":13504:13507   */\n      0x80\n        /* \"#utility.yul\":13493:13502   */\n      dup4\n        /* \"#utility.yul\":13489:13508   */\n      add\n        /* \"#utility.yul\":13480:13486   */\n      dup6\n        /* \"#utility.yul\":13436:13509   */\n      tag_319\n      jump\t// in\n    tag_338:\n        /* \"#utility.yul\":13557:13566   */\n      dup2\n        /* \"#utility.yul\":13551:13555   */\n      dup2\n        /* \"#utility.yul\":13547:13567   */\n      sub\n        /* \"#utility.yul\":13541:13544   */\n      0xa0\n        /* \"#utility.yul\":13530:13539   */\n      dup4\n        /* \"#utility.yul\":13526:13545   */\n      add\n        /* \"#utility.yul\":13519:13568   */\n      mstore\n        /* \"#utility.yul\":13585:13697   */\n      tag_339\n        /* \"#utility.yul\":13692:13696   */\n      dup2\n        /* \"#utility.yul\":13683:13689   */\n      dup5\n        /* \"#utility.yul\":13585:13697   */\n      tag_315\n      jump\t// in\n    tag_339:\n        /* \"#utility.yul\":13577:13697   */\n      swap1\n      pop\n        /* \"#utility.yul\":12647:13704   */\n      swap8\n      swap7\n      pop\n      pop\n      pop\n      pop\n      pop\n      pop\n      pop\n      jump\t// out\n        /* \"#utility.yul\":13710:14925   */\n    tag_17:\n        /* \"#utility.yul\":14059:14063   */\n      0x00\n        /* \"#utility.yul\":14097:14100   */\n      0xe0\n        /* \"#utility.yul\":14086:14095   */\n      dup3\n        /* \"#utility.yul\":14082:14101   */\n      add\n        /* \"#utility.yul\":14074:14101   */\n      swap1\n      pop\n        /* \"#utility.yul\":14147:14156   */\n      dup2\n        /* \"#utility.yul\":14141:14145   */\n      dup2\n        /* \"#utility.yul\":14137:14157   */\n      sub\n        /* \"#utility.yul\":14133:14134   */\n      0x00\n        /* \"#utility.yul\":14122:14131   */\n      dup4\n        /* \"#utility.yul\":14118:14135   */\n      add\n        /* \"#utility.yul\":14111:14158   */\n      mstore\n        /* \"#utility.yul\":14175:14253   */\n      tag_341\n        /* \"#utility.yul\":14248:14252   */\n      dup2\n        /* \"#utility.yul\":14239:14245   */\n      dup11\n        /* \"#utility.yul\":14175:14253   */\n      tag_308\n      jump\t// in\n    tag_341:\n        /* \"#utility.yul\":14167:14253   */\n      swap1\n      pop\n        /* \"#utility.yul\":14300:14309   */\n      dup2\n        /* \"#utility.yul\":14294:14298   */\n      dup2\n        /* \"#utility.yul\":14290:14310   */\n      sub\n        /* \"#utility.yul\":14285:14287   */\n      0x20\n        /* \"#utility.yul\":14274:14283   */\n      dup4\n        /* \"#utility.yul\":14270:14288   */\n      add\n        /* \"#utility.yul\":14263:14311   */\n      mstore\n        /* \"#utility.yul\":14328:14406   */\n      tag_342\n        /* \"#utility.yul\":14401:14405   */\n      dup2\n        /* \"#utility.yul\":14392:14398   */\n      dup10\n        /* \"#utility.yul\":14328:14406   */\n      tag_308\n      jump\t// in\n    tag_342:\n        /* \"#utility.yul\":14320:14406   */\n      swap1\n      pop\n        /* \"#utility.yul\":14416:14488   */\n      tag_343\n        /* \"#utility.yul\":14484:14486   */\n      0x40\n        /* \"#utility.yul\":14473:14482   */\n      dup4\n        /* \"#utility.yul\":14469:14487   */\n      add\n        /* \"#utility.yul\":14460:14466   */\n      dup9\n        /* \"#utility.yul\":14416:14488   */\n      tag_319\n      jump\t// in\n    tag_343:\n        /* \"#utility.yul\":14498:14564   */\n      tag_344\n        /* \"#utility.yul\":14560:14562   */\n      0x60\n        /* \"#utility.yul\":14549:14558   */\n      dup4\n        /* \"#utility.yul\":14545:14563   */\n      add\n        /* \"#utility.yul\":14536:14542   */\n      dup8\n        /* \"#utility.yul\":14498:14564   */\n      tag_294\n      jump\t// in\n    tag_344:\n        /* \"#utility.yul\":14574:14647   */\n      tag_345\n        /* \"#utility.yul\":14642:14645   */\n      0x80\n        /* \"#utility.yul\":14631:14640   */\n      dup4\n        /* \"#utility.yul\":14627:14646   */\n      add\n        /* \"#utility.yul\":14618:14624   */\n      dup7\n        /* \"#utility.yul\":14574:14647   */\n      tag_290\n      jump\t// in\n    tag_345:\n        /* \"#utility.yul\":14657:14730   */\n      tag_346\n        /* \"#utility.yul\":14725:14728   */\n      0xa0\n        /* \"#utility.yul\":14714:14723   */\n      dup4\n        /* \"#utility.yul\":14710:14729   */\n      add\n        /* \"#utility.yul\":14701:14707   */\n      dup6\n        /* \"#utility.yul\":14657:14730   */\n      tag_319\n      jump\t// in\n    tag_346:\n        /* \"#utility.yul\":14778:14787   */\n      dup2\n        /* \"#utility.yul\":14772:14776   */\n      dup2\n        /* \"#utility.yul\":14768:14788   */\n      sub\n        /* \"#utility.yul\":14762:14765   */\n      0xc0\n        /* \"#utility.yul\":14751:14760   */\n      dup4\n        /* \"#utility.yul\":14747:14766   */\n      add\n        /* \"#utility.yul\":14740:14789   */\n      mstore\n        /* \"#utility.yul\":14806:14918   */\n      tag_347\n        /* \"#utility.yul\":14913:14917   */\n      dup2\n        /* \"#utility.yul\":14904:14910   */\n      dup5\n        /* \"#utility.yul\":14806:14918   */\n      tag_315\n      jump\t// in\n    tag_347:\n        /* \"#utility.yul\":14798:14918   */\n      swap1\n      pop\n        /* \"#utility.yul\":13710:14925   */\n      swap9\n      swap8\n      pop\n      pop\n      pop\n      pop\n      pop\n      pop\n      pop\n      pop\n      jump\t// out\n        /* \"#utility.yul\":14931:15829   */\n    tag_23:\n        /* \"#utility.yul\":15200:15204   */\n      0x00\n        /* \"#utility.yul\":15238:15241   */\n      0xc0\n        /* \"#utility.yul\":15227:15236   */\n      dup3\n        /* \"#utility.yul\":15223:15242   */\n      add\n        /* \"#utility.yul\":15215:15242   */\n      swap1\n      pop\n        /* \"#utility.yul\":15288:15297   */\n      dup2\n        /* \"#utility.yul\":15282:15286   */\n      dup2\n        /* \"#utility.yul\":15278:15298   */\n      sub\n        /* \"#utility.yul\":15274:15275   */\n      0x00\n        /* \"#utility.yul\":15263:15272   */\n      dup4\n        /* \"#utility.yul\":15259:15276   */\n      add\n        /* \"#utility.yul\":15252:15299   */\n      mstore\n        /* \"#utility.yul\":15316:15394   */\n      tag_349\n        /* \"#utility.yul\":15389:15393   */\n      dup2\n        /* \"#utility.yul\":15380:15386   */\n      dup10\n        /* \"#utility.yul\":15316:15394   */\n      tag_308\n      jump\t// in\n    tag_349:\n        /* \"#utility.yul\":15308:15394   */\n      swap1\n      pop\n        /* \"#utility.yul\":15404:15476   */\n      tag_350\n        /* \"#utility.yul\":15472:15474   */\n      0x20\n        /* \"#utility.yul\":15461:15470   */\n      dup4\n        /* \"#utility.yul\":15457:15475   */\n      add\n        /* \"#utility.yul\":15448:15454   */\n      dup9\n        /* \"#utility.yul\":15404:15476   */\n      tag_319\n      jump\t// in\n    tag_350:\n        /* \"#utility.yul\":15486:15574   */\n      tag_351\n        /* \"#utility.yul\":15570:15572   */\n      0x40\n        /* \"#utility.yul\":15559:15568   */\n      dup4\n        /* \"#utility.yul\":15555:15573   */\n      add\n        /* \"#utility.yul\":15546:15552   */\n      dup8\n        /* \"#utility.yul\":15486:15574   */\n      tag_286\n      jump\t// in\n    tag_351:\n        /* \"#utility.yul\":15584:15656   */\n      tag_352\n        /* \"#utility.yul\":15652:15654   */\n      0x60\n        /* \"#utility.yul\":15641:15650   */\n      dup4\n        /* \"#utility.yul\":15637:15655   */\n      add\n        /* \"#utility.yul\":15628:15634   */\n      dup7\n        /* \"#utility.yul\":15584:15656   */\n      tag_319\n      jump\t// in\n    tag_352:\n        /* \"#utility.yul\":15666:15739   */\n      tag_353\n        /* \"#utility.yul\":15734:15737   */\n      0x80\n        /* \"#utility.yul\":15723:15732   */\n      dup4\n        /* \"#utility.yul\":15719:15738   */\n      add\n        /* \"#utility.yul\":15710:15716   */\n      dup6\n        /* \"#utility.yul\":15666:15739   */\n      tag_319\n      jump\t// in\n    tag_353:\n        /* \"#utility.yul\":15749:15822   */\n      tag_354\n        /* \"#utility.yul\":15817:15820   */\n      0xa0\n        /* \"#utility.yul\":15806:15815   */\n      dup4\n        /* \"#utility.yul\":15802:15821   */\n      add\n        /* \"#utility.yul\":15793:15799   */\n      dup5\n        /* \"#utility.yul\":15749:15822   */\n      tag_319\n      jump\t// in\n    tag_354:\n        /* \"#utility.yul\":14931:15829   */\n      swap8\n      swap7\n      pop\n      pop\n      pop\n      pop\n      pop\n      pop\n      pop\n      jump\t// out\n        /* \"#utility.yul\":15835:15964   */\n    tag_173:\n        /* \"#utility.yul\":15869:15875   */\n      0x00\n        /* \"#utility.yul\":15896:15916   */\n      tag_356\n      tag_357\n      jump\t// in\n    tag_356:\n        /* \"#utility.yul\":15886:15916   */\n      swap1\n      pop\n        /* \"#utility.yul\":15925:15958   */\n      tag_358\n        /* \"#utility.yul\":15953:15957   */\n      dup3\n        /* \"#utility.yul\":15945:15951   */\n      dup3\n        /* \"#utility.yul\":15925:15958   */\n      tag_359\n      jump\t// in\n    tag_358:\n        /* \"#utility.yul\":15835:15964   */\n      swap2\n      swap1\n      pop\n      jump\t// out\n        /* \"#utility.yul\":15970:16045   */\n    tag_357:\n        /* \"#utility.yul\":16003:16009   */\n      0x00\n        /* \"#utility.yul\":16036:16038   */\n      0x40\n        /* \"#utility.yul\":16030:16039   */\n      mload\n        /* \"#utility.yul\":16020:16039   */\n      swap1\n      pop\n        /* \"#utility.yul\":15970:16045   */\n      swap1\n      jump\t// out\n        /* \"#utility.yul\":16051:16362   */\n    tag_172:\n        /* \"#utility.yul\":16128:16132   */\n      0x00\n        /* \"#utility.yul\":16218:16236   */\n      0xffffffffffffffff\n        /* \"#utility.yul\":16210:16216   */\n      dup3\n        /* \"#utility.yul\":16207:16237   */\n      gt\n        /* \"#utility.yul\":16204:16260   */\n      iszero\n      tag_362\n      jumpi\n        /* \"#utility.yul\":16240:16258   */\n      tag_363\n      tag_364\n      jump\t// in\n    tag_363:\n        /* \"#utility.yul\":16204:16260   */\n    tag_362:\n        /* \"#utility.yul\":16290:16294   */\n      0x20\n        /* \"#utility.yul\":16282:16288   */\n      dup3\n        /* \"#utility.yul\":16278:16295   */\n      mul\n        /* \"#utility.yul\":16270:16295   */\n      swap1\n      pop\n        /* \"#utility.yul\":16350:16354   */\n      0x20\n        /* \"#utility.yul\":16344:16348   */\n      dup2\n        /* \"#utility.yul\":16340:16355   */\n      add\n        /* \"#utility.yul\":16332:16355   */\n      swap1\n      pop\n        /* \"#utility.yul\":16051:16362   */\n      swap2\n      swap1\n      pop\n      jump\t// out\n        /* \"#utility.yul\":16368:16676   */\n    tag_186:\n        /* \"#utility.yul\":16430:16434   */\n      0x00\n        /* \"#utility.yul\":16520:16538   */\n      0xffffffffffffffff\n        /* \"#utility.yul\":16512:16518   */\n      dup3\n        /* \"#utility.yul\":16509:16539   */\n      gt\n        /* \"#utility.yul\":16506:16562   */\n      iszero\n      tag_366\n      jumpi\n        /* \"#utility.yul\":16542:16560   */\n      tag_367\n      tag_364\n      jump\t// in\n    tag_367:\n        /* \"#utility.yul\":16506:16562   */\n    tag_366:\n        /* \"#utility.yul\":16580:16609   */\n      tag_368\n        /* \"#utility.yul\":16602:16608   */\n      dup3\n        /* \"#utility.yul\":16580:16609   */\n      tag_307\n      jump\t// in\n    tag_368:\n        /* \"#utility.yul\":16572:16609   */\n      swap1\n      pop\n        /* \"#utility.yul\":16664:16668   */\n      0x20\n        /* \"#utility.yul\":16658:16662   */\n      dup2\n        /* \"#utility.yul\":16654:16669   */\n      add\n        /* \"#utility.yul\":16646:16669   */\n      swap1\n      pop\n        /* \"#utility.yul\":16368:16676   */\n      swap2\n      swap1\n      pop\n      jump\t// out\n        /* \"#utility.yul\":16682:16781   */\n    tag_301:\n        /* \"#utility.yul\":16734:16740   */\n      0x00\n        /* \"#utility.yul\":16768:16773   */\n      dup2\n        /* \"#utility.yul\":16762:16774   */\n      mload\n        /* \"#utility.yul\":16752:16774   */\n      swap1\n      pop\n        /* \"#utility.yul\":16682:16781   */\n      swap2\n      swap1\n      pop\n      jump\t// out\n        /* \"#utility.yul\":16787:16946   */\n    tag_303:\n        /* \"#utility.yul\":16861:16872   */\n      0x00\n        /* \"#utility.yul\":16895:16901   */\n      dup3\n        /* \"#utility.yul\":16890:16893   */\n      dup3\n        /* \"#utility.yul\":16883:16902   */\n      mstore\n        /* \"#utility.yul\":16935:16939   */\n      0x20\n        /* \"#utility.yul\":16930:16933   */\n      dup3\n        /* \"#utility.yul\":16926:16940   */\n      add\n        /* \"#utility.yul\":16911:16940   */\n      swap1\n      pop\n        /* \"#utility.yul\":16787:16946   */\n      swap3\n      swap2\n      pop\n      pop\n      jump\t// out\n        /* \"#utility.yul\":16952:17121   */\n    tag_312:\n        /* \"#utility.yul\":17036:17047   */\n      0x00\n        /* \"#utility.yul\":17070:17076   */\n      dup3\n        /* \"#utility.yul\":17065:17068   */\n      dup3\n        /* \"#utility.yul\":17058:17077   */\n      mstore\n        /* \"#utility.yul\":17110:17114   */\n      0x20\n        /* \"#utility.yul\":17105:17108   */\n      dup3\n        /* \"#utility.yul\":17101:17115   */\n      add\n        /* \"#utility.yul\":17086:17115   */\n      swap1\n      pop\n        /* \"#utility.yul\":16952:17121   */\n      swap3\n      swap2\n      pop\n      pop\n      jump\t// out\n        /* \"#utility.yul\":17127:17223   */\n    tag_293:\n        /* \"#utility.yul\":17164:17171   */\n      0x00\n        /* \"#utility.yul\":17193:17217   */\n      tag_373\n        /* \"#utility.yul\":17211:17216   */\n      dup3\n        /* \"#utility.yul\":17193:17217   */\n      tag_374\n      jump\t// in\n    tag_373:\n        /* \"#utility.yul\":17182:17217   */\n      swap1\n      pop\n        /* \"#utility.yul\":17127:17223   */\n      swap2\n      swap1\n      pop\n      jump\t// out\n        /* \"#utility.yul\":17229:17333   */\n    tag_289:\n        /* \"#utility.yul\":17274:17281   */\n      0x00\n        /* \"#utility.yul\":17303:17327   */\n      tag_376\n        /* \"#utility.yul\":17321:17326   */\n      dup3\n        /* \"#utility.yul\":17303:17327   */\n      tag_374\n      jump\t// in\n    tag_376:\n        /* \"#utility.yul\":17292:17327   */\n      swap1\n      pop\n        /* \"#utility.yul\":17229:17333   */\n      swap2\n      swap1\n      pop\n      jump\t// out\n        /* \"#utility.yul\":17339:17429   */\n    tag_297:\n        /* \"#utility.yul\":17373:17380   */\n      0x00\n        /* \"#utility.yul\":17416:17421   */\n      dup2\n        /* \"#utility.yul\":17409:17422   */\n      iszero\n        /* \"#utility.yul\":17402:17423   */\n      iszero\n        /* \"#utility.yul\":17391:17423   */\n      swap1\n      pop\n        /* \"#utility.yul\":17339:17429   */\n      swap2\n      swap1\n      pop\n      jump\t// out\n        /* \"#utility.yul\":17435:17561   */\n    tag_374:\n        /* \"#utility.yul\":17472:17479   */\n      0x00\n        /* \"#utility.yul\":17512:17554   */\n      0xffffffffffffffffffffffffffffffffffffffff\n        /* \"#utility.yul\":17505:17510   */\n      dup3\n        /* \"#utility.yul\":17501:17555   */\n      and\n        /* \"#utility.yul\":17490:17555   */\n      swap1\n      pop\n        /* \"#utility.yul\":17435:17561   */\n      swap2\n      swap1\n      pop\n      jump\t// out\n        /* \"#utility.yul\":17567:17644   */\n    tag_322:\n        /* \"#utility.yul\":17604:17611   */\n      0x00\n        /* \"#utility.yul\":17633:17638   */\n      dup2\n        /* \"#utility.yul\":17622:17638   */\n      swap1\n      pop\n        /* \"#utility.yul\":17567:17644   */\n      swap2\n      swap1\n      pop\n      jump\t// out\n        /* \"#utility.yul\":17650:17804   */\n    tag_191:\n        /* \"#utility.yul\":17734:17740   */\n      dup3\n        /* \"#utility.yul\":17729:17732   */\n      dup2\n        /* \"#utility.yul\":17724:17727   */\n      dup4\n        /* \"#utility.yul\":17711:17741   */\n      calldatacopy\n        /* \"#utility.yul\":17796:17797   */\n      0x00\n        /* \"#utility.yul\":17787:17793   */\n      dup4\n        /* \"#utility.yul\":17782:17785   */\n      dup4\n        /* \"#utility.yul\":17778:17794   */\n      add\n        /* \"#utility.yul\":17771:17798   */\n      mstore\n        /* \"#utility.yul\":17650:17804   */\n      pop\n      pop\n      pop\n      jump\t// out\n        /* \"#utility.yul\":17810:18117   */\n    tag_305:\n        /* \"#utility.yul\":17878:17879   */\n      0x00\n        /* \"#utility.yul\":17888:18001   */\n    tag_382:\n        /* \"#utility.yul\":17902:17908   */\n      dup4\n        /* \"#utility.yul\":17899:17900   */\n      dup2\n        /* \"#utility.yul\":17896:17909   */\n      lt\n        /* \"#utility.yul\":17888:18001   */\n      iszero\n      tag_384\n      jumpi\n        /* \"#utility.yul\":17987:17988   */\n      dup1\n        /* \"#utility.yul\":17982:17985   */\n      dup3\n        /* \"#utility.yul\":17978:17989   */\n      add\n        /* \"#utility.yul\":17972:17990   */\n      mload\n        /* \"#utility.yul\":17968:17969   */\n      dup2\n        /* \"#utility.yul\":17963:17966   */\n      dup5\n        /* \"#utility.yul\":17959:17970   */\n      add\n        /* \"#utility.yul\":17952:17991   */\n      mstore\n        /* \"#utility.yul\":17924:17926   */\n      0x20\n        /* \"#utility.yul\":17921:17922   */\n      dup2\n        /* \"#utility.yul\":17917:17927   */\n      add\n        /* \"#utility.yul\":17912:17927   */\n      swap1\n      pop\n        /* \"#utility.yul\":17888:18001   */\n      jump(tag_382)\n    tag_384:\n        /* \"#utility.yul\":18019:18025   */\n      dup4\n        /* \"#utility.yul\":18016:18017   */\n      dup2\n        /* \"#utility.yul\":18013:18026   */\n      gt\n        /* \"#utility.yul\":18010:18111   */\n      iszero\n      tag_385\n      jumpi\n        /* \"#utility.yul\":18099:18100   */\n      0x00\n        /* \"#utility.yul\":18090:18096   */\n      dup5\n        /* \"#utility.yul\":18085:18088   */\n      dup5\n        /* \"#utility.yul\":18081:18097   */\n      add\n        /* \"#utility.yul\":18074:18101   */\n      mstore\n        /* \"#utility.yul\":18010:18111   */\n    tag_385:\n        /* \"#utility.yul\":17859:18117   */\n      pop\n        /* \"#utility.yul\":17810:18117   */\n      pop\n      pop\n      pop\n      jump\t// out\n        /* \"#utility.yul\":18123:18443   */\n    tag_55:\n        /* \"#utility.yul\":18167:18173   */\n      0x00\n        /* \"#utility.yul\":18204:18205   */\n      0x02\n        /* \"#utility.yul\":18198:18202   */\n      dup3\n        /* \"#utility.yul\":18194:18206   */\n      div\n        /* \"#utility.yul\":18184:18206   */\n      swap1\n      pop\n        /* \"#utility.yul\":18251:18252   */\n      0x01\n        /* \"#utility.yul\":18245:18249   */\n      dup3\n        /* \"#utility.yul\":18241:18253   */\n      and\n        /* \"#utility.yul\":18272:18290   */\n      dup1\n        /* \"#utility.yul\":18262:18343   */\n      tag_387\n      jumpi\n        /* \"#utility.yul\":18328:18332   */\n      0x7f\n        /* \"#utility.yul\":18320:18326   */\n      dup3\n        /* \"#utility.yul\":18316:18333   */\n      and\n        /* \"#utility.yul\":18306:18333   */\n      swap2\n      pop\n        /* \"#utility.yul\":18262:18343   */\n    tag_387:\n        /* \"#utility.yul\":18390:18392   */\n      0x20\n        /* \"#utility.yul\":18382:18388   */\n      dup3\n        /* \"#utility.yul\":18379:18393   */\n      lt\n        /* \"#utility.yul\":18359:18377   */\n      dup2\n        /* \"#utility.yul\":18356:18394   */\n      eq\n        /* \"#utility.yul\":18353:18437   */\n      iszero\n      tag_388\n      jumpi\n        /* \"#utility.yul\":18409:18427   */\n      tag_389\n      tag_390\n      jump\t// in\n    tag_389:\n        /* \"#utility.yul\":18353:18437   */\n    tag_388:\n        /* \"#utility.yul\":18174:18443   */\n      pop\n        /* \"#utility.yul\":18123:18443   */\n      swap2\n      swap1\n      pop\n      jump\t// out\n        /* \"#utility.yul\":18449:18730   */\n    tag_359:\n        /* \"#utility.yul\":18532:18559   */\n      tag_392\n        /* \"#utility.yul\":18554:18558   */\n      dup3\n        /* \"#utility.yul\":18532:18559   */\n      tag_307\n      jump\t// in\n    tag_392:\n        /* \"#utility.yul\":18524:18530   */\n      dup2\n        /* \"#utility.yul\":18520:18560   */\n      add\n        /* \"#utility.yul\":18662:18668   */\n      dup2\n        /* \"#utility.yul\":18650:18660   */\n      dup2\n        /* \"#utility.yul\":18647:18669   */\n      lt\n        /* \"#utility.yul\":18626:18644   */\n      0xffffffffffffffff\n        /* \"#utility.yul\":18614:18624   */\n      dup3\n        /* \"#utility.yul\":18611:18645   */\n      gt\n        /* \"#utility.yul\":18608:18670   */\n      or\n        /* \"#utility.yul\":18605:18693   */\n      iszero\n      tag_393\n      jumpi\n        /* \"#utility.yul\":18673:18691   */\n      tag_394\n      tag_364\n      jump\t// in\n    tag_394:\n        /* \"#utility.yul\":18605:18693   */\n    tag_393:\n        /* \"#utility.yul\":18713:18723   */\n      dup1\n        /* \"#utility.yul\":18709:18711   */\n      0x40\n        /* \"#utility.yul\":18702:18724   */\n      mstore\n        /* \"#utility.yul\":18492:18730   */\n      pop\n        /* \"#utility.yul\":18449:18730   */\n      pop\n      pop\n      jump\t// out\n        /* \"#utility.yul\":18736:18969   */\n    tag_109:\n        /* \"#utility.yul\":18775:18778   */\n      0x00\n        /* \"#utility.yul\":18798:18822   */\n      tag_396\n        /* \"#utility.yul\":18816:18821   */\n      dup3\n        /* \"#utility.yul\":18798:18822   */\n      tag_322\n      jump\t// in\n    tag_396:\n        /* \"#utility.yul\":18789:18822   */\n      swap2\n      pop\n        /* \"#utility.yul\":18844:18910   */\n      0xffffffffffffffffffffffffffffffffffffffffffffffffffffffffffffffff\n        /* \"#utility.yul\":18837:18842   */\n      dup3\n        /* \"#utility.yul\":18834:18911   */\n      eq\n        /* \"#utility.yul\":18831:18934   */\n      iszero\n      tag_397\n      jumpi\n        /* \"#utility.yul\":18914:18932   */\n      tag_398\n      tag_399\n      jump\t// in\n    tag_398:\n        /* \"#utility.yul\":18831:18934   */\n    tag_397:\n        /* \"#utility.yul\":18961:18962   */\n      0x01\n        /* \"#utility.yul\":18954:18959   */\n      dup3\n        /* \"#utility.yul\":18950:18963   */\n      add\n        /* \"#utility.yul\":18943:18963   */\n      swap1\n      pop\n        /* \"#utility.yul\":18736:18969   */\n      swap2\n      swap1\n      pop\n      jump\t// out\n        /* \"#utility.yul\":18975:19155   */\n    tag_399:\n        /* \"#utility.yul\":19023:19100   */\n      0x4e487b7100000000000000000000000000000000000000000000000000000000\n        /* \"#utility.yul\":19020:19021   */\n      0x00\n        /* \"#utility.yul\":19013:19101   */\n      mstore\n        /* \"#utility.yul\":19120:19124   */\n      0x11\n        /* \"#utility.yul\":19117:19118   */\n      0x04\n        /* \"#utility.yul\":19110:19125   */\n      mstore\n        /* \"#utility.yul\":19144:19148   */\n      0x24\n        /* \"#utility.yul\":19141:19142   */\n      0x00\n        /* \"#utility.yul\":19134:19149   */\n      revert\n        /* \"#utility.yul\":19161:19341   */\n    tag_390:\n        /* \"#utility.yul\":19209:19286   */\n      0x4e487b7100000000000000000000000000000000000000000000000000000000\n        /* \"#utility.yul\":19206:19207   */\n      0x00\n        /* \"#utility.yul\":19199:19287   */\n      mstore\n        /* \"#utility.yul\":19306:19310   */\n      0x22\n        /* \"#utility.yul\":19303:19304   */\n      0x04\n        /* \"#utility.yul\":19296:19311   */\n      mstore\n        /* \"#utility.yul\":19330:19334   */\n      0x24\n        /* \"#utility.yul\":19327:19328   */\n      0x00\n        /* \"#utility.yul\":19320:19335   */\n      revert\n        /* \"#utility.yul\":19347:19527   */\n    tag_107:\n        /* \"#utility.yul\":19395:19472   */\n      0x4e487b7100000000000000000000000000000000000000000000000000000000\n        /* \"#utility.yul\":19392:19393   */\n      0x00\n        /* \"#utility.yul\":19385:19473   */\n      mstore\n        /* \"#utility.yul\":19492:19496   */\n      0x32\n        /* \"#utility.yul\":19489:19490   */\n      0x04\n        /* \"#utility.yul\":19482:19497   */\n      mstore\n        /* \"#utility.yul\":19516:19520   */\n      0x24\n        /* \"#utility.yul\":19513:19514   */\n      0x00\n        /* \"#utility.yul\":19506:19521   */\n      revert\n        /* \"#utility.yul\":19533:19713   */\n    tag_364:\n        /* \"#utility.yul\":19581:19658   */\n      0x4e487b7100000000000000000000000000000000000000000000000000000000\n        /* \"#utility.yul\":19578:19579   */\n      0x00\n        /* \"#utility.yul\":19571:19659   */\n      mstore\n        /* \"#utility.yul\":19678:19682   */\n      0x41\n        /* \"#utility.yul\":19675:19676   */\n      0x04\n        /* \"#utility.yul\":19668:19683   */\n      mstore\n        /* \"#utility.yul\":19702:19706   */\n      0x24\n        /* \"#utility.yul\":19699:19700   */\n      0x00\n        /* \"#utility.yul\":19692:19707   */\n      revert\n        /* \"#utility.yul\":19719:19836   */\n    tag_200:\n        /* \"#utility.yul\":19828:19829   */\n      0x00\n        /* \"#utility.yul\":19825:19826   */\n      dup1\n        /* \"#utility.yul\":19818:19830   */\n      revert\n        /* \"#utility.yul\":19842:19959   */\n    tag_176:\n        /* \"#utility.yul\":19951:19952   */\n      0x00\n        /* \"#utility.yul\":19948:19949   */\n      dup1\n        /* \"#utility.yul\":19941:19953   */\n      revert\n        /* \"#utility.yul\":19965:20082   */\n    tag_189:\n        /* \"#utility.yul\":20074:20075   */\n      0x00\n        /* \"#utility.yul\":20071:20072   */\n      dup1\n        /* \"#utility.yul\":20064:20076   */\n      revert\n        /* \"#utility.yul\":20088:20205   */\n    tag_229:\n        /* \"#utility.yul\":20197:20198   */\n      0x00\n        /* \"#utility.yul\":20194:20195   */\n      dup1\n        /* \"#utility.yul\":20187:20199   */\n      revert\n        /* \"#utility.yul\":20211:20328   */\n    tag_217:\n        /* \"#utility.yul\":20320:20321   */\n      0x00\n        /* \"#utility.yul\":20317:20318   */\n      dup1\n        /* \"#utility.yul\":20310:20322   */\n      revert\n        /* \"#utility.yul\":20334:20436   */\n    tag_307:\n        /* \"#utility.yul\":20375:20381   */\n      0x00\n        /* \"#utility.yul\":20426:20428   */\n      0x1f\n        /* \"#utility.yul\":20422:20429   */\n      not\n        /* \"#utility.yul\":20417:20419   */\n      0x1f\n        /* \"#utility.yul\":20410:20415   */\n      dup4\n        /* \"#utility.yul\":20406:20420   */\n      add\n        /* \"#utility.yul\":20402:20430   */\n      and\n        /* \"#utility.yul\":20392:20430   */\n      swap1\n      pop\n        /* \"#utility.yul\":20334:20436   */\n      swap2\n      swap1\n      pop\n      jump\t// out\n        /* \"#utility.yul\":20442:20564   */\n    tag_195:\n        /* \"#utility.yul\":20515:20539   */\n      tag_411\n        /* \"#utility.yul\":20533:20538   */\n      dup2\n        /* \"#utility.yul\":20515:20539   */\n      tag_293\n      jump\t// in\n    tag_411:\n        /* \"#utility.yul\":20508:20513   */\n      dup2\n        /* \"#utility.yul\":20505:20540   */\n      eq\n        /* \"#utility.yul\":20495:20558   */\n      tag_412\n      jumpi\n        /* \"#utility.yul\":20554:20555   */\n      0x00\n        /* \"#utility.yul\":20551:20552   */\n      dup1\n        /* \"#utility.yul\":20544:20556   */\n      revert\n        /* \"#utility.yul\":20495:20558   */\n    tag_412:\n        /* \"#utility.yul\":20442:20564   */\n      pop\n      jump\t// out\n        /* \"#utility.yul\":20570:20686   */\n    tag_205:\n        /* \"#utility.yul\":20640:20661   */\n      tag_414\n        /* \"#utility.yul\":20655:20660   */\n      dup2\n        /* \"#utility.yul\":20640:20661   */\n      tag_297\n      jump\t// in\n    tag_414:\n        /* \"#utility.yul\":20633:20638   */\n      dup2\n        /* \"#utility.yul\":20630:20662   */\n      eq\n        /* \"#utility.yul\":20620:20680   */\n      tag_415\n      jumpi\n        /* \"#utility.yul\":20676:20677   */\n      0x00\n        /* \"#utility.yul\":20673:20674   */\n      dup1\n        /* \"#utility.yul\":20666:20678   */\n      revert\n        /* \"#utility.yul\":20620:20680   */\n    tag_415:\n        /* \"#utility.yul\":20570:20686   */\n      pop\n      jump\t// out\n        /* \"#utility.yul\":20692:20814   */\n    tag_213:\n        /* \"#utility.yul\":20765:20789   */\n      tag_417\n        /* \"#utility.yul\":20783:20788   */\n      dup2\n        /* \"#utility.yul\":20765:20789   */\n      tag_322\n      jump\t// in\n    tag_417:\n        /* \"#utility.yul\":20758:20763   */\n      dup2\n        /* \"#utility.yul\":20755:20790   */\n      eq\n        /* \"#utility.yul\":20745:20808   */\n      tag_418\n      jumpi\n        /* \"#utility.yul\":20804:20805   */\n      0x00\n        /* \"#utility.yul\":20801:20802   */\n      dup1\n        /* \"#utility.yul\":20794:20806   */\n      revert\n        /* \"#utility.yul\":20745:20808   */\n    tag_418:\n        /* \"#utility.yul\":20692:20814   */\n      pop\n      jump\t// out\n\n    auxdata: 0xa2646970667358221220cb657318e21749ea65c6a6a35e7bf7826985f507f2e748d2ce6e1b42009d42e264736f6c63430008070033\n}\n",
				"bytecode": {
					"linkReferences": {},
					"object": "608060405234801561001057600080fd5b50611e0c806100206000396000f3fe608060405234801561001057600080fd5b50600436106100885760003560e01c8063ce74aea91161005b578063ce74aea91461014c578063e679292214610181578063f1c5031a1461019d578063f5596078146101b957610088565b806311f0f0da1461008d57806320ce2fc1146100c3578063230eb9c6146100f857806375d8e58d14610130575b600080fd5b6100a760048036038101906100a291906116b6565b6101d5565b6040516100ba97969594939291906119c8565b60405180910390f35b6100dd60048036038101906100d89190611689565b61049f565b6040516100ef96959493929190611a4c565b60405180910390f35b610112600480360381019061010d91906113ff565b610583565b604051610127999897969594939291906118b7565b60405180910390f35b61014a600480360381019061014591906115b2565b610796565b005b6101666004803603810190610161919061142c565b6109df565b60405161017896959493929190611959565b60405180910390f35b61019b6004803603810190610196919061146c565b610c0e565b005b6101b760048036038101906101b291906116f6565b610cb1565b005b6101d360048036038101906101ce91906114b5565b610e76565b005b600360205281600052604060002081815481106101f157600080fd5b90600052602060002090600802016000915091505080600001805461021590611bff565b80601f016020809104026020016040519081016040528092919081815260200182805461024190611bff565b801561028e5780601f106102635761010080835404028352916020019161028e565b820191906000526020600020905b81548152906001019060200180831161027157829003601f168201915b5050505050908060010180546102a390611bff565b80601f01602080910402602001604051908101604052809291908181526020018280546102cf90611bff565b801561031c5780601f106102f15761010080835404028352916020019161031c565b820191906000526020600020905b8154815290600101906020018083116102ff57829003601f168201915b5050505050908060020154908060030160009054906101000a900460ff16908060030160019054906101000a900473ffffffffffffffffffffffffffffffffffffffff16908060040154908060050160405180604001604052908160008201805461038690611bff565b80601f01602080910402602001604051908101604052809291908181526020018280546103b290611bff565b80156103ff5780601f106103d4576101008083540402835291602001916103ff565b820191906000526020600020905b8154815290600101906020018083116103e257829003601f168201915b5050505050815260200160018201805461041890611bff565b80601f016020809104026020016040519081016040528092919081815260200182805461044490611bff565b80156104915780601f1061046657610100808354040283529160200191610491565b820191906000526020600020905b81548152906001019060200180831161047457829003601f168201915b505050505081525050905087565b60016020528060005260406000206000915090508060000180546104c290611bff565b80601f01602080910402602001604051908101604052809291908181526020018280546104ee90611bff565b801561053b5780601f106105105761010080835404028352916020019161053b565b820191906000526020600020905b81548152906001019060200180831161051e57829003601f168201915b5050505050908060010154908060020160009054906101000a900473ffffffffffffffffffffffffffffffffffffffff16908060040154908060060154908060070154905086565b60026020528060005260406000206000915090508060000160009054906101000a900473ffffffffffffffffffffffffffffffffffffffff16908060010180546105cc90611bff565b80601f01602080910402602001604051908101604052809291908181526020018280546105f890611bff565b80156106455780601f1061061a57610100808354040283529160200191610645565b820191906000526020600020905b81548152906001019060200180831161062857829003601f168201915b50505050509080600201805461065a90611bff565b80601f016020809104026020016040519081016040528092919081815260200182805461068690611bff565b80156106d35780601f106106a8576101008083540402835291602001916106d3565b820191906000526020600020905b8154815290600101906020018083116106b657829003601f168201915b5050505050908060030180546106e890611bff565b80601f016020809104026020016040519081016040528092919081815260200182805461071490611bff565b80156107615780601f1061073657610100808354040283529160200191610761565b820191906000526020600020905b81548152906001019060200180831161074457829003601f168201915b5050505050908060050154908060060154908060070154908060080160009054906101000a900460ff169080600a0154905089565b33600260003373ffffffffffffffffffffffffffffffffffffffff1673ffffffffffffffffffffffffffffffffffffffff16815260200190815260200160002060000160006101000a81548173ffffffffffffffffffffffffffffffffffffffff021916908373ffffffffffffffffffffffffffffffffffffffff16021790555083600260003373ffffffffffffffffffffffffffffffffffffffff1673ffffffffffffffffffffffffffffffffffffffff168152602001908152602001600020600101908051906020019061086d9291906110f3565b5082600260003373ffffffffffffffffffffffffffffffffffffffff1673ffffffffffffffffffffffffffffffffffffffff16815260200190815260200160002060020190805190602001906108c49291906110f3565b5081600260003373ffffffffffffffffffffffffffffffffffffffff1673ffffffffffffffffffffffffffffffffffffffff168152602001908152602001600020600301908051906020019061091b9291906110f3565b5080600260003373ffffffffffffffffffffffffffffffffffffffff1673ffffffffffffffffffffffffffffffffffffffff1681526020019081526020016000206009019080519060200190610972929190611179565b5060005b81518110156109d8576001600083838151811061099657610995611d09565b5b6020026020010151815260200190815260200160002060040160008154809291906109c090611c62565b919050555080806109d090611c62565b915050610976565b5050505050565b600460205281600052604060002081815481106109fb57600080fd5b9060005260206000209060070201600091509150508060000160009054906101000a900473ffffffffffffffffffffffffffffffffffffffff1690806001015490806002015490806003018054610a5190611bff565b80601f0160208091040260200160405190810160405280929190818152602001828054610a7d90611bff565b8015610aca5780601f10610a9f57610100808354040283529160200191610aca565b820191906000526020600020905b815481529060010190602001808311610aad57829003601f168201915b50505050509080600401549080600501604051806040016040529081600082018054610af590611bff565b80601f0160208091040260200160405190810160405280929190818152602001828054610b2190611bff565b8015610b6e5780601f10610b4357610100808354040283529160200191610b6e565b820191906000526020600020905b815481529060010190602001808311610b5157829003601f168201915b50505050508152602001600182018054610b8790611bff565b80601f0160208091040260200160405190810160405280929190818152602001828054610bb390611bff565b8015610c005780601f10610bd557610100808354040283529160200191610c00565b820191906000526020600020905b815481529060010190602001808311610be357829003601f168201915b505050505081525050905086565b8060016000805481526020019081526020016000206000019080519060200190610c399291906110f3565b5060005460016000805481526020019081526020016000206001018190555033600160008054815260200190815260200160002060020160006101000a81548173ffffffffffffffffffffffffffffffffffffffff021916908373ffffffffffffffffffffffffffffffffffffffff16021790555050565b610cb96111c6565b828160000181905250818160200181905250610cd36111e0565b33816000019073ffffffffffffffffffffffffffffffffffffffff16908173ffffffffffffffffffffffffffffffffffffffff1681525050868160200181815250508581604001818152505084816060018190525042816080018181525050818160a00181905250600460003373ffffffffffffffffffffffffffffffffffffffff1673ffffffffffffffffffffffffffffffffffffffff16815260200190815260200160002081908060018154018082558091505060019003906000526020600020906007020160009091909190915060008201518160000160006101000a81548173ffffffffffffffffffffffffffffffffffffffff021916908373ffffffffffffffffffffffffffffffffffffffff16021790555060208201518160010155604082015181600201556060820151816003019080519060200190610e1b9291906110f3565b506080820151816004015560a0820151816005016000820151816000019080519060200190610e4b9291906110f3565b506020820151816001019080519060200190610e689291906110f3565b505050505050505050505050565b610e7e6111c6565b828160000181905250818160200181905250610e98611232565b33816080019073ffffffffffffffffffffffffffffffffffffffff16908173ffffffffffffffffffffffffffffffffffffffff16815250508781600001819052508681602001819052504281604001818152505085816060019015159081151581525050848160a0018181525050818160c00181905250600360008681526020019081526020016000208190806001815401808255809150506001900390600052602060002090600802016000909190919091506000820151816000019080519060200190610f689291906110f3565b506020820151816001019080519060200190610f859291906110f3565b506040820151816002015560608201518160030160006101000a81548160ff02191690831515021790555060808201518160030160016101000a81548173ffffffffffffffffffffffffffffffffffffffff021916908373ffffffffffffffffffffffffffffffffffffffff16021790555060a0820151816004015560c08201518160050160008201518160000190805190602001906110269291906110f3565b5060208201518160010190805190602001906110439291906110f3565b50505060e0820151816007019080519060200190611062929190611179565b50505060016000868152602001908152602001600020600701600081548092919061108c90611c62565b9190505550600260003373ffffffffffffffffffffffffffffffffffffffff1673ffffffffffffffffffffffffffffffffffffffff16815260200190815260200160002060070160008154809291906110e490611c62565b91905055505050505050505050565b8280546110ff90611bff565b90600052602060002090601f0160209004810192826111215760008555611168565b82601f1061113a57805160ff1916838001178555611168565b82800160010185558215611168579182015b8281111561116757825182559160200191906001019061114c565b5b5090506111759190611295565b5090565b8280548282559060005260206000209081019282156111b5579160200282015b828111156111b4578251825591602001919060010190611199565b5b5090506111c29190611295565b5090565b604051806040016040528060608152602001606081525090565b6040518060c00160405280600073ffffffffffffffffffffffffffffffffffffffff1681526020016000815260200160008152602001606081526020016000815260200161122c6111c6565b81525090565b604051806101000160405280606081526020016060815260200160008152602001600015158152602001600073ffffffffffffffffffffffffffffffffffffffff168152602001600081526020016112886111c6565b8152602001606081525090565b5b808211156112ae576000816000905550600101611296565b5090565b60006112c56112c084611ad9565b611ab4565b905080838252602082019050828560208602820111156112e8576112e7611d6c565b5b60005b8581101561131857816112fe88826113ea565b8452602084019350602083019250506001810190506112eb565b5050509392505050565b600061133561133084611b05565b611ab4565b90508281526020810184848401111561135157611350611d71565b5b61135c848285611bbd565b509392505050565b60008135905061137381611d91565b92915050565b600082601f83011261138e5761138d611d67565b5b813561139e8482602086016112b2565b91505092915050565b6000813590506113b681611da8565b92915050565b600082601f8301126113d1576113d0611d67565b5b81356113e1848260208601611322565b91505092915050565b6000813590506113f981611dbf565b92915050565b60006020828403121561141557611414611d7b565b5b600061142384828501611364565b91505092915050565b6000806040838503121561144357611442611d7b565b5b600061145185828601611364565b9250506020611462858286016113ea565b9150509250929050565b60006020828403121561148257611481611d7b565b5b600082013567ffffffffffffffff8111156114a05761149f611d76565b5b6114ac848285016113bc565b91505092915050565b60008060008060008060c087890312156114d2576114d1611d7b565b5b600087013567ffffffffffffffff8111156114f0576114ef611d76565b5b6114fc89828a016113bc565b965050602087013567ffffffffffffffff81111561151d5761151c611d76565b5b61152989828a016113bc565b955050604061153a89828a016113a7565b945050606061154b89828a016113ea565b935050608087013567ffffffffffffffff81111561156c5761156b611d76565b5b61157889828a016113bc565b92505060a087013567ffffffffffffffff81111561159957611598611d76565b5b6115a589828a016113bc565b9150509295509295509295565b600080600080608085870312156115cc576115cb611d7b565b5b600085013567ffffffffffffffff8111156115ea576115e9611d76565b5b6115f6878288016113bc565b945050602085013567ffffffffffffffff81111561161757611616611d76565b5b611623878288016113bc565b935050604085013567ffffffffffffffff81111561164457611643611d76565b5b611650878288016113bc565b925050606085013567ffffffffffffffff81111561167157611670611d76565b5b61167d87828801611379565b91505092959194509250565b60006020828403121561169f5761169e611d7b565b5b60006116ad848285016113ea565b91505092915050565b600080604083850312156116cd576116cc611d7b565b5b60006116db858286016113ea565b92505060206116ec858286016113ea565b9150509250929050565b600080600080600060a0868803121561171257611711611d7b565b5b6000611720888289016113ea565b9550506020611731888289016113ea565b945050604086013567ffffffffffffffff81111561175257611751611d76565b5b61175e888289016113bc565b935050606086013567ffffffffffffffff81111561177f5761177e611d76565b5b61178b888289016113bc565b925050608086013567ffffffffffffffff8111156117ac576117ab611d76565b5b6117b8888289016113bc565b9150509295509295909350565b6117ce81611b75565b82525050565b6117dd81611b63565b82525050565b6117ec81611b87565b82525050565b60006117fd82611b36565b6118078185611b41565b9350611817818560208601611bcc565b61182081611d80565b840191505092915050565b600061183682611b36565b6118408185611b52565b9350611850818560208601611bcc565b61185981611d80565b840191505092915050565b6000604083016000830151848203600086015261188182826117f2565b9150506020830151848203602086015261189b82826117f2565b9150508091505092915050565b6118b181611bb3565b82525050565b6000610120820190506118cd600083018c6117c5565b81810360208301526118df818b61182b565b905081810360408301526118f3818a61182b565b90508181036060830152611907818961182b565b905061191660808301886118a8565b61192360a08301876118a8565b61193060c08301866118a8565b61193d60e08301856117e3565b61194b6101008301846118a8565b9a9950505050505050505050565b600060c08201905061196e60008301896117c5565b61197b60208301886118a8565b61198860408301876118a8565b818103606083015261199a818661182b565b90506119a960808301856118a8565b81810360a08301526119bb8184611864565b9050979650505050505050565b600060e08201905081810360008301526119e2818a61182b565b905081810360208301526119f6818961182b565b9050611a0560408301886118a8565b611a1260608301876117e3565b611a1f60808301866117d4565b611a2c60a08301856118a8565b81810360c0830152611a3e8184611864565b905098975050505050505050565b600060c0820190508181036000830152611a66818961182b565b9050611a7560208301886118a8565b611a8260408301876117c5565b611a8f60608301866118a8565b611a9c60808301856118a8565b611aa960a08301846118a8565b979650505050505050565b6000611abe611acf565b9050611aca8282611c31565b919050565b6000604051905090565b600067ffffffffffffffff821115611af457611af3611d38565b5b602082029050602081019050919050565b600067ffffffffffffffff821115611b2057611b1f611d38565b5b611b2982611d80565b9050602081019050919050565b600081519050919050565b600082825260208201905092915050565b600082825260208201905092915050565b6000611b6e82611b93565b9050919050565b6000611b8082611b93565b9050919050565b60008115159050919050565b600073ffffffffffffffffffffffffffffffffffffffff82169050919050565b6000819050919050565b82818337600083830152505050565b60005b83811015611bea578082015181840152602081019050611bcf565b83811115611bf9576000848401525b50505050565b60006002820490506001821680611c1757607f821691505b60208210811415611c2b57611c2a611cda565b5b50919050565b611c3a82611d80565b810181811067ffffffffffffffff82111715611c5957611c58611d38565b5b80604052505050565b6000611c6d82611bb3565b91507fffffffffffffffffffffffffffffffffffffffffffffffffffffffffffffffff821415611ca057611c9f611cab565b5b600182019050919050565b7f4e487b7100000000000000000000000000000000000000000000000000000000600052601160045260246000fd5b7f4e487b7100000000000000000000000000000000000000000000000000000000600052602260045260246000fd5b7f4e487b7100000000000000000000000000000000000000000000000000000000600052603260045260246000fd5b7f4e487b7100000000000000000000000000000000000000000000000000000000600052604160045260246000fd5b600080fd5b600080fd5b600080fd5b600080fd5b600080fd5b6000601f19601f8301169050919050565b611d9a81611b63565b8114611da557600080fd5b50565b611db181611b87565b8114611dbc57600080fd5b50565b611dc881611bb3565b8114611dd357600080fd5b5056fea2646970667358221220cb657318e21749ea65c6a6a35e7bf7826985f507f2e748d2ce6e1b42009d42e264736f6c63430008070033",
					"opcodes": "PUSH1 0x80 PUSH1 0x40 MSTORE CALLVALUE DUP1 ISZERO PUSH2 0x10 JUMPI PUSH1 0x0 DUP1 REVERT JUMPDEST POP PUSH2 0x1E0C DUP1 PUSH2 0x20 PUSH1 0x0 CODECOPY PUSH1 0x0 RETURN INVALID PUSH1 0x80 PUSH1 0x40 MSTORE CALLVALUE DUP1 ISZERO PUSH2 0x10 JUMPI PUSH1 0x0 DUP1 REVERT JUMPDEST POP PUSH1 0x4 CALLDATASIZE LT PUSH2 0x88 JUMPI PUSH1 0x0 CALLDATALOAD PUSH1 0xE0 SHR DUP1 PUSH4 0xCE74AEA9 GT PUSH2 0x5B JUMPI DUP1 PUSH4 0xCE74AEA9 EQ PUSH2 0x14C JUMPI DUP1 PUSH4 0xE6792922 EQ PUSH2 0x181 JUMPI DUP1 PUSH4 0xF1C5031A EQ PUSH2 0x19D JUMPI DUP1 PUSH4 0xF5596078 EQ PUSH2 0x1B9 JUMPI PUSH2 0x88 JUMP JUMPDEST DUP1 PUSH4 0x11F0F0DA EQ PUSH2 0x8D JUMPI DUP1 PUSH4 0x20CE2FC1 EQ PUSH2 0xC3 JUMPI DUP1 PUSH4 0x230EB9C6 EQ PUSH2 0xF8 JUMPI DUP1 PUSH4 0x75D8E58D EQ PUSH2 0x130 JUMPI JUMPDEST PUSH1 0x0 DUP1 REVERT JUMPDEST PUSH2 0xA7 PUSH1 0x4 DUP1 CALLDATASIZE SUB DUP2 ADD SWAP1 PUSH2 0xA2 SWAP2 SWAP1 PUSH2 0x16B6 JUMP JUMPDEST PUSH2 0x1D5 JUMP JUMPDEST PUSH1 0x40 MLOAD PUSH2 0xBA SWAP8 SWAP7 SWAP6 SWAP5 SWAP4 SWAP3 SWAP2 SWAP1 PUSH2 0x19C8 JUMP JUMPDEST PUSH1 0x40 MLOAD DUP1 SWAP2 SUB SWAP1 RETURN JUMPDEST PUSH2 0xDD PUSH1 0x4 DUP1 CALLDATASIZE SUB DUP2 ADD SWAP1 PUSH2 0xD8 SWAP2 SWAP1 PUSH2 0x1689 JUMP JUMPDEST PUSH2 0x49F JUMP JUMPDEST PUSH1 0x40 MLOAD PUSH2 0xEF SWAP7 SWAP6 SWAP5 SWAP4 SWAP3 SWAP2 SWAP1 PUSH2 0x1A4C JUMP JUMPDEST PUSH1 0x40 MLOAD DUP1 SWAP2 SUB SWAP1 RETURN JUMPDEST PUSH2 0x112 PUSH1 0x4 DUP1 CALLDATASIZE SUB DUP2 ADD SWAP1 PUSH2 0x10D SWAP2 SWAP1 PUSH2 0x13FF JUMP JUMPDEST PUSH2 0x583 JUMP JUMPDEST PUSH1 0x40 MLOAD PUSH2 0x127 SWAP10 SWAP9 SWAP8 SWAP7 SWAP6 SWAP5 SWAP4 SWAP3 SWAP2 SWAP1 PUSH2 0x18B7 JUMP JUMPDEST PUSH1 0x40 MLOAD DUP1 SWAP2 SUB SWAP1 RETURN JUMPDEST PUSH2 0x14A PUSH1 0x4 DUP1 CALLDATASIZE SUB DUP2 ADD SWAP1 PUSH2 0x145 SWAP2 SWAP1 PUSH2 0x15B2 JUMP JUMPDEST PUSH2 0x796 JUMP JUMPDEST STOP JUMPDEST PUSH2 0x166 PUSH1 0x4 DUP1 CALLDATASIZE SUB DUP2 ADD SWAP1 PUSH2 0x161 SWAP2 SWAP1 PUSH2 0x142C JUMP JUMPDEST PUSH2 0x9DF JUMP JUMPDEST PUSH1 0x40 MLOAD PUSH2 0x178 SWAP7 SWAP6 SWAP5 SWAP4 SWAP3 SWAP2 SWAP1 PUSH2 0x1959 JUMP JUMPDEST PUSH1 0x40 MLOAD DUP1 SWAP2 SUB SWAP1 RETURN JUMPDEST PUSH2 0x19B PUSH1 0x4 DUP1 CALLDATASIZE SUB DUP2 ADD SWAP1 PUSH2 0x196 SWAP2 SWAP1 PUSH2 0x146C JUMP JUMPDEST PUSH2 0xC0E JUMP JUMPDEST STOP JUMPDEST PUSH2 0x1B7 PUSH1 0x4 DUP1 CALLDATASIZE SUB DUP2 ADD SWAP1 PUSH2 0x1B2 SWAP2 SWAP1 PUSH2 0x16F6 JUMP JUMPDEST PUSH2 0xCB1 JUMP JUMPDEST STOP JUMPDEST PUSH2 0x1D3 PUSH1 0x4 DUP1 CALLDATASIZE SUB DUP2 ADD SWAP1 PUSH2 0x1CE SWAP2 SWAP1 PUSH2 0x14B5 JUMP JUMPDEST PUSH2 0xE76 JUMP JUMPDEST STOP JUMPDEST PUSH1 0x3 PUSH1 0x20 MSTORE DUP2 PUSH1 0x0 MSTORE PUSH1 0x40 PUSH1 0x0 KECCAK256 DUP2 DUP2 SLOAD DUP2 LT PUSH2 0x1F1 JUMPI PUSH1 0x0 DUP1 REVERT JUMPDEST SWAP1 PUSH1 0x0 MSTORE PUSH1 0x20 PUSH1 0x0 KECCAK256 SWAP1 PUSH1 0x8 MUL ADD PUSH1 0x0 SWAP2 POP SWAP2 POP POP DUP1 PUSH1 0x0 ADD DUP1 SLOAD PUSH2 0x215 SWAP1 PUSH2 0x1BFF JUMP JUMPDEST DUP1 PUSH1 0x1F ADD PUSH1 0x20 DUP1 SWAP2 DIV MUL PUSH1 0x20 ADD PUSH1 0x40 MLOAD SWAP1 DUP2 ADD PUSH1 0x40 MSTORE DUP1 SWAP3 SWAP2 SWAP1 DUP2 DUP2 MSTORE PUSH1 0x20 ADD DUP3 DUP1 SLOAD PUSH2 0x241 SWAP1 PUSH2 0x1BFF JUMP JUMPDEST DUP1 ISZERO PUSH2 0x28E JUMPI DUP1 PUSH1 0x1F LT PUSH2 0x263 JUMPI PUSH2 0x100 DUP1 DUP4 SLOAD DIV MUL DUP4 MSTORE SWAP2 PUSH1 0x20 ADD SWAP2 PUSH2 0x28E JUMP JUMPDEST DUP3 ADD SWAP2 SWAP1 PUSH1 0x0 MSTORE PUSH1 0x20 PUSH1 0x0 KECCAK256 SWAP1 JUMPDEST DUP2 SLOAD DUP2 MSTORE SWAP1 PUSH1 0x1 ADD SWAP1 PUSH1 0x20 ADD DUP1 DUP4 GT PUSH2 0x271 JUMPI DUP3 SWAP1 SUB PUSH1 0x1F AND DUP3 ADD SWAP2 JUMPDEST POP POP POP POP POP SWAP1 DUP1 PUSH1 0x1 ADD DUP1 SLOAD PUSH2 0x2A3 SWAP1 PUSH2 0x1BFF JUMP JUMPDEST DUP1 PUSH1 0x1F ADD PUSH1 0x20 DUP1 SWAP2 DIV MUL PUSH1 0x20 ADD PUSH1 0x40 MLOAD SWAP1 DUP2 ADD PUSH1 0x40 MSTORE DUP1 SWAP3 SWAP2 SWAP1 DUP2 DUP2 MSTORE PUSH1 0x20 ADD DUP3 DUP1 SLOAD PUSH2 0x2CF SWAP1 PUSH2 0x1BFF JUMP JUMPDEST DUP1 ISZERO PUSH2 0x31C JUMPI DUP1 PUSH1 0x1F LT PUSH2 0x2F1 JUMPI PUSH2 0x100 DUP1 DUP4 SLOAD DIV MUL DUP4 MSTORE SWAP2 PUSH1 0x20 ADD SWAP2 PUSH2 0x31C JUMP JUMPDEST DUP3 ADD SWAP2 SWAP1 PUSH1 0x0 MSTORE PUSH1 0x20 PUSH1 0x0 KECCAK256 SWAP1 JUMPDEST DUP2 SLOAD DUP2 MSTORE SWAP1 PUSH1 0x1 ADD SWAP1 PUSH1 0x20 ADD DUP1 DUP4 GT PUSH2 0x2FF JUMPI DUP3 SWAP1 SUB PUSH1 0x1F AND DUP3 ADD SWAP2 JUMPDEST POP POP POP POP POP SWAP1 DUP1 PUSH1 0x2 ADD SLOAD SWAP1 DUP1 PUSH1 0x3 ADD PUSH1 0x0 SWAP1 SLOAD SWAP1 PUSH2 0x100 EXP SWAP1 DIV PUSH1 0xFF AND SWAP1 DUP1 PUSH1 0x3 ADD PUSH1 0x1 SWAP1 SLOAD SWAP1 PUSH2 0x100 EXP SWAP1 DIV PUSH20 0xFFFFFFFFFFFFFFFFFFFFFFFFFFFFFFFFFFFFFFFF AND SWAP1 DUP1 PUSH1 0x4 ADD SLOAD SWAP1 DUP1 PUSH1 0x5 ADD PUSH1 0x40 MLOAD DUP1 PUSH1 0x40 ADD PUSH1 0x40 MSTORE SWAP1 DUP2 PUSH1 0x0 DUP3 ADD DUP1 SLOAD PUSH2 0x386 SWAP1 PUSH2 0x1BFF JUMP JUMPDEST DUP1 PUSH1 0x1F ADD PUSH1 0x20 DUP1 SWAP2 DIV MUL PUSH1 0x20 ADD PUSH1 0x40 MLOAD SWAP1 DUP2 ADD PUSH1 0x40 MSTORE DUP1 SWAP3 SWAP2 SWAP1 DUP2 DUP2 MSTORE PUSH1 0x20 ADD DUP3 DUP1 SLOAD PUSH2 0x3B2 SWAP1 PUSH2 0x1BFF JUMP JUMPDEST DUP1 ISZERO PUSH2 0x3FF JUMPI DUP1 PUSH1 0x1F LT PUSH2 0x3D4 JUMPI PUSH2 0x100 DUP1 DUP4 SLOAD DIV MUL DUP4 MSTORE SWAP2 PUSH1 0x20 ADD SWAP2 PUSH2 0x3FF JUMP JUMPDEST DUP3 ADD SWAP2 SWAP1 PUSH1 0x0 MSTORE PUSH1 0x20 PUSH1 0x0 KECCAK256 SWAP1 JUMPDEST DUP2 SLOAD DUP2 MSTORE SWAP1 PUSH1 0x1 ADD SWAP1 PUSH1 0x20 ADD DUP1 DUP4 GT PUSH2 0x3E2 JUMPI DUP3 SWAP1 SUB PUSH1 0x1F AND DUP3 ADD SWAP2 JUMPDEST POP POP POP POP POP DUP2 MSTORE PUSH1 0x20 ADD PUSH1 0x1 DUP3 ADD DUP1 SLOAD PUSH2 0x418 SWAP1 PUSH2 0x1BFF JUMP JUMPDEST DUP1 PUSH1 0x1F ADD PUSH1 0x20 DUP1 SWAP2 DIV MUL PUSH1 0x20 ADD PUSH1 0x40 MLOAD SWAP1 DUP2 ADD PUSH1 0x40 MSTORE DUP1 SWAP3 SWAP2 SWAP1 DUP2 DUP2 MSTORE PUSH1 0x20 ADD DUP3 DUP1 SLOAD PUSH2 0x444 SWAP1 PUSH2 0x1BFF JUMP JUMPDEST DUP1 ISZERO PUSH2 0x491 JUMPI DUP1 PUSH1 0x1F LT PUSH2 0x466 JUMPI PUSH2 0x100 DUP1 DUP4 SLOAD DIV MUL DUP4 MSTORE SWAP2 PUSH1 0x20 ADD SWAP2 PUSH2 0x491 JUMP JUMPDEST DUP3 ADD SWAP2 SWAP1 PUSH1 0x0 MSTORE PUSH1 0x20 PUSH1 0x0 KECCAK256 SWAP1 JUMPDEST DUP2 SLOAD DUP2 MSTORE SWAP1 PUSH1 0x1 ADD SWAP1 PUSH1 0x20 ADD DUP1 DUP4 GT PUSH2 0x474 JUMPI DUP3 SWAP1 SUB PUSH1 0x1F AND DUP3 ADD SWAP2 JUMPDEST POP POP POP POP POP DUP2 MSTORE POP POP SWAP1 POP DUP8 JUMP JUMPDEST PUSH1 0x1 PUSH1 0x20 MSTORE DUP1 PUSH1 0x0 MSTORE PUSH1 0x40 PUSH1 0x0 KECCAK256 PUSH1 0x0 SWAP2 POP SWAP1 POP DUP1 PUSH1 0x0 ADD DUP1 SLOAD PUSH2 0x4C2 SWAP1 PUSH2 0x1BFF JUMP JUMPDEST DUP1 PUSH1 0x1F ADD PUSH1 0x20 DUP1 SWAP2 DIV MUL PUSH1 0x20 ADD PUSH1 0x40 MLOAD SWAP1 DUP2 ADD PUSH1 0x40 MSTORE DUP1 SWAP3 SWAP2 SWAP1 DUP2 DUP2 MSTORE PUSH1 0x20 ADD DUP3 DUP1 SLOAD PUSH2 0x4EE SWAP1 PUSH2 0x1BFF JUMP JUMPDEST DUP1 ISZERO PUSH2 0x53B JUMPI DUP1 PUSH1 0x1F LT PUSH2 0x510 JUMPI PUSH2 0x100 DUP1 DUP4 SLOAD DIV MUL DUP4 MSTORE SWAP2 PUSH1 0x20 ADD SWAP2 PUSH2 0x53B JUMP JUMPDEST DUP3 ADD SWAP2 SWAP1 PUSH1 0x0 MSTORE PUSH1 0x20 PUSH1 0x0 KECCAK256 SWAP1 JUMPDEST DUP2 SLOAD DUP2 MSTORE SWAP1 PUSH1 0x1 ADD SWAP1 PUSH1 0x20 ADD DUP1 DUP4 GT PUSH2 0x51E JUMPI DUP3 SWAP1 SUB PUSH1 0x1F AND DUP3 ADD SWAP2 JUMPDEST POP POP POP POP POP SWAP1 DUP1 PUSH1 0x1 ADD SLOAD SWAP1 DUP1 PUSH1 0x2 ADD PUSH1 0x0 SWAP1 SLOAD SWAP1 PUSH2 0x100 EXP SWAP1 DIV PUSH20 0xFFFFFFFFFFFFFFFFFFFFFFFFFFFFFFFFFFFFFFFF AND SWAP1 DUP1 PUSH1 0x4 ADD SLOAD SWAP1 DUP1 PUSH1 0x6 ADD SLOAD SWAP1 DUP1 PUSH1 0x7 ADD SLOAD SWAP1 POP DUP7 JUMP JUMPDEST PUSH1 0x2 PUSH1 0x20 MSTORE DUP1 PUSH1 0x0 MSTORE PUSH1 0x40 PUSH1 0x0 KECCAK256 PUSH1 0x0 SWAP2 POP SWAP1 POP DUP1 PUSH1 0x0 ADD PUSH1 0x0 SWAP1 SLOAD SWAP1 PUSH2 0x100 EXP SWAP1 DIV PUSH20 0xFFFFFFFFFFFFFFFFFFFFFFFFFFFFFFFFFFFFFFFF AND SWAP1 DUP1 PUSH1 0x1 ADD DUP1 SLOAD PUSH2 0x5CC SWAP1 PUSH2 0x1BFF JUMP JUMPDEST DUP1 PUSH1 0x1F ADD PUSH1 0x20 DUP1 SWAP2 DIV MUL PUSH1 0x20 ADD PUSH1 0x40 MLOAD SWAP1 DUP2 ADD PUSH1 0x40 MSTORE DUP1 SWAP3 SWAP2 SWAP1 DUP2 DUP2 MSTORE PUSH1 0x20 ADD DUP3 DUP1 SLOAD PUSH2 0x5F8 SWAP1 PUSH2 0x1BFF JUMP JUMPDEST DUP1 ISZERO PUSH2 0x645 JUMPI DUP1 PUSH1 0x1F LT PUSH2 0x61A JUMPI PUSH2 0x100 DUP1 DUP4 SLOAD DIV MUL DUP4 MSTORE SWAP2 PUSH1 0x20 ADD SWAP2 PUSH2 0x645 JUMP JUMPDEST DUP3 ADD SWAP2 SWAP1 PUSH1 0x0 MSTORE PUSH1 0x20 PUSH1 0x0 KECCAK256 SWAP1 JUMPDEST DUP2 SLOAD DUP2 MSTORE SWAP1 PUSH1 0x1 ADD SWAP1 PUSH1 0x20 ADD DUP1 DUP4 GT PUSH2 0x628 JUMPI DUP3 SWAP1 SUB PUSH1 0x1F AND DUP3 ADD SWAP2 JUMPDEST POP POP POP POP POP SWAP1 DUP1 PUSH1 0x2 ADD DUP1 SLOAD PUSH2 0x65A SWAP1 PUSH2 0x1BFF JUMP JUMPDEST DUP1 PUSH1 0x1F ADD PUSH1 0x20 DUP1 SWAP2 DIV MUL PUSH1 0x20 ADD PUSH1 0x40 MLOAD SWAP1 DUP2 ADD PUSH1 0x40 MSTORE DUP1 SWAP3 SWAP2 SWAP1 DUP2 DUP2 MSTORE PUSH1 0x20 ADD DUP3 DUP1 SLOAD PUSH2 0x686 SWAP1 PUSH2 0x1BFF JUMP JUMPDEST DUP1 ISZERO PUSH2 0x6D3 JUMPI DUP1 PUSH1 0x1F LT PUSH2 0x6A8 JUMPI PUSH2 0x100 DUP1 DUP4 SLOAD DIV MUL DUP4 MSTORE SWAP2 PUSH1 0x20 ADD SWAP2 PUSH2 0x6D3 JUMP JUMPDEST DUP3 ADD SWAP2 SWAP1 PUSH1 0x0 MSTORE PUSH1 0x20 PUSH1 0x0 KECCAK256 SWAP1 JUMPDEST DUP2 SLOAD DUP2 MSTORE SWAP1 PUSH1 0x1 ADD SWAP1 PUSH1 0x20 ADD DUP1 DUP4 GT PUSH2 0x6B6 JUMPI DUP3 SWAP1 SUB PUSH1 0x1F AND DUP3 ADD SWAP2 JUMPDEST POP POP POP POP POP SWAP1 DUP1 PUSH1 0x3 ADD DUP1 SLOAD PUSH2 0x6E8 SWAP1 PUSH2 0x1BFF JUMP JUMPDEST DUP1 PUSH1 0x1F ADD PUSH1 0x20 DUP1 SWAP2 DIV MUL PUSH1 0x20 ADD PUSH1 0x40 MLOAD SWAP1 DUP2 ADD PUSH1 0x40 MSTORE DUP1 SWAP3 SWAP2 SWAP1 DUP2 DUP2 MSTORE PUSH1 0x20 ADD DUP3 DUP1 SLOAD PUSH2 0x714 SWAP1 PUSH2 0x1BFF JUMP JUMPDEST DUP1 ISZERO PUSH2 0x761 JUMPI DUP1 PUSH1 0x1F LT PUSH2 0x736 JUMPI PUSH2 0x100 DUP1 DUP4 SLOAD DIV MUL DUP4 MSTORE SWAP2 PUSH1 0x20 ADD SWAP2 PUSH2 0x761 JUMP JUMPDEST DUP3 ADD SWAP2 SWAP1 PUSH1 0x0 MSTORE PUSH1 0x20 PUSH1 0x0 KECCAK256 SWAP1 JUMPDEST DUP2 SLOAD DUP2 MSTORE SWAP1 PUSH1 0x1 ADD SWAP1 PUSH1 0x20 ADD DUP1 DUP4 GT PUSH2 0x744 JUMPI DUP3 SWAP1 SUB PUSH1 0x1F AND DUP3 ADD SWAP2 JUMPDEST POP POP POP POP POP SWAP1 DUP1 PUSH1 0x5 ADD SLOAD SWAP1 DUP1 PUSH1 0x6 ADD SLOAD SWAP1 DUP1 PUSH1 0x7 ADD SLOAD SWAP1 DUP1 PUSH1 0x8 ADD PUSH1 0x0 SWAP1 SLOAD SWAP1 PUSH2 0x100 EXP SWAP1 DIV PUSH1 0xFF AND SWAP1 DUP1 PUSH1 0xA ADD SLOAD SWAP1 POP DUP10 JUMP JUMPDEST CALLER PUSH1 0x2 PUSH1 0x0 CALLER PUSH20 0xFFFFFFFFFFFFFFFFFFFFFFFFFFFFFFFFFFFFFFFF AND PUSH20 0xFFFFFFFFFFFFFFFFFFFFFFFFFFFFFFFFFFFFFFFF AND DUP2 MSTORE PUSH1 0x20 ADD SWAP1 DUP2 MSTORE PUSH1 0x20 ADD PUSH1 0x0 KECCAK256 PUSH1 0x0 ADD PUSH1 0x0 PUSH2 0x100 EXP DUP2 SLOAD DUP2 PUSH20 0xFFFFFFFFFFFFFFFFFFFFFFFFFFFFFFFFFFFFFFFF MUL NOT AND SWAP1 DUP4 PUSH20 0xFFFFFFFFFFFFFFFFFFFFFFFFFFFFFFFFFFFFFFFF AND MUL OR SWAP1 SSTORE POP DUP4 PUSH1 0x2 PUSH1 0x0 CALLER PUSH20 0xFFFFFFFFFFFFFFFFFFFFFFFFFFFFFFFFFFFFFFFF AND PUSH20 0xFFFFFFFFFFFFFFFFFFFFFFFFFFFFFFFFFFFFFFFF AND DUP2 MSTORE PUSH1 0x20 ADD SWAP1 DUP2 MSTORE PUSH1 0x20 ADD PUSH1 0x0 KECCAK256 PUSH1 0x1 ADD SWAP1 DUP1 MLOAD SWAP1 PUSH1 0x20 ADD SWAP1 PUSH2 0x86D SWAP3 SWAP2 SWAP1 PUSH2 0x10F3 JUMP JUMPDEST POP DUP3 PUSH1 0x2 PUSH1 0x0 CALLER PUSH20 0xFFFFFFFFFFFFFFFFFFFFFFFFFFFFFFFFFFFFFFFF AND PUSH20 0xFFFFFFFFFFFFFFFFFFFFFFFFFFFFFFFFFFFFFFFF AND DUP2 MSTORE PUSH1 0x20 ADD SWAP1 DUP2 MSTORE PUSH1 0x20 ADD PUSH1 0x0 KECCAK256 PUSH1 0x2 ADD SWAP1 DUP1 MLOAD SWAP1 PUSH1 0x20 ADD SWAP1 PUSH2 0x8C4 SWAP3 SWAP2 SWAP1 PUSH2 0x10F3 JUMP JUMPDEST POP DUP2 PUSH1 0x2 PUSH1 0x0 CALLER PUSH20 0xFFFFFFFFFFFFFFFFFFFFFFFFFFFFFFFFFFFFFFFF AND PUSH20 0xFFFFFFFFFFFFFFFFFFFFFFFFFFFFFFFFFFFFFFFF AND DUP2 MSTORE PUSH1 0x20 ADD SWAP1 DUP2 MSTORE PUSH1 0x20 ADD PUSH1 0x0 KECCAK256 PUSH1 0x3 ADD SWAP1 DUP1 MLOAD SWAP1 PUSH1 0x20 ADD SWAP1 PUSH2 0x91B SWAP3 SWAP2 SWAP1 PUSH2 0x10F3 JUMP JUMPDEST POP DUP1 PUSH1 0x2 PUSH1 0x0 CALLER PUSH20 0xFFFFFFFFFFFFFFFFFFFFFFFFFFFFFFFFFFFFFFFF AND PUSH20 0xFFFFFFFFFFFFFFFFFFFFFFFFFFFFFFFFFFFFFFFF AND DUP2 MSTORE PUSH1 0x20 ADD SWAP1 DUP2 MSTORE PUSH1 0x20 ADD PUSH1 0x0 KECCAK256 PUSH1 0x9 ADD SWAP1 DUP1 MLOAD SWAP1 PUSH1 0x20 ADD SWAP1 PUSH2 0x972 SWAP3 SWAP2 SWAP1 PUSH2 0x1179 JUMP JUMPDEST POP PUSH1 0x0 JUMPDEST DUP2 MLOAD DUP2 LT ISZERO PUSH2 0x9D8 JUMPI PUSH1 0x1 PUSH1 0x0 DUP4 DUP4 DUP2 MLOAD DUP2 LT PUSH2 0x996 JUMPI PUSH2 0x995 PUSH2 0x1D09 JUMP JUMPDEST JUMPDEST PUSH1 0x20 MUL PUSH1 0x20 ADD ADD MLOAD DUP2 MSTORE PUSH1 0x20 ADD SWAP1 DUP2 MSTORE PUSH1 0x20 ADD PUSH1 0x0 KECCAK256 PUSH1 0x4 ADD PUSH1 0x0 DUP2 SLOAD DUP1 SWAP3 SWAP2 SWAP1 PUSH2 0x9C0 SWAP1 PUSH2 0x1C62 JUMP JUMPDEST SWAP2 SWAP1 POP SSTORE POP DUP1 DUP1 PUSH2 0x9D0 SWAP1 PUSH2 0x1C62 JUMP JUMPDEST SWAP2 POP POP PUSH2 0x976 JUMP JUMPDEST POP POP POP POP POP JUMP JUMPDEST PUSH1 0x4 PUSH1 0x20 MSTORE DUP2 PUSH1 0x0 MSTORE PUSH1 0x40 PUSH1 0x0 KECCAK256 DUP2 DUP2 SLOAD DUP2 LT PUSH2 0x9FB JUMPI PUSH1 0x0 DUP1 REVERT JUMPDEST SWAP1 PUSH1 0x0 MSTORE PUSH1 0x20 PUSH1 0x0 KECCAK256 SWAP1 PUSH1 0x7 MUL ADD PUSH1 0x0 SWAP2 POP SWAP2 POP POP DUP1 PUSH1 0x0 ADD PUSH1 0x0 SWAP1 SLOAD SWAP1 PUSH2 0x100 EXP SWAP1 DIV PUSH20 0xFFFFFFFFFFFFFFFFFFFFFFFFFFFFFFFFFFFFFFFF AND SWAP1 DUP1 PUSH1 0x1 ADD SLOAD SWAP1 DUP1 PUSH1 0x2 ADD SLOAD SWAP1 DUP1 PUSH1 0x3 ADD DUP1 SLOAD PUSH2 0xA51 SWAP1 PUSH2 0x1BFF JUMP JUMPDEST DUP1 PUSH1 0x1F ADD PUSH1 0x20 DUP1 SWAP2 DIV MUL PUSH1 0x20 ADD PUSH1 0x40 MLOAD SWAP1 DUP2 ADD PUSH1 0x40 MSTORE DUP1 SWAP3 SWAP2 SWAP1 DUP2 DUP2 MSTORE PUSH1 0x20 ADD DUP3 DUP1 SLOAD PUSH2 0xA7D SWAP1 PUSH2 0x1BFF JUMP JUMPDEST DUP1 ISZERO PUSH2 0xACA JUMPI DUP1 PUSH1 0x1F LT PUSH2 0xA9F JUMPI PUSH2 0x100 DUP1 DUP4 SLOAD DIV MUL DUP4 MSTORE SWAP2 PUSH1 0x20 ADD SWAP2 PUSH2 0xACA JUMP JUMPDEST DUP3 ADD SWAP2 SWAP1 PUSH1 0x0 MSTORE PUSH1 0x20 PUSH1 0x0 KECCAK256 SWAP1 JUMPDEST DUP2 SLOAD DUP2 MSTORE SWAP1 PUSH1 0x1 ADD SWAP1 PUSH1 0x20 ADD DUP1 DUP4 GT PUSH2 0xAAD JUMPI DUP3 SWAP1 SUB PUSH1 0x1F AND DUP3 ADD SWAP2 JUMPDEST POP POP POP POP POP SWAP1 DUP1 PUSH1 0x4 ADD SLOAD SWAP1 DUP1 PUSH1 0x5 ADD PUSH1 0x40 MLOAD DUP1 PUSH1 0x40 ADD PUSH1 0x40 MSTORE SWAP1 DUP2 PUSH1 0x0 DUP3 ADD DUP1 SLOAD PUSH2 0xAF5 SWAP1 PUSH2 0x1BFF JUMP JUMPDEST DUP1 PUSH1 0x1F ADD PUSH1 0x20 DUP1 SWAP2 DIV MUL PUSH1 0x20 ADD PUSH1 0x40 MLOAD SWAP1 DUP2 ADD PUSH1 0x40 MSTORE DUP1 SWAP3 SWAP2 SWAP1 DUP2 DUP2 MSTORE PUSH1 0x20 ADD DUP3 DUP1 SLOAD PUSH2 0xB21 SWAP1 PUSH2 0x1BFF JUMP JUMPDEST DUP1 ISZERO PUSH2 0xB6E JUMPI DUP1 PUSH1 0x1F LT PUSH2 0xB43 JUMPI PUSH2 0x100 DUP1 DUP4 SLOAD DIV MUL DUP4 MSTORE SWAP2 PUSH1 0x20 ADD SWAP2 PUSH2 0xB6E JUMP JUMPDEST DUP3 ADD SWAP2 SWAP1 PUSH1 0x0 MSTORE PUSH1 0x20 PUSH1 0x0 KECCAK256 SWAP1 JUMPDEST DUP2 SLOAD DUP2 MSTORE SWAP1 PUSH1 0x1 ADD SWAP1 PUSH1 0x20 ADD DUP1 DUP4 GT PUSH2 0xB51 JUMPI DUP3 SWAP1 SUB PUSH1 0x1F AND DUP3 ADD SWAP2 JUMPDEST POP POP POP POP POP DUP2 MSTORE PUSH1 0x20 ADD PUSH1 0x1 DUP3 ADD DUP1 SLOAD PUSH2 0xB87 SWAP1 PUSH2 0x1BFF JUMP JUMPDEST DUP1 PUSH1 0x1F ADD PUSH1 0x20 DUP1 SWAP2 DIV MUL PUSH1 0x20 ADD PUSH1 0x40 MLOAD SWAP1 DUP2 ADD PUSH1 0x40 MSTORE DUP1 SWAP3 SWAP2 SWAP1 DUP2 DUP2 MSTORE PUSH1 0x20 ADD DUP3 DUP1 SLOAD PUSH2 0xBB3 SWAP1 PUSH2 0x1BFF JUMP JUMPDEST DUP1 ISZERO PUSH2 0xC00 JUMPI DUP1 PUSH1 0x1F LT PUSH2 0xBD5 JUMPI PUSH2 0x100 DUP1 DUP4 SLOAD DIV MUL DUP4 MSTORE SWAP2 PUSH1 0x20 ADD SWAP2 PUSH2 0xC00 JUMP JUMPDEST DUP3 ADD SWAP2 SWAP1 PUSH1 0x0 MSTORE PUSH1 0x20 PUSH1 0x0 KECCAK256 SWAP1 JUMPDEST DUP2 SLOAD DUP2 MSTORE SWAP1 PUSH1 0x1 ADD SWAP1 PUSH1 0x20 ADD DUP1 DUP4 GT PUSH2 0xBE3 JUMPI DUP3 SWAP1 SUB PUSH1 0x1F AND DUP3 ADD SWAP2 JUMPDEST POP POP POP POP POP DUP2 MSTORE POP POP SWAP1 POP DUP7 JUMP JUMPDEST DUP1 PUSH1 0x1 PUSH1 0x0 DUP1 SLOAD DUP2 MSTORE PUSH1 0x20 ADD SWAP1 DUP2 MSTORE PUSH1 0x20 ADD PUSH1 0x0 KECCAK256 PUSH1 0x0 ADD SWAP1 DUP1 MLOAD SWAP1 PUSH1 0x20 ADD SWAP1 PUSH2 0xC39 SWAP3 SWAP2 SWAP1 PUSH2 0x10F3 JUMP JUMPDEST POP PUSH1 0x0 SLOAD PUSH1 0x1 PUSH1 0x0 DUP1 SLOAD DUP2 MSTORE PUSH1 0x20 ADD SWAP1 DUP2 MSTORE PUSH1 0x20 ADD PUSH1 0x0 KECCAK256 PUSH1 0x1 ADD DUP2 SWAP1 SSTORE POP CALLER PUSH1 0x1 PUSH1 0x0 DUP1 SLOAD DUP2 MSTORE PUSH1 0x20 ADD SWAP1 DUP2 MSTORE PUSH1 0x20 ADD PUSH1 0x0 KECCAK256 PUSH1 0x2 ADD PUSH1 0x0 PUSH2 0x100 EXP DUP2 SLOAD DUP2 PUSH20 0xFFFFFFFFFFFFFFFFFFFFFFFFFFFFFFFFFFFFFFFF MUL NOT AND SWAP1 DUP4 PUSH20 0xFFFFFFFFFFFFFFFFFFFFFFFFFFFFFFFFFFFFFFFF AND MUL OR SWAP1 SSTORE POP POP JUMP JUMPDEST PUSH2 0xCB9 PUSH2 0x11C6 JUMP JUMPDEST DUP3 DUP2 PUSH1 0x0 ADD DUP2 SWAP1 MSTORE POP DUP2 DUP2 PUSH1 0x20 ADD DUP2 SWAP1 MSTORE POP PUSH2 0xCD3 PUSH2 0x11E0 JUMP JUMPDEST CALLER DUP2 PUSH1 0x0 ADD SWAP1 PUSH20 0xFFFFFFFFFFFFFFFFFFFFFFFFFFFFFFFFFFFFFFFF AND SWAP1 DUP2 PUSH20 0xFFFFFFFFFFFFFFFFFFFFFFFFFFFFFFFFFFFFFFFF AND DUP2 MSTORE POP POP DUP7 DUP2 PUSH1 0x20 ADD DUP2 DUP2 MSTORE POP POP DUP6 DUP2 PUSH1 0x40 ADD DUP2 DUP2 MSTORE POP POP DUP5 DUP2 PUSH1 0x60 ADD DUP2 SWAP1 MSTORE POP TIMESTAMP DUP2 PUSH1 0x80 ADD DUP2 DUP2 MSTORE POP POP DUP2 DUP2 PUSH1 0xA0 ADD DUP2 SWAP1 MSTORE POP PUSH1 0x4 PUSH1 0x0 CALLER PUSH20 0xFFFFFFFFFFFFFFFFFFFFFFFFFFFFFFFFFFFFFFFF AND PUSH20 0xFFFFFFFFFFFFFFFFFFFFFFFFFFFFFFFFFFFFFFFF AND DUP2 MSTORE PUSH1 0x20 ADD SWAP1 DUP2 MSTORE PUSH1 0x20 ADD PUSH1 0x0 KECCAK256 DUP2 SWAP1 DUP1 PUSH1 0x1 DUP2 SLOAD ADD DUP1 DUP3 SSTORE DUP1 SWAP2 POP POP PUSH1 0x1 SWAP1 SUB SWAP1 PUSH1 0x0 MSTORE PUSH1 0x20 PUSH1 0x0 KECCAK256 SWAP1 PUSH1 0x7 MUL ADD PUSH1 0x0 SWAP1 SWAP2 SWAP1 SWAP2 SWAP1 SWAP2 POP PUSH1 0x0 DUP3 ADD MLOAD DUP2 PUSH1 0x0 ADD PUSH1 0x0 PUSH2 0x100 EXP DUP2 SLOAD DUP2 PUSH20 0xFFFFFFFFFFFFFFFFFFFFFFFFFFFFFFFFFFFFFFFF MUL NOT AND SWAP1 DUP4 PUSH20 0xFFFFFFFFFFFFFFFFFFFFFFFFFFFFFFFFFFFFFFFF AND MUL OR SWAP1 SSTORE POP PUSH1 0x20 DUP3 ADD MLOAD DUP2 PUSH1 0x1 ADD SSTORE PUSH1 0x40 DUP3 ADD MLOAD DUP2 PUSH1 0x2 ADD SSTORE PUSH1 0x60 DUP3 ADD MLOAD DUP2 PUSH1 0x3 ADD SWAP1 DUP1 MLOAD SWAP1 PUSH1 0x20 ADD SWAP1 PUSH2 0xE1B SWAP3 SWAP2 SWAP1 PUSH2 0x10F3 JUMP JUMPDEST POP PUSH1 0x80 DUP3 ADD MLOAD DUP2 PUSH1 0x4 ADD SSTORE PUSH1 0xA0 DUP3 ADD MLOAD DUP2 PUSH1 0x5 ADD PUSH1 0x0 DUP3 ADD MLOAD DUP2 PUSH1 0x0 ADD SWAP1 DUP1 MLOAD SWAP1 PUSH1 0x20 ADD SWAP1 PUSH2 0xE4B SWAP3 SWAP2 SWAP1 PUSH2 0x10F3 JUMP JUMPDEST POP PUSH1 0x20 DUP3 ADD MLOAD DUP2 PUSH1 0x1 ADD SWAP1 DUP1 MLOAD SWAP1 PUSH1 0x20 ADD SWAP1 PUSH2 0xE68 SWAP3 SWAP2 SWAP1 PUSH2 0x10F3 JUMP JUMPDEST POP POP POP POP POP POP POP POP POP POP POP POP JUMP JUMPDEST PUSH2 0xE7E PUSH2 0x11C6 JUMP JUMPDEST DUP3 DUP2 PUSH1 0x0 ADD DUP2 SWAP1 MSTORE POP DUP2 DUP2 PUSH1 0x20 ADD DUP2 SWAP1 MSTORE POP PUSH2 0xE98 PUSH2 0x1232 JUMP JUMPDEST CALLER DUP2 PUSH1 0x80 ADD SWAP1 PUSH20 0xFFFFFFFFFFFFFFFFFFFFFFFFFFFFFFFFFFFFFFFF AND SWAP1 DUP2 PUSH20 0xFFFFFFFFFFFFFFFFFFFFFFFFFFFFFFFFFFFFFFFF AND DUP2 MSTORE POP POP DUP8 DUP2 PUSH1 0x0 ADD DUP2 SWAP1 MSTORE POP DUP7 DUP2 PUSH1 0x20 ADD DUP2 SWAP1 MSTORE POP TIMESTAMP DUP2 PUSH1 0x40 ADD DUP2 DUP2 MSTORE POP POP DUP6 DUP2 PUSH1 0x60 ADD SWAP1 ISZERO ISZERO SWAP1 DUP2 ISZERO ISZERO DUP2 MSTORE POP POP DUP5 DUP2 PUSH1 0xA0 ADD DUP2 DUP2 MSTORE POP POP DUP2 DUP2 PUSH1 0xC0 ADD DUP2 SWAP1 MSTORE POP PUSH1 0x3 PUSH1 0x0 DUP7 DUP2 MSTORE PUSH1 0x20 ADD SWAP1 DUP2 MSTORE PUSH1 0x20 ADD PUSH1 0x0 KECCAK256 DUP2 SWAP1 DUP1 PUSH1 0x1 DUP2 SLOAD ADD DUP1 DUP3 SSTORE DUP1 SWAP2 POP POP PUSH1 0x1 SWAP1 SUB SWAP1 PUSH1 0x0 MSTORE PUSH1 0x20 PUSH1 0x0 KECCAK256 SWAP1 PUSH1 0x8 MUL ADD PUSH1 0x0 SWAP1 SWAP2 SWAP1 SWAP2 SWAP1 SWAP2 POP PUSH1 0x0 DUP3 ADD MLOAD DUP2 PUSH1 0x0 ADD SWAP1 DUP1 MLOAD SWAP1 PUSH1 0x20 ADD SWAP1 PUSH2 0xF68 SWAP3 SWAP2 SWAP1 PUSH2 0x10F3 JUMP JUMPDEST POP PUSH1 0x20 DUP3 ADD MLOAD DUP2 PUSH1 0x1 ADD SWAP1 DUP1 MLOAD SWAP1 PUSH1 0x20 ADD SWAP1 PUSH2 0xF85 SWAP3 SWAP2 SWAP1 PUSH2 0x10F3 JUMP JUMPDEST POP PUSH1 0x40 DUP3 ADD MLOAD DUP2 PUSH1 0x2 ADD SSTORE PUSH1 0x60 DUP3 ADD MLOAD DUP2 PUSH1 0x3 ADD PUSH1 0x0 PUSH2 0x100 EXP DUP2 SLOAD DUP2 PUSH1 0xFF MUL NOT AND SWAP1 DUP4 ISZERO ISZERO MUL OR SWAP1 SSTORE POP PUSH1 0x80 DUP3 ADD MLOAD DUP2 PUSH1 0x3 ADD PUSH1 0x1 PUSH2 0x100 EXP DUP2 SLOAD DUP2 PUSH20 0xFFFFFFFFFFFFFFFFFFFFFFFFFFFFFFFFFFFFFFFF MUL NOT AND SWAP1 DUP4 PUSH20 0xFFFFFFFFFFFFFFFFFFFFFFFFFFFFFFFFFFFFFFFF AND MUL OR SWAP1 SSTORE POP PUSH1 0xA0 DUP3 ADD MLOAD DUP2 PUSH1 0x4 ADD SSTORE PUSH1 0xC0 DUP3 ADD MLOAD DUP2 PUSH1 0x5 ADD PUSH1 0x0 DUP3 ADD MLOAD DUP2 PUSH1 0x0 ADD SWAP1 DUP1 MLOAD SWAP1 PUSH1 0x20 ADD SWAP1 PUSH2 0x1026 SWAP3 SWAP2 SWAP1 PUSH2 0x10F3 JUMP JUMPDEST POP PUSH1 0x20 DUP3 ADD MLOAD DUP2 PUSH1 0x1 ADD SWAP1 DUP1 MLOAD SWAP1 PUSH1 0x20 ADD SWAP1 PUSH2 0x1043 SWAP3 SWAP2 SWAP1 PUSH2 0x10F3 JUMP JUMPDEST POP POP POP PUSH1 0xE0 DUP3 ADD MLOAD DUP2 PUSH1 0x7 ADD SWAP1 DUP1 MLOAD SWAP1 PUSH1 0x20 ADD SWAP1 PUSH2 0x1062 SWAP3 SWAP2 SWAP1 PUSH2 0x1179 JUMP JUMPDEST POP POP POP PUSH1 0x1 PUSH1 0x0 DUP7 DUP2 MSTORE PUSH1 0x20 ADD SWAP1 DUP2 MSTORE PUSH1 0x20 ADD PUSH1 0x0 KECCAK256 PUSH1 0x7 ADD PUSH1 0x0 DUP2 SLOAD DUP1 SWAP3 SWAP2 SWAP1 PUSH2 0x108C SWAP1 PUSH2 0x1C62 JUMP JUMPDEST SWAP2 SWAP1 POP SSTORE POP PUSH1 0x2 PUSH1 0x0 CALLER PUSH20 0xFFFFFFFFFFFFFFFFFFFFFFFFFFFFFFFFFFFFFFFF AND PUSH20 0xFFFFFFFFFFFFFFFFFFFFFFFFFFFFFFFFFFFFFFFF AND DUP2 MSTORE PUSH1 0x20 ADD SWAP1 DUP2 MSTORE PUSH1 0x20 ADD PUSH1 0x0 KECCAK256 PUSH1 0x7 ADD PUSH1 0x0 DUP2 SLOAD DUP1 SWAP3 SWAP2 SWAP1 PUSH2 0x10E4 SWAP1 PUSH2 0x1C62 JUMP JUMPDEST SWAP2 SWAP1 POP SSTORE POP POP POP POP POP POP POP POP POP JUMP JUMPDEST DUP3 DUP1 SLOAD PUSH2 0x10FF SWAP1 PUSH2 0x1BFF JUMP JUMPDEST SWAP1 PUSH1 0x0 MSTORE PUSH1 0x20 PUSH1 0x0 KECCAK256 SWAP1 PUSH1 0x1F ADD PUSH1 0x20 SWAP1 DIV DUP2 ADD SWAP3 DUP3 PUSH2 0x1121 JUMPI PUSH1 0x0 DUP6 SSTORE PUSH2 0x1168 JUMP JUMPDEST DUP3 PUSH1 0x1F LT PUSH2 0x113A JUMPI DUP1 MLOAD PUSH1 0xFF NOT AND DUP4 DUP1 ADD OR DUP6 SSTORE PUSH2 0x1168 JUMP JUMPDEST DUP3 DUP1 ADD PUSH1 0x1 ADD DUP6 SSTORE DUP3 ISZERO PUSH2 0x1168 JUMPI SWAP2 DUP3 ADD JUMPDEST DUP3 DUP2 GT ISZERO PUSH2 0x1167 JUMPI DUP3 MLOAD DUP3 SSTORE SWAP2 PUSH1 0x20 ADD SWAP2 SWAP1 PUSH1 0x1 ADD SWAP1 PUSH2 0x114C JUMP JUMPDEST JUMPDEST POP SWAP1 POP PUSH2 0x1175 SWAP2 SWAP1 PUSH2 0x1295 JUMP JUMPDEST POP SWAP1 JUMP JUMPDEST DUP3 DUP1 SLOAD DUP3 DUP3 SSTORE SWAP1 PUSH1 0x0 MSTORE PUSH1 0x20 PUSH1 0x0 KECCAK256 SWAP1 DUP2 ADD SWAP3 DUP3 ISZERO PUSH2 0x11B5 JUMPI SWAP2 PUSH1 0x20 MUL DUP3 ADD JUMPDEST DUP3 DUP2 GT ISZERO PUSH2 0x11B4 JUMPI DUP3 MLOAD DUP3 SSTORE SWAP2 PUSH1 0x20 ADD SWAP2 SWAP1 PUSH1 0x1 ADD SWAP1 PUSH2 0x1199 JUMP JUMPDEST JUMPDEST POP SWAP1 POP PUSH2 0x11C2 SWAP2 SWAP1 PUSH2 0x1295 JUMP JUMPDEST POP SWAP1 JUMP JUMPDEST PUSH1 0x40 MLOAD DUP1 PUSH1 0x40 ADD PUSH1 0x40 MSTORE DUP1 PUSH1 0x60 DUP2 MSTORE PUSH1 0x20 ADD PUSH1 0x60 DUP2 MSTORE POP SWAP1 JUMP JUMPDEST PUSH1 0x40 MLOAD DUP1 PUSH1 0xC0 ADD PUSH1 0x40 MSTORE DUP1 PUSH1 0x0 PUSH20 0xFFFFFFFFFFFFFFFFFFFFFFFFFFFFFFFFFFFFFFFF AND DUP2 MSTORE PUSH1 0x20 ADD PUSH1 0x0 DUP2 MSTORE PUSH1 0x20 ADD PUSH1 0x0 DUP2 MSTORE PUSH1 0x20 ADD PUSH1 0x60 DUP2 MSTORE PUSH1 0x20 ADD PUSH1 0x0 DUP2 MSTORE PUSH1 0x20 ADD PUSH2 0x122C PUSH2 0x11C6 JUMP JUMPDEST DUP2 MSTORE POP SWAP1 JUMP JUMPDEST PUSH1 0x40 MLOAD DUP1 PUSH2 0x100 ADD PUSH1 0x40 MSTORE DUP1 PUSH1 0x60 DUP2 MSTORE PUSH1 0x20 ADD PUSH1 0x60 DUP2 MSTORE PUSH1 0x20 ADD PUSH1 0x0 DUP2 MSTORE PUSH1 0x20 ADD PUSH1 0x0 ISZERO ISZERO DUP2 MSTORE PUSH1 0x20 ADD PUSH1 0x0 PUSH20 0xFFFFFFFFFFFFFFFFFFFFFFFFFFFFFFFFFFFFFFFF AND DUP2 MSTORE PUSH1 0x20 ADD PUSH1 0x0 DUP2 MSTORE PUSH1 0x20 ADD PUSH2 0x1288 PUSH2 0x11C6 JUMP JUMPDEST DUP2 MSTORE PUSH1 0x20 ADD PUSH1 0x60 DUP2 MSTORE POP SWAP1 JUMP JUMPDEST JUMPDEST DUP1 DUP3 GT ISZERO PUSH2 0x12AE JUMPI PUSH1 0x0 DUP2 PUSH1 0x0 SWAP1 SSTORE POP PUSH1 0x1 ADD PUSH2 0x1296 JUMP JUMPDEST POP SWAP1 JUMP JUMPDEST PUSH1 0x0 PUSH2 0x12C5 PUSH2 0x12C0 DUP5 PUSH2 0x1AD9 JUMP JUMPDEST PUSH2 0x1AB4 JUMP JUMPDEST SWAP1 POP DUP1 DUP4 DUP3 MSTORE PUSH1 0x20 DUP3 ADD SWAP1 POP DUP3 DUP6 PUSH1 0x20 DUP7 MUL DUP3 ADD GT ISZERO PUSH2 0x12E8 JUMPI PUSH2 0x12E7 PUSH2 0x1D6C JUMP JUMPDEST JUMPDEST PUSH1 0x0 JUMPDEST DUP6 DUP2 LT ISZERO PUSH2 0x1318 JUMPI DUP2 PUSH2 0x12FE DUP9 DUP3 PUSH2 0x13EA JUMP JUMPDEST DUP5 MSTORE PUSH1 0x20 DUP5 ADD SWAP4 POP PUSH1 0x20 DUP4 ADD SWAP3 POP POP PUSH1 0x1 DUP2 ADD SWAP1 POP PUSH2 0x12EB JUMP JUMPDEST POP POP POP SWAP4 SWAP3 POP POP POP JUMP JUMPDEST PUSH1 0x0 PUSH2 0x1335 PUSH2 0x1330 DUP5 PUSH2 0x1B05 JUMP JUMPDEST PUSH2 0x1AB4 JUMP JUMPDEST SWAP1 POP DUP3 DUP2 MSTORE PUSH1 0x20 DUP2 ADD DUP5 DUP5 DUP5 ADD GT ISZERO PUSH2 0x1351 JUMPI PUSH2 0x1350 PUSH2 0x1D71 JUMP JUMPDEST JUMPDEST PUSH2 0x135C DUP5 DUP3 DUP6 PUSH2 0x1BBD JUMP JUMPDEST POP SWAP4 SWAP3 POP POP POP JUMP JUMPDEST PUSH1 0x0 DUP2 CALLDATALOAD SWAP1 POP PUSH2 0x1373 DUP2 PUSH2 0x1D91 JUMP JUMPDEST SWAP3 SWAP2 POP POP JUMP JUMPDEST PUSH1 0x0 DUP3 PUSH1 0x1F DUP4 ADD SLT PUSH2 0x138E JUMPI PUSH2 0x138D PUSH2 0x1D67 JUMP JUMPDEST JUMPDEST DUP2 CALLDATALOAD PUSH2 0x139E DUP5 DUP3 PUSH1 0x20 DUP7 ADD PUSH2 0x12B2 JUMP JUMPDEST SWAP2 POP POP SWAP3 SWAP2 POP POP JUMP JUMPDEST PUSH1 0x0 DUP2 CALLDATALOAD SWAP1 POP PUSH2 0x13B6 DUP2 PUSH2 0x1DA8 JUMP JUMPDEST SWAP3 SWAP2 POP POP JUMP JUMPDEST PUSH1 0x0 DUP3 PUSH1 0x1F DUP4 ADD SLT PUSH2 0x13D1 JUMPI PUSH2 0x13D0 PUSH2 0x1D67 JUMP JUMPDEST JUMPDEST DUP2 CALLDATALOAD PUSH2 0x13E1 DUP5 DUP3 PUSH1 0x20 DUP7 ADD PUSH2 0x1322 JUMP JUMPDEST SWAP2 POP POP SWAP3 SWAP2 POP POP JUMP JUMPDEST PUSH1 0x0 DUP2 CALLDATALOAD SWAP1 POP PUSH2 0x13F9 DUP2 PUSH2 0x1DBF JUMP JUMPDEST SWAP3 SWAP2 POP POP JUMP JUMPDEST PUSH1 0x0 PUSH1 0x20 DUP3 DUP5 SUB SLT ISZERO PUSH2 0x1415 JUMPI PUSH2 0x1414 PUSH2 0x1D7B JUMP JUMPDEST JUMPDEST PUSH1 0x0 PUSH2 0x1423 DUP5 DUP3 DUP6 ADD PUSH2 0x1364 JUMP JUMPDEST SWAP2 POP POP SWAP3 SWAP2 POP POP JUMP JUMPDEST PUSH1 0x0 DUP1 PUSH1 0x40 DUP4 DUP6 SUB SLT ISZERO PUSH2 0x1443 JUMPI PUSH2 0x1442 PUSH2 0x1D7B JUMP JUMPDEST JUMPDEST PUSH1 0x0 PUSH2 0x1451 DUP6 DUP3 DUP7 ADD PUSH2 0x1364 JUMP JUMPDEST SWAP3 POP POP PUSH1 0x20 PUSH2 0x1462 DUP6 DUP3 DUP7 ADD PUSH2 0x13EA JUMP JUMPDEST SWAP2 POP POP SWAP3 POP SWAP3 SWAP1 POP JUMP JUMPDEST PUSH1 0x0 PUSH1 0x20 DUP3 DUP5 SUB SLT ISZERO PUSH2 0x1482 JUMPI PUSH2 0x1481 PUSH2 0x1D7B JUMP JUMPDEST JUMPDEST PUSH1 0x0 DUP3 ADD CALLDATALOAD PUSH8 0xFFFFFFFFFFFFFFFF DUP2 GT ISZERO PUSH2 0x14A0 JUMPI PUSH2 0x149F PUSH2 0x1D76 JUMP JUMPDEST JUMPDEST PUSH2 0x14AC DUP5 DUP3 DUP6 ADD PUSH2 0x13BC JUMP JUMPDEST SWAP2 POP POP SWAP3 SWAP2 POP POP JUMP JUMPDEST PUSH1 0x0 DUP1 PUSH1 0x0 DUP1 PUSH1 0x0 DUP1 PUSH1 0xC0 DUP8 DUP10 SUB SLT ISZERO PUSH2 0x14D2 JUMPI PUSH2 0x14D1 PUSH2 0x1D7B JUMP JUMPDEST JUMPDEST PUSH1 0x0 DUP8 ADD CALLDATALOAD PUSH8 0xFFFFFFFFFFFFFFFF DUP2 GT ISZERO PUSH2 0x14F0 JUMPI PUSH2 0x14EF PUSH2 0x1D76 JUMP JUMPDEST JUMPDEST PUSH2 0x14FC DUP10 DUP3 DUP11 ADD PUSH2 0x13BC JUMP JUMPDEST SWAP7 POP POP PUSH1 0x20 DUP8 ADD CALLDATALOAD PUSH8 0xFFFFFFFFFFFFFFFF DUP2 GT ISZERO PUSH2 0x151D JUMPI PUSH2 0x151C PUSH2 0x1D76 JUMP JUMPDEST JUMPDEST PUSH2 0x1529 DUP10 DUP3 DUP11 ADD PUSH2 0x13BC JUMP JUMPDEST SWAP6 POP POP PUSH1 0x40 PUSH2 0x153A DUP10 DUP3 DUP11 ADD PUSH2 0x13A7 JUMP JUMPDEST SWAP5 POP POP PUSH1 0x60 PUSH2 0x154B DUP10 DUP3 DUP11 ADD PUSH2 0x13EA JUMP JUMPDEST SWAP4 POP POP PUSH1 0x80 DUP8 ADD CALLDATALOAD PUSH8 0xFFFFFFFFFFFFFFFF DUP2 GT ISZERO PUSH2 0x156C JUMPI PUSH2 0x156B PUSH2 0x1D76 JUMP JUMPDEST JUMPDEST PUSH2 0x1578 DUP10 DUP3 DUP11 ADD PUSH2 0x13BC JUMP JUMPDEST SWAP3 POP POP PUSH1 0xA0 DUP8 ADD CALLDATALOAD PUSH8 0xFFFFFFFFFFFFFFFF DUP2 GT ISZERO PUSH2 0x1599 JUMPI PUSH2 0x1598 PUSH2 0x1D76 JUMP JUMPDEST JUMPDEST PUSH2 0x15A5 DUP10 DUP3 DUP11 ADD PUSH2 0x13BC JUMP JUMPDEST SWAP2 POP POP SWAP3 SWAP6 POP SWAP3 SWAP6 POP SWAP3 SWAP6 JUMP JUMPDEST PUSH1 0x0 DUP1 PUSH1 0x0 DUP1 PUSH1 0x80 DUP6 DUP8 SUB SLT ISZERO PUSH2 0x15CC JUMPI PUSH2 0x15CB PUSH2 0x1D7B JUMP JUMPDEST JUMPDEST PUSH1 0x0 DUP6 ADD CALLDATALOAD PUSH8 0xFFFFFFFFFFFFFFFF DUP2 GT ISZERO PUSH2 0x15EA JUMPI PUSH2 0x15E9 PUSH2 0x1D76 JUMP JUMPDEST JUMPDEST PUSH2 0x15F6 DUP8 DUP3 DUP9 ADD PUSH2 0x13BC JUMP JUMPDEST SWAP5 POP POP PUSH1 0x20 DUP6 ADD CALLDATALOAD PUSH8 0xFFFFFFFFFFFFFFFF DUP2 GT ISZERO PUSH2 0x1617 JUMPI PUSH2 0x1616 PUSH2 0x1D76 JUMP JUMPDEST JUMPDEST PUSH2 0x1623 DUP8 DUP3 DUP9 ADD PUSH2 0x13BC JUMP JUMPDEST SWAP4 POP POP PUSH1 0x40 DUP6 ADD CALLDATALOAD PUSH8 0xFFFFFFFFFFFFFFFF DUP2 GT ISZERO PUSH2 0x1644 JUMPI PUSH2 0x1643 PUSH2 0x1D76 JUMP JUMPDEST JUMPDEST PUSH2 0x1650 DUP8 DUP3 DUP9 ADD PUSH2 0x13BC JUMP JUMPDEST SWAP3 POP POP PUSH1 0x60 DUP6 ADD CALLDATALOAD PUSH8 0xFFFFFFFFFFFFFFFF DUP2 GT ISZERO PUSH2 0x1671 JUMPI PUSH2 0x1670 PUSH2 0x1D76 JUMP JUMPDEST JUMPDEST PUSH2 0x167D DUP8 DUP3 DUP9 ADD PUSH2 0x1379 JUMP JUMPDEST SWAP2 POP POP SWAP3 SWAP6 SWAP2 SWAP5 POP SWAP3 POP JUMP JUMPDEST PUSH1 0x0 PUSH1 0x20 DUP3 DUP5 SUB SLT ISZERO PUSH2 0x169F JUMPI PUSH2 0x169E PUSH2 0x1D7B JUMP JUMPDEST JUMPDEST PUSH1 0x0 PUSH2 0x16AD DUP5 DUP3 DUP6 ADD PUSH2 0x13EA JUMP JUMPDEST SWAP2 POP POP SWAP3 SWAP2 POP POP JUMP JUMPDEST PUSH1 0x0 DUP1 PUSH1 0x40 DUP4 DUP6 SUB SLT ISZERO PUSH2 0x16CD JUMPI PUSH2 0x16CC PUSH2 0x1D7B JUMP JUMPDEST JUMPDEST PUSH1 0x0 PUSH2 0x16DB DUP6 DUP3 DUP7 ADD PUSH2 0x13EA JUMP JUMPDEST SWAP3 POP POP PUSH1 0x20 PUSH2 0x16EC DUP6 DUP3 DUP7 ADD PUSH2 0x13EA JUMP JUMPDEST SWAP2 POP POP SWAP3 POP SWAP3 SWAP1 POP JUMP JUMPDEST PUSH1 0x0 DUP1 PUSH1 0x0 DUP1 PUSH1 0x0 PUSH1 0xA0 DUP7 DUP9 SUB SLT ISZERO PUSH2 0x1712 JUMPI PUSH2 0x1711 PUSH2 0x1D7B JUMP JUMPDEST JUMPDEST PUSH1 0x0 PUSH2 0x1720 DUP9 DUP3 DUP10 ADD PUSH2 0x13EA JUMP JUMPDEST SWAP6 POP POP PUSH1 0x20 PUSH2 0x1731 DUP9 DUP3 DUP10 ADD PUSH2 0x13EA JUMP JUMPDEST SWAP5 POP POP PUSH1 0x40 DUP7 ADD CALLDATALOAD PUSH8 0xFFFFFFFFFFFFFFFF DUP2 GT ISZERO PUSH2 0x1752 JUMPI PUSH2 0x1751 PUSH2 0x1D76 JUMP JUMPDEST JUMPDEST PUSH2 0x175E DUP9 DUP3 DUP10 ADD PUSH2 0x13BC JUMP JUMPDEST SWAP4 POP POP PUSH1 0x60 DUP7 ADD CALLDATALOAD PUSH8 0xFFFFFFFFFFFFFFFF DUP2 GT ISZERO PUSH2 0x177F JUMPI PUSH2 0x177E PUSH2 0x1D76 JUMP JUMPDEST JUMPDEST PUSH2 0x178B DUP9 DUP3 DUP10 ADD PUSH2 0x13BC JUMP JUMPDEST SWAP3 POP POP PUSH1 0x80 DUP7 ADD CALLDATALOAD PUSH8 0xFFFFFFFFFFFFFFFF DUP2 GT ISZERO PUSH2 0x17AC JUMPI PUSH2 0x17AB PUSH2 0x1D76 JUMP JUMPDEST JUMPDEST PUSH2 0x17B8 DUP9 DUP3 DUP10 ADD PUSH2 0x13BC JUMP JUMPDEST SWAP2 POP POP SWAP3 SWAP6 POP SWAP3 SWAP6 SWAP1 SWAP4 POP JUMP JUMPDEST PUSH2 0x17CE DUP2 PUSH2 0x1B75 JUMP JUMPDEST DUP3 MSTORE POP POP JUMP JUMPDEST PUSH2 0x17DD DUP2 PUSH2 0x1B63 JUMP JUMPDEST DUP3 MSTORE POP POP JUMP JUMPDEST PUSH2 0x17EC DUP2 PUSH2 0x1B87 JUMP JUMPDEST DUP3 MSTORE POP POP JUMP JUMPDEST PUSH1 0x0 PUSH2 0x17FD DUP3 PUSH2 0x1B36 JUMP JUMPDEST PUSH2 0x1807 DUP2 DUP6 PUSH2 0x1B41 JUMP JUMPDEST SWAP4 POP PUSH2 0x1817 DUP2 DUP6 PUSH1 0x20 DUP7 ADD PUSH2 0x1BCC JUMP JUMPDEST PUSH2 0x1820 DUP2 PUSH2 0x1D80 JUMP JUMPDEST DUP5 ADD SWAP2 POP POP SWAP3 SWAP2 POP POP JUMP JUMPDEST PUSH1 0x0 PUSH2 0x1836 DUP3 PUSH2 0x1B36 JUMP JUMPDEST PUSH2 0x1840 DUP2 DUP6 PUSH2 0x1B52 JUMP JUMPDEST SWAP4 POP PUSH2 0x1850 DUP2 DUP6 PUSH1 0x20 DUP7 ADD PUSH2 0x1BCC JUMP JUMPDEST PUSH2 0x1859 DUP2 PUSH2 0x1D80 JUMP JUMPDEST DUP5 ADD SWAP2 POP POP SWAP3 SWAP2 POP POP JUMP JUMPDEST PUSH1 0x0 PUSH1 0x40 DUP4 ADD PUSH1 0x0 DUP4 ADD MLOAD DUP5 DUP3 SUB PUSH1 0x0 DUP7 ADD MSTORE PUSH2 0x1881 DUP3 DUP3 PUSH2 0x17F2 JUMP JUMPDEST SWAP2 POP POP PUSH1 0x20 DUP4 ADD MLOAD DUP5 DUP3 SUB PUSH1 0x20 DUP7 ADD MSTORE PUSH2 0x189B DUP3 DUP3 PUSH2 0x17F2 JUMP JUMPDEST SWAP2 POP POP DUP1 SWAP2 POP POP SWAP3 SWAP2 POP POP JUMP JUMPDEST PUSH2 0x18B1 DUP2 PUSH2 0x1BB3 JUMP JUMPDEST DUP3 MSTORE POP POP JUMP JUMPDEST PUSH1 0x0 PUSH2 0x120 DUP3 ADD SWAP1 POP PUSH2 0x18CD PUSH1 0x0 DUP4 ADD DUP13 PUSH2 0x17C5 JUMP JUMPDEST DUP2 DUP2 SUB PUSH1 0x20 DUP4 ADD MSTORE PUSH2 0x18DF DUP2 DUP12 PUSH2 0x182B JUMP JUMPDEST SWAP1 POP DUP2 DUP2 SUB PUSH1 0x40 DUP4 ADD MSTORE PUSH2 0x18F3 DUP2 DUP11 PUSH2 0x182B JUMP JUMPDEST SWAP1 POP DUP2 DUP2 SUB PUSH1 0x60 DUP4 ADD MSTORE PUSH2 0x1907 DUP2 DUP10 PUSH2 0x182B JUMP JUMPDEST SWAP1 POP PUSH2 0x1916 PUSH1 0x80 DUP4 ADD DUP9 PUSH2 0x18A8 JUMP JUMPDEST PUSH2 0x1923 PUSH1 0xA0 DUP4 ADD DUP8 PUSH2 0x18A8 JUMP JUMPDEST PUSH2 0x1930 PUSH1 0xC0 DUP4 ADD DUP7 PUSH2 0x18A8 JUMP JUMPDEST PUSH2 0x193D PUSH1 0xE0 DUP4 ADD DUP6 PUSH2 0x17E3 JUMP JUMPDEST PUSH2 0x194B PUSH2 0x100 DUP4 ADD DUP5 PUSH2 0x18A8 JUMP JUMPDEST SWAP11 SWAP10 POP POP POP POP POP POP POP POP POP POP JUMP JUMPDEST PUSH1 0x0 PUSH1 0xC0 DUP3 ADD SWAP1 POP PUSH2 0x196E PUSH1 0x0 DUP4 ADD DUP10 PUSH2 0x17C5 JUMP JUMPDEST PUSH2 0x197B PUSH1 0x20 DUP4 ADD DUP9 PUSH2 0x18A8 JUMP JUMPDEST PUSH2 0x1988 PUSH1 0x40 DUP4 ADD DUP8 PUSH2 0x18A8 JUMP JUMPDEST DUP2 DUP2 SUB PUSH1 0x60 DUP4 ADD MSTORE PUSH2 0x199A DUP2 DUP7 PUSH2 0x182B JUMP JUMPDEST SWAP1 POP PUSH2 0x19A9 PUSH1 0x80 DUP4 ADD DUP6 PUSH2 0x18A8 JUMP JUMPDEST DUP2 DUP2 SUB PUSH1 0xA0 DUP4 ADD MSTORE PUSH2 0x19BB DUP2 DUP5 PUSH2 0x1864 JUMP JUMPDEST SWAP1 POP SWAP8 SWAP7 POP POP POP POP POP POP POP JUMP JUMPDEST PUSH1 0x0 PUSH1 0xE0 DUP3 ADD SWAP1 POP DUP2 DUP2 SUB PUSH1 0x0 DUP4 ADD MSTORE PUSH2 0x19E2 DUP2 DUP11 PUSH2 0x182B JUMP JUMPDEST SWAP1 POP DUP2 DUP2 SUB PUSH1 0x20 DUP4 ADD MSTORE PUSH2 0x19F6 DUP2 DUP10 PUSH2 0x182B JUMP JUMPDEST SWAP1 POP PUSH2 0x1A05 PUSH1 0x40 DUP4 ADD DUP9 PUSH2 0x18A8 JUMP JUMPDEST PUSH2 0x1A12 PUSH1 0x60 DUP4 ADD DUP8 PUSH2 0x17E3 JUMP JUMPDEST PUSH2 0x1A1F PUSH1 0x80 DUP4 ADD DUP7 PUSH2 0x17D4 JUMP JUMPDEST PUSH2 0x1A2C PUSH1 0xA0 DUP4 ADD DUP6 PUSH2 0x18A8 JUMP JUMPDEST DUP2 DUP2 SUB PUSH1 0xC0 DUP4 ADD MSTORE PUSH2 0x1A3E DUP2 DUP5 PUSH2 0x1864 JUMP JUMPDEST SWAP1 POP SWAP9 SWAP8 POP POP POP POP POP POP POP POP JUMP JUMPDEST PUSH1 0x0 PUSH1 0xC0 DUP3 ADD SWAP1 POP DUP2 DUP2 SUB PUSH1 0x0 DUP4 ADD MSTORE PUSH2 0x1A66 DUP2 DUP10 PUSH2 0x182B JUMP JUMPDEST SWAP1 POP PUSH2 0x1A75 PUSH1 0x20 DUP4 ADD DUP9 PUSH2 0x18A8 JUMP JUMPDEST PUSH2 0x1A82 PUSH1 0x40 DUP4 ADD DUP8 PUSH2 0x17C5 JUMP JUMPDEST PUSH2 0x1A8F PUSH1 0x60 DUP4 ADD DUP7 PUSH2 0x18A8 JUMP JUMPDEST PUSH2 0x1A9C PUSH1 0x80 DUP4 ADD DUP6 PUSH2 0x18A8 JUMP JUMPDEST PUSH2 0x1AA9 PUSH1 0xA0 DUP4 ADD DUP5 PUSH2 0x18A8 JUMP JUMPDEST SWAP8 SWAP7 POP POP POP POP POP POP POP JUMP JUMPDEST PUSH1 0x0 PUSH2 0x1ABE PUSH2 0x1ACF JUMP JUMPDEST SWAP1 POP PUSH2 0x1ACA DUP3 DUP3 PUSH2 0x1C31 JUMP JUMPDEST SWAP2 SWAP1 POP JUMP JUMPDEST PUSH1 0x0 PUSH1 0x40 MLOAD SWAP1 POP SWAP1 JUMP JUMPDEST PUSH1 0x0 PUSH8 0xFFFFFFFFFFFFFFFF DUP3 GT ISZERO PUSH2 0x1AF4 JUMPI PUSH2 0x1AF3 PUSH2 0x1D38 JUMP JUMPDEST JUMPDEST PUSH1 0x20 DUP3 MUL SWAP1 POP PUSH1 0x20 DUP2 ADD SWAP1 POP SWAP2 SWAP1 POP JUMP JUMPDEST PUSH1 0x0 PUSH8 0xFFFFFFFFFFFFFFFF DUP3 GT ISZERO PUSH2 0x1B20 JUMPI PUSH2 0x1B1F PUSH2 0x1D38 JUMP JUMPDEST JUMPDEST PUSH2 0x1B29 DUP3 PUSH2 0x1D80 JUMP JUMPDEST SWAP1 POP PUSH1 0x20 DUP2 ADD SWAP1 POP SWAP2 SWAP1 POP JUMP JUMPDEST PUSH1 0x0 DUP2 MLOAD SWAP1 POP SWAP2 SWAP1 POP JUMP JUMPDEST PUSH1 0x0 DUP3 DUP3 MSTORE PUSH1 0x20 DUP3 ADD SWAP1 POP SWAP3 SWAP2 POP POP JUMP JUMPDEST PUSH1 0x0 DUP3 DUP3 MSTORE PUSH1 0x20 DUP3 ADD SWAP1 POP SWAP3 SWAP2 POP POP JUMP JUMPDEST PUSH1 0x0 PUSH2 0x1B6E DUP3 PUSH2 0x1B93 JUMP JUMPDEST SWAP1 POP SWAP2 SWAP1 POP JUMP JUMPDEST PUSH1 0x0 PUSH2 0x1B80 DUP3 PUSH2 0x1B93 JUMP JUMPDEST SWAP1 POP SWAP2 SWAP1 POP JUMP JUMPDEST PUSH1 0x0 DUP2 ISZERO ISZERO SWAP1 POP SWAP2 SWAP1 POP JUMP JUMPDEST PUSH1 0x0 PUSH20 0xFFFFFFFFFFFFFFFFFFFFFFFFFFFFFFFFFFFFFFFF DUP3 AND SWAP1 POP SWAP2 SWAP1 POP JUMP JUMPDEST PUSH1 0x0 DUP2 SWAP1 POP SWAP2 SWAP1 POP JUMP JUMPDEST DUP3 DUP2 DUP4 CALLDATACOPY PUSH1 0x0 DUP4 DUP4 ADD MSTORE POP POP POP JUMP JUMPDEST PUSH1 0x0 JUMPDEST DUP4 DUP2 LT ISZERO PUSH2 0x1BEA JUMPI DUP1 DUP3 ADD MLOAD DUP2 DUP5 ADD MSTORE PUSH1 0x20 DUP2 ADD SWAP1 POP PUSH2 0x1BCF JUMP JUMPDEST DUP4 DUP2 GT ISZERO PUSH2 0x1BF9 JUMPI PUSH1 0x0 DUP5 DUP5 ADD MSTORE JUMPDEST POP POP POP POP JUMP JUMPDEST PUSH1 0x0 PUSH1 0x2 DUP3 DIV SWAP1 POP PUSH1 0x1 DUP3 AND DUP1 PUSH2 0x1C17 JUMPI PUSH1 0x7F DUP3 AND SWAP2 POP JUMPDEST PUSH1 0x20 DUP3 LT DUP2 EQ ISZERO PUSH2 0x1C2B JUMPI PUSH2 0x1C2A PUSH2 0x1CDA JUMP JUMPDEST JUMPDEST POP SWAP2 SWAP1 POP JUMP JUMPDEST PUSH2 0x1C3A DUP3 PUSH2 0x1D80 JUMP JUMPDEST DUP2 ADD DUP2 DUP2 LT PUSH8 0xFFFFFFFFFFFFFFFF DUP3 GT OR ISZERO PUSH2 0x1C59 JUMPI PUSH2 0x1C58 PUSH2 0x1D38 JUMP JUMPDEST JUMPDEST DUP1 PUSH1 0x40 MSTORE POP POP POP JUMP JUMPDEST PUSH1 0x0 PUSH2 0x1C6D DUP3 PUSH2 0x1BB3 JUMP JUMPDEST SWAP2 POP PUSH32 0xFFFFFFFFFFFFFFFFFFFFFFFFFFFFFFFFFFFFFFFFFFFFFFFFFFFFFFFFFFFFFFFF DUP3 EQ ISZERO PUSH2 0x1CA0 JUMPI PUSH2 0x1C9F PUSH2 0x1CAB JUMP JUMPDEST JUMPDEST PUSH1 0x1 DUP3 ADD SWAP1 POP SWAP2 SWAP1 POP JUMP JUMPDEST PUSH32 0x4E487B7100000000000000000000000000000000000000000000000000000000 PUSH1 0x0 MSTORE PUSH1 0x11 PUSH1 0x4 MSTORE PUSH1 0x24 PUSH1 0x0 REVERT JUMPDEST PUSH32 0x4E487B7100000000000000000000000000000000000000000000000000000000 PUSH1 0x0 MSTORE PUSH1 0x22 PUSH1 0x4 MSTORE PUSH1 0x24 PUSH1 0x0 REVERT JUMPDEST PUSH32 0x4E487B7100000000000000000000000000000000000000000000000000000000 PUSH1 0x0 MSTORE PUSH1 0x32 PUSH1 0x4 MSTORE PUSH1 0x24 PUSH1 0x0 REVERT JUMPDEST PUSH32 0x4E487B7100000000000000000000000000000000000000000000000000000000 PUSH1 0x0 MSTORE PUSH1 0x41 PUSH1 0x4 MSTORE PUSH1 0x24 PUSH1 0x0 REVERT JUMPDEST PUSH1 0x0 DUP1 REVERT JUMPDEST PUSH1 0x0 DUP1 REVERT JUMPDEST PUSH1 0x0 DUP1 REVERT JUMPDEST PUSH1 0x0 DUP1 REVERT JUMPDEST PUSH1 0x0 DUP1 REVERT JUMPDEST PUSH1 0x0 PUSH1 0x1F NOT PUSH1 0x1F DUP4 ADD AND SWAP1 POP SWAP2 SWAP1 POP JUMP JUMPDEST PUSH2 0x1D9A DUP2 PUSH2 0x1B63 JUMP JUMPDEST DUP2 EQ PUSH2 0x1DA5 JUMPI PUSH1 0x0 DUP1 REVERT JUMPDEST POP JUMP JUMPDEST PUSH2 0x1DB1 DUP2 PUSH2 0x1B87 JUMP JUMPDEST DUP2 EQ PUSH2 0x1DBC JUMPI PUSH1 0x0 DUP1 REVERT JUMPDEST POP JUMP JUMPDEST PUSH2 0x1DC8 DUP2 PUSH2 0x1BB3 JUMP JUMPDEST DUP2 EQ PUSH2 0x1DD3 JUMPI PUSH1 0x0 DUP1 REVERT JUMPDEST POP JUMP INVALID LOG2 PUSH5 0x6970667358 0x22 SLT KECCAK256 0xCB PUSH6 0x7318E21749EA PUSH6 0xC6A6A35E7BF7 DUP3 PUSH10 0x85F507F2E748D2CE6E1B TIMESTAMP STOP SWAP14 TIMESTAMP 0xE2 PUSH5 0x736F6C6343 STOP ADDMOD SMOD STOP CALLER "
				},
				"gasEstimates": {
					"creation": {
						"codeDepositCost": "1538400",
						"executionCost": "1610",
						"totalCost": "1540010"
					},
					"external": {
						"Comment(address,uint256)": "infinite",
						"Post(uint256,uint256)": "infinite",
						"User(address)": "infinite",
						"communityProfile(uint256)": "infinite",
						"createComment(uint256,uint256,string,string,string)": "infinite",
						"createCommunity(string)": "infinite",
						"createPost(string,string,bool,uint256,string,string)": "infinite",
						"createUser(string,string,string,uint256[])": "infinite"
					}
				},
				"methodIdentifiers": {
					"Comment(address,uint256)": "ce74aea9",
					"Post(uint256,uint256)": "11f0f0da",
					"User(address)": "230eb9c6",
					"communityProfile(uint256)": "20ce2fc1",
					"createComment(uint256,uint256,string,string,string)": "f1c5031a",
					"createCommunity(string)": "e6792922",
					"createPost(string,string,bool,uint256,string,string)": "f5596078",
					"createUser(string,string,string,uint256[])": "75d8e58d"
				}
			},
			"storageLayout": {
				"storage": [
					{
						"astId": 4,
						"contract": "contracts/Kobis.sol:Kosbis",
						"label": "communityCounter",
						"offset": 0,
						"slot": "0",
						"type": "t_uint256"
					},
					{
						"astId": 116,
						"contract": "contracts/Kobis.sol:Kosbis",
						"label": "communityProfile",
						"offset": 0,
						"slot": "1",
						"type": "t_mapping(t_uint256,t_struct(CommunityContent)37_storage)"
					},
					{
						"astId": 121,
						"contract": "contracts/Kobis.sol:Kosbis",
						"label": "User",
						"offset": 0,
						"slot": "2",
						"type": "t_mapping(t_address,t_struct(Profile)62_storage)"
					},
					{
						"astId": 127,
						"contract": "contracts/Kobis.sol:Kosbis",
						"label": "Post",
						"offset": 0,
						"slot": "3",
						"type": "t_mapping(t_uint256,t_array(t_struct(PostContent)81_storage)dyn_storage)"
					},
					{
						"astId": 133,
						"contract": "contracts/Kobis.sol:Kosbis",
						"label": "Comment",
						"offset": 0,
						"slot": "4",
						"type": "t_mapping(t_address,t_array(t_struct(CommentContent)100_storage)dyn_storage)"
					}
				],
				"types": {
					"t_address": {
						"encoding": "inplace",
						"label": "address",
						"numberOfBytes": "20"
					},
					"t_address_payable": {
						"encoding": "inplace",
						"label": "address payable",
						"numberOfBytes": "20"
					},
					"t_array(t_address)dyn_storage": {
						"base": "t_address",
						"encoding": "dynamic_array",
						"label": "address[]",
						"numberOfBytes": "32"
					},
					"t_array(t_struct(CommentContent)100_storage)dyn_storage": {
						"base": "t_struct(CommentContent)100_storage",
						"encoding": "dynamic_array",
						"label": "struct Kosbis.CommentContent[]",
						"numberOfBytes": "32"
					},
					"t_array(t_struct(PostContent)81_storage)dyn_storage": {
						"base": "t_struct(PostContent)81_storage",
						"encoding": "dynamic_array",
						"label": "struct Kosbis.PostContent[]",
						"numberOfBytes": "32"
					},
					"t_array(t_struct(advert)17_storage)dyn_storage": {
						"base": "t_struct(advert)17_storage",
						"encoding": "dynamic_array",
						"label": "struct Kosbis.advert[]",
						"numberOfBytes": "32"
					},
					"t_array(t_uint256)dyn_storage": {
						"base": "t_uint256",
						"encoding": "dynamic_array",
						"label": "uint256[]",
						"numberOfBytes": "32"
					},
					"t_bool": {
						"encoding": "inplace",
						"label": "bool",
						"numberOfBytes": "1"
					},
					"t_mapping(t_address,t_array(t_struct(CommentContent)100_storage)dyn_storage)": {
						"encoding": "mapping",
						"key": "t_address",
						"label": "mapping(address => struct Kosbis.CommentContent[])",
						"numberOfBytes": "32",
						"value": "t_array(t_struct(CommentContent)100_storage)dyn_storage"
					},
					"t_mapping(t_address,t_struct(Profile)62_storage)": {
						"encoding": "mapping",
						"key": "t_address",
						"label": "mapping(address => struct Kosbis.Profile)",
						"numberOfBytes": "32",
						"value": "t_struct(Profile)62_storage"
					},
					"t_mapping(t_uint256,t_array(t_struct(PostContent)81_storage)dyn_storage)": {
						"encoding": "mapping",
						"key": "t_uint256",
						"label": "mapping(uint256 => struct Kosbis.PostContent[])",
						"numberOfBytes": "32",
						"value": "t_array(t_struct(PostContent)81_storage)dyn_storage"
					},
					"t_mapping(t_uint256,t_struct(CommunityContent)37_storage)": {
						"encoding": "mapping",
						"key": "t_uint256",
						"label": "mapping(uint256 => struct Kosbis.CommunityContent)",
						"numberOfBytes": "32",
						"value": "t_struct(CommunityContent)37_storage"
					},
					"t_string_storage": {
						"encoding": "bytes",
						"label": "string",
						"numberOfBytes": "32"
					},
					"t_struct(CommentContent)100_storage": {
						"encoding": "inplace",
						"label": "struct Kosbis.CommentContent",
						"members": [
							{
								"astId": 88,
								"contract": "contracts/Kobis.sol:Kosbis",
								"label": "author",
								"offset": 0,
								"slot": "0",
								"type": "t_address_payable"
							},
							{
								"astId": 90,
								"contract": "contracts/Kobis.sol:Kosbis",
								"label": "comId",
								"offset": 0,
								"slot": "1",
								"type": "t_uint256"
							},
							{
								"astId": 92,
								"contract": "contracts/Kobis.sol:Kosbis",
								"label": "postId",
								"offset": 0,
								"slot": "2",
								"type": "t_uint256"
							},
							{
								"astId": 94,
								"contract": "contracts/Kobis.sol:Kosbis",
								"label": "post",
								"offset": 0,
								"slot": "3",
								"type": "t_string_storage"
							},
							{
								"astId": 96,
								"contract": "contracts/Kobis.sol:Kosbis",
								"label": "time",
								"offset": 0,
								"slot": "4",
								"type": "t_uint256"
							},
							{
								"astId": 99,
								"contract": "contracts/Kobis.sol:Kosbis",
								"label": "file",
								"offset": 0,
								"slot": "5",
								"type": "t_struct(fileContent)86_storage"
							}
						],
						"numberOfBytes": "224"
					},
					"t_struct(CommunityContent)37_storage": {
						"encoding": "inplace",
						"label": "struct Kosbis.CommunityContent",
						"members": [
							{
								"astId": 19,
								"contract": "contracts/Kobis.sol:Kosbis",
								"label": "name",
								"offset": 0,
								"slot": "0",
								"type": "t_string_storage"
							},
							{
								"astId": 21,
								"contract": "contracts/Kobis.sol:Kosbis",
								"label": "uid",
								"offset": 0,
								"slot": "1",
								"type": "t_uint256"
							},
							{
								"astId": 23,
								"contract": "contracts/Kobis.sol:Kosbis",
								"label": "admin",
								"offset": 0,
								"slot": "2",
								"type": "t_address_payable"
							},
							{
								"astId": 26,
								"contract": "contracts/Kobis.sol:Kosbis",
								"label": "members",
								"offset": 0,
								"slot": "3",
								"type": "t_array(t_address)dyn_storage"
							},
							{
								"astId": 28,
								"contract": "contracts/Kobis.sol:Kosbis",
								"label": "membersNum",
								"offset": 0,
								"slot": "4",
								"type": "t_uint256"
							},
							{
								"astId": 32,
								"contract": "contracts/Kobis.sol:Kosbis",
								"label": "advertisement",
								"offset": 0,
								"slot": "5",
								"type": "t_array(t_struct(advert)17_storage)dyn_storage"
							},
							{
								"astId": 34,
								"contract": "contracts/Kobis.sol:Kosbis",
								"label": "adPrice",
								"offset": 0,
								"slot": "6",
								"type": "t_uint256"
							},
							{
								"astId": 36,
								"contract": "contracts/Kobis.sol:Kosbis",
								"label": "postNum",
								"offset": 0,
								"slot": "7",
								"type": "t_uint256"
							}
						],
						"numberOfBytes": "256"
					},
					"t_struct(PostContent)81_storage": {
						"encoding": "inplace",
						"label": "struct Kosbis.PostContent",
						"members": [
							{
								"astId": 64,
								"contract": "contracts/Kobis.sol:Kosbis",
								"label": "name",
								"offset": 0,
								"slot": "0",
								"type": "t_string_storage"
							},
							{
								"astId": 66,
								"contract": "contracts/Kobis.sol:Kosbis",
								"label": "post",
								"offset": 0,
								"slot": "1",
								"type": "t_string_storage"
							},
							{
								"astId": 68,
								"contract": "contracts/Kobis.sol:Kosbis",
								"label": "time",
								"offset": 0,
								"slot": "2",
								"type": "t_uint256"
							},
							{
								"astId": 70,
								"contract": "contracts/Kobis.sol:Kosbis",
								"label": "hideIdentity",
								"offset": 0,
								"slot": "3",
								"type": "t_bool"
							},
							{
								"astId": 72,
								"contract": "contracts/Kobis.sol:Kosbis",
								"label": "author",
								"offset": 1,
								"slot": "3",
								"type": "t_address"
							},
							{
								"astId": 74,
								"contract": "contracts/Kobis.sol:Kosbis",
								"label": "community",
								"offset": 0,
								"slot": "4",
								"type": "t_uint256"
							},
							{
								"astId": 77,
								"contract": "contracts/Kobis.sol:Kosbis",
								"label": "file",
								"offset": 0,
								"slot": "5",
								"type": "t_struct(fileContent)86_storage"
							},
							{
								"astId": 80,
								"contract": "contracts/Kobis.sol:Kosbis",
								"label": "comments",
								"offset": 0,
								"slot": "7",
								"type": "t_array(t_uint256)dyn_storage"
							}
						],
						"numberOfBytes": "256"
					},
					"t_struct(Profile)62_storage": {
						"encoding": "inplace",
						"label": "struct Kosbis.Profile",
						"members": [
							{
								"astId": 39,
								"contract": "contracts/Kobis.sol:Kosbis",
								"label": "addr",
								"offset": 0,
								"slot": "0",
								"type": "t_address_payable"
							},
							{
								"astId": 41,
								"contract": "contracts/Kobis.sol:Kosbis",
								"label": "name",
								"offset": 0,
								"slot": "1",
								"type": "t_string_storage"
							},
							{
								"astId": 43,
								"contract": "contracts/Kobis.sol:Kosbis",
								"label": "bio",
								"offset": 0,
								"slot": "2",
								"type": "t_string_storage"
							},
							{
								"astId": 45,
								"contract": "contracts/Kobis.sol:Kosbis",
								"label": "img",
								"offset": 0,
								"slot": "3",
								"type": "t_string_storage"
							},
							{
								"astId": 48,
								"contract": "contracts/Kobis.sol:Kosbis",
								"label": "followers",
								"offset": 0,
								"slot": "4",
								"type": "t_array(t_address)dyn_storage"
							},
							{
								"astId": 50,
								"contract": "contracts/Kobis.sol:Kosbis",
								"label": "followersNum",
								"offset": 0,
								"slot": "5",
								"type": "t_uint256"
							},
							{
								"astId": 52,
								"contract": "contracts/Kobis.sol:Kosbis",
								"label": "balance",
								"offset": 0,
								"slot": "6",
								"type": "t_uint256"
							},
							{
								"astId": 54,
								"contract": "contracts/Kobis.sol:Kosbis",
								"label": "postNum",
								"offset": 0,
								"slot": "7",
								"type": "t_uint256"
							},
							{
								"astId": 56,
								"contract": "contracts/Kobis.sol:Kosbis",
								"label": "verfied",
								"offset": 0,
								"slot": "8",
								"type": "t_bool"
							},
							{
								"astId": 59,
								"contract": "contracts/Kobis.sol:Kosbis",
								"label": "communities",
								"offset": 0,
								"slot": "9",
								"type": "t_array(t_uint256)dyn_storage"
							},
							{
								"astId": 61,
								"contract": "contracts/Kobis.sol:Kosbis",
								"label": "communityNum",
								"offset": 0,
								"slot": "10",
								"type": "t_uint256"
							}
						],
						"numberOfBytes": "352"
					},
					"t_struct(advert)17_storage": {
						"encoding": "inplace",
						"label": "struct Kosbis.advert",
						"members": [
							{
								"astId": 6,
								"contract": "contracts/Kobis.sol:Kosbis",
								"label": "name",
								"offset": 0,
								"slot": "0",
								"type": "t_string_storage"
							},
							{
								"astId": 8,
								"contract": "contracts/Kobis.sol:Kosbis",
								"label": "desc",
								"offset": 0,
								"slot": "1",
								"type": "t_string_storage"
							},
							{
								"astId": 10,
								"contract": "contracts/Kobis.sol:Kosbis",
								"label": "image",
								"offset": 0,
								"slot": "2",
								"type": "t_string_storage"
							},
							{
								"astId": 12,
								"contract": "contracts/Kobis.sol:Kosbis",
								"label": "link",
								"offset": 0,
								"slot": "3",
								"type": "t_string_storage"
							},
							{
								"astId": 14,
								"contract": "contracts/Kobis.sol:Kosbis",
								"label": "addr",
								"offset": 0,
								"slot": "4",
								"type": "t_address_payable"
							},
							{
								"astId": 16,
								"contract": "contracts/Kobis.sol:Kosbis",
								"label": "price",
								"offset": 0,
								"slot": "5",
								"type": "t_uint256"
							}
						],
						"numberOfBytes": "192"
					},
					"t_struct(fileContent)86_storage": {
						"encoding": "inplace",
						"label": "struct Kosbis.fileContent",
						"members": [
							{
								"astId": 83,
								"contract": "contracts/Kobis.sol:Kosbis",
								"label": "fileIpfs",
								"offset": 0,
								"slot": "0",
								"type": "t_string_storage"
							},
							{
								"astId": 85,
								"contract": "contracts/Kobis.sol:Kosbis",
								"label": "fileType",
								"offset": 0,
								"slot": "1",
								"type": "t_string_storage"
							}
						],
						"numberOfBytes": "64"
					},
					"t_uint256": {
						"encoding": "inplace",
						"label": "uint256",
						"numberOfBytes": "32"
					}
				}
			},
			"userdoc": {
				"kind": "user",
				"methods": {},
				"version": 1
			}
		}
	}
}